:100000000C9469010C9491010C9491010C94910150
:100010000C9491010C9491010C9491010C94910118
:100020000C9491010C9491010C9491010C94910108
:100030000C9491010C9491010C9491010C949101F8
:100040000C94A6120C9491010C94E2110C94BC1126
:100050000C9491010C9491010C9491010C949101D8
:100060000C9497190C9491014E6F6E6500204020FE
:10007000004C6173742068656172746265617420FC
:1000800064657465637465643A20002D2D2D2D2DF3
:100090002D2D2D2D2D2D2D2D2D2D2D0044617465F3
:1000A0003A20002D2D2D2D2D2D2D2D2D2D2D2D2DAD
:1000B0002D2D2D00446F6E652E002E2E2E20004318
:1000C00072656174696E672066696C652000446FB3
:1000D0006E652E0052656164696E672070726F6A8A
:1000E000656374732E7478742066696C652E2E2E89
:1000F0002000446F6E652E005344206361726420BB
:10010000696E697469616C697A696E672E2E2E203A
:10011000002D2D2D2D2D2D2D2D2D2D2D2D2D2D2D3C
:100120002D2D2D2D2D2D2D0074696D65436C6F6364
:100130006B2076322E302E352D616C706861002D6B
:100140002D2D2D2D2D2D2D2D2D2D2D2D2D2D2D2DDF
:100150002D2D2D2D2D0076322E302E356100746917
:100160006D65436C6F636B0020414D0020504D0066
:1001700054696D65200044617465200054696D65A3
:10018000200044617465200054696D6572204D61E2
:10019000786564210068683A6D6D3A73730054693C
:1001A0006D65720054696D6572202068683A6D6DE6
:1001B0003A737300456C6170736564200053656C1D
:1001C000656374656400456C61707365642054698F
:1001D0006D65723A20002D0054696D65722053746C
:1001E0006F707065643A200053746F70706564219D
:1001F0000054696D65720054696D657220537461B5
:10020000727465643A20002D2D2D2D2D2D2D2D007D
:1002100053746172746564210054696D6572006D78
:100220006564696120646576696365004461746131
:10023000206C6F6767656420746F0053656C65633D
:100240007465640053656C6563746564007C3C3E52
:100250005E2B3D3F2F5B5D3B2C2A225C001F1C1F49
:100260001E1F1E1F1F1E1F1E1F000000002500282E
:10027000002B0000000000240027002A00040404D2
:10028000040404040402020202020203030303033F
:10029000030102040810204080010204081020011C
:1002A00002040810200000000800020100000304FE
:1002B0000700000000000000004572726F723A20D3
:1002C0000053797374656D204572726F722100005E
:1002D000372811241FBECFEFD8E0DEBFCDBF11E01D
:1002E000A0E0B1E0EEE4F7E502C005900D92A43D78
:1002F000B107D9F726E0A4EDB1E001C01D92A73106
:10030000B207E1F711E0C9E6D1E004C02197FE0190
:100310000E941B29C836D107C9F70E94C51A0C9440
:10032000A52B0C940000EF92FF920F931F93CF9395
:10033000DF93EC017901411551056105710511F457
:1003400082E13CC08B85833039F089E0440F551F32
:10035000661F771F8A95D1F79A01AB0168E1CE013C
:100360000E947117882311F084E028C08EEF0E944C
:10037000191787018EEFF81AF80181918F010E94F9
:1003800019170E151F05C1F78FEF0E9419178FEF70
:100390000E9419170E9420178A878F71853031F0CB
:1003A00081E18D83CE010E940E1709C068E572E0DD
:1003B000CE010E942317811107C085E18D83CE01F4
:1003C0000E940E1780E013C020E030E0A9016DE02C
:1003D000CE010E947117811104C00E94201788234A
:1003E00011F084E1EBCFCE010E940E1781E0DF9186
:1003F000CF911F910F91FF90EF900895809122026D
:100400008823A9F1409102015091030160910401F8
:100410007091050127E232E0809127049091280431
:100420000E949301811102C080E00895409123024F
:1004300050912402609125027091260241155105C8
:100440006105710591F027E232E0809127049091D7
:1004500028040E949301882339F3109223021092FA
:10046000240210922502109226021092220281E0AC
:100470000895EF92FF920F931F93CF93DF93EC01B8
:1004800039818881682F70E04A8150E0EDE5F2E023
:1004900091E09E1B292F2E0F231728F42491420F41
:1004A000511D3196F7CF333020F0837011F44F5F38
:1004B0005F4F8DE691E0689F9001699F300D789FB6
:1004C000300D1124215031096D5F7F4F769567956E
:1004D00076956795260F371F240F351FA8E1B0E0EA
:1004E0000E94962B2B817B018C01E20EF11C011DD9
:1004F000111DA8019701ACE3B0E00E94542B2C81A0
:100500007B018C01E20EF11C011D111DA801970158
:100510000E94542B2D81620F711D811D911DDF9151
:10052000CF911F910F91FF90EF900895AF92BF92DE
:10053000CF92DF92EF92FF920F931F93CF93DF93AF
:10054000EC016901C801820F931F8130924008F0CD
:1005500070C08E81882371F088819981AA81BB81C6
:10056000481759076A077B0729F48F819885C816B1
:10057000D906B0F5488359836A837B838B858330A2
:1005800039F089E0440F551F661F771F8A95D1F710
:100590009A01AB0161E1CE010E947117882319F025
:1005A00083E08D8346C00E949A125B010E9420174F
:1005B0008A878F3F49F40E949A126A197B096D322B
:1005C0007140A0F38FE003C08E3F31F08DE08D834A
:1005D000CE010E940E172DC018861F8281E08E83E7
:1005E0008F8198858C159D0540F40E9420178F817E
:1005F0009885019698878F83F3CF6701E00EF11EEF
:10060000CE14DF0431F00E942017F60181936F01B0
:10061000F7CF8F819885080F191F18870F83898559
:10062000882319F00115124048F0CE010E943E17B0
:1006300005C0CE010E940E1780E001C081E0DF916D
:10064000CF911F910F91FF90EF90DF90CF90BF90CF
:10065000AF9008958F929F92AF92BF92EF92FF92C8
:100660000F931F93CF934B015C01C42F8091020124
:1006700090910301A0910401B0910501881599059D
:10068000AA05BB0501F10E94FE01811102C080E0B4
:1006900020C087E2E82E82E0F82E00E012E020E0A1
:1006A00030E0B501A40180912704909128040E94B4
:1006B0009602882361F38092020190920301A09236
:1006C0000401B092050180912202C82BC09322023E
:1006D00081E0CF911F910F91FF90EF90BF90AF906D
:1006E0009F908F9008954F925F926F927F928F921A
:1006F0009F92AF92BF92CF92DF92EF92FF920F93B1
:100700001F93CF93DF93EC016A017B01280139012C
:10071000423051056105710510F480E073C0898590
:100720009A85AB85BC850196A11DB11D84179507DF
:10073000A607B70790F38B889C88AD88BE888F8901
:10074000803129F4BB27AF2D9E2D8D2D09C0DB01F3
:10075000CA0147E0B695A795979587954A95D1F731
:10076000880E991EAA1EBB1E809102019091030162
:10077000A0910401B091050188169906AA06BB064E
:1007800079F48F898031A1F4DD24EE24FF24C601A1
:10079000880F991FFC01E95DFD4F5182408219C00D
:1007A00040E0C501B4010E942A038111EACFB5CF10
:1007B000E894C7F8DD24EE24FF24C601880F991FB2
:1007C000880F991FFC01E95DFD4F408251826282D2
:1007D0007382809122028160809322028A89823012
:1007E00080F08D819E81AF81B885880E991EAA1EEA
:1007F000BB1E8092230290922402A0922502B09206
:10080000260281E0DF91CF911F910F91FF90EF9031
:10081000DF90CF90BF90AF909F908F907F906F9020
:100820005F904F9008958F929F92AF92BF92CF9218
:10083000DF92EF92FF920F931F93CF93DF93FC0110
:1008400081859285A385B4850196A11DB11D84176C
:100850009507A607B70710F480E05CC083899489E8
:10086000A589B689C789C03129F4852E962EA72E71
:10087000BB2409C04A015B01C7E0B694A7949794D2
:100880008794CA95D1F7E9016A017B018F01BC0108
:10089000CD01680D791D8A1D9B1D809002019090ED
:1008A0000301A0900401B0900501681579058A053F
:1008B0009B0599F4F80187898031A9F4B701A60155
:1008C000552766277727440F551FFA01E95DFD4F2D
:1008D00080819181A0E0B0E018C040E00E942A032E
:1008E0008111E8CFB9CFB701A6014F775527662709
:1008F0007727440F551F440F551FFA01E95DFD4F3F
:1009000080819181A281B381BF7088839983AA83FA
:10091000BB8381E0DF91CF911F910F91FF90EF900A
:10092000DF90CF90BF90AF909F908F9008954F929F
:100930005F926F927F92AF92BF92CF92DF92EF92CF
:10094000FF920F931F93CF93DF9300D000D0CDB7CA
:10095000DEB78C0149835A836B837C835901C12C98
:10096000D12C7601412C82E0582E612C712C4981CA
:100970005A816B817C819E012F5F3F4FC8010E948D
:100980001304882351F1D301C201F801058404C086
:10099000880F991FAA1FBB1F0A94D2F7C80ED91E31
:1009A000EA1EFB1E49815A816B817C8187898031D7
:1009B00029F088EF9FEFAFEFBFE004C088EF9FEF13
:1009C000A0E0B0E0481759076A077B0780F2F501FD
:1009D000C082D182E282F38281E00F900F900F906B
:1009E0000F90DF91CF911F910F91FF90EF90DF90CB
:1009F000CF90BF90AF907F906F905F904F90089591
:100A00008F929F92AF92BF92CF92DF92EF92FF921E
:100A10000F931F93CF93DF93EC018D81811102C05F
:100A200080E077C00B891C892D893E890417150742
:100A300026073707A8F36A017B01823029F4CA86AA
:100A4000DB86EC86FD860DC0C114D104E104F104FF
:100A500051F41E821F82188619861A861B861C86F0
:100A60001D8681E056C08A849B84AC84BD84EB8D56
:100A7000FC8D258530E0275F3F4FB501A401415033
:100A8000510961097109022E04C076956795579541
:100A900047950A94D2F7D701C6010197A109B10978
:100AA00004C0B695A795979587952A95D2F7841790
:100AB0009507A607B70720F089288A288B2849F4CC
:100AC0004F89588D698D7A8D4E835F8368877987CA
:100AD00004C0841B950BA60BB70B4C015D018E0166
:100AE0000A5F1F4F81149104A104B10409F4A7CF38
:100AF0004E815F816885798598018B8D9C8D0E94E0
:100B0000130491E0891A9108A108B1088111EACF74
:100B100087CFDF91CF911F910F91FF90EF90DF90E2
:100B2000CF90BF90AF909F908F9008953F924F923B
:100B30005F926F927F928F929F92AF92BF92CF926D
:100B4000DF92EF92FF920F931F93CF93DF93CDB776
:100B5000DEB72C970FB6F894DEBF0FBECDBF5C0199
:100B6000DC015B968D909C905C971696CD90DD9005
:100B7000ED90FC901997C114D104E104F10439F00F
:100B8000BFEFCB1ADB0AEB0AFB0A312C07C0F401DA
:100B9000C080D180E280F38033243394F4018185D6
:100BA0009285A385B4859C01AD012F5F3F4F4F4FC8
:100BB0005F4F29873A874B875C87260137011D8263
:100BC0001E821F821886F40181859285A385B485D3
:100BD0002D813E814F815885281739074A075B07C9
:100BE00008F063C089859A85AB85BC858C159D0509
:100BF000AE05BF0550F482E0C82ED12CE12CF12CBB
:100C000092E0492E512C612C712C9E012F5F3F4F99
:100C1000B701A601C4010E941304882309F445C04A
:100C200089819A81AB81BC81892B8A2B8B2B41F0E6
:100C3000260137019FEF491A590A690A790A05C046
:100C4000C414D504E604F70491F02D813E814F8150
:100C500058852F5F3F4F4F4F5F4F2D833E834F830C
:100C600058873FEFC31AD30AE30AF30AACCF0FEF5A
:100C70001FEF2FEF3FE0B301A201C4010E947303F5
:100C8000882399F0D50116964D915D916D917C91D7
:100C90001997411551056105710549F093018201CC
:100CA000C4010E947303811102C080E02AC0D501F3
:100CB00016964D925D926D927C921997332051F069
:100CC000D301C2010196A11DB11DF401808391835E
:100CD000A283B383F5018789908DA18DB28D892B75
:100CE0008A2B8B2B69F4D50157964D925D926D92AC
:100CF0007C925A9714968C911497806814968C93D2
:100D000081E02C960FB6F894DEBF0FBECDBFDF9109
:100D1000CF911F910F91FF90EF90DF90CF90BF90F8
:100D2000AF909F908F907F906F905F904F903F908B
:100D300008950F931F93CF93DF93EC018D81882348
:100D400009F447C08C8187FF3EC06E857F85888906
:100D5000998941E00E942A038823D9F18A8920E2F7
:100D6000829FC0011124FC01E95DFD4F309789F19C
:100D70002D81223040F44B895C896D897E89448FB6
:100D8000558F668F778F4F89588D698D7A8D8C013D
:100D9000095D1D4FF801538F428F758B648BE09175
:100DA000D401F091D501309759F0BC01635C7D4FBF
:100DB000815C9D4F0995F801808D918D938B828B7D
:100DC0008C818F778C83DF91CF911F910F910C9441
:100DD000FE0180E0DF91CF911F910F9108952F9236
:100DE0003F924F925F926F927F928F929F92AF92BB
:100DF000BF92CF92DF92EF92FF920F931F93CF9308
:100E0000DF9300D000D0CDB7DEB78C016B013A0183
:100E1000DC0115968C9115978130C9F414968C914C
:100E200081FF15C082FF1DC0F8014389548965897F
:100E3000768982859385A485B58584179507A6074D
:100E4000B70779F0C8010E94000581110AC081E04E
:100E500090E0D80113969C938E93129780E090E0D7
:100E600048C1430184C0D8015B968D919C915C97E9
:100E7000FC0154802FEF250D1A012B0139E0569407
:100E80004794379427943A95D1F7522E52207A01FD
:100E9000F1E0FF22552009F476C080E092E08E193F
:100EA0009F0954018815990508F45C01D8015B96E7
:100EB0002D913C915C9716968D919D910D90BC91D2
:100EC000A02D0297A109B109F901058404C0880F7A
:100ED000991FAA1FBB1F0A94D2F7468557856089C0
:100EE0007189840F951FA61FB71F9C01AD01250DA9
:100EF000311D411D511D19012A01A11432E0B30613
:100F000009F088C08091020190910301A091040131
:100F1000B091050182159305A405B50559F48FEF2D
:100F20009FEFDC018093020190930301A0930401E1
:100F3000B09305019601B201A1018091270490911F
:100F400028040E949301882309F481CF9EEFD91AC7
:100F50008A189B08F80182859385A485B5858A0D3A
:100F60009B1DA11DB11D82879387A487B587D801DA
:100F70001A964D915D916D917C911D97811491040C
:100F800009F071CF87C0E114F10409F086CF1696FD
:100F90004D915D916D917C911997411551056105B8
:100FA000710559F457968D919D910D90BC91A02D8E
:100FB0000097A105B10541F521C09E012F5F3F4F6C
:100FC0000E941304882309F44ACF89819A81AB8156
:100FD000BC81F801238D348DF9012789203129F056
:100FE00048EF5FEF6FEF7FE004C048EF5FEF60E036
:100FF00070E084179507A607B70730F0C8010E9474
:10100000960581114ACF23CFF80186839783A08765
:10101000B18743CFE114F10429F5D8011A964D9117
:101020005D916D917C911D9753968D919D910D9041
:10103000BC91A02D481759076A077B0798F00E94BA
:10104000FE01882309F403CF2092020130920301AC
:1010500040920401509205018091220281608093A8
:10106000220208C041E0C201B1010E942A03882384
:1010700009F4EDCED601F701E95DFD4FCF018A0DF0
:101080009B1DE817F90719F02D912193FACFCA0C8F
:10109000DB1C5ECF5396CD90DD90ED90FC90569783
:1010A00014968C91C416D506E606F70640F4F801AE
:1010B000438B548B658B768B806884830DC0209125
:1010C000D4013091D501232B39F06114710421F042
:1010D0008068D80114968C93F801848183FD02C046
:1010E000C30107C0C8010E949906882309F4AFCE46
:1010F000F7CF0F900F900F900F90DF91CF911F912E
:101100000F91FF90EF90DF90CF90BF90AF909F90A6
:101110008F907F906F905F904F903F902F900895A9
:10112000CF93DF931F92CDB7DEB7698341E050E0E4
:10113000BE016F5F7F4F0E94EF060F90DF91CF914E
:1011400008958F929F92AF92BF92CF92DF92EF92CB
:10115000FF920F931F93CF93DF9300D000D0CDB7B2
:10116000DEB77C0180E2689F600111249601295D51
:101170003D4FD9011B969C91917121F0842F82746F
:1011800009F097C0142FF701628B809102019091B2
:101190000301A0910401B091050186879787A08B78
:1011A000B18BF601E95DFD4F4489558960E070E03F
:1011B000BA0155274427D70157964D935D936D93F8
:1011C0007C935A97828D938DA0E0B0E0482B592BE9
:1011D0006A2B7B2BD70157964D935D936D937C9330
:1011E0005A97D9011B968C91887159F4848D958DED
:1011F000A68DB78DF701838B948BA58BB68B81E081
:1012000012C0803109F055C097012D5E3F4FD701C4
:101210005B968D919C915C970E949704882309F4BA
:1012200048C084E0F7018583812F8F70D701149621
:101230008C931497F70116821782108611861A96DE
:101240001D921D921D921C921D9716FF34C015967B
:101250008C91813071F511FF2CC0F70143895489BD
:1012600065897689452B462B472B09F461C040E000
:1012700050E0BA01C7010E9400058823D1F0F701B0
:101280008788908CA18CB28CC38CD48C82E090E047
:10129000A0E0B0E0F60180839183A283B3839E0136
:1012A0002F5F3F4FB501A401C6010E9413048111B5
:1012B00004C080E03DC081E03BC000E010E0980148
:1012C000B501A401C6010E947303882391F38980AC
:1012D0009A80AB80BC80D60157968C91803129F0E2
:1012E00088EF9FEFAFEFBFE004C088EF9FEFA0E073
:1012F000B0E088169906AA06BB0688F2D701579671
:101300001D921D921D921C925A97F701138A148AFE
:10131000158A168A848180688483C7010E94990691
:10132000882339F240E050E0BA01C7010E9400056D
:101330000F900F900F900F90DF91CF911F910F9111
:10134000FF90EF90DF90CF90BF90AF909F908F90E5
:1013500008954F925F926F927F929F92AF92BF9249
:10136000CF92DF92EF92FF920F931F93CF93DF9371
:10137000CDB7DEB72B970FB6F894DEBF0FBECDBF4B
:101380007C01DC011596AC90A11097C1FE0131964D
:101390006F0190E28BE08E0F91938E13FDCFDA01F7
:1013A00030E087E09D91992339F19E3219F0EDE408
:1013B000F2E00AC08A3009F481C138E08AE0F2CF55
:1013C0003196491709F47AC144914111F9CF831735
:1013D00008F474C14FED490F4E3508F06FC141E07C
:1013E000430FF601E30FF11D3FE9390F3A3108F4DD
:1013F00090529083342FD6CF8981803209F45EC118
:10140000B22E8B01DB015B968D919C915C97F7016D
:10141000948F838F16961D921D921D921C92199780
:10142000FB011286138614861586712CF8018285BD
:101430009385A485B5854389548965897689841700
:101440009507A607B70708F061C025E0B695A795F0
:10145000979587952A95D1F7F82FFF709F2ED80181
:1014600015968C91823008F429C1C8010E94591840
:1014700097FD24C1F80182859385A485B5854F9693
:10148000A11DB11D82879387A487B587F0E29F9E37
:10149000C0011124BC01695D7D4F6115710509F41E
:1014A0000DC1DB012C91222319F0253EC1F427C088
:1014B00071100EC0F701928A409102015091030110
:1014C000609104017091050146875787608B718B8D
:1014D000FC01E95DFD4F8081811113C015C04BE017
:1014E00050E0C6010E941D2B892B09F09FCF8B2D48
:1014F0008073803309F4E2C04B2D692DD9C0772069
:10150000C9F27724739492CF772473948B2D8271D0
:10151000823109F0D3C07720D1F0D7011E966D91AA
:101520007D918D919C91519741E00E942A038823DF
:1015300009F4C4C0F7010289F0E20F9F8001112471
:10154000095D1D4F0115110509F079C0B7C0D8011B
:1015500015968C91823009F4B1C0C8010E9496059D
:10156000882309F4ABC0D8015B96ED91FC915C97A0
:1015700016964D905D906D907C901997B2E04B1A45
:10158000510861087108058404C0440C551C661C90
:10159000771C0A94D2F786859785A089B189480E71
:1015A000591E6A1E7B1E9480E1E04E1A51086108A4
:1015B0007108992009F10E94FE01882309F47EC078
:1015C000E7E2F2E0119224E0E732F207D9F7D30123
:1015D000C201890D911DA11DB11D8093020190933F
:1015E0000301A0930401B093050180912202816060
:1015F000809322029A94DDCFD8015B96ED91FC9105
:101600005C9780E092E0A0E0B0E0058404C0880F21
:10161000991FAA1FBB1F0A94D2F7F8014389548966
:1016200065897689840F951FA61FB71F838B948BBE
:10163000A58BB68BD70152961C9207E212E080E28E
:10164000F80111928A95E9F78BE0F601D801019033
:101650000D928A95E1F7E091D401F091D501309790
:1016600039F0B801625F7F4FC801409609950DC0FF
:1016700081E298E2D80151969C938E93509780E036
:1016800098E01F969C938E931E97F801808991890C
:10169000938B828B918F808F86859785978B868B96
:1016A0000E94FE01882351F04B2DD70152966C9178
:1016B000C7010E94A108A82E01C0A12C8A2D2B963B
:1016C0000FB6F894DEBF0FBECDBFDF91CF911F9153
:1016D0000F91FF90EF90DF90CF90BF90AF909F90D1
:1016E0007F906F905F904F900895CF93DF93EC01C0
:1016F0000E949906882311F01D8281E0DF91CF912D
:1017000008958FB7F894809121028FBF089590912A
:1017100095049111FCCF91E09093950490939404DB
:101720002FEF2093930410929204260F209391049C
:101730009093900490919004880F892B809390044B
:1017400080918F04813061F410928F048091900415
:101750008093BB008091BC0083FDF8CF85EC01C075
:1017600085EE8093BC00809195048130E1F38091F7
:101770009204861710F460919204AFE6B4E02FE46F
:1017800034E0F9018E2F821B861718F48D91819316
:10179000F9CF862F089591E090934E048093C10570
:1017A00010924D0410924C040895613208F060E2EA
:1017B0000E94870B10924B0480934A040895209155
:1017C0004C049091C105213208F04AC080919504E3
:1017D0008111FCCF32E03093950431E030939404D2
:1017E0003FEF309393041092920420939104AAE265
:1017F000B4E04FE654E0FA013E2F341B321718F4E0
:101800003D913193F9CF1092900420919004990F5B
:10181000922B9093900490918F04913061F41092E8
:101820008F04909190049093BB009091BC0093FD25
:10183000F8CF95EC01C095EE9093BC009091950483
:101840009230E1F3909193049F3F79F0809193045B
:10185000803241F080919304803331F084E005C000
:1018600081E003C082E001C083E010924D04109239
:101870004C0410924E04089590E0FC01EF56FD4F89
:101880002491FC01E358FD4F8491882399F090E066
:10189000880F991FFC01ED58FD4FA591B491FC01F3
:1018A000E759FD4F859194918FB7F894EC91E22B15
:1018B000EC938FBF089540E0682F8AE895E00C9480
:1018C000AD14CF93DF93CDB7DEB728970FB6F8945A
:1018D000DEBF0FBECDBF98E0ECE0F1E0DE01119677
:1018E00001900D929A95E1F79091A205961710F448
:1018F0006FEF690FFE013196E60FF11DE60FF11D46
:101900009081890F806828960FB6F894DEBF0FBECD
:10191000CDBFDF91CF910C945B0C81E00E945B0CFA
:101920008BE39FE10197F1F70895CF93C82F88E6E5
:101930000E94CB0B6C2F70E0685F7F4F8EE795E0C5
:101940000E9470160E94DF0B61E088E60E94870B00
:1019500010924B0480934A048EE795E00E9424166F
:10196000CF910895CF93DF93D82FC1E082FB442716
:1019700040F94C2768E085EA95E00E94F512D1FB1A
:10198000442740F94C2767E085EA95E00E94F5126C
:101990004D2F41704C2766E085EA95E0DF91CF91AD
:1019A0000C94F5120F931F93CF93DF93EC01462F06
:1019B00050E060E070E02AE00E9449118C0160EB89
:1019C00071E0CE010E943411800F911FDF91CF9101
:1019D0001F910F910895462F50E060E070E02AE0DB
:1019E0000C9449112F923F924F925F926F927F9287
:1019F0008F929F92AF92BF92CF92DF92EF92FF921F
:101A00000F931F93CF93DF93CDB7DEB7C756D1099E
:101A10000FB6F894DEBF0FBECDBF5C014B01A6969A
:101A20004FAFA6973E018EE1680E711C6FE575E021
:101A3000C3010E94D3171C821B8288E291E09A8323
:101A400089831E827401FE0131966F0123011F01FB
:101A50006FE270E0C7010E94332B0097F1F1F701AC
:101A600020812F3221F4FFEFEF1AFF0AF1CF8E19F8
:101A70008D3008F08CE0082F10E0A801B701CE01EE
:101A8000885A9F4F0E94452BE8E5F0E0EC0FFD1FC0
:101A9000E00FF11F1082C6010E94750B21E0AE011C
:101AA000485A5F4FB201C6010E94A90981110AC0BC
:101AB0001EAE1DAE88E291E09CAF8BAF21961FAEAB
:101AC000219717C0E00EF11EC2010E94750B942DE4
:101AD000852D2601C92ED82EBBCFC701881999099B
:101AE000A8969FAF8EAFA897B201CE01CB960E9469
:101AF000D317A896EEADFFADA8978E0E9F1EF401EA
:101B00008081811109C0BE01655C7F4FC1010E94C7
:101B1000D31745EC51E04BC019A218A288E291E01E
:101B20009F8F8E8F1BA221968FAD2197811113C09D
:101B3000F5011382128288EE93E0A0E0B0E0848386
:101B40009583A683B78388E491E091838083128E86
:101B5000118E148630C08250A6962FADA697A40190
:101B6000823040F46FE575E0C3010E94A90981113C
:101B70000DC0DECFBE01655C7F4FC3010E94A90985
:101B80008823B1F2CE01CB960E94750BA6968FAD3D
:101B9000A697867039F049A95AA96BA97CA9C301F7
:101BA0000E940005B301C1010E94D317A401B10135
:101BB000C5010E942418C501C959DF4F0FB6F8941A
:101BC000DEBF0FBECDBFDF91CF911F910F91FF9070
:101BD000EF90DF90CF90BF90AF909F908F907F90CD
:101BE0006F905F904F903F902F9008950F931F93A9
:101BF000CF93DF93EC010E949A12688779878A87D6
:101C00009B87CE010E94631997FF17C00E949A120A
:101C1000088519852A853B85DC01CB01801B910B4A
:101C2000A20BB30B0C811D812E813F818017910780
:101C3000A207B30730F38FEF9FEFDF91CF911F9192
:101C40000F9108958F929F92AF92BF92CF92DF92A1
:101C5000EF92FF92CF93DF93C82F85E395E09093A7
:101C6000280480932704CC2369F1C53010F080E06C
:101C70000DC140E060E070E0CB010E942A038823A0
:101C8000B1F320E1C29FC0011124895E9D4FFC0188
:101C9000E254FE4F20812F7751F73C9640815181CD
:101CA00062817381443651056105710500F33497F3
:101CB000C080D180E280F380C114D104E104F1043A
:101CC00021F4D5CFC12CD12C760140E0C701B6015B
:101CD0000E942A03882359F28091320290913302A4
:101CE0008115924021F6A0913702AA2309F4BFCFB3
:101CF00060913502709136026115710509F4B7CF14
:101D000020913402222309F4B2CFA09353052093EB
:101D1000450580E030E0E1E0F0E0C82FAF01082E9B
:101D200002C0440F551F0A94E2F72417350741F00B
:101D3000982F8F5F983089F789E080934E0597CF71
:101D400080934E0520913D0230913E0221153105D0
:101D500019F040E050E008C020914B0230914C0255
:101D600040914D0250914E02209346053093470515
:101D7000409348055093490546015701860E971E2A
:101D8000A11CB11C8092540590925505A092560555
:101D9000B0925705E0913802F0913902F0935A055C
:101DA000E0935905B0E00E94542B860E971EA81EA2
:101DB000B91E80925B0590925C05A0925D05B09281
:101DC0005E0585E0EE0FFF1F8A95E1F7E150FE4FBB
:101DD000EF2FFF27E6958E0E9F1EA11CB11C80924F
:101DE0004F0590925005A0925105B0925205209156
:101DF0003A0230913B022115310521F0A90160E042
:101E000070E008C040914702509148026091490239
:101E100070914A02D701C60188199909AA09BB091C
:101E2000840F951FA61FB71F04C0B695A795979559
:101E30008795CA95D2F780934A0590934B05A09356
:101E40004C05B0934D05853F2FE09207A105B105E4
:101E500010F48CE018C0853F9F4FA105B10510F428
:101E600080E111C08091530290915402A0915502DB
:101E7000B091560280935B0590935C05A0935D053D
:101E8000B0935E0580E28093580581E0DF91CF91A9
:101E9000FF90EF90DF90CF90BF90AF909F908F908A
:101EA000089510924B0410924A0410924D0410921F
:101EB0004C041092950481E08093940410928F0456
:101EC00061E082E10E94141261E083E10E94141239
:101ED000E9EBF0E080818E7F808380818D7F80833D
:101EE00088E48093B80085E48093BC000895CF9384
:101EF000DF93C82FD62F88E60E94CB0B8C2F90E063
:101F0000BC01685F7F4F8EE795E00E9470166D2FD1
:101F10008EE795E00E947016DF91CF910C94DF0B55
:101F2000CF92DF92EF92FF92CF93DF936C01990FE4
:101F3000EE08FF08F7FE1BC06DE28AE895E00E94FC
:101F40000911EC0144275527BA014C195D096E09A6
:101F50007F092AE08AE895E00E9449118C0F9D1FB5
:101F6000DF91CF91FF90EF90DF90CF9008952AE01E
:101F7000B701A6018AE895E0DF91CF91FF90EF903D
:101F8000DF90CF900C944911CF92DF92EF92FF92A5
:101F90000F931F93CF93DF936C017A018B01C0E005
:101FA000D0E0CE15DF0589F0D8016D918D01D60105
:101FB000ED91FC910190F081E02DC6010995892BEE
:101FC00011F47E0102C02196ECCFC701DF91CF91C1
:101FD0001F910F91FF90EF90DF90CF900895FC013B
:101FE000918D828D981761F0828DDF01A80FB11D50
:101FF0005D968C91928D9F5F9F73928F90E0089574
:102000008FEF9FEF0895FC01918D828D981731F02D
:10201000828DE80FF11D858D90E008958FEF9FEF81
:102020000895FC01918D228D892F90E0805C9F4F57
:10203000821B91098F739927089586E994E00E9485
:10204000111021E0892B09F420E0822F0895FC0172
:10205000848DDF01A80FB11DA35ABF4F2C91848D31
:1020600090E001968F739927848FA689B7892C9366
:10207000A089B1898C9180648C93938D848D981301
:1020800006C00288F389E02D80818F7D80830895CA
:10209000EF92FF920F931F93CF93DF93EC0181E0B8
:1020A000888F9B8D8C8D981305C0E889F989808174
:1020B00085FD24C0F62E0B8D10E00F5F1F4F0F73B0
:1020C0001127E02E8C8DE8120CC00FB607FCFACF5A
:1020D000E889F989808185FFF5CFCE010E9427101C
:1020E000F1CF8B8DFE01E80FF11DE35AFF4FF08217
:1020F0000B8FEA89FB898081806207C0EE89FF89A6
:102100006083E889F98980818064808381E090E040
:10211000DF91CF911F910F91FF90EF900895CF9392
:10212000DF93EC01888D8823C9F0EA89FB898081DF
:1021300085FD05C0A889B9898C9186FD0FC00FB6B1
:1021400007FCF5CF808185FFF2CFA889B9898C91F2
:1021500085FFEDCFCE010E942710E7CFDF91CF9111
:10216000089580E090E0892B29F00E941D108111D4
:102170000C94000008953FB7F8948091C7059091A2
:10218000C805A091C905B091CA0526B5A89B05C090
:102190002F3F19F00196A11DB11D3FBFBA2FA92FE6
:1021A000982F8827820F911DA11DB11DBC01CD0163
:1021B00042E0660F771F881F991F4A95D1F708954F
:1021C0000E94182B0F931F93CF93DF93EC0188810C
:1021D0009981009729F02A813B812617370788F4D7
:1021E0008B016F5F7F4F0E944E2A009761F09983A9
:1021F00088831B830A832C813D81232B11F4FC01EE
:10220000108281E001C080E0DF91CF911F910F919A
:102210000895DC01ED91FC910190F081E02D09948D
:10222000EF92FF920F931F93CF93DF938C017B016B
:10223000C0E0D0E0F701EC0FFD1F6491662361F070
:10224000D801ED91FC910190F081E02DC801099534
:10225000892B11F02196EECFCE01DF91CF911F9106
:102260000F91FF90EF9008956115710579F0FB01D2
:1022700001900020E9F73197AF01461B570BDC01B5
:10228000ED91FC910280F381E02D099480E090E0D3
:1022900008954F925F926F927F92EF92FF920F9309
:1022A0001F93CF93DF93CDB7DEB7A1970FB6F89406
:1022B000DEBF0FBECDBF7C01FA01CB0119A22230D7
:1022C00008F42AE08E010F5D1F4F422E512C612C25
:1022D000712CBF01A30192010E94F928F901CA01E2
:1022E000015011096A3014F4605D01C0695CD801C5
:1022F0006C93232B242B252B61F7B801C7010E9477
:102300003411A1960FB6F894DEBF0FBECDBFDF919A
:10231000CF911F910F91FF90EF907F906F905F9002
:102320004F9008950F931F93CF93DF93EC010E947A
:1023300034118C0160EB71E0CE010E943411800FEA
:10234000911FDF91CF911F910F9108950F931F93CC
:10235000CF93DF93EC010E9410118C0160EB71E0D0
:10236000CE010E943411800F911FDF91CF911F91F8
:102370000F9108950C9434111F920F920FB60F9283
:1023800011242F933F934F935F936F937F938F937A
:102390009F93AF93BF93EF93FF9386E994E00E94DE
:1023A0002710FF91EF91BF91AF919F918F917F91F6
:1023B0006F915F914F913F912F910F900FBE0F90B2
:1023C0001F9018951F920F920FB60F9211242F9302
:1023D0008F939F93EF93FF93E091A604F091A7044E
:1023E0008081E091AC04F091AD0482FD12C0908137
:1023F0008091AF048F5F8F732091B004821751F0EA
:10240000E091AF04F0E0EA56FB4F958F8093AF0464
:1024100001C08081FF91EF919F918F912F910F903B
:102420000FBE0F901F90189590E0FC01EB55FD4FEB
:102430003491FC01EF56FD4F2491FC01E358FD4F10
:10244000E491EE2309F43BC0332339F1333091F0AA
:1024500038F43130A9F0323001F584B58F7D12C0E7
:10246000373091F03830A1F03430B9F480918000E9
:102470008F7D03C0809180008F77809380000DC096
:1024800084B58F7784BD09C08091B0008F7703C079
:102490008091B0008F7D8093B000F0E0EE0FFF1FC1
:1024A000E759FD4FA591B4918FB7F894EC91611164
:1024B00003C020952E2301C02E2B2C938FBF08958F
:1024C0008F929F92AF92BF92CF92DF92EF92FF9244
:1024D0006B017C010E94BB104B015C01C114D10453
:1024E000E104F104F1F00E94BB10DC01CB0188197A
:1024F0009909AA09BB09883E9340A105B10570F36B
:1025000021E0C21AD108E108F10888EE880E83E0C4
:10251000981EA11CB11CC114D104E104F10419F7E7
:10252000DDCFFF90EF90DF90CF90BF90AF909F9066
:102530008F9008952FB7F8946091C3057091C405EA
:102540008091C5059091C6052FBF08951F920F92E7
:102550000FB60F9211242F933F938F939F93AF93B6
:10256000BF938091C3059091C405A091C505B0911A
:10257000C6053091C20523E0230F2D3720F40196C4
:10258000A11DB11D05C026E8230F0296A11DB11D96
:102590002093C2058093C3059093C405A093C505FD
:1025A000B093C6058091C7059091C805A091C90553
:1025B000B091CA050196A11DB11D8093C7059093E6
:1025C000C805A093C905B093CA05BF91AF919F916B
:1025D0008F913F912F910F900FBE0F901F901895E4
:1025E000682F8EE795E00C947016EF92FF920F9390
:1025F0001F93CF93DF9300D0CDB7DEB77C01162FAA
:10260000683020F0185095E103E102C094E102E146
:10261000F701808180624A8399830E94CB0B998164
:10262000892F0E94F0120E94DF0BF7019081892F01
:10263000806261E070E090E00E94D50B8EE795E04B
:102640000E9424164A8121E030E001C0220F1A9531
:10265000EAF7413019F4122F182B03C02095122FDE
:102660001823F701808180620E94CB0B802F0E948B
:10267000F012812F0E94F0120F900F90DF91CF91F6
:102680001F910F91FF90EF900C94DF0BFC01962FA0
:10269000828D8F3F31F0603140F4CF014B960C9426
:1026A000F512642F892F0C9414120895CF93DF93A1
:1026B000EC0140E06E810E94461341E06E81CE0144
:1026C0000E94461340E06E81CE010E9446138BE8C3
:1026D00091E00197F1F7DF91CF910895EF92FF928A
:1026E0000F931F93CF93DF931F92CDB7DEB77C017B
:1026F000162F683018F0185001E001C000E0F70113
:102700008081806249830E94CB0B802F0E94F0124F
:102710000E94DF0BF7018081806261E070E090E051
:102720000E94D50B8EE795E00E942416498121E096
:1027300030E001C0220F1A95EAF7411103C0122FB1
:10274000182B03C02095122F1823F7018081806277
:102750000E94CB0B802F0E94F012812F0E94F0125A
:102760000F90DF91CF911F910F91FF90EF900C94FC
:10277000DF0B603110F40C946E130895CF93DF9348
:1027800000D0CDB7DEB7FC018081806269837A8397
:102790000E94CB0B82E10E94F0126981862F0E9479
:1027A000F0127A81872F0E94F0120F900F90DF9124
:1027B000CF910C94DF0B8F929F92AF92BF92CF92EA
:1027C000DF92EF92FF920F931F93CF93DF93EC0171
:1027D0008A8D8E01095F1F4FC62ED12C8F3F09F4C1
:1027E00083C07E018BE1E80EF11C8B8D80620E941C
:1027F000CB0B82E10E94F0120E94DF0B8B8D806276
:1028000062E070E090E00E94D50B8EE795E00E94B8
:102810002416B82E8EE795E00E942416982F88275C
:102820009C012B29F801A0E0B0E061E070E0B190DC
:1028300001E010E0CB010B2C02C0880F991F0A9415
:10284000E2F78095909528233923A6010A2E02C02D
:10285000559547950A94E2F74170552702C0440FF9
:10286000551FBA94E2F7242B352B1196A430B105ED
:10287000F1F668010E8002C0CC0CDD1C0A94E2F770
:10288000C094D094C222D322B601C7010E94BE13C5
:10289000B8010E8002C0660F771F0A94E2F7C62ABD
:1028A000D72AB601C7010E94BE130E8002C0000FD6
:1028B000111F0A94E2F700951095B6016023712369
:1028C000C7010E94BE138BE891E00197F1F7DF91F9
:1028D000CF911F910F91FF90EF90DF90CF90BF901D
:1028E000AF909F908F900895E12CF12C4E01EBE179
:1028F0008E0E911C5801F80180819A8D9F3F31F016
:1029000041E0682FC4010E94B91302C00E943C0C30
:102910000F5F1F4FA6010E2C02C0559547950A94D4
:10292000E2F74170F5016081CE010E944613FFEF8E
:10293000EF1AFF0A84E0E816F104E1F6CE01DF9118
:10294000CF911F910F91FF90EF90DF90CF90BF90AC
:10295000AF909F908F900C9456138F929F92AF924E
:10296000BF92CF92DF92EF92FF920F931F93CF937C
:10297000DF93EC01F62E6C810E9446136D816F3F50
:1029800021F040E0CE010E9446138C890F2D10E00B
:1029900084FF3EC06E0187E0C80ED11CE12CF12CF3
:1029A0004E01EBE18E0E911C5601F60180819A8D4D
:1029B0009F3F31F041E0682FC4010E94B91302C06B
:1029C0000E943C0CFFEFCF1ADF0AA8010E2C02C0B8
:1029D000559547950A94E2F74170F5016081CE0163
:1029E0000E944613FFEFEF1AFF0A88E0E816F10491
:1029F000D9F6CE01DF91CF911F910F91FF90EF900B
:102A0000DF90CF90BF90AF909F908F900C94561313
:102A1000B80184E0759567958A95E1F7CE010E942B
:102A2000DB136F2DCE01DF91CF911F910F91FF909E
:102A3000EF90DF90CF90BF90AF909F908F900C94CD
:102A4000DB1341E00E94AD1481E090E00895CF9245
:102A5000DF92EF92FF920F931F93CF93DF93EC01DE
:102A600088E60E94CB0B60E08EE795E00E9470162E
:102A70000E94DF0B67E070E088E690E00E94D50BD3
:102A80008EE795E00E9424168F77982F92959F707D
:102A90001AEF082F919F000D11248EE795E00E94F8
:102AA00024169C01332794E0359527959A95E1F7F4
:102AB000F82E129FF00C11248EE795E00E94241648
:102AC0009C01332744E0359527954A95E1F7E82E98
:102AD000129FE00C11248EE795E00E9424168EE7E9
:102AE00095E00E9424169C01332754E035952795E4
:102AF0005A95E1F7D82E129FD00C11248EE795E05D
:102B00000E9424169C01332764E0359527956A9529
:102B1000E1F7C82E129FC00C11248EE795E00E94A9
:102B200024169C01332774E0359527957A95E1F7B3
:102B3000129F800D11248883C982DA82EB82FC8285
:102B40000D83CE01DF91CF911F910F91FF90EF90F8
:102B5000DF90CF900895DC015996ED91FC915A9742
:102B60003097B9F083899489A589B68942855385C0
:102B700064857585841B950BA60BB70B811520E822
:102B80009207A105B10538F08FEF9FE7A0E0B0E014
:102B9000089580E090E00895CF93DF931F92CDB722
:102BA000DEB76983DC01ED91FC910280F381E02DB9
:102BB00041E050E0BE016F5F7F4F09950F90DF91BC
:102BC000CF91089585ED8093BC008091BC0084FD79
:102BD000FCCF1092950408954091ED05262F30E02A
:102BE000240F311D21323105DCF42091950424306D
:102BF000C9F4FC0180E090E0861758F43091ED05AF
:102C00002191DC01A553BA4FA30FB11D2C9301965E
:102C1000F3CF8091ED05680F6093ED0580E0089596
:102C200081E0089582E008950895E0914B04809139
:102C30004A04E81730F4F0E0E15BFB4F808190E05C
:102C400008958FEF9FEF089590914B0480914A046F
:102C5000981750F4E92FF0E0E15BFB4F208130E062
:102C60009F5F90934B0402C02FEF3FEFC90108957F
:102C700080914A0490E020914B04821B91090895B1
:102C8000CF92DF92EF92FF920F931F93CF93DF9338
:102C90007C01262F972F8A0180914E04882391F082
:102CA000C62FD72F6E01C40ED51ECC15DD0571F0D1
:102CB0006991D701ED91FC910190F081E02DC70160
:102CC0000995F3CF642F822F0E94EC15C801DF9184
:102CD000CF911F910F91FF90EF90DF90CF900895CB
:102CE000CF93DF931F92CDB7DEB7698320914E0457
:102CF0002223D1F020914C04203240F021E030E03A
:102D0000FC013383228380E090E015C080914D0464
:102D1000E82FF0E0E65DFB4F998190838F5F809311
:102D20004D0480934C0405C061E0CE0101960E94E1
:102D3000EC1581E090E00F90DF91CF910895FC01B8
:102D4000818D928D009711F00C9499060895CF9380
:102D5000DF93EC01898D9A8D009739F481E090E042
:102D60009B838A8380E090E00BC0FC011382128277
:102D70000E94EF06E98DFA8D22813381232B71F7B2
:102D8000DF91CF910895EF92FF920F931F93CF930E
:102D9000DF9300D000D000D0CDB7DEB78C017B012F
:102DA000CE0101960E9427152A8180E2289F90017A
:102DB00011248B81A901482B8981282F30E02C5EBA
:102DC0003F4F322F2227330F242B352BF80131832D
:102DD00020838D81F0E28F9F900111249C81892FA7
:102DE00090E0982F8827990F990F990F822B932B9A
:102DF0002E8130E035952795822B932BF701918317
:102E0000808326960FB6F894DEBF0FBECDBFDF914C
:102E1000CF911F910F91FF90EF90089561E0FC0119
:102E200084810E9414128091120681111092120660
:102E300008958EBD00000DB407FEFDCF8EB5089538
:102E40008FEF0C9419170F931F93CF93DF93EB0120
:102E50000E949A128B010E9420178F3F49F00E9416
:102E60009A12601B710B6C177D07A8F380E001C0FC
:102E700081E0DF91CF911F910F910895CF93DF9360
:102E8000EC018E81882389F08F8198859C012F5FCA
:102E90003F4F38872F838230924018F40E942017CA
:102EA000F3CFCE010E940E171E82DF91CF910895BD
:102EB0008CBD9DBD0895CF93DF93EC0180911206E8
:102EC000811109C081E080931206809133059091B1
:102ED00034050E94581760E08C81DF91CF910C94EB
:102EE0001412CF92DF92FF920F931F93CF93DF9331
:102EF00000D000D0CDB7DEB76C01F62E29833A831F
:102F00004B835C830E943E17C6010E945B176CE2F4
:102F100071E0C6010E9423178F2D80640E9419174B
:102F200008E110E05C814B813A812981DA01C90115
:102F3000002E04C0B695A795979587950A94D2F769
:102F400029833A834B835C830E9419170850110927
:102F500029813A814B815C81083F8FEF180731F757
:102F6000FF2029F0E8E0FE1204C087E803C085E9ED
:102F700001C08FEF0E94191710E00E942017F60180
:102F8000828787FF04C01F3F11F01F5FF6CF0F90AD
:102F90000F900F900F90DF91CF911F910F91FF90A5
:102FA000DF90CF900895FC01DB0112968D919C91EA
:102FB00013979383828388E291E0918380831496B0
:102FC0008C911497848315968C911597858316960A
:102FD0004D915D916D917C911997468357836087E0
:102FE00071871A964D915D916D917C911D974287E5
:102FF0005387648775871E964D915D916D917C9185
:10300000519746875787608B718B52968C91529758
:10301000828B53964D915D916D917C915697438B28
:10302000548B658B768B57964D915D916D917C910C
:103030005A97478B508F618F728F5B968D919C91C1
:103040005C97948F838F0895EF92FF920F931F9355
:10305000CF93DF93EC017B018A011B821A8288EEF9
:1030600093E0A0E0B0E08C839D83AE83BF8388E4CF
:1030700091E0998388838DE190E00E9421299A8FC5
:10308000898F009779F02DE1F701DC0101900D9215
:103090002A95E1F74CE050E0B801CE010C960E9471
:1030A000452B188EDF91CF911F910F91FF90EF90DC
:1030B00008952F923F924F925F926F927F928F92DC
:1030C0009F92AF92BF92CF92DF92EF92FF920F93B7
:1030D0001F93CF93DF9300D0CDB7DEB7FC0185817E
:1030E000882309F4D9C0848180FFD6C021E02A83D7
:1030F000438954896589768982859385A485B585B8
:10310000481759076A077B0709F41A826F013A8149
:10311000832F90E0DE0111964D013F01B6E06B0E6A
:10312000711C892B09F47DC0D6011A964D915D91D1
:103130006D917C911D975A01B1E0BB22F60125816A
:103140001A012B0189E056944794379427948A9565
:10315000D1F7838D948D223061F4FC01828D938DA3
:10316000A48DB58DBC01CD01620D731D841D951D0F
:1031700045C0DC0114961C9111501221A114B10418
:10318000D1F4111118C0452B462B472B51F4F601F1
:103190008789908DA18DB28D86839783A087B18713
:1031A0000AC0468157816085718593010E9413048E
:1031B000882309F471C0F601238D348D86819781AF
:1031C000A085B1850297A109B109AC01BD01F90142
:1031D000058404C0440F551F661F771F0A94D2F759
:1031E00086859785A089B189840F951FA61FB71F73
:1031F000BC01CD01610F711D811D911DD601149679
:103200002C9126FF14C0009102011091030120911E
:10321000040130910501601771078207930751F58A
:1032200006C0FA81FF23C1F1898190E037C040E0F8
:103230000E942A03882381F1F501E95DFD4FD40145
:10324000CF010196E817F90719F021912D93FACFD4
:10325000EFEF8E1A9E0AF60182859385A485B585C7
:103260000196A11DB11D82879387A487B58780E051
:1032700090E057CF740101E010E09501AB01BC0173
:1032800080912704909128040E949602882321F0BF
:10329000BFEF8B1A9B0ADFCF8FEF9FEF0F900F903E
:1032A000DF91CF911F910F91FF90EF90DF90CF9022
:1032B000BF90AF909F908F907F906F905F904F9056
:1032C0003F902F900895FC01818D928D009711F011
:1032D0000C9459188FEF9FEF08950F931F93CF937E
:1032E000DF93FC01818D928D0097B9F0EF010E9470
:1032F00059188C010F3F8FEF180791F0898D9A8D27
:10330000FC014285538564857585415051096109E9
:1033100071090E940005C80105C080E090E002C06C
:103320008FEF9FEFDF91CF911F910F9108951F9223
:103330000F920FB60F9211242F933F934F935F93E9
:103340006F937F938F939F93AF93BF93EF93FF936D
:103350008091B900887F803609F49CC068F5883276
:1033600009F45BC090F4803109F454C038F4882328
:1033700009F4F6C0883009F44DC0F6C0883109F46C
:103380004CC0803209F45DC0EFC0803409F468C0DD
:1033900048F4803309F455C0883309F0E5C08093C0
:1033A0009304D8C0803509F44FC0883509F45DC056
:1033B000883409F0D9C0D6C0883909F4C7C0A8F448
:1033C000883709F467C038F4883609F463C0803759
:1033D00009F460C0C9C0883809F4B8C0803909F45C
:1033E0005FC0803809F0C0C05BC0803B09F486C074
:1033F00038F4803A09F466C0883A09F47FC0B4C052
:10340000803C09F4A7C0883C09F4A4C0883B09F4B7
:103410008AC0AAC08091900410C0909192048091BB
:103420009104981770F5E091920481E08E0F8093DB
:103430009204F0E0E159FB4F80818093BB0085EC62
:1034400086C0809393048EC0E091920481E08E0F39
:10345000809392048091BB00F0E0E159FB4F8083A0
:1034600090919204809191046EC0E091920481E069
:103470008E0F809392048091BB00F0E0E159FB4FE6
:1034800080838091940481116DC081E080938F04CA
:1034900084EA61C083E08093950410921106CFCF37
:1034A00080911106803208F051C0E091110681E050
:1034B0008E0F809311068091BB00F0E0EF50FA4F21
:1034C0008083BDCF85EC8093BC00109295048091E1
:1034D0001106803230F4E0911106F0E0EF50FA4F1F
:1034E00010826091110670E0E091EF05F091F00517
:1034F00081EF95E009951092110636C084E0809323
:1035000095041092EE051092ED05E091EB05F09117
:10351000EC0509958091ED05811105C081E080934E
:10352000ED051092CB05E091EE0581E08E0F8093C2
:10353000EE05F0E0E553FA4F80818093BB00909157
:10354000EE058091ED05981708F479CF85E8809312
:10355000BC000AC085EC8093BC001092950404C0A6
:10356000109293040E94E215FF91EF91BF91AF91E9
:103570009F918F917F916F915F914F913F912F918B
:103580000F900FBE0F901F901895CF93DF93CDB77C
:10359000DEB7CF58D1090FB6F894DEBF0FBECDBF4E
:1035A000789484B5826084BD84B5816084BD85B51E
:1035B000826085BD85B5816085BD80916E0081602A
:1035C00080936E00109281008091810082608093D0
:1035D00081008091810081608093810080918000D2
:1035E0008160809380008091B10084608093B100FD
:1035F0008091B00081608093B00080917A008460F7
:1036000080937A0080917A00826080937A00809122
:103610007A00816080937A0080917A00806880933C
:103620007A001092C100E091A604F091A70482E014
:103630008083E091A204F091A3041082E091A4049D
:10364000F091A5048FEC80831092AE04E091AA045F
:10365000F091AB0486E08083E091A804F091A90486
:10366000808180618083E091A804F091A904808129
:1036700088608083E091A804F091A904808180682B
:103680008083E091A804F091A90480818F7D8083DC
:103690000E94510F0E94510F8091A4058F3F39F570
:1036A00080919E05886080939E0582E08093A205AC
:1036B0001092A3058BE39DE00197F1F740E0609144
:1036C0008E058AE895E00E94461340E060919005DF
:1036D0008AE895E00E94461360918F056F3F09F4D8
:1036E000B2C040E08AE895E00E944613ACC00E9458
:1036F000510F1092A5050E94510F8091A50580627F
:103700000E94CB0B80E00E94F0128FEF0E94F0121B
:103710000E94DF0B8091A50580620E94CB0B81E0A7
:103720000E94F0128FEF0E94F0120E94DF0B41E026
:1037300068E085EA95E00E946E1341E066E085EA64
:1037400095E00E946E1341E067E085EA95E00E94F3
:103750006E1387E00E94B20C60918F05662329F0FA
:1037600041E085EA95E00E94B91341E060918E0541
:1037700085EA95E00E94B91341E06091900585EAE1
:1037800095E00E94B91301E915E034E0F32EF00E44
:10379000F80161918F0141E085EA95E00E94B9133B
:1037A000F012F6CF09E915E025E0E22EE00E40E048
:1037B000F801608185EA95E00E94B913F801219132
:1037C0008F012031E8F5283020F028509DE0F92EB7
:1037D00002C08CE0F82E8091A5058062C157DF4FB2
:1037E0002883CF58D0400E94CB0B8F2D0E94F0121F
:1037F0000E94DF0B8091A505806261E070E090E09F
:103800000E94D50B8EE795E00E942416D82E809159
:10381000A50580620E94CB0B8F2D0E94F01241E023
:1038200050E0C157DF4F2881CF58D040CA0101C0B6
:10383000880F2A95EAF78D290E94F0120E94DF0B6B
:10384000E012B5CF2DCF80919E0584FD21C063E0AD
:103850008AE895E00E94DB130BE416E4C8010197A7
:10386000F1F763E08AE895E00E94DB13C801019755
:10387000F1F763E08AE895E00E94DB1383E592E0CC
:103880000197F1F762E08AE895E00E94DB1315C02A
:1038900080620E945B0C8BE496E40197F1F78091C3
:1038A0009E0580620E945B0C83E592E00197F1F730
:1038B00080919E0580620E945B0C80919E058062D3
:1038C0000E945B0C84E080939F058CE00E945B0C5F
:1038D0000E948D0C82E08093A00586E00E945B0C24
:1038E0000E948D0C809101010E94B20C60E082E088
:1038F0000E94610C6EE571E08AE895E00E9410116B
:1039000061E087E00E94610C66E571E08AE895E07D
:103910000E9410116FE371E086E994E00E94A61105
:1039200068E271E086E994E00E94A61161E171E02D
:1039300086E994E00E94A61188E60E94CB0B60E025
:103940008EE795E00E9470160E94DF0B61E070E048
:1039500088E690E00E94D50B8EE795E00E94241641
:1039600087FF03C08CE691E08DC168EF70E086E9C7
:1039700094E00E9410118AE00E943C0C10924005D5
:1039800010923E0510923B0510923A058AE0809312
:1039900039050E949A128B01809139050E943C0CD6
:1039A00061E0809139050E941412FFB6F89480916D
:1039B000D601811124C0E7E8F2E08491EBE9F2E05E
:1039C0009491E82FF0E0EE0FFF1FED58FD4FA59109
:1039D000B491EC91E92321F461E08AE00E94141291
:1039E0008AE00E943C0C8CB580618CBD8CB58064F3
:1039F0008CBD8DE00E943C0C8BE00E943C0C8091C1
:103A0000D6018F5F8093D601FFBE82E58093330598
:103A10001092340580913305909134050E94581717
:103A2000AAE0FA2E8FEF0E941917FA94F110FACF3C
:103A300085E395E00E945B1720E030E0A90160E09B
:103A400085E395E00E947117F82E80933F0521E0F1
:103A5000821749F00E949A12601B710B613D7740FA
:103A600058F381E056C02AEA31E040E050E068E0D7
:103A700085E395E00E94711782FF03C0F092400534
:103A800010C0F4E0FF2E0E94201780933F05FA94A7
:103A9000F110F9CF8A3A11F082E03BC082E08093C6
:103AA000400580914005823021F0C12CD12C760157
:103AB00005C0C12CD12CE12CE0E4FE2E20E030E04A
:103AC000A90167E385E395E00E947117A7019601BC
:103AD00069E285E395E00E94711780933F05882392
:103AE00049F00E949A12601B710B613D774030F3E0
:103AF00088E00FC080914005823001F520E030E081
:103B0000A9016AE385E395E00E947117882341F0DB
:103B100086E080933A0585E395E00E940E17B0C0D9
:103B20000E942017807C803C19F483E0809340053C
:103B30000E9420170E9420170E94201785E395E01D
:103B40000E940E1780E5809333051092340581E0C2
:103B50000E94220E882329F080916405882341F079
:103B60008FC080E00E94220E882309F489C0F4CF20
:103B700080915805803109F582E0809364051092A8
:103B8000760510927705109278051092790580914C
:103B9000590590915A05A0E0B0E075E0880F991F93
:103BA000AA1FBB1F7A95D1F7809372059093730576
:103BB000A0937405B09375051FC0803209F060C0F2
:103BC00083E08093640540915B0550915C056091B2
:103BD0005D0570915E05409376055093770560937F
:103BE00078057093790522E735E081E495E00E943D
:103BF0009704882309F444C081E495E090937B0501
:103C000080937A0581E08093630510926505109298
:103C1000660510926705109268051092690510926A
:103C20006A0510926B0510926C0510926D0510924A
:103C30006E0510926F0510927005109271056CED73
:103C400075E080E090E00E94601262EF70E086E92B
:103C500094E00E94A61141E068E771E0CE01885A25
:103C60009F4F0E94F20C64ED70E086E994E00E94A0
:103C70001011E396EEADFFADE397309729F495C0B0
:103C800085E891E00E94BB288581882309F48DC0D6
:103C900051EEE52E51E0F52E66E0D62ECE01885A83
:103CA0009F4F0E94AB15892B09F466C01A821982B6
:103CB0001C821B821E821D8260E070E0CE01019694
:103CC0000E94E21029813A8181110DC02115310530
:103CD00019F0C9010E94B6291A8219821E821D821A
:103CE0001C821B8225C01E821D8262EB71E0C9010D
:103CF0000E943E2B1DC08A30910509F18E8F1F8EC8
:103D00000D811E810F5F1F4FB801CE0101960E94E9
:103D1000E210882369F029813A818D819E81BE015C
:103D2000625E7F4F820F931F0E943E2B1E830D8386
:103D3000CE01885A9F4F0E94F60D97FFDCCFE11409
:103D4000F104B1F00D811E810115110511F4F70187
:103D50000EC00830110510F008E010E069817A818A
:103D6000A801C7010E94452BF701E00FF11F108247
:103D700089819A810E94B629DA94F9E0EF0EF11C4C
:103D8000D1108CCFE3968EAD9FADE397009701F1F4
:103D90000E94750BE3968EAD9FADE3970E94B62906
:103DA000E3961FAE1EAEE39713C041EEE42E41E052
:103DB000F42E11E365E971E0C7010E943E2BF70183
:103DC0001783F9E0EF0EF11C1F5F173399F7DACF75
:103DD0006CED75E080E090E00E9460126EEC70E0A7
:103DE00086E994E00E94A61141EE51E026E030E21F
:103DF00080E090E0FA01E80FF91F60816D3009F46E
:103E00003083019688309105A9F72150475F5F4FB5
:103E10002111EECF83EC96E19093D5018093D401EC
:103E20008DE0E7ECF1E0DE01A058BF4F01900D926C
:103E30008A95E1F7BB24B3942AE0822E38E2E32E80
:103E400031E0F32E6E012BE3C20ED11C8B2D682DB9
:103E50000E94D928805DCA57DF4F8883C658D0405A
:103E6000905DC957DF4F9883C758D0401EAE1DAE36
:103E7000FCAEEBAE21961FAE219719A218A2FF8EC1
:103E8000EE8E1BA2712C612CAC2C9D2C0FE515E045
:103E9000272D362DE0E8F0E0EC0FFD1FE20FF31FB9
:103EA00080818F3211F42F5F3F4FFE01ED58FF4F9D
:103EB00040E050E0A0E8B0E0AC0FBD1FA20FB31F80
:103EC0008C918F3251F0882341F04F5F5F4F2F5F0D
:103ED0003F4F81934C30510569F7E3E7F0E0EC0F79
:103EE000FD1FE40FF51F1082E0E8F0E0EC0FFD1F6E
:103EF000E20FF31F80818F3211F42F5F3F4F722E3C
:103F0000632EE0E8F0E0EC0FFD1FE20FF31F50809E
:103F10001C821B82FA82E9821E8221E0AE014D588A
:103F20005F4FB801CE0101960E94A909882339F09C
:103F3000CE0101960E94750B511009C024C035E0D6
:103F40000F35130749F1C8010E94750B25C021E008
:103F5000AE014D585F4FB8018A2D992D0E94A909D5
:103F6000582E45E00F35140711F40C942E28C80183
:103F70000E94750B552081F0902F812F0A2D192D4D
:103F8000A92E982E85CF55E00F35150709F459C095
:103F9000C8010E94750B55C06FEB70E086E994E094
:103FA0000E941011BE0160587F4F86E994E00E9484
:103FB000BA116AEB70E086E994E00E94101143E1C7
:103FC000BE0160587F4FCE0101960E94F20C8B819A
:103FD0009C819093A9058093A8058D819E81AF81D6
:103FE000B8858093AA059093AB05A093AC05B093D8
:103FF000AD0589859A85AB85BC858093AE05909388
:10400000AF05A093B005B093B1058DE0FE013D96DC
:10401000A2EBB5E001900D928A95E1F78A8D9B8D18
:104020009093C0058093BF056CED75E080E090E053
:104030000E94601264EB70E086E994E00E94A61191
:1040400004C0B39484E6B81201CFE091BF05F091AB
:10405000C005309719F08581811103C08DE991E089
:1040600011CECE0101960E94271563EA70E086E921
:1040700094E00E94A6116CE970E086E994E00E9449
:1040800010118A818A3030F46EEA71E086E994E09A
:104090000E94BA116A8186E994E00E94EB0C6FE2FB
:1040A00086E994E00E9409118B818A3030F46EEA2F
:1040B00071E086E994E00E94BA116B8186E994E090
:1040C0000E94EB0C6FE286E994E00E94091149819D
:1040D00050E04053584F052E000C660B770B2AE03A
:1040E00086E994E00E94491160EB71E086E994E072
:1040F0000E9434116BE870E086E994E00E94A611FA
:1041000061E770E086EA95E00E94101182E00E946B
:10411000950C8F3F31F087E00E94950C8F3F09F09E
:1041200025C768E670E086EA95E00E94A6116CED6E
:1041300075E080E090E00E9460120E948D0C80E0AB
:104140000E94950C182F8093010181E00E94950C2C
:10415000809300011F3F41F48F3F31F487E080934B
:10416000010181E080930001809101010E94B20C65
:1041700089E00E94950C8093DB01823010F0109250
:10418000DB0189E0382E97E0292EE12CF12C1FE18C
:104190000E2DF701E657FA4F27852031C0F528305C
:1041A00018F0285093E101C092E18091A50580624A
:1041B000C157DF4F2883CF58D040C257DF4F988375
:1041C000CE58D0400E94CB0BC257DF4F9881CE58BB
:1041D000D040892F0E94F0120E94DF0B8091A5052C
:1041E000806261E070E090E00E94D50B8EE795E080
:1041F0000E9424169927C157DF4F2881CF58D040FD
:1042000002C0959587952A95E2F7817001C080E0FC
:1042100090E002C0880F991F0A95E2F7809590956B
:104220001823EFEFEE1AFE0AF5E0EF16F10409F09D
:10423000AFCF80912002811196C013FF49C08091B9
:104240000101873070F02092010181E0809300012C
:1042500067E080E00E94770F61E081E00E94770FC5
:1042600037C0FF24F394F80EF09201010091000191
:10427000EE24EA94E00EE09200016F2D80E00E94AF
:10428000770F6E2D81E00E94770F8F2D0E94B20C68
:104290000E948D0C60E082E00E94610C0250309E12
:1042A000B00111246F517E4F8AE895E00E94BA1147
:1042B00061E086E00E94610C64E472E08AE895E0C7
:1042C0000E9410116CED75E080E090E00E94601299
:1042D00012FF49C080910101833078F482E080931D
:1042E000010186E08093000162E080E00E94770F88
:1042F00066E081E00E94770F36C0FF24FA94F80E42
:10430000F092010100910001EE24E394E00EE092AE
:1043100000016F2D80E00E94770F6E2D81E00E94DA
:10432000770F8F2D0E94B20C0E948D0C60E082E00E
:104330000E94610C309EB00111246F517E4F8AE8BB
:1043400095E00E94BA1161E086E00E94610C6BE387
:1043500072E08AE895E00E9410116CED75E080E053
:1043600090E00E94601210FF56C2F0900001FA9493
:10437000C357DF4FF882CD58D040CE0101960E943E
:1043800027158A818A3030F46EEA71E086EA95E07A
:104390000E94BA116A8186EA95E00E94EB0C6FE2F6
:1043A00086EA95E00E9409118B818A3030F46EEA2A
:1043B00071E086EA95E00E94BA116B8186EA95E089
:1043C0000E94EB0C6FE286EA95E00E940911498198
:1043D00050E04053584F052E000C660B770B2AE037
:1043E00086EA95E00E94491165EB71E086EA95E066
:1043F0000E94BA118C818A3030F46EEA71E086EA4C
:1044000095E00E94BA116C8186EA95E00E94EB0C5F
:104410006AE386EA95E00E9409118D818A3030F4C2
:104420006EEA71E086EA95E00E94BA116D8186EA33
:1044300095E00E94EB0C6AE386EA95E00E94091180
:104440008E818A3030F46EEA71E086EA95E00E944F
:10445000BA116E8186EA95E00E94D20C0E948D0C02
:1044600060E081E00E94610C6CE272E08AE895E015
:104470000E94101161E082E00E94610C6FE172E025
:104480008AE895E00E9410119091200281E0891B3A
:1044900080932002813009F07FC08091E00181117A
:1044A0007BC0CE0101960E9439026093DC017093BB
:1044B000DD018093DE019093DF016CED75E080E01B
:1044C00090E00E94601281E00E94B20C0E948D0C6C
:1044D00060E083E00E94610C69E172E08AE895E0A7
:1044E0000E94101161E085E00E94610C60E172E0C1
:1044F0008AE895E00E941011C357DF4F2881CD58FC
:10450000D040329EB00111246F517E4F86E994E075
:104510000E94921167E072E086E994E00E94A61181
:1045200067EF71E086E994E00E9410118C818A3077
:1045300030F46EEA71E086E994E00E94BA116C8171
:1045400086E994E00E94EB0C63EB71E086E994E06D
:104550000E94BA118D818A3030F46EEA71E086E9EA
:1045600094E00E94BA116D8186E994E00E94EB0C00
:1045700063EB71E086E994E00E94BA118E818A3083
:1045800030F46EEA71E086E994E00E94BA116E811F
:1045900086E994E00E94D20C80912002811131C101
:1045A0008091E001813009F02CC1CE0101960E947A
:1045B0003902C090DC01D090DD01E090DE01F09086
:1045C000DF019B01AC012C193D094E095F0969010E
:1045D0007A01CA01B9012CE330E040E050E00E94CA
:1045E000F9284B015C01CA01B9012CE330E040E03D
:1045F00050E00E94F9282B013C01C701B60120E1DF
:104600003EE040E050E00E94F928022FE22EC3571E
:10461000DF4F3881CD58D040339EB00111246F5107
:104620007E4F86EA95E00E94BA1165EB71E086EA5A
:1046300095E00E94BA1149E0401730F06EEA71E04F
:1046400086EA95E00E94BA11602F86EA95E00E9402
:10465000EB0C63EB71E086EA95E00E94BA115AE038
:10466000451651046104710430F46EEA71E086EA83
:1046700095E00E94BA11642D86EA95E00E94EB0C49
:1046800063EB71E086EA95E00E94BA118AE0881631
:104690009104A104B10430F46EEA71E086EA95E079
:1046A0000E94BA11682D86EA95E00E94D20C6CED4A
:1046B00075E080E090E00E946012809101010E940C
:1046C000B20C0E948D0C60E083E00E94610C61EFEF
:1046D00071E08AE895E00E94101161E085E00E9497
:1046E000610C68EE71E08AE895E00E94101168EDB7
:1046F00071E086E994E00E9410118C818A3030F4D8
:104700006EEA71E086E994E00E94BA116C8186E954
:1047100094E00E94EB0C63EB71E086E994E00E9468
:10472000BA118D818A3030F46EEA71E086E994E046
:104730000E94BA116D8186E994E00E94EB0C63EB54
:1047400071E086E994E00E94BA118E818A3030F4DB
:104750006EEA71E086E994E00E94BA116E8186E902
:1047600094E00E94D20C66ED71E086E994E00E942C
:10477000A61166EC71E086E994E00E941011E9E070
:10478000EE1530F06EEA71E086E994E00E94BA110D
:10479000602F86E994E00E94EB0C63EB71E086E900
:1047A00094E00E94BA11FAE04F16510461047104BA
:1047B00030F46EEA71E086E994E00E94BA11642D4B
:1047C00086E994E00E94EB0C63EB71E086E994E0EB
:1047D0000E94BA112AE082169104A104B10430F4B7
:1047E0006EEA71E086E994E00E94BA11682D86E9CC
:1047F00094E00E94D20C67EB71E086E994E00E949D
:104800009211809120028093E0016CED75E080E0D0
:1048100090E00E94601214FF22C00E948D0C60E0A4
:1048200082E00E94610C609100016150369EB001EF
:1048300011246F517E4F8AE895E00E94BA1161E021
:1048400086E00E94610C6DEB71E08AE895E00E94C1
:1048500010116CED75E080E090E00E946012809194
:104860002002813009F09DC011FF9BC00E948D0C79
:1048700009E1CE0101960E94271560E080E00E94C8
:10488000610C64EB71E08AE895E00E941011CE01A2
:1048900001960E943902C090DC01D090DD01E090C9
:1048A000DE01F090DF019B01AC012C193D094E099E
:1048B0005F0969017A01CA01B9012CE330E040E0E7
:1048C00050E00E94F9284B015C01CA01B9012CE3B8
:1048D00030E040E050E00E94F9282B013C01C70184
:1048E000B60120E13EE040E050E00E94F9282A3085
:1048F00080F46EEA71E08AE895E0C157DF4F2883C3
:10490000CF58D0400E94BA11C157DF4F2881CF58ED
:10491000D040622F8AE895E00E94EB0C63EB71E0D7
:104920008AE895E00E94BA113AE043165104610406
:10493000710430F46EEA71E08AE895E00E94BA11E1
:10494000642D8AE895E00E94EB0C63EB71E08AE845
:1049500095E00E94BA114AE084169104A104B104C2
:1049600030F46EEA71E08AE895E00E94BA11682D91
:104970008AE895E00E94EB0C61E081E00E94610C06
:1049800064EA71E08AE895E00E94101165E070E049
:1049900080E090E00E946012015009F06ACF0E940E
:1049A0008D0C80912002813009F03DC1CE0101962D
:1049B0000E942715CE0101960E9439028090DC01E9
:1049C0009090DD01A090DE01B090DF01DC01CB0111
:1049D00088199909AA09BB0980349E47A540B105E9
:1049E00008F421C1CE0101960E9439026B017C01BD
:1049F000C818D908EA08FB08C701B6012CE330E063
:104A000040E050E00E94F9284B015C01CA01B90165
:104A10002CE330E040E050E00E94F9282B013C01FB
:104A2000C701B60120E13EE040E050E00E94F928D5
:104A3000022FD22E8A818A3030F46EEA71E086EA43
:104A400095E00E94BA116A8186EA95E00E94EB0C1B
:104A50006FE286EA95E00E9409118B818A3030F47A
:104A60006EEA71E086EA95E00E94BA116B8186EAEF
:104A700095E00E94EB0C6FE286EA95E00E94091136
:104A8000498150E04053584F052E000C660B770BC0
:104A90002AE086EA95E00E94491165EB71E086EA1A
:104AA00095E00E94BA118C818A3030F46EEA71E090
:104AB00086EA95E00E94BA116C8186EA95E00E9430
:104AC000EB0C6AE386EA95E00E9409118D818A3039
:104AD00030F46EEA71E086EA95E00E94BA116D81C9
:104AE00086EA95E00E94EB0C6AE386EA95E00E9474
:104AF00009118E818A3030F46EEA71E086EA95E021
:104B00000E94BA116E8186EA95E00E94EB0C65EB7B
:104B100071E086EA95E00E94BA11E0900001EA9403
:104B20003E9CC0011124FC01EF51FE4F7F01BF01EB
:104B300086EA95E00E9492116EE971E086EA95E0BE
:104B40000E94101165EB71E086EA95E00E94BA11AF
:104B500065E971E086EA95E00E94101165EB71E06D
:104B600086EA95E00E94BA11F9E0FD1530F06EEA90
:104B700071E086EA95E00E94BA11602F86EA95E01E
:104B80000E94EB0C63EB71E086EA95E00E94BA119B
:104B90002AE0421651046104710430F46EEA71E0B7
:104BA00086EA95E00E94BA11642D86EA95E00E949B
:104BB000EB0C63EB71E086EA95E00E94BA113AE0F3
:104BC00083169104A104B10430F46EEA71E086EA20
:104BD00095E00E94BA11682D86EA95E00E94D20CF9
:104BE000809101010E94B20C0E948D0C60E082E075
:104BF0000E94610C68E871E08AE895E00E9410115B
:104C000061E084E00E94610CB7018AE895E00E94AF
:104C1000BA116CED75E080E090E00E946012109295
:104C200020021092E0018091200281110EC011FF3C
:104C30000CC09091DB0181E0891B8093DB0164E66D
:104C400070E080E090E00E9460128091DB01813092
:104C500009F088C0CE0101960E94271560E080E02F
:104C60000E94610C62E871E08AE895E00E941011F0
:104C70008A818A3030F46EEA71E08AE895E00E9419
:104C8000BA116A818AE895E00E94EB0C6FE28AE82B
:104C900095E00E9409118B818A3030F46EEA71E050
:104CA0008AE895E00E94BA116B818AE895E00E943B
:104CB000EB0C6FE28AE895E00E940911498150E00F
:104CC0004053584F052E000C660B770B2AE08AE8FC
:104CD00095E00E94491161E080E00E94610C6CE760
:104CE00071E08AE895E00E9410118C818A3030F4DE
:104CF0006EEA71E08AE895E00E94BA116C818AE858
:104D000095E00E94EB0C63EB71E08AE895E00E946D
:104D1000BA118D818A3030F46EEA71E08AE895E04C
:104D20000E94BA116D818AE895E00E94EB0C63EB5A
:104D300071E08AE895E00E94BA118E818A3030F4E1
:104D40006EEA71E08AE895E00E94BA116E818AE805
:104D500095E00E94EB0C61EC71E08AE895E00E941E
:104D6000BA11A0C0CE0101960E94271560E080E034
:104D70000E94610C66E771E08AE895E00E941011DC
:104D80008A818A3030F46EEA71E08AE895E00E9408
:104D9000BA116A818AE895E00E94EB0C6FE28AE81A
:104DA00095E00E9409118B818A3030F46EEA71E03F
:104DB0008AE895E00E94BA116B818AE895E00E942A
:104DC000EB0C6FE28AE895E00E940911498150E0FE
:104DD0004053584F052E000C660B770B2AE08AE8EB
:104DE00095E00E94491161E080E00E94610C60E75B
:104DF00071E08AE895E00E9410116C816D3060F0DE
:104E0000663130F46EEA71E08AE895E00E94BA11EA
:104E10008C8190E00C9704C0611105C08CE090E09B
:104E20000E94900F0DC06A3038F46EEA71E08AE893
:104E300095E00E94BA116C818AE895E00E94EB0C23
:104E40006AE38AE895E00E9409118D818A3030F486
:104E50006EEA71E08AE895E00E94BA116D818AE8F5
:104E600095E00E94EB0C6AE38AE895E00E94091144
:104E70008E818A3030F46EEA71E08AE895E00E9413
:104E8000BA116E818AE895E00E94EB0C8C818C301F
:104E900018F06CE671E002C068E671E08AE895E01F
:104EA0000E9410110E949A120091D7011091D8010E
:104EB0002091D9013091DA01DC01CB01801B910BEB
:104EC000A20BB30B88389341A105B10508F44BC080
:104ED0000E949A126093D7017093D8018093D901F0
:104EE0009093DA0186EA95E00E949F16CE01019622
:104EF0000E9427156A8182E00E94770F6B8183E010
:104F00000E94770F498150E04053584FCA0164E630
:104F100070E00E94E52884E0C257DF4F4883CE58F6
:104F2000D040C157DF4F5883CF58D0400E94770FF1
:104F3000C257DF4F4881CE58D04060E3640F85E010
:104F40000E94770F6C8186E00E94770F6D8187E069
:104F50000E94770F6E8188E00E94770F6091DB01DD
:104F600089E00E94770F0E94B1100FC982E00E9471
:104F7000950C682F86EA95E00E94EB0C65EC71E0D9
:104F800086EA95E00E94BA1183E00E94950C682F92
:104F900086EA95E00E94EB0C65EC71E086EA95E00C
:104FA0000E94BA1184E00E94950C682F86EA95E071
:104FB0000E94EB0C85E00E94950C682F86EA95E034
:104FC0000E94EB0C6DE670E086EA95E00E941011FD
:104FD00086E00E94950C8A3030F46EEA71E086EA31
:104FE00095E00E94BA1186E00E94950C682F86EA2F
:104FF00095E00E94EB0C63EB71E086EA95E00E947D
:10500000BA1187E00E94950C8A3030F46EEA71E0A4
:1050100086EA95E00E94BA1187E00E94950C682FFD
:1050200086EA95E00E94EB0C63EB71E086EA95E07E
:105030000E94BA1188E00E94950C8A3030F46EEA22
:1050400071E086EA95E00E94BA1188E00E94950C12
:10505000682F86EA95E00E94D20C69C8882311F473
:105060000C94CC1F8E01025E1F4F0C94BC1FE6E90E
:10507000F4E01382128288EE93E0A0E0B0E0848333
:105080009583A683B78328E131E03183208325EC23
:1050900030E03587248724EC30E03787268720EC02
:1050A00030E0318B208B21EC30E0338B228B22ECF3
:1050B00030E0358B248B26EC30E0378B268B118E3D
:1050C000128E138E148EE3E3F5E020E52083118227
:1050D000E5E3F5E0158216821186138642E050E082
:1050E00060E070E0448755876687778713A215A62E
:1050F00014A628E231E033A722A717A6EEE7F5E0D1
:105100001382128284839583A683B78320E331E0E0
:1051100031832083E6EAF5E013821282848395834B
:10512000A683B78388E491E091838083128E118EE9
:105130001486EAE8F5E01382128280E491E091831C
:105140008083128E148A8FE084838EE085838DE0C5
:1051500086838CE087838BE080878AE0818789E083
:105160008287178681E0808B82E0818B83E0828B4F
:1051700084E0838B0895EC010E948D0C61EC72E059
:105180008AE895E00E94101161E080E00E94610CC5
:10519000BE018AE895E00E94BA1169EB72E086E9E7
:1051A00094E00E941011BE0186E994E00E949211E1
:1051B000FFCF991B79E004C0991F961708F0961B42
:1051C000881F7A95C9F780950895AA1BBB1B51E1EA
:1051D00007C0AA1FBB1FA617B70710F0A61BB70B67
:1051E000881F991F5A95A9F780959095BC01CD010C
:1051F0000895A1E21A2EAA1BBB1BFD010DC0AA1F18
:10520000BB1FEE1FFF1FA217B307E407F50720F02F
:10521000A21BB30BE40BF50B661F771F881F991FAA
:105220001A9469F760957095809590959B01AC01F3
:10523000BD01CF010895EE0FFF1F0590F491E02D01
:105240000994CF93DF938230910510F482E090E0CF
:10525000E0911506F091160620E030E0C0E0D0E0C5
:10526000309711F14081518148175907C0F0481714
:10527000590761F482819381209719F09B838A8377
:105280002BC0909316068093150626C02115310574
:1052900019F04217530718F49A01BE01DF01EF011C
:1052A0000280F381E02DDCCF2115310509F1281BA7
:1052B000390B2430310590F412968D919C911397FF
:1052C0006115710521F0FB019383828304C09093E3
:1052D000160680931506FD01329644C0FD01E20FCB
:1052E000F31F81939193225031092D933C933AC03F
:1052F0002091130630911406232B41F420910801CC
:105300003091090130931406209313062091060171
:10531000309107012115310541F42DB73EB7409179
:105320000A0150910B01241B350BE0911306F091FB
:105330001406E217F307A0F42E1B3F0B28173907BA
:1053400078F0AC014E5F5F4F2417350748F04E0FE1
:105350005F1F50931406409313068193919302C0EC
:10536000E0E0F0E0CF01DF91CF9108950F931F931C
:10537000CF93DF93009709F48CC0FC01329713821E
:10538000128200911506109116060115110581F47F
:1053900020813181820F931F2091130630911406D2
:1053A0002817390779F5F0931406E093130671C0B6
:1053B000D80140E050E0AE17BF0750F412962D918F
:1053C0003C911397AD012115310509F1D901F3CFB6
:1053D0009D01DA013383228360817181860F971FDB
:1053E0008217930769F4EC0128813981260F371F52
:1053F0002E5F3F4F318320838A819B8193838283F9
:10540000452B29F4F0931606E093150642C0139637
:10541000FC93EE931297ED01499159919E01240F4F
:10542000351FE217F30771F480819181840F951F76
:10543000029611969C938E938281938113969C93EE
:105440008E931297E0E0F0E0D80112968D919C9136
:105450001397009719F0F8018C01F6CF8D919C916C
:1054600098012E5F3F4F820F931F209113063091BA
:1054700014062817390769F4309729F41092160694
:105480001092150602C01382128210931406009324
:105490001306DF91CF911F910F910895A0E0B0E026
:1054A000E4E5FAE20C94632BEC01009721F4CB01C4
:1054B0000E942129B8C0FC01E60FF71F9C01225071
:1054C0003109E217F30708F4ACC0D9010D911C9122
:1054D000119706171707B0F00530110508F49FC0A3
:1054E000C80104978617970708F499C0025011095C
:1054F000061B170B019311936D937C93CF010E94B0
:10550000B6298DC05B01A01AB10A4C01800E911E14
:10551000A0911506B091160640E050E0E12CF12C68
:10552000109709F44AC0A815B905D1F56D907C9083
:105530001197630182E0C80ED11CCA14DB0480F10C
:10554000A3014A195B096A0182E0C80ED11C1296B8
:10555000BC9012971396AC91B5E0CB16D10440F0F5
:10556000B282A38351834083D9016D937C930AC097
:105570000E5F1F4FC301800F911FF901918380833C
:10558000EB2DFA2FE114F10431F0D7011396FC93BF
:10559000EE93129744C0F0931606E09315063FC0B1
:1055A0008D919C9111974817590708F4AC017D0122
:1055B00012960D90BC91A02DB3CF809113069091BF
:1055C000140688159905E1F446175707C8F4809129
:1055D000060190910701009741F48DB79EB7409165
:1055E0000A0150910B01841B950BE817F907C8F4C9
:1055F000F0931406E0931306F901718360830FC0E2
:10560000CB010E9421297C01009759F0A801BE011D
:105610000E942A2BCE010E94B629C70104C0CE01E8
:1056200002C080E090E0CDB7DEB7EEE00C947F2BB7
:1056300081E090E0F8940C94A52BFB01DC0104C000
:105640008D910190801921F441505040C8F7881B7A
:10565000990B0895FB01DC0102C001900D924150AD
:105660005040D8F70895FC018191861721F08823D6
:10567000D9F7992708953197CF010895FB01DC01EF
:1056800001900D920020E1F70895FB01DC014150EB
:10569000504048F001900D920020C9F701C01D92C2
:1056A00041505040E0F708950E94962BA59F900D21
:1056B000B49F900DA49F800D911D112408952F92E9
:1056C0003F924F925F926F927F928F929F92AF9292
:1056D000BF92CF92DF92EF92FF920F931F93CF93DF
:1056E000DF93CDB7DEB7CA1BDB0B0FB6F894DEBF76
:1056F0000FBECDBF09942A88398848885F846E849C
:105700007D848C849B84AA84B984C884DF80EE80E5
:10571000FD800C811B81AA81B981CE0FD11D0FB6EE
:10572000F894DEBF0FBECDBFED010895A29FB0017A
:10573000B39FC001A39F700D811D1124911DB29FC5
:0E574000700D811D1124911D0895F894FFCF66
:10574E000107FFFFFFFF000017068000000040006A
:10575E0014005400000000004810C40F1110EF0F89
:10576E0003108F10000000009008C40F000000000E
:10577E007016401638162416151614160000000062
:10578E002115C40F00000000CC15A716AB15631928
:10579E006D199F1600000000E010C40FE010E0101D
:1057AE00E010E01000000000E010C40F525443203F
:1057BE004E6F74205365740070726F6A65637473F4
:1057CE002E747874004361726420526561642045C2
:1057DE0072726F720050726F6A6563740046696C04
:1057EE0065205772697465204572726F72003000C1
:1057FE000D0A003A002C002D2D2D2D2D2D2D2D2B8B
:10580E0000204852002F005245434F524430302E54
:04581E00435356009A
:107E0000112484B714BE81FFF0D085E080938100F7
:107E100082E08093C00088E18093C10086E0809377
:107E2000C20080E18093C4008EE0C9D0259A86E02C
:107E300020E33CEF91E0309385002093840096BBD3
:107E4000B09BFECF1D9AA8958150A9F7CC24DD24C4
:107E500088248394B5E0AB2EA1E19A2EF3E0BF2EE7
:107E6000A2D0813461F49FD0082FAFD0023811F036
:107E7000013811F484E001C083E08DD089C08234E0
:107E800011F484E103C0853419F485E0A6D080C0E4
:107E9000853579F488D0E82EFF2485D0082F10E0AE
:107EA000102F00270E291F29000F111F8ED06801E7
:107EB0006FC0863521F484E090D080E0DECF843638
:107EC00009F040C070D06FD0082F6DD080E0C81688
:107ED00080E7D80618F4F601B7BEE895C0E0D1E017
:107EE00062D089930C17E1F7F0E0CF16F0E7DF06D8
:107EF00018F0F601B7BEE89568D007B600FCFDCFD4
:107F0000A601A0E0B1E02C9130E011968C91119780
:107F100090E0982F8827822B932B1296FA010C0160
:107F200087BEE89511244E5F5F4FF1E0A038BF0790
:107F300051F7F601A7BEE89507B600FCFDCF97BE46
:107F4000E89526C08437B1F42ED02DD0F82E2BD052
:107F50003CD0F601EF2C8F010F5F1F4F84911BD097
:107F6000EA94F801C1F70894C11CD11CFA94CF0C13
:107F7000D11C0EC0853739F428D08EE10CD085E9AC
:107F80000AD08FE07ACF813511F488E018D01DD067
:107F900080E101D065CF982F8091C00085FFFCCF94
:107FA0009093C60008958091C00087FFFCCF809118
:107FB000C00084FD01C0A8958091C6000895E0E648
:107FC000F0E098E1908380830895EDDF803219F02E
:107FD00088E0F5DFFFCF84E1DECF1F93182FE3DFCA
:107FE0001150E9F7F2DF1F91089580E0E8DFEE27F6
:047FF000FF270994CA
:027FFE00040479
:0400000300007E007B
:00000001FF
