:100000000C942F010C9457010C9457010C94570138
:100010000C9457010C9457010C9457010C94570100
:100020000C9457010C9457010C9457010C945701F0
:100030000C9457010C9457010C9457010C945701E0
:100040000C946F0D0C9457010C94AB0C0C94850C14
:100050000C9457010C9457010C9457010C945701C0
:100060000C945D190C9457014E6F6E650020402072
:10007000004C6173742068656172746265617420FC
:1000800064657465637465643A2000446174653A1C
:100090002000446F6E652E002E2E2E2000437265C8
:1000A0006174696E672066696C652000446F6E65D7
:1000B0002E0052656164696E672070726F6A6563B5
:1000C00074732E7478742066696C652E2E2E200051
:1000D000446F6E652E005344206361726420696E24
:1000E000697469616C697A696E672E2E2E200074BE
:1000F000696D65436C6F636B2076322E302E382D20
:10010000616C7068610076322E302E38610074693F
:100110006D65436C6F636B0020414D0020504D00B6
:1001200054696D65200054696D65200054696D65E2
:1001300072204D61786564210068683A6D6D3A738C
:10014000730054696D65720054696D657220206892
:10015000683A6D6D3A737300456C61707365642025
:1001600000456C61707365642054696D65723A2056
:100170000053746F70706564210054696D6572007E
:1001800054696D65722053746F707065643A200015
:1001900053746172746564210054696D6572005412
:1001A000696D657220537461727465643A20006DE4
:1001B00065646961206465766963650044617461A2
:1001C000206C6F6767656420746F007C3C3E5E2B1B
:1001D0003D3F2F5B5D3B2C2A225C001F1C1F1E1F16
:1001E0001E1F1F1E1F1E1F0000000800020100002E
:1001F00003040700000000000000000000000025CC
:100200000028002B0000000000240027002A000422
:1002100004040404040404020202020202030303AD
:1002200003030301020408102040800102040810A7
:10023000200102040810204572726F723A200053A8
:10024000797374656D204572726F72210053656C0D
:100250006563746564004461746520008F27112410
:100260001FBECFEFD8E0DEBFCDBF11E0A0E0B1E010
:10027000EEEFF5E502C005900D92AC3CB107D9F761
:1002800026E0ACECB1E001C01D92AF30B207E1F75F
:1002900011E0CFE2D1E004C02197FE010E94732853
:1002A000CE32D107C9F70E947C1B0C94FD2A0C9416
:1002B0000000DC015996ED91FC915A973097B9F006
:1002C00083899489A589B689428553856485758516
:1002D000841B950BA60BB70B811520E89207A1058F
:1002E000B10538F08FEF9FE7A0E0B0E0089580E01F
:1002F00090E008953F924F925F926F927F928F921B
:100300009F92AF92BF92CF92DF92EF92FF920F93A4
:100310001F93CF93DF93CDB7DEB72C970FB6F8942A
:10032000DEBF0FBECDBF5C01DC015B968D909C9063
:100330005C971696CD90DD90ED90FC901997C114C6
:10034000D104E104F10439F0BFEFCB1ADB0AEB0A68
:10035000FB0A312C07C0F401C080D180E280F38019
:1003600033243394F40181859285A385B4859C015F
:10037000AD012F5F3F4F4F4F5F4F29873A874B8724
:100380005C87260137011D821E821F821886F401B8
:1003900081859285A385B4852D813E814F815885C5
:1003A000281739074A075B0708F063C089859A85D3
:1003B000AB85BC858C159D05AE05BF0550F482E06C
:1003C000C82ED12CE12CF12C92E0492E512C612C1D
:1003D000712C9E012F5F3F4FB701A601C4010E94FF
:1003E000BA11882309F445C089819A81AB81BC8107
:1003F000892B8A2B8B2B41F0260137019FEF491A5D
:10040000590A690A790A05C0C414D504E604F70438
:1004100091F02D813E814F8158852F5F3F4F4F4F87
:100420005F4F2D833E834F8358873FEFC31AD30A14
:10043000E30AF30AACCF0FEF1FEF2FEF3FE0B3015A
:10044000A201C4010E941A11882399F0D5011696C1
:100450004D915D916D917C91199741155105610503
:10046000710549F093018201C4010E941A118111A2
:1004700002C080E02AC0D50116964D925D926D9221
:100480007C921997332051F0D301C2010196A11D2E
:10049000B11DF40180839183A283B383F501878921
:1004A000908DA18DB28D892B8A2B8B2B69F4D50170
:1004B00057964D925D926D927C925A9714968C91BC
:1004C0001497806814968C9381E02C960FB6F8945C
:1004D000DEBF0FBECDBFDF91CF911F910F91FF9077
:1004E000EF90DF90CF90BF90AF909F908F907F90D4
:1004F0006F905F904F903F900895FC01818D928D99
:10050000009711F00C9453188FEF9FEF08958F927E
:100510009F92AF92BF92CF92DF92EF92FF920F9392
:100520001F93CF93DF93EC018D81811102C080E096
:1005300077C00B891C892D893E890417150726076A
:100540003707A8F36A017B01823029F4CA86DB866B
:10055000EC86FD860DC0C114D104E104F10451F410
:100560001E821F82188619861A861B861C861D8687
:1005700081E056C08A849B84AC84BD84EB8DFC8D65
:10058000258530E0275F3F4FB501A4014150510957
:1005900061097109022E04C07695679557954795B4
:1005A0000A94D2F7D701C6010197A109B10904C085
:1005B000B695A795979587952A95D2F784179507AD
:1005C000A607B70720F089288A288B2849F44F8985
:1005D000588D698D7A8D4E835F836887798704C0D3
:1005E000841B950BA60BB70B4C015D018E010A5FB6
:1005F0001F4F81149104A104B10409F4A7CF4E81C7
:100600005F816885798598018B8D9C8D0E94BA11D8
:1006100091E0891A9108A108B1088111EACF87CF2A
:10062000DF91CF911F910F91FF90EF90DF90CF90CE
:10063000BF90AF909F908F9008950F931F93CF938B
:10064000DF93FC01818D928D0097B9F0EF010E943C
:1006500053188C010F3F8FEF180791F0898D9A8DF9
:10066000FC014285538564857585415051096109B6
:1006700071090E948702C80105C080E090E002C0B5
:100680008FEF9FEFDF91CF911F910F9108958FB75B
:10069000F89480911A028FBF089561E0FC01848173
:1006A0000E94DD0C809119028111109219020895A7
:1006B0008EBD00000DB407FEFDCF8EB508958FEFFF
:1006C0000C9458030F931F93CF93DF93EB010E9479
:1006D000630D8B010E945F038F3F49F00E94630D01
:1006E000601B710B6C177D07A8F380E001C081E0EF
:1006F000DF91CF911F910F910895CF93DF93EC017C
:100700008E81882389F08F8198859C012F5F3F4FD0
:1007100038872F838230924018F40E945F03F3CF12
:10072000CE010E944D031E82DF91CF9108958CBDB2
:100730009DBD0895CF93DF93EC0180911902811143
:1007400009C081E0809319028091350590913605AA
:100750000E94970360E08C81DF91CF910C94DD0CB7
:10076000CF92DF92FF920F931F93CF93DF9300D02E
:1007700000D0CDB7DEB76C01F62E29833A834B83C8
:100780005C830E947D03C6010E949A036CE271E0C3
:10079000C6010E9462038F2D80640E94580308E105
:1007A00010E05C814B813A812981DA01C901002E78
:1007B00004C0B695A795979587950A94D2F7298393
:1007C0003A834B835C830E945803085011092981A6
:1007D0003A814B815C81083F8FEF180731F7FF208A
:1007E00029F0E8E0FE1204C087E803C085E901C0F3
:1007F0008FEF0E94580310E00E945F03F60182878A
:1008000087FF04C01F3F11F01F5FF6CF0F900F90BE
:100810000F900F90DF91CF911F910F91FF90DF907C
:10082000CF900895AF92BF92CF92DF92EF92FF9256
:100830000F931F93CF93DF93EC016901C801820FDF
:10084000931F8130924008F070C08E81882371F030
:1008500088819981AA81BB81481759076A077B075C
:1008600029F48F819885C816D906B0F54883598335
:100870006A837B838B85833039F089E0440F551F71
:10088000661F771F8A95D1F79A01AB0161E1CE010E
:100890000E94B003882319F083E08D8346C00E9434
:1008A000630D5B010E945F038A878F3F49F40E94BA
:1008B000630D6A197B096D327140A0F38FE003C0AC
:1008C0008E3F31F08DE08D83CE010E944D032DC00F
:1008D00018861F8281E08E838F8198858C159D05F7
:1008E00040F40E945F038F819885019698878F83DB
:1008F000F3CF6701E00EF11ECE14DF0431F00E9449
:100900005F03F60181936F01F7CF8F819885080F00
:10091000191F18870F838985882319F00115124044
:1009200048F0CE010E947D0305C0CE010E944D0318
:1009300080E001C081E0DF91CF911F910F91FF9086
:10094000EF90DF90CF90BF90AF900895EF92FF921D
:100950000F931F93CF93DF93EC017901411551055C
:100960006105710511F482E13CC08B85833039F05B
:1009700089E0440F551F661F771F8A95D1F79A01AA
:10098000AB0168E1CE010E94B003882311F084E03E
:1009900028C08EEF0E94580387018EEFF81AF801E5
:1009A00081918F010E9458030E151F05C1F78FEF2B
:1009B0000E9458038FEF0E9458030E945F038A87AA
:1009C0008F71853031F081E18D83CE010E944D031E
:1009D00009C068E572E0CE010E946203811107C080
:1009E00085E18D83CE010E944D0380E013C020E09D
:1009F00030E0A9016DE0CE010E94B003811104C076
:100A00000E945F03882311F084E1EBCFCE010E94A6
:100A10004D0381E0DF91CF911F910F91FF90EF90F7
:100A2000089580911B028823A9F140910201509101
:100A30000301609104017091050129E232E0809187
:100A4000290490912A040E94A604811102C080E02A
:100A5000089540911C0250911D0260911E027091F8
:100A60001F02411551056105710591F029E232E03F
:100A70008091290490912A040E94A604882339F3C6
:100A800010921C0210921D0210921E0210921F0260
:100A900010921B0281E008950F931F93CF93DF9371
:100AA000EC018D81882309F447C08C8187FF3EC00B
:100AB0006E857F858889998941E00E94D1108823BD
:100AC000D9F18A8920E2829FC0011124FC01E75DEF
:100AD000FD4F309789F12D81223040F44B895C899C
:100AE0006D897E89448F558F668F778F4F89588D9A
:100AF000698D7A8D8C01075D1D4FF801538F428FF0
:100B0000758B648BE091CC01F091CD01309759F059
:100B1000BC01615C7D4F8F5B9D4F0995F801808D15
:100B2000918D938B828B8C818F778C83DF91CF918A
:100B30001F910F910C94110580E0DF91CF911F91CF
:100B40000F9108958F929F92AF92BF92CF92DF92B2
:100B5000EF92FF920F931F93CF93DF9300D000D0BB
:100B6000CDB7DEB77C0180E2689F60011124960159
:100B7000275D3D4FD9011B969C91917121F0842FE7
:100B8000827409F097C0142FF701628B80910201E3
:100B900090910301A0910401B09105018687978788
:100BA000A08BB18BF601E75DFD4F4489558960E06C
:100BB00070E0BA0155274427D70157964D935D93AE
:100BC0006D937C935A97828D938DA0E0B0E0482B73
:100BD000592B6A2B7B2BD70157964D935D936D93C1
:100BE0007C935A97D9011B968C91887159F4848D06
:100BF000958DA68DB78DF701838B948BA58BB68BC6
:100C000081E012C0803109F055C097012D5E3F4F41
:100C1000D7015B968D919C915C970E943E12882330
:100C200009F448C084E0F7018583812F8F70D701D4
:100C300014968C931497F7011682178210861186EA
:100C40001A961D921D921D921C921D9716FF34C07C
:100C500015968C91813071F511FF2CC0F7014389F5
:100C6000548965897689452B462B472B09F461C049
:100C700040E050E0BA01C7010E9487028823D1F00A
:100C8000F7018788908CA18CB28CC38CD48C82E0C5
:100C900090E0A0E0B0E0F60180839183A283B3836B
:100CA0009E012F5F3F4FB501A401C6010E94BA11FA
:100CB000811104C080E03DC081E03BC000E010E055
:100CC0009801B501A401C6010E941A11882391F36D
:100CD00089809A80AB80BC80D60157968C918031F8
:100CE00029F088EF9FEFAFEFBFE004C088EF9FEFE0
:100CF000A0E0B0E088169906AA06BB0688F2D701E4
:100D000057961D921D921D921C925A97F701138AB5
:100D1000148A158A168A848180688483C7010E9498
:100D20004C05882339F240E050E0BA01C7010E9427
:100D300087020F900F900F900F90DF91CF911F912E
:100D40000F91FF90EF90DF90CF90BF90AF909F906A
:100D50008F900895CF93DF93EC010E944C05882378
:100D600011F01D8281E0DF91CF910895FC01818D0A
:100D7000928D009711F00C944C0508954F925F925C
:100D80006F927F929F92AF92BF92CF92DF92EF923B
:100D9000FF920F931F93CF93DF93CDB7DEB72B97BF
:100DA0000FB6F894DEBF0FBECDBF7C01DC011596F7
:100DB000AC90A11097C1FE0131966F0190E28BE0DB
:100DC0008E0F91938E13FDCFDA0130E087E09D9175
:100DD000992339F19E3219F0EBECF1E00AC08A3028
:100DE00009F481C138E08AE0F2CF3196491709F45D
:100DF0007AC144914111F9CF831708F474C14FEDC2
:100E0000490F4E3508F06FC141E0430FF601E30F83
:100E1000F11D3FE9390F3A3108F490529083342F95
:100E2000D6CF8981803209F45EC1B22E8B01DB01FD
:100E30005B968D919C915C97F701948F838F1696AA
:100E40001D921D921D921C921997FB01128613860A
:100E500014861586712CF80182859385A485B58545
:100E6000438954896589768984179507A607B7074A
:100E700008F061C025E0B695A795979587952A95C6
:100E8000D1F7F82FFF709F2ED80115968C918230E4
:100E900008F429C1C8010E94531897FD24C1F80124
:100EA00082859385A485B5854F96A11DB11D828746
:100EB0009387A487B587F0E29F9EC0011124BC01EF
:100EC000675D7D4F6115710509F40DC1DB012C9142
:100ED000222319F0253EC1F427C071100EC0F7017E
:100EE000928A409102015091030160910401709136
:100EF000050146875787608B718BFC01E75DFD4FCD
:100F00008081811113C015C04BE050E0C6010E94E2
:100F1000752A892B09F09FCF8B2D8073803309F4BC
:100F2000E2C04B2D692DD9C07720C9F27724739484
:100F300092CF772473948B2D8271823109F0D3C0C4
:100F40007720D1F0D7011E966D917D918D919C9166
:100F5000519741E00E94D110882309F4C4C0F701E1
:100F60000289F0E20F9F80011124075D1D4F0115DA
:100F7000110509F079C0B7C0D80115968C9182305F
:100F800009F4B1C0C8010E947A01882309F4ABC0FA
:100F9000D8015B96ED91FC915C9716964D905D9013
:100FA0006D907C901997B2E04B1A51086108710856
:100FB000058404C0440C551C661C771C0A94D2F7A7
:100FC00086859785A089B189480E591E6A1E7B1EA9
:100FD0009480E1E04E1A510861087108992009F1E6
:100FE0000E941105882309F47EC0E9E2F2E0119223
:100FF00024E0E932F207D9F7D301C201890D911D2E
:10100000A11DB11D8093020190930301A0930401DF
:10101000B093050180911B02816080931B029A941A
:10102000DDCFD8015B96ED91FC915C9780E092E07A
:10103000A0E0B0E0058404C0880F991FAA1FBB1F61
:101040000A94D2F7F8014389548965897689840F17
:10105000951FA61FB71F838B948BA58BB68BD701CB
:1010600052961C9209E212E080E2F80111928A95F0
:10107000E9F78BE0F601D80101900D928A95E1F72E
:10108000E091CC01F091CD01309739F0B801625F69
:101090007F4FC801409609950DC081E298E2D801C2
:1010A00051969C938E93509780E098E01F969C9366
:1010B0008E931E97F80180899189938B828B918FF3
:1010C000808F86859785978B868B0E941105882354
:1010D00051F04B2DD70152966C91C7010E94A20589
:1010E000A82E01C0A12C8A2D2B960FB6F894DEBF36
:1010F0000FBECDBFDF91CF911F910F91FF90EF9069
:10110000DF90CF90BF90AF909F907F906F905F9057
:101110004F9008952F923F924F925F926F927F92DD
:101120008F929F92AF92BF92CF92DF92EF92FF92F7
:101130000F931F93CF93DF9300D000D0CDB7DEB7CE
:101140008C016B013A01DC0115968C911597813069
:10115000C9F414968C9181FF15C082FF1DC0F8015F
:10116000438954896589768982859385A485B58567
:1011700084179507A607B70779F0C8010E94870270
:1011800081110AC081E090E0D80113969C938E9360
:10119000129780E090E048C1430184C0D8015B967B
:1011A0008D919C915C97FC0154802FEF250D1A01C5
:1011B0002B0139E056944794379427943A95D1F708
:1011C000522E52207A01F1E0FF22552009F476C018
:1011D00080E092E08E199F0954018815990508F462
:1011E0005C01D8015B962D913C915C9716968D9190
:1011F0009D910D90BC91A02D0297A109B109F90113
:10120000058404C0880F991FAA1FBB1F0A94D2F738
:101210004685578560897189840F951FA61FB71F62
:101220009C01AD01250D311D411D511D19012A01E2
:10123000A11432E0B30609F088C0809102019091B8
:101240000301A0910401B091050182159305A40545
:10125000B50559F48FEF9FEFDC0180930201909365
:101260000301A0930401B09305019601B201A1010D
:101270008091290490912A040E94A604882309F4ED
:1012800081CF9EEFD91A8A189B08F8018285938531
:10129000A485B5858A0D9B1DA11DB11D82879387ED
:1012A000A487B587D8011A964D915D916D917C9177
:1012B0001D978114910409F071CF87C0E114F104E6
:1012C00009F086CF16964D915D916D917C9119979D
:1012D000411551056105710559F457968D919D9100
:1012E0000D90BC91A02D0097A105B10541F521C03D
:1012F0009E012F5F3F4F0E94BA11882309F44ACF05
:1013000089819A81AB81BC81F801238D348DF901EB
:101310002789203129F048EF5FEF6FEF7FE004C0AD
:1013200048EF5FEF60E070E084179507A607B70706
:1013300030F0C8010E947A0181114ACF23CFF80111
:1013400086839783A087B18743CFE114F10429F501
:10135000D8011A964D915D916D917C911D97539690
:101360008D919D910D90BC91A02D481759076A074A
:101370007B0798F00E941105882309F403CF20927F
:1013800002013092030140920401509205018091C4
:101390001B02816080931B0208C041E0C201B101C1
:1013A0000E94D110882309F4EDCED601F701E75D44
:1013B000FD4FCF018A0D9B1DE817F90719F02D91FC
:1013C0002193FACFCA0CDB1C5ECF5396CD90DD90F3
:1013D000ED90FC90569714968C91C416D506E606AF
:1013E000F70640F4F801438B548B658B768B80684D
:1013F00084830DC02091CC013091CD01232B39F095
:101400006114710421F08068D80114968C93F8015E
:10141000848183FD02C0C30107C0C8010E944C053E
:10142000882309F4AFCEF7CF0F900F900F900F9055
:10143000DF91CF911F910F91FF90EF90DF90CF90B0
:10144000BF90AF909F908F907F906F905F904F90E4
:101450003F902F900895CF93DF931F92CDB7DEB7C3
:10146000698341E050E0BE016F5F7F4F0E948A08B0
:101470000F90DF91CF910895FC01DB0112968D91C1
:101480009C9113979383828388E291E09183808378
:1014900014968C911497848315968C911597858357
:1014A00016964D915D916D917C9119974683578366
:1014B000608771871A964D915D916D917C911D9712
:1014C00042875387648775871E964D915D916D9114
:1014D0007C91519746875787608B718B52968C9180
:1014E0005297828B53964D915D916D917C91569759
:1014F000438B548B658B768B57964D915D916D9197
:101500007C915A97478B508F618F728F5B968D912C
:101510009C915C97948F838F0895CF92DF92EF9286
:10152000FF920F931F93CF93DF936C017A018B018E
:10153000C0E0D0E0CE15DF0589F0D8016D918D01B6
:10154000D601ED91FC910190F081E02DC601099545
:10155000892B11F47E0102C02196ECCFC701DF91E7
:10156000CF911F910F91FF90EF90DF90CF90089552
:10157000FC01918D828D981761F0828DDF01A80F9B
:10158000B11D5D968C91928D9F5F9F73928F90E0BD
:1015900008958FEF9FEF0895FC01918D828D98172C
:1015A00031F0828DE80FF11D858D90E008958FEF69
:1015B0009FEF0895FC01918D228D892F90E0805C32
:1015C0009F4F821B91098F739927089588E994E0B2
:1015D0000E94DA0A21E0892B09F420E0822F089585
:1015E000FC01848DDF01A80FB11DA35ABF4F2C91C0
:1015F000848D90E001968F739927848FA689B7898F
:101600002C93A089B1898C9180648C93938D848D67
:10161000981306C00288F389E02D80818F7D808336
:101620000895EF92FF920F931F93CF93DF93EC01F6
:1016300081E0888F9B8D8C8D981305C0E889F9898E
:10164000808185FD24C0F62E0B8D10E00F5F1F4FAB
:101650000F731127E02E8C8DE8120CC00FB607FC1B
:10166000FACFE889F989808185FFF5CFCE010E9404
:10167000F00AF1CF8B8DFE01E80FF11DE35AFF4F09
:10168000F0820B8FEA89FB898081806207C0EE8936
:10169000FF896083E889F98980818064808381E0A3
:1016A00090E0DF91CF911F910F91FF90EF900895FF
:1016B000CF93DF93EC01888D8823C9F0EA89FB89F9
:1016C000808185FD05C0A889B9898C9186FD0FC0F0
:1016D0000FB607FCF5CF808185FFF2CFA889B989C5
:1016E0008C9185FFEDCFCE010E94F00AE7CFDF910C
:1016F000CF91089580E090E0892B29F00E94E60ABE
:1017000081110C94000008953FB7F8948091250250
:1017100090912602A0912702B091280226B5A89B9D
:1017200005C02F3F19F00196A11DB11D3FBFBA2F73
:10173000A92F982F8827820F911DA11DB11DBC01D3
:10174000CD0142E0660F771F881F991F4A95D1F798
:1017500008950E94702A0F931F93CF93DF93EC019B
:1017600088819981009729F02A813B8126173707C4
:1017700088F48B016F5F7F4F0E94A629009761F06C
:10178000998388831B830A832C813D81232B11F449
:10179000FC01108281E001C080E0DF91CF911F91B8
:1017A0000F910895DC01ED91FC910190F081E02D05
:1017B0000994EF92FF920F931F93CF93DF938C01C5
:1017C0007B01C0E0D0E0F701EC0FFD1F64916623C0
:1017D00061F0D801ED91FC910190F081E02DC801FC
:1017E0000995892B11F02196EECFCE01DF91CF9193
:1017F0001F910F91FF90EF9008956115710579F099
:10180000FB0101900020E9F73197AF01461B570B10
:10181000DC01ED91FC910280F381E02D099480E0E0
:1018200090E008954F925F926F927F92EF92FF92B5
:101830000F931F93CF93DF93CDB7DEB7A1970FB66A
:10184000F894DEBF0FBECDBF7C01FA01CB0119A217
:10185000223008F42AE08E010F5D1F4F422E512CDA
:10186000612C712CBF01A30192010E945128F90142
:10187000CA01015011096A3014F4605D01C0695C4D
:10188000D8016C93232B242B252B61F7B801C701BA
:101890000E94FD0BA1960FB6F894DEBF0FBECDBF20
:1018A000DF91CF911F910F91FF90EF907F906F90FC
:1018B0005F904F9008950F931F93CF93DF93EC01A8
:1018C0000E94FD0B8C0160EB71E0CE010E94FD0BCC
:1018D000800F911FDF91CF911F910F9108950F936A
:1018E0001F93CF93DF93EC010E94D90B8C0160EB27
:1018F00071E0CE010E94FD0B800F911FDF91CF910F
:101900001F910F9108950C94FD0B1F920F920FB62B
:101910000F9211242F933F934F935F936F937F9375
:101920008F939F93AF93BF93EF93FF9388E994E0D6
:101930000E94F00AFF91EF91BF91AF919F918F911B
:101940007F916F915F914F913F912F910F900FBEBB
:101950000F901F9018951F920F920FB60F9211249F
:101960002F938F939F93EF93FF93E091A804F091AF
:10197000A9048081E091AE04F091AF0482FD12C011
:1019800090818091B1048F5F8F732091B204821790
:1019900051F0E091B104F0E0E856FB4F958F809351
:1019A000B10401C08081FF91EF919F918F912F91A0
:1019B0000F900FBE0F901F90189590E0FC01E95119
:1019C000FE4F3491FC01ED5DFD4F2491FC01E15F80
:1019D000FD4FE491EE2309F43BC0332339F133305A
:1019E00091F038F43130A9F0323001F584B58F7DB3
:1019F00012C0373091F03830A1F03430B9F4809112
:101A000080008F7D03C0809180008F77809380005D
:101A10000DC084B58F7784BD09C08091B0008F77E9
:101A200003C08091B0008F7D8093B000F0E0EE0F96
:101A3000FF1FE550FE4FA591B4918FB7F894EC913C
:101A4000611103C020952E2301C02E2B2C938FBF34
:101A500008958F929F92AF92BF92CF92DF92EF92B2
:101A6000FF926B017C010E94840B4B015C01C1144D
:101A7000D104E104F104F1F00E94840BDC01CB01FC
:101A800088199909AA09BB09883E9340A105B105A7
:101A900070F321E0C21AD108E108F10888EE880E3F
:101AA00083E0981EA11CB11CC114D104E104F1040F
:101AB00019F7DDCFFF90EF90DF90CF90BF90AF9000
:101AC0009F908F9008952FB7F894609121027091A4
:101AD000220280912302909124022FBF08951F9229
:101AE0000F920FB60F9211242F933F938F939F93D2
:101AF000AF93BF938091210290912202A091230283
:101B0000B09124023091200223E0230F2D3720F4DE
:101B10000196A11DB11D05C026E8230F0296A11D47
:101B2000B11D209320028093210290932202A09362
:101B30002302B09324028091250290912602A09165
:101B40002702B09128020196A11DB11D80932502A4
:101B500090932602A0932702B0932802BF91AF91E1
:101B60009F918F913F912F910F900FBE0F901F90DB
:101B70001895682F80E895E00C948817EF92FF92F3
:101B80000F931F93CF93DF9300D0CDB7DEB77C01C7
:101B9000162F683020F0185095E103E102C094E15F
:101BA00002E1F701808180624A8399830E94EB12EF
:101BB0009981892F0E94B90D0E94FF12F70190812F
:101BC000892F806261E070E090E00E94F51280E869
:101BD00095E00E943C174A8121E030E001C0220FCD
:101BE0001A95EAF7413019F4122F182B03C02095EB
:101BF000122F1823F701808180620E94EB12802F40
:101C00000E94B90D812F0E94B90D0F900F90DF91A6
:101C1000CF911F910F91FF90EF900C94FF12FC0158
:101C2000962F828D8F3F31F0603140F4CF014B967B
:101C30000C94BE0D642F892F0C94DD0C0895CF9366
:101C4000DF93EC0140E06E810E940F0E41E06E8157
:101C5000CE010E940F0E40E06E81CE010E940F0E59
:101C60008BE891E00197F1F7DF91CF910895EF9222
:101C7000FF920F931F93CF93DF931F92CDB7DEB7E1
:101C80007C01162F683018F0185001E001C000E008
:101C9000F7018081806249830E94EB12802F0E94AD
:101CA000B90D0E94FF12F7018081806261E070E04F
:101CB00090E00E94F51280E895E00E943C1749816F
:101CC00021E030E001C0220F1A95EAF7411103C06C
:101CD000122F182B03C02095122F1823F701808193
:101CE00080620E94EB12802F0E94B90D812F0E940A
:101CF000B90D0F90DF91CF911F910F91FF90EF9051
:101D00000C94FF12603110F40C94370E0895CF93A9
:101D1000DF9300D0CDB7DEB7FC018081806269839C
:101D20007A830E94EB1282E10E94B90D6981862FAD
:101D30000E94B90D7A81872F0E94B90D0F900F90E4
:101D4000DF91CF910C94FF128F929F92AF92BF922E
:101D5000CF92DF92EF92FF920F931F93CF93DF9377
:101D6000EC018A8D8E01095F1F4FC62ED12C8F3F4B
:101D700009F483C07E018BE1E80EF11C8B8D80623B
:101D80000E94EB1282E10E94B90D0E94FF128B8D1E
:101D9000806262E070E090E00E94F51280E895E0D9
:101DA0000E943C17B82E80E895E00E943C17982FBF
:101DB00088279C012B29F801A0E0B0E061E070E0E9
:101DC000B19001E010E0CB010B2C02C0880F991FED
:101DD0000A94E2F78095909528233923A6010A2ECC
:101DE00002C0559547950A94E2F74170552702C005
:101DF000440F551FBA94E2F7242B352B1196A430CB
:101E0000B105F1F668010E8002C0CC0CDD1C0A940D
:101E1000E2F7C094D094C222D322B601C7010E9437
:101E2000870EB8010E8002C0660F771F0A94E2F792
:101E3000C62AD72AB601C7010E94870E0E8002C0AB
:101E4000000F111F0A94E2F700951095B601602368
:101E50007123C7010E94870E8BE891E00197F1F78B
:101E6000DF91CF911F910F91FF90EF90DF90CF9076
:101E7000BF90AF909F908F900895E12CF12C4E0170
:101E8000EBE18E0E911C5801F80180819A8D9F3FE5
:101E900031F041E0682FC4010E94820E02C00E940E
:101EA0005C130F5F1F4FA6010E2C02C0559547957E
:101EB0000A94E2F74170F5016081CE010E940F0E95
:101EC000FFEFEF1AFF0A84E0E816F104E1F6CE0115
:101ED000DF91CF911F910F91FF90EF90DF90CF9006
:101EE000BF90AF909F908F900C941F0E8F929F92F7
:101EF000AF92BF92CF92DF92EF92FF920F931F9318
:101F0000CF93DF93EC01F62E6C810E940F0E6D8152
:101F10006F3F21F040E0CE010E940F0E8C890F2D03
:101F200010E084FF3EC06E0187E0C80ED11CE12C9A
:101F3000F12C4E01EBE18E0E911C5601F6018081D1
:101F40009A8D9F3F31F041E0682FC4010E94820EBC
:101F500002C00E945C13FFEFCF1ADF0AA8010E2C0B
:101F600002C0559547950A94E2F74170F5016081EA
:101F7000CE010E940F0EFFEFEF1AFF0A88E0E8166D
:101F8000F104D9F6CE01DF91CF911F910F91FF900F
:101F9000EF90DF90CF90BF90AF909F908F900C9478
:101FA0001F0EB80184E0759567958A95E1F7CE011B
:101FB0000E94A40E6F2DCE01DF91CF911F910F9142
:101FC000FF90EF90DF90CF90BF90AF909F908F9059
:101FD0000C94A40E41E00E94760F81E090E00895F9
:101FE000CF92DF92EF92FF920F931F93CF93DF93E5
:101FF000EC0188E60E94EB1260E080E895E00E9428
:1020000088170E94FF1267E070E088E690E00E9467
:10201000F51280E895E00E943C178F77982F9295F3
:102020009F701AEF082F919F000D112480E895E012
:102030000E943C179C01332794E0359527959A958B
:10204000E1F7F82E129FF00C112480E895E00E9431
:102050003C179C01332744E0359527954A95E1F7D5
:10206000E82E129FE00C112480E895E00E943C17B6
:1020700080E895E00E943C179C01332754E0359599
:1020800027955A95E1F7D82E129FD00C112480E89D
:1020900095E00E943C179C01332764E03595279515
:1020A0006A95E1F7C82E129FC00C112480E895E0D4
:1020B0000E943C179C01332774E0359527957A954B
:1020C000E1F7129F800D11248883C982DA82EB82A6
:1020D000FC820D83CE01DF91CF911F910F91FF9074
:1020E000EF90DF90CF900895EF92FF920F931F93A0
:1020F000CF93DF93EC0139818881682F70E04A81AA
:1021000050E0EBEDF1E091E09E1B292F2E0F2317FD
:1021100028F42491420F511D3196F7CF333020F02F
:10212000837011F44F5F5F4F8DE691E0689F9001DF
:10213000699F300D789F300D1124215031096D5F5A
:102140007F4F7695679576956795260F371F240FF5
:10215000351FA8E1B0E00E94EE2A2B817B018C01A3
:10216000E20EF11C011D111DA8019701ACE3B0E0C6
:102170000E94AC2A2C817B018C01E20EF11C011D16
:10218000111DA80197010E94AC2A2D81620F711DBB
:10219000811D911DDF91CF911F910F91FF90EF90C5
:1021A00008958F929F92AF92BF92EF92FF920F93FA
:1021B0001F93CF934B015C01C42F8091020190913A
:1021C0000301A0910401B091050188159905AA05A4
:1021D000BB0501F10E941105811102C080E020C001
:1021E00089E2E82E82E0F82E00E012E020E030E004
:1021F000B501A4018091290490912A040E9412043F
:10220000882361F38092020190920301A09204015D
:10221000B092050180911B02C82BC0931B0281E084
:10222000CF911F910F91FF90EF90BF90AF909F9033
:102230008F9008954F925F926F927F928F929F92AC
:10224000AF92BF92CF92DF92EF92FF920F931F93C4
:10225000CF93DF93EC016A017B0128013901423001
:1022600051056105710510F480E073C089859A8578
:10227000AB85BC850196A11DB11D84179507A607E6
:10228000B70790F38B889C88AD88BE888F89803192
:1022900029F4BB27AF2D9E2D8D2D09C0DB01CA016E
:1022A00047E0B695A795979587954A95D1F7880EFB
:1022B000991EAA1EBB1E8091020190910301A0915C
:1022C0000401B091050188169906AA06BB0679F4A7
:1022D0008F898031A1F4DD24EE24FF24C601880F0C
:1022E000991FFC01E75DFD4F5182408219C040E01B
:1022F000C501B4010E94D1108111EACFB5CFE89495
:10230000C7F8DD24EE24FF24C601880F991F880F2B
:10231000991FFC01E75DFD4F40825182628273820A
:1023200080911B02816080931B028A89823080F039
:102330008D819E81AF81B885880E991EAA1EBB1E15
:1023400080921C0290921D02A0921E02B0921F0267
:1023500081E0DF91CF911F910F91FF90EF90DF907F
:10236000CF90BF90AF909F908F907F906F905F9035
:102370004F9008958F929F92AF92BF92CF92DF922B
:10238000EF92FF920F931F93CF93DF93FC01818510
:102390009285A385B4850196A11DB11D841795076B
:1023A000A607B70710F480E05CC083899489A589EB
:1023B000B689C789C03129F4852E962EA72EBB2455
:1023C00009C04A015B01C7E0B694A794979487942B
:1023D000CA95D1F7E9016A017B018F01BC01CD01EA
:1023E000680D791D8A1D9B1D80900201909003014C
:1023F000A0900401B0900501681579058A059B0538
:1024000099F4F80187898031A9F4B701A60155270D
:1024100066277727440F551FFA01E75DFD4F80813E
:102420009181A0E0B0E018C040E00E94D11081117D
:10243000E8CFB9CFB701A6014F7755276627772791
:10244000440F551F440F551FFA01E75DFD4F808172
:102450009181A281B381BF7088839983AA83BB8352
:1024600081E0DF91CF911F910F91FF90EF90DF906E
:10247000CF90BF90AF909F908F9008954F925F92B2
:102480006F927F92AF92BF92CF92DF92EF92FF92C4
:102490000F931F93CF93DF9300D000D0CDB7DEB75B
:1024A0008C0149835A836B837C835901C12CD12CC5
:1024B0007601412C82E0582E612C712C49815A8181
:1024C0006B817C819E012F5F3F4FC8010E94BA1132
:1024D000882351F1D301C201F801058404C0880F9B
:1024E000991FAA1FBB1F0A94D2F7C80ED91EEA1E55
:1024F000FB1E49815A816B817C818789803129F05B
:1025000088EF9FEFAFEFBFE004C088EF9FEFA0E040
:10251000B0E0481759076A077B0780F2F501C082CF
:10252000D182E282F38281E00F900F900F900F90A2
:10253000DF91CF911F910F91FF90EF90DF90CF909F
:10254000BF90AF907F906F905F904F900895909163
:1025500097049111FCCF91E0909397049093960487
:102560002FEF2093950410929404260F2093930448
:102570009093920490919204880F892B80939204F7
:1025800080919104813061F41092910480919204C1
:102590008093BB008091BC0083FDF8CF85EC01C027
:1025A00085EE8093BC00809197048130E1F38091A7
:1025B0009404861710F460919404A1E7B4E021E537
:1025C00034E0F9018E2F821B861718F48D918193C8
:1025D000F9CF862F089591E0909350048093C3051E
:1025E00010924F0410924E040895613208F060E298
:1025F0000E94A71210924D0480934C0408952091DC
:102600004E049091C305213208F04AC0809197048E
:102610008111FCCF32E03093970431E0309396047F
:102620003FEF309395041092940420939304ACE20E
:10263000B4E041E754E0FA013E2F341B321718F49E
:102640003D913193F9CF1092920420919204990F09
:10265000922B9093920490919104913061F4109296
:102660009104909192049093BB009091BC0093FDD3
:10267000F8CF95EC01C095EE9093BC009091970433
:102680009230E1F3909195049F3F79F08091950409
:10269000803241F080919504803331F084E005C0B0
:1026A00081E003C082E001C083E010924F041092E9
:1026B0004E0410925004089590E0FC01ED5DFD4F32
:1026C0002491FC01E15FFD4F8491882399F090E013
:1026D000880F991FFC01EB5FFD4FA591B491FC01A0
:1026E000E550FE4F859194918FB7F894EC91E22BD1
:1026F000EC938FBF089540E0682F8CE895E00C9430
:10270000760FCF93DF93CDB7DEB728970FB6F89447
:10271000DEBF0FBECDBF98E0ECE0F1E0DE01119628
:1027200001900D929A95E1F79091A405961710F4F7
:102730006FEF690FFE013196E60FF11DE60FF11DF7
:102740009081890F806828960FB6F894DEBF0FBE7F
:10275000CDBFDF91CF910C947B1381E00E947B135E
:102760008BE39FE10197F1F708950F931F93CF93A8
:10277000DF93EC01462F50E060E070E02AE00E9419
:10278000120C8C0160EB71E0CE010E94FD0B800FFA
:10279000911FDF91CF911F910F910895462F50E027
:1027A00060E070E02AE00C94120CCF93C82F88E60A
:1027B0000E94EB126C2F70E0685F7F4F80E895E01D
:1027C0000E9488170E94FF1261E088E60E94A7120B
:1027D00010924D0480934C0480E895E00E943C17D1
:1027E000CF910895CF93DF93D82FC1E082FB442788
:1027F00040F94C2768E087EA95E00E94BE0DD1FBC6
:10280000442740F94C2767E087EA95E00E94BE0D17
:102810004D2F41704C2766E087EA95E0DF91CF911C
:102820000C94BE0D2F923F924F925F926F927F92C7
:102830008F929F92AF92BF92CF92DF92EF92FF92D0
:102840000F931F93CF93DF93CDB7DEB7C756D10950
:102850000FB6F894DEBF0FBECDBF5C014B01A6964C
:102860004FAFA6973E018EE1680E711C61E675E0E0
:10287000C3010E943C0A1C821B8288E291E09A8379
:1028800089831E827401FE0131966F0123011F01AD
:102890006FE270E0C7010E948B2A0097F1F1F70107
:1028A00020812F3221F4FFEFEF1AFF0AF1CF8E19AA
:1028B0008D3008F08CE0082F10E0A801B701CE01A0
:1028C000885A9F4F0E949D2AE8E5F0E0EC0FFD1F1B
:1028D000E00FF11F1082C6010E94AA0621E0AE019E
:1028E000485A5F4FB201C6010E94BE0681110AC05C
:1028F0001EAE1DAE88E291E09CAF8BAF21961FAE5D
:10290000219717C0E00EF11EC2010E94AA06942D65
:10291000852D2601C92ED82EBBCFC701881999094C
:10292000A8969FAF8EAFA897B201CE01CB960E941A
:102930003C0AA896EEADFFADA8978E0E9F1EF4013F
:102940008081811109C0BE01655C7F4FC1010E9479
:102950003C0A4BEB51E04BC019A218A288E291E06F
:102960009F8F8E8F1BA221968FAD2197811113C04F
:10297000F5011382128288EE93E0A0E0B0E0848338
:102980009583A683B78388E491E091838083128E38
:10299000118E148630C08250A6962FADA697A40142
:1029A000823040F461E675E0C3010E94BE068111E9
:1029B0000DC0DECFBE01655C7F4FC3010E94BE0625
:1029C0008823B1F2CE01CB960E94AA06A6968FADBF
:1029D000A697867039F049A95AA96BA97CA9C301A9
:1029E0000E948702B301C1010E943C0AA401B10107
:1029F000C5010E941E18C501C959DF4F0FB6F894D2
:102A0000DEBF0FBECDBFDF91CF911F910F91FF9021
:102A1000EF90DF90CF90BF90AF909F908F907F907E
:102A20006F905F904F903F902F9008950F931F935A
:102A3000CF93DF93EC010E94630D688779878A87C3
:102A40009B87CE010E947D0297FF17C00E94630DF5
:102A5000088519852A853B85DC01CB01801B910BFC
:102A6000A20BB30B0C811D812E813F818017910732
:102A7000A207B30730F38FEF9FEFDF91CF911F9144
:102A80000F9108958F929F92AF92BF92CF92DF9253
:102A9000EF92FF92CF93DF93C82F87E395E0909357
:102AA0002A0480932904CC2369F1C53010F080E01A
:102AB0000DC140E060E070E0CB010E94D11088239E
:102AC000B1F320E1C29FC0011124875E9D4FFC013C
:102AD000E254FE4F20812F7751F73C96408151817F
:102AE00062817381443651056105710500F33497A5
:102AF000C080D180E280F380C114D104E104F104EC
:102B000021F4D5CFC12CD12C760140E0C701B6010C
:102B10000E94D110882359F280913402909135029D
:102B20008115924021F6A0913902AA2309F4BFCF62
:102B300060913702709138026115710509F4B7CFC1
:102B400020913602222309F4B2CFA0935505209399
:102B5000470580E030E0E1E0F0E0C82FAF01082E4B
:102B600002C0440F551F0A94E2F72417350741F0BD
:102B7000982F8F5F983089F789E08093500597CF21
:102B80008093500520913F0230914002211531057C
:102B900019F040E050E008C020914D0230914E0203
:102BA00040914F02509150022093480530934905BF
:102BB00040934A0550934B0546015701860E971ED8
:102BC000A11CB11C8092560590925705A092580501
:102BD000B0925905E0913A02F0913B02F0935C0506
:102BE000E0935B05B0E00E94AC2A860E971EA81EFB
:102BF000B91E80925D0590925E05A0925F05B0922D
:102C0000600585E0EE0FFF1F8A95E1F7E150FE4F6A
:102C1000EF2FFF27E6958E0E9F1EA11CB11C809200
:102C2000510590925205A0925305B09254052091FF
:102C30003C0230913D022115310521F0A90160E0EF
:102C400070E008C04091490250914A0260914B02E5
:102C500070914C02D701C60188199909AA09BB09CC
:102C6000840F951FA61FB71F04C0B695A79597950B
:102C70008795CA95D2F780934C0590934D05A09304
:102C80004E05B0934F05853F2FE09207A105B10592
:102C900010F48CE018C0853F9F4FA105B10510F4DA
:102CA00080E111C08091550290915602A091570287
:102CB000B091580280935D0590935E05A0935F05E7
:102CC000B093600580E280935A0581E0DF91CF9157
:102CD000FF90EF90DF90CF90BF90AF909F908F903C
:102CE000089510924D0410924C0410924F041092CB
:102CF0004E041092970481E0809396041092910400
:102D000061E082E10E94DD0C61E083E10E94DD0C64
:102D1000E9EBF0E080818E7F808380818D7F8083EE
:102D200088E48093B80085E48093BC000895CF9335
:102D3000DF93C82FD62F88E60E94EB128C2F90E0ED
:102D4000BC01685F7F4F80E895E00E9488176D2F77
:102D500080E895E00E948817DF91CF910C94FF12D4
:102D6000CF92DF92EF92FF92CF93DF936C01990F96
:102D7000EE08FF08F7FE1BC06DE28CE895E00E94AC
:102D8000D20BEC0144275527BA014C195D096E0995
:102D90007F092AE08CE895E00E94120C8C0F9D1FA1
:102DA000DF91CF91FF90EF90DF90CF9008952AE0D0
:102DB000B701A6018CE895E0DF91CF91FF90EF90ED
:102DC000DF90CF900C94120CCF93DF931F92CDB76E
:102DD000DEB76983DC01ED91FC910280F381E02D87
:102DE00041E050E0BE016F5F7F4F09950F90DF918A
:102DF000CF91089585ED8093BC008091BC0084FD47
:102E0000FCCF1092970408954091E605262F30E0FC
:102E1000240F311D21323105DCF420919704243038
:102E2000C9F4FC0180E090E0861758F43091E60583
:102E30002191DC01AC53BA4FA30FB11D2C93019625
:102E4000F3CF8091E605680F6093E60580E0089572
:102E500081E0089582E008950895E0914D04809105
:102E60004C04E81730F4F0E0EF5AFB4F808190E01B
:102E700008958FEF9FEF089590914D0480914C0439
:102E8000981750F4E92FF0E0EF5AFB4F208130E023
:102E90009F5F90934D0402C02FEF3FEFC90108954B
:102EA00080914C0490E020914D04821B910908957B
:102EB000CF92DF92EF92FF920F931F93CF93DF9306
:102EC0007C01262F972F8A0180915004882391F04E
:102ED000C62FD72F6E01C40ED51ECC15DD0571F09F
:102EE0006991D701ED91FC910190F081E02DC7012E
:102EF0000995F3CF642F822F0E940417C801DF9138
:102F0000CF911F910F91FF90EF90DF90CF90089598
:102F1000CF93DF931F92CDB7DEB769832091500422
:102F20002223D1F020914E04203240F021E030E005
:102F3000FC013383228380E090E015C080914F0430
:102F4000E82FF0E0E45DFB4F998190838F5F8093E1
:102F50004F0480934E0405C061E0CE0101960E94AB
:102F6000041781E090E00F90DF91CF910895CF9307
:102F7000DF93EC01898D9A8D009739F481E090E020
:102F80009B838A8380E090E00BC0FC011382128255
:102F90000E948A08E98DFA8D22813381232B71F7F3
:102FA000DF91CF910895EF92FF920F931F93CF93EC
:102FB000DF9300D000D000D0CDB7DEB78C017B010D
:102FC000CE0101960E94F00F2A8180E2289F900195
:102FD00011248B81A901482B8981282F30E02C5E98
:102FE0003F4F322F2227330F242B352BF80131830B
:102FF00020838D81F0E28F9F900111249C81892F85
:1030000090E0982F8827990F990F990F822B932B77
:103010002E8130E035952795822B932BF7019183F4
:10302000808326960FB6F894DEBF0FBECDBFDF912A
:10303000CF911F910F91FF90EF900895EF92FF9223
:103040000F931F93CF93DF93EC017B018A011B82C7
:103050001A8288EE93E0A0E0B0E08C839D83AE837B
:10306000BF8388E491E0998388838DE190E00E949A
:1030700079289A8F898F009779F02DE1F701DC018B
:1030800001900D922A95E1F74CE050E0B801CE0195
:103090000C960E949D2A188EDF91CF911F910F915F
:1030A000FF90EF9008952F923F924F925F926F9210
:1030B0007F928F929F92AF92BF92CF92DF92EF92C8
:1030C000FF920F931F93CF93DF9300D0CDB7DEB75E
:1030D000FC018581882309F4D9C0848180FFD6C092
:1030E00021E02A834389548965897689828593857D
:1030F000A485B585481759076A077B0709F41A8222
:103100006F013A81832F90E0DE0111964D013F015E
:10311000B6E06B0E711C892B09F47DC0D6011A969E
:103120004D915D916D917C911D975A01B1E0BB224B
:10313000F60125811A012B0189E0569447943794B2
:1031400027948A95D1F7838D948D223061F4FC0108
:10315000828D938DA48DB58DBC01CD01620D731D43
:10316000841D951D45C0DC0114961C91115012213F
:10317000A114B104D1F4111118C0452B462B472BD3
:1031800051F4F6018789908DA18DB28D8683978346
:10319000A087B1870AC046815781608571859301F8
:1031A0000E94BA11882309F471C0F601238D348D71
:1031B00086819781A085B1850297A109B109AC01EB
:1031C000BD01F901058404C0440F551F661F771F18
:1031D0000A94D2F786859785A089B189840F951FB7
:1031E000A61FB71FBC01CD01610F711D811D911D6F
:1031F000D60114962C9126FF14C000910201109163
:1032000003012091040130910501601771078207C5
:10321000930751F506C0FA81FF23C1F1898190E03F
:1032200037C040E00E94D110882381F1F501E75DAD
:10323000FD4FD401CF010196E817F90719F021914C
:103240002D93FACFEFEF8E1A9E0AF60182859385B1
:10325000A485B5850196A11DB11D82879387A4879A
:10326000B58780E090E057CF740101E010E0950150
:10327000AB01BC018091290490912A040E941204A0
:10328000882321F0BFEF8B1A9B0ADFCF8FEF9FEFD0
:103290000F900F90DF91CF911F910F91FF90EF90C2
:1032A000DF90CF90BF90AF909F908F907F906F9066
:1032B0005F904F903F902F9008951F920F920FB6FE
:1032C0000F9211242F933F934F935F936F937F93AC
:1032D0008F939F93AF93BF93EF93FF938091B90028
:1032E000887F803609F49CC068F5883209F45BC099
:1032F00090F4803109F454C038F4882309F4F6C0FE
:10330000883009F44DC0F6C0883109F44CC08032D1
:1033100009F45DC0EFC0803409F468C048F480331C
:1033200009F455C0883309F0E5C080939504D8C0EE
:10333000803509F44FC0883509F45DC0883409F040
:10334000D9C0D6C0883909F4C7C0A8F4883709F4B1
:1033500067C038F4883609F463C0803709F460C068
:10336000C9C0883809F4B8C0803909F45FC0803812
:1033700009F0C0C05BC0803B09F486C038F4803AD5
:1033800009F466C0883A09F47FC0B4C0803C09F4EF
:10339000A7C0883C09F4A4C0883B09F48AC0AAC02D
:1033A0008091920410C09091940480919304981796
:1033B00070F5E091940481E08E0F80939404F0E026
:1033C000EF58FB4F80818093BB0085EC86C08093D3
:1033D00095048EC0E091940481E08E0F8093940454
:1033E0008091BB00F0E0EF58FB4F808390919404F4
:1033F000809193046EC0E091940481E08E0F8093DD
:1034000094048091BB00F0E0EF58FB4F80838091E3
:10341000960481116DC081E08093910484EA61C0BB
:1034200083E08093970410920A06CFCF80910A061A
:10343000803208F051C0E0910A0681E08E0F80933F
:103440000A068091BB00F0E0E651FA4F8083BDCFC1
:1034500085EC8093BC001092970480910A0680321C
:1034600030F4E0910A06F0E0E651FA4F10826091E4
:103470000A0670E0E091E805F091E9058AEE95E032
:10348000099510920A0636C084E080939704109242
:10349000E7051092E605E091E405F091E505099550
:1034A0008091E605811105C081E08093E6051092C8
:1034B000C405E091E70581E08E0F8093E705F0E019
:1034C000EC53FA4F80818093BB009091E705809187
:1034D000E605981708F479CF85E88093BC000AC008
:1034E00085EC8093BC001092970404C01092950460
:1034F0000E94FA16FF91EF91BF91AF919F918F912A
:103500007F916F915F914F913F912F910F900FBEDF
:103510000F901F901895CF93C7E06AEC71E088E98F
:1035200094E00E94830CC150C1F76AEC71E088E915
:1035300094E0CF910C945B0CCF93CFE06AEC71E0F8
:1035400088E994E00E94830CC150C1F76AEC71E0F5
:1035500088E994E0CF910C945B0CCF93C5E16AECC1
:1035600071E088E994E00E94830CC150C1F76AECD5
:1035700071E088E994E0CF910C945B0CCF93DF93DA
:1035800000D000D000D0CDB7DEB760E080E00E9470
:10359000811366E572E08CE895E00E94D90BCE01BC
:1035A00001960E94F00F8A818A3030F46EEA71E051
:1035B0008CE895E00E94830C6A818CE895E00E947B
:1035C000CE136FE28CE895E00E94D20B8B818A309B
:1035D00030F46EEA71E08CE895E00E94830C6B8118
:1035E0008CE895E00E94CE136FE28CE895E00E9493
:1035F000D20B498150E04053584F052E000C660B0A
:10360000770B2AE08CE895E00E94120C26960FB604
:10361000F894DEBF0FBECDBFDF91CF910895CF9359
:10362000DF9300D000D000D0CDB7DEB7CE01019639
:103630000E94F00F8C818A3030F46EEA71E088E9E4
:1036400094E00E94830C6C8188E994E00E94CE1380
:1036500063EB71E088E994E00E94830C8D818A30ED
:1036600030F46EEA71E088E994E00E94830C6D8189
:1036700088E994E00E94CE1363EB71E088E994E05E
:103680000E94830C8E818A3030F46EEA71E088E902
:1036900094E00E94830C6E8188E994E00E94B51347
:1036A00026960FB6F894DEBF0FBECDBFDF91CF9147
:1036B00008950E94AD1360E082E00E948113609142
:1036C0000001615089E0689FB001112462537E4F70
:1036D0008CE895E00E94830C61E086E00E948113F3
:1036E0006DE472E08CE895E00E94D90B6CED75E01A
:1036F00080E090E00C94290DCF93DF93CDB7DEB737
:10370000CF58D1090FB6F894DEBF0FBECDBF789465
:1037100084B5826084BD84B5816084BD85B58260D6
:1037200085BD85B5816085BD80916E008160809387
:103730006E001092810080918100826080938100F0
:103740008091810081608093810080918000816000
:10375000809380008091B10084608093B10080915B
:10376000B00081608093B00080917A008460809383
:103770007A0080917A00826080937A0080917A004A
:10378000816080937A0080917A00806880937A00CB
:103790001092C100E091A804F091A90482E0808316
:1037A000E091A404F091A5041082E091A604F091A8
:1037B000A7048FEC80831092B004E091AC04F091E8
:1037C000AD0486E08083E091AA04F091AB0480818F
:1037D00080618083E091AA04F091AB0480818860CD
:1037E0008083E091AA04F091AB048081806880839B
:1037F000E091AA04F091AB0480818F7D80830E94C8
:1038000071160E9471168091A6058F3F39F580913F
:10381000A00588608093A00582E08093A4051092A3
:10382000A5058BE39DE00197F1F740E060919005DD
:103830008CE895E00E940F0E40E0609192058CE8C4
:1038400095E00E940F0E609191056F3F09F4B2C0A0
:1038500040E08CE895E00E940F0EACC00E9471160B
:103860001092A7050E9471168091A70580620E94A0
:10387000EB1280E00E94B90D8FEF0E94B90D0E94FB
:10388000FF128091A70580620E94EB1281E00E94E6
:10389000B90D8FEF0E94B90D0E94FF1241E068E060
:1038A00087EA95E00E94370E41E066E087EA95E0FE
:1038B0000E94370E41E067E087EA95E00E94370EEC
:1038C00087E00E94F21360919105662329F041E0A0
:1038D00087EA95E00E94820E41E06091900587EAB8
:1038E00095E00E94820E41E06091920587EA95E0A2
:1038F0000E94820E03E915E024E0F22EF00EF8019A
:1039000061918F0141E087EA95E00E94820EF012FA
:10391000F6CF0BE915E095E0E92EE00E40E0F80166
:10392000608187EA95E00E94820EF80121918F0163
:103930002031E8F5283020F028508DE0F82E02C024
:10394000BCE0FB2E8091A7058062C157DF4F288322
:10395000CF58D0400E94EB128F2D0E94B90D0E94CB
:10396000FF128091A705806261E070E090E00E9404
:10397000F51280E895E00E943C17D82E8091A705AB
:1039800080620E94EB128F2D0E94B90D41E050E041
:10399000C157DF4F2881CF58D040CA0101C0880FDE
:1039A0002A95EAF78D290E94B90D0E94FF12E012B4
:1039B000B5CF2DCF8091A00584FD21C063E08CE8B8
:1039C00095E00E94A40E0BE416E4C8010197F1F7FC
:1039D00063E08CE895E00E94A40EC8010197F1F71E
:1039E00063E08CE895E00E94A40E83E592E00197E5
:1039F000F1F762E08CE895E00E94A40E15C08062A9
:103A00000E947B138BE496E40197F1F78091A00567
:103A100080620E947B1383E592E00197F1F7809129
:103A2000A00580620E947B138091A00580620E94A5
:103A30007B1384E08093A1058CE00E947B130E949D
:103A4000AD1382E08093A20586E00E947B130E9462
:103A5000AD13809101010E94F21360E082E00E94A8
:103A600081136EE071E08CE895E00E94D90B61E073
:103A700087E00E94811366E071E08CE895E00E9487
:103A8000D90B0E94AD1A6FEE70E088E994E00E94B5
:103A90006F0C0E94AD1A88E60E94EB1260E080E88D
:103AA00095E00E9488170E94FF1261E070E088E6AE
:103AB00090E00E94F51280E895E00E943C1787FF95
:103AC00003C08CE691E08DC166ED70E088E994E07A
:103AD0000E94D90B8AE00E945C131092420510925A
:103AE000400510923D0510923C058AE080933B050D
:103AF0000E94630D8B0180913B050E945C1361E085
:103B000080913B050E94DD0CFFB6F89480910D0278
:103B1000811124C0E9E1F2E08491EDE2F2E09491B8
:103B2000E82FF0E0EE0FFF1FEB5FFD4FA591B49182
:103B3000EC91E92321F461E08AE00E94DD0C8AE047
:103B40000E945C138CB580618CBD8CB580648CBD8B
:103B50008DE00E945C138BE00E945C1380910D024B
:103B60008F5F80930D02FFBE82E580933505109232
:103B7000360580913505909136050E949703FAE04D
:103B8000FF2E8FEF0E945803FA94F110FACF87E3CB
:103B900095E00E949A0320E030E0A90160E087E30D
:103BA00095E00E94B003F82E8093410521E0821732
:103BB00049F00E94630D601B710B613D774058F323
:103BC00081E056C02AEA31E040E050E068E087E357
:103BD00095E00E94B00382FF03C0F092420510C03E
:103BE000E4E0FE2E0E945F0380934105FA94F110F9
:103BF000F9CF8A3A11F082E03BC082E0809342051F
:103C000080914205823021F0C12CD12C760105C073
:103C1000C12CD12CE12C70E4F72E20E030E0A9017A
:103C200067E387E395E00E94B003A701960169E28C
:103C300087E395E00E94B00380934105882349F013
:103C40000E94630D601B710B613D774030F388E08B
:103C50000FC080914205823001F520E030E0A901DB
:103C60006AE387E395E00E94B003882341F086E091
:103C700080933C0587E395E00E944D03B0C00E940D
:103C80005F03807C803C19F483E0809342050E94AE
:103C90005F030E945F030E945F0387E395E00E9439
:103CA0004D0380E5809335051092360581E00E9432
:103CB0004215882329F080916605882341F08FC042
:103CC00080E00E944215882309F489C0F4CF8091D6
:103CD0005A05803109F582E08093660510927805D7
:103CE0001092790510927A0510927B0580915B0500
:103CF00090915C05A0E0B0E065E0880F991FAA1FD5
:103D0000BB1F6A95D1F78093740590937505A093B6
:103D10007605B09377051FC0803209F060C083E05C
:103D20008093660540915D0550915E0560915F0549
:103D300070916005409378055093790560937A05FA
:103D400070937B0524E735E083E495E00E943E1202
:103D5000882309F444C083E495E090937D05809323
:103D60007C0581E0809365051092670510926805D7
:103D70001092690510926A0510926B0510926C05FD
:103D800010926D0510926E0510926F0510927005DD
:103D90001092710510927205109273056CED75E02A
:103DA00080E090E00E94290D60ED70E088E994E0E9
:103DB0000E946F0C41E068E771E0CE01885A9F4F86
:103DC0000E94121462EB70E088E994E00E94D90B23
:103DD000E396EEADFFADE397309729F495C085E803
:103DE00091E00E9413288581882309F48DC04EEC50
:103DF000E42E41E0F42E56E0D52ECE01885A9F4F96
:103E00000E945901892B09F466C01A8219821C820A
:103E10001B821E821D8260E070E0CE0101960E942E
:103E2000AB0B29813A8181110DC02115310519F0A3
:103E3000C9010E940E291A8219821E821D821C82CB
:103E40001B8225C01E821D8262EB71E0C9010E94A7
:103E5000962A1DC08A30910509F18E8F1F8E0D8123
:103E60001E810F5F1F4FB801CE0101960E94AB0B60
:103E7000882369F029813A818D819E81BE01625E2D
:103E80007F4F820F931F0E94962A1E830D83CE01BF
:103E9000885A9F4F0E94161597FFDCCFE114F1045A
:103EA000B1F00D811E810115110511F4F7010EC04D
:103EB0000830110510F008E010E069817A81A8014E
:103EC000C7010E949D2AF701E00FF11F108289812E
:103ED0009A810E940E29DA94F9E0EF0EF11CD110BC
:103EE0008CCFE3968EAD9FADE397009701F10E94D2
:103EF000AA06E3968EAD9FADE3970E940E29E39646
:103F00001FAE1EAEE39713C03EECE32E31E0F32E5E
:103F100011E365E971E0C7010E94962AF701178352
:103F2000F9E0EF0EF11C1F5F173399F7DACF6CED54
:103F300075E080E090E00E94290D6CEA70E088E96D
:103F400094E00E946F0C4EEC51E026E030E280E0FD
:103F500090E0FA01E80FF91F60816D3009F43083B9
:103F6000019688309105A9F72150475F5F4F2111D5
:103F7000EECF83ED97E19093CD018093CC018DE05E
:103F8000EDEBF1E0DE01A058BF4F01900D928A9554
:103F9000E1F7BB24B3949AE0892E28E2E22E21E0D7
:103FA000F22E6E012BE3C20ED11C8B2D682D0E94C8
:103FB0003128805DCA57DF4F8883C658D040905D56
:103FC000C957DF4F9883C758D0401EAE1DAEFCAE18
:103FD000EBAE21961FAE219719A218A2FF8EEE8E8E
:103FE0001BA2712C612CAC2C9D2C01E615E0272D19
:103FF000362DE0E8F0E0EC0FFD1FE20FF31F8081AB
:104000008F3211F42F5F3F4FFE01ED58FF4F40E01C
:1040100050E0A0E8B0E0AC0FBD1FA20FB31F8C9121
:104020008F3251F0882341F04F5F5F4F2F5F3F4F3A
:1040300081934C30510569F7E3E7F0E0EC0FFD1F89
:10404000E40FF51F1082E0E8F0E0EC0FFD1FE20F37
:10405000F31F80818F3211F42F5F3F4F722E632E3A
:10406000E0E8F0E0EC0FFD1FE20FF31F50801C8230
:104070001B82FA82E9821E8221E0AE014D585F4F19
:10408000B801CE0101960E94BE06882339F0CE0108
:1040900001960E94AA06511009C023C035E00136DE
:1040A000130741F1C8010E94AA0624C021E0AE0115
:1040B0004D585F4FB8018A2D992D0E94BE06582E8B
:1040C00045E00136140709F423C7C8010E94AA0677
:1040D000552081F0902F812F0A2D192DA92E982E71
:1040E00086CF55E00136150709F459C0C8010E9472
:1040F000AA0655C06DE970E088E994E00E94D90BEA
:10410000BE0160587F4F88E994E00E94830C68E903
:1041100070E088E994E00E94D90B43E1BE01605849
:104120007F4FCE0101960E9412148B819C81909347
:10413000AB058093AA058D819E81AF81B885809360
:10414000AC059093AD05A093AE05B093AF058985FE
:104150009A85AB85BC858093B0059093B105A093FB
:10416000B205B093B3058DE0FE013D96A4EBB5E03A
:1041700001900D928A95E1F78A8D9B8D9093C205EF
:104180008093C1056CED75E080E090E00E94290D00
:1041900062E970E088E994E00E946F0C04C0B39477
:1041A00084E6B81202CFE091C105F091C2053097C4
:1041B00019F08581811103C08DE991E012CE0E9432
:1041C0009C1A6BE870E088E994E00E94D90BCE015C
:1041D00001960E94F00F8A818A3030F46EEA71E015
:1041E00088E994E00E94830C6A8188E994E00E9447
:1041F000CE136FE288E994E00E94D20B8B818A3063
:1042000030F46EEA71E088E994E00E94830C6B81DF
:1042100088E994E00E94CE136FE288E994E00E945E
:10422000D20B498150E04053584F052E000C660BCD
:10423000770B2AE088E994E00E94120C60EB71E0B1
:1042400088E994E00E94FD0B0E949C1A61E770E0EF
:1042500088EA95E00E94D90B82E00E94D5138F3F37
:1042600031F087E00E94D5138F3F09F0D9C568E689
:1042700070E088EA95E00E946F0C6CED75E080E0DC
:1042800090E00E94290D0E94AD1380E00E94D5139A
:10429000182F8093010181E00E94D51380930001C3
:1042A0001F3F41F48F3F31F487E08093010181E0AB
:1042B00080930001809101010E94F21389E00E9425
:1042C000D51380931202823010F01092120284E60D
:1042D000282E312CE12CF12C1FE10E2DF701E45793
:1042E000FA4F27852031C0F5283018F0285093E187
:1042F00001C092E18091A7058062C157DF4F2883FA
:10430000CF58D040C257DF4F9883CE58D0400E943C
:10431000EB12C257DF4F9881CE58D040892F0E94B0
:10432000B90D0E94FF128091A705806261E070E0E4
:1043300090E00E94F51280E895E00E943C179927D2
:10434000C157DF4F2881CF58D04002C0959587953F
:104350002A95E2F7817001C080E090E002C0880FEA
:10436000991F0A95E2F78095909518239FEFE91A17
:10437000F90AE5E0EE16F10409F0AFCF80911802DA
:10438000811154C013FF28C000910101073078F05B
:10439000F7E0F093010181E08093000167E080E0A5
:1043A0000E94971661E081E00E94971615C00F5F8A
:1043B00000930101F0900001FA94F0920001602F47
:1043C00080E00E9497166F2D81E00E949716802F43
:1043D0000E94F2130E94591B12FF28C00091010194
:1043E000033078F422E02093010136E0309300019D
:1043F00062E080E00E94971666E081E00E949716D6
:1044000015C0015000930101F0900001F394F09267
:104410000001602F80E00E9497166F2D81E00E94BE
:104420009716802F0E94F2130E94591B10FFE4C1BF
:10443000F0900001FA94C357DF4FF882CD58D04076
:10444000CE0101960E94F00F8A818A3030F46EEA24
:1044500071E088EA95E00E94830C6A8188EA95E021
:104460000E94CE136FE288EA95E00E94D20B8B8106
:104470008A3030F46EEA71E088EA95E00E94830C9D
:104480006B8188EA95E00E94CE136FE288EA95E09E
:104490000E94D20B498150E04053584F052E000C2A
:1044A000660B770B2AE088EA95E00E94120C65EB18
:1044B00071E088EA95E00E94830C8C818A3030F4A8
:1044C0006EEA71E088EA95E00E94830C6C8188EACC
:1044D00095E00E94CE136AE388EA95E00E94D20B31
:1044E0008D818A3030F46EEA71E088EA95E00E94AE
:1044F000830C6D8188EA95E00E94CE136AE388EA16
:1045000095E00E94D20B8E818A3030F46EEA71E021
:1045100088EA95E00E94830C6E8188EA95E00E940B
:10452000B5130E94AD1360E081E00E9481136CEB33
:1045300071E08CE895E00E94D90B61E082E00E9476
:1045400081136FEA71E08CE895E00E94D90B90919D
:10455000180281E0891B80931802813009F048C05D
:1045600080911702811144C0CE0101960E947410FF
:1045700060931302709314028093150290931602B5
:10458000C357DF4F5881CD58D04049E0549FB00108
:10459000112462537E4F88E994E00E945B0C0E94D4
:1045A0008B1A6FE971E088E994E00E94D90B0E94B0
:1045B0000F1B6CED75E080E090E00E94290D81E01A
:1045C0000E94F2130E94AD1360E083E00E94811309
:1045D00069E971E08CE895E00E94D90B61E085E023
:1045E0000E94811360E971E08CE895E00E94D90B8C
:1045F000809118028111F6C080911702813009F074
:10460000F1C0CE0101960E947410C0901302D090A8
:104610001402E0901502F09016029B01AC012C19D7
:104620003D094E095F0969017A01CA01B9012CE30C
:1046300030E040E050E00E9451284B015C01CA018B
:10464000B9012CE330E040E050E00E9451282B01FA
:104650003C01C701B60120E13EE040E050E00E948D
:104660005128022FE22EC357DF4F4881CD58D0404A
:1046700039E0439FB001112462537E4F88EA95E0F0
:104680000E94830C65EB71E088EA95E00E94830C40
:1046900059E0501730F06EEA71E088EA95E00E9428
:1046A000830C602F88EA95E00E94CE1363EB71E0E3
:1046B00088EA95E00E94830C8AE048165104610460
:1046C000710430F46EEA71E088EA95E00E94830C90
:1046D000642D88EA95E00E94CE1363EB71E088EACE
:1046E00095E00E94830C9AE089169104A104B1041C
:1046F00030F46EEA71E088EA95E00E94830C682D40
:1047000088EA95E00E94B51360E871E088E994E0DA
:104710000E94D90B0E940F1B6CED75E080E090E0C9
:104720000E94290D809101010E94F2130E94AD1395
:1047300060E083E00E9481136AE771E08CE895E015
:104740000E94D90B61E085E00E94811361E771E06E
:104750008CE895E00E94D90B0E948B1A61E671E00B
:1047600088E994E00E94D90BE9E0EE1530F06EEA9A
:1047700071E088E994E00E94830C602F88E994E05E
:104780000E94CE1363EB71E088E994E00E94830CF1
:10479000FAE04F1651046104710430F46EEA71E0DE
:1047A00088E994E00E94830C642D88E994E00E94DB
:1047B000CE1363EB71E088E994E00E94830C2AE059
:1047C00082169104A104B10430F46EEA71E088E924
:1047D00094E00E94830C682D88E994E00E94B51350
:1047E0000E948B1A80911802809317026CED75E07D
:1047F00080E090E00E94290D14FD0E94591B8091D9
:104800001802813009F09DC011FF9BC00E94AD13BA
:1048100009E160E080E00E94811368E571E08CE8C6
:1048200095E00E94D90BCE0101960E94F00FCE01B7
:1048300001960E947410C0901302D0901402E09070
:104840001502F09016029B01AC012C193D094E098E
:104850005F0969017A01CA01B9012CE330E040E047
:1048600050E00E9451284B015C01CA01B9012CE3C0
:1048700030E040E050E00E9451282B013C01C7018C
:10488000B60120E13EE040E050E00E9451282A308D
:1048900080F46EEA71E08CE895E0C157DF4F288321
:1048A000CF58D0400E94830CC157DF4F2881CF588A
:1048B000D040622F8CE895E00E94CE1363EB71E04C
:1048C0008CE895E00E94830C3AE0431651046104A1
:1048D000710430F46EEA71E08CE895E00E94830C7C
:1048E000642D8CE895E00E94CE1363EB71E08CE8B8
:1048F00095E00E94830C4AE084169104A104B1045F
:1049000030F46EEA71E08CE895E00E94830C682D2B
:104910008CE895E00E94CE1361E081E00E94811353
:1049200068E471E08CE895E00E94D90B65E070E0E6
:1049300080E090E00E94290D015009F06ACF0E94AA
:10494000AD1380911802813009F03EC1CE0101966D
:104950000E94F00FCE0101960E9474108090130205
:1049600090901402A0901502B0901602DC01CB01C9
:1049700088199909AA09BB0980349E47A540B10549
:1049800008F422C1CE0101960E9474106B017C01D3
:10499000C818D908EA08FB08C701B6012CE330E0C3
:1049A00040E050E00E9451284B015C01CA01B9016E
:1049B0002CE330E040E050E00E9451282B013C0104
:1049C000C701B60120E13EE040E050E00E945128DE
:1049D000022FD22E8A818A3030F46EEA71E088EAA2
:1049E00095E00E94830C6A8188EA95E00E94CE13CC
:1049F0006FE288EA95E00E94D20B8B818A3030F416
:104A00006EEA71E088EA95E00E94830C6B8188EA87
:104A100095E00E94CE136FE288EA95E00E94D20BE7
:104A2000498150E04053584F052E000C660B770B20
:104A30002AE088EA95E00E94120C65EB71E088EAB2
:104A400095E00E94830C8C818A3030F46EEA71E02C
:104A500088EA95E00E94830C6C8188EA95E00E94C8
:104A6000CE136AE388EA95E00E94D20B8D818A30EA
:104A700030F46EEA71E088EA95E00E94830C6D8163
:104A800088EA95E00E94CE136AE388EA95E00E94E6
:104A9000D20B8E818A3030F46EEA71E088EA95E0BC
:104AA0000E94830C6E8188EA95E00E94CE1365EB2C
:104AB00071E088EA95E00E94830CE0900001EA949E
:104AC000E9E0EE9EC00111249C0122533E4F790182
:104AD000B90188EA95E00E945B0C62E471E088EA23
:104AE00095E00E94D90B65EB71E088EA95E00E94A1
:104AF000830C69E371E088EA95E00E94D90B65EBCD
:104B000071E088EA95E00E94830C39E03D1530F0B1
:104B10006EEA71E088EA95E00E94830C602F88EAD3
:104B200095E00E94CE1363EB71E088EA95E00E9465
:104B3000830C4AE0441651046104710430F46EEAB7
:104B400071E088EA95E00E94830C642D88EA95E084
:104B50000E94CE1363EB71E088EA95E00E94830C1B
:104B60005AE085169104A104B10430F46EEA71E0B4
:104B700088EA95E00E94830C682D88EA95E00E94FF
:104B8000B513809101010E94F2130E94AD1360E001
:104B900082E00E9481136CE271E08CE895E00E9453
:104BA000D90B61E084E00E948113B7018CE895E0A5
:104BB0000E94830C6CED75E080E090E00E94290D6E
:104BC00010921802109217028091180281110EC0E3
:104BD00011FF0CC09091120281E0891B8093120298
:104BE00064E670E080E090E00E94290D809112025E
:104BF000813009F04DC00E94BE1A61E080E00E9441
:104C0000811366E271E08CE895E00E94D90BCE0139
:104C100001960E94F00F8C818A3030F46EEA71E0C8
:104C20008CE895E00E94830C6C818CE895E00E94F2
:104C3000CE1363EB71E08CE895E00E94830C8D81CC
:104C40008A3030F46EEA71E08CE895E00E94830CC3
:104C50006D818CE895E00E94CE1363EB71E08CE8E7
:104C600095E00E94830C8E818A3030F46EEA71E008
:104C70008CE895E00E94830C6E818CE895E00E94A0
:104C8000CE1367EB71E08CE895E00E94830C65C061
:104C90000E94BE1A61E080E00E94811360E271E030
:104CA0008CE895E00E94D90BCE0101960E94F00F8E
:104CB0006C816D3060F0663130F46EEA71E08CE842
:104CC00095E00E94830C8C8190E00C9704C06111E8
:104CD00005C08CE090E00E94B0160DC06A3038F438
:104CE0006EEA71E08CE895E00E94830C6C818CE8A0
:104CF00095E00E94CE136AE38CE895E00E94D20B07
:104D00008D818A3030F46EEA71E08CE895E00E9483
:104D1000830C6D818CE895E00E94CE136AE38CE8E9
:104D200095E00E94D20B8E818A3030F46EEA71E0F9
:104D30008CE895E00E94830C6E818CE895E00E94DF
:104D4000CE138C818C3018F06CE171E002C068E108
:104D500071E08CE895E00E94D90B0E94630D0091F0
:104D60000E0210910F022091100230911102DC010D
:104D7000CB01801B910BA20BB30B88389341A1058B
:104D8000B10508F44AC00E94630D60930E0270934F
:104D90000F02809310029093110288EA95E00E941E
:104DA000B606CE0101960E94F00F6A8182E00E9451
:104DB00097166B8183E00E949716498150E040531B
:104DC000584FCA01B1010E943D2884E0C257DF4F0D
:104DD0004883CE58D040C157DF4F5883CF58D0407A
:104DE0000E949716C257DF4F4881CE58D04060E3EB
:104DF000640F85E00E9497166C8186E00E949716EA
:104E00006D8187E00E9497166E8188E00E94971658
:104E10006091120289E00E9497160E947A0B5ACA8A
:104E200082E00E94D513682F88EA95E00E94CE1395
:104E30006BEB71E088EA95E00E94830C83E00E94AE
:104E4000D513682F88EA95E00E94CE136BEB71E0D2
:104E500088EA95E00E94830C84E00E94D513682FB5
:104E600088EA95E00E94CE1385E00E94D513682F52
:104E700088EA95E00E94CE136DE670E088EA95E03E
:104E80000E94D90B86E00E94D5138A3030F46EEA76
:104E900071E088EA95E00E94830C86E00E94D513B9
:104EA000682F88EA95E00E94CE1363EB71E088EAF0
:104EB00095E00E94830C87E00E94D5138A3030F47D
:104EC0006EEA71E088EA95E00E94830C87E00E9418
:104ED000D513682F88EA95E00E94CE1363EB71E04A
:104EE00088EA95E00E94830C88E00E94D5138A30FE
:104EF00030F46EEA71E088EA95E00E94830C88E065
:104F00000E94D513682F88EA95E00E94B513B5C9B1
:104F1000882309F4EFC88E01025E1F4FDBC8E8E961
:104F2000F4E01382128288EE93E0A0E0B0E0848384
:104F30009583A683B78328E131E03183208325EC74
:104F400030E03587248724EC30E03787268720EC53
:104F500030E0318B208B21EC30E0338B228B22EC44
:104F600030E0358B248B26EC30E0378B268B118E8E
:104F7000128E138E148EE5E3F5E020E52083118276
:104F8000E7E3F5E0158216821186138642E050E0D1
:104F900060E070E0448755876687778713A215A67F
:104FA00014A628E231E033A722A717A6E0E8F5E02F
:104FB0001382128284839583A683B78320E331E032
:104FC00031832083E8EAF5E013821282848395839B
:104FD000A683B78388E491E091838083128E118E3B
:104FE0001486ECE8F5E01382128280E491E091836C
:104FF0008083128E148A8FE084838EE085838DE017
:1050000086838CE087838BE080878AE0818789E0D4
:105010008287178681E0808B82E0818B83E0828BA0
:1050200084E0838B0895EC010E94AD136FE372E07E
:105030008CE895E00E94D90B61E080E00E9481132A
:10504000BE018CE895E00E94830C67E372E088E97A
:1050500094E00E94D90BBE0188E994E00E945B0CA9
:10506000FFCF991B79E004C0991F961708F0961B93
:10507000881F7A95C9F780950895AA1BBB1B51E13B
:1050800007C0AA1FBB1FA617B70710F0A61BB70BB8
:10509000881F991F5A95A9F780959095BC01CD015D
:1050A0000895A1E21A2EAA1BBB1BFD010DC0AA1F69
:1050B000BB1FEE1FFF1FA217B307E407F50720F081
:1050C000A21BB30BE40BF50B661F771F881F991FFC
:1050D0001A9469F760957095809590959B01AC0145
:1050E000BD01CF010895EE0FFF1F0590F491E02D53
:1050F0000994CF93DF938230910510F482E090E021
:10510000E0910D06F0910E0620E030E0C0E0D0E026
:10511000309711F14081518148175907C0F0481765
:10512000590761F482819381209719F09B838A83C8
:105130002BC090930E0680930D0626C021153105D5
:1051400019F04217530718F49A01BE01DF01EF016D
:105150000280F381E02DDCCF2115310509F1281BF8
:10516000390B2430310590F412968D919C91139750
:105170006115710521F0FB019383828304C0909334
:105180000E0680930D06FD01329644C0FD01E20F2C
:10519000F31F81939193225031092D933C933AC090
:1051A00020910B0630910C06232B41F4209108012D
:1051B0003091090130930C0620930B0620910601D3
:1051C000309107012115310541F42DB73EB74091CB
:1051D0000A0150910B01241B350BE0910B06F09155
:1051E0000C06E217F307A0F42E1B3F0B2817390714
:1051F00078F0AC014E5F5F4F2417350748F04E0F33
:105200005F1F50930C0640930B068193919302C04D
:10521000E0E0F0E0CF01DF91CF9108950F931F936D
:10522000CF93DF93009709F48CC0FC01329713826F
:10523000128200910D0610910E060115110581F4E0
:1052400020813181820F931F20910B0630910C0633
:105250002817390779F5F0930C06E0930B0671C017
:10526000D80140E050E0AE17BF0750F412962D91E0
:105270003C911397AD012115310509F1D901F3CF07
:105280009D01DA013383228360817181860F971F2C
:105290008217930769F4EC0128813981260F371FA3
:1052A0002E5F3F4F318320838A819B81938382834A
:1052B000452B29F4F0930E06E0930D0642C0139699
:1052C000FC93EE931297ED01499159919E01240FA1
:1052D000351FE217F30771F480819181840F951FC8
:1052E000029611969C938E938281938113969C9340
:1052F0008E931297E0E0F0E0D80112968D919C9188
:105300001397009719F0F8018C01F6CF8D919C91BD
:1053100098012E5F3F4F820F931F20910B06309113
:105320000C062817390769F4309729F410920E06F5
:1053300010920D0602C01382128210930C06009385
:105340000B06DF91CF911F910F910895A0E0B0E07F
:10535000ECEAF9E20C94BB2AEC01009721F4CB01B2
:105360000E947928B8C0FC01E60FF71F9C0122506B
:105370003109E217F30708F4ACC0D9010D911C9173
:10538000119706171707B0F00530110508F49FC0F4
:10539000C80104978617970708F499C002501109AD
:1053A000061B170B019311936D937C93CF010E9401
:1053B0000E298DC05B01A01AB10A4C01800E911E0E
:1053C000A0910D06B0910E0640E050E0E12CF12CCA
:1053D000109709F44AC0A815B905D1F56D907C90D5
:1053E0001197630182E0C80ED11CCA14DB0480F15E
:1053F000A3014A195B096A0182E0C80ED11C12960A
:10540000BC9012971396AC91B5E0CB16D10440F046
:10541000B282A38351834083D9016D937C930AC0E8
:105420000E5F1F4FC301800F911FF901918380838D
:10543000EB2DFA2FE114F10431F0D7011396FC9310
:10544000EE93129744C0F0930E06E0930D063FC012
:105450008D919C9111974817590708F4AC017D0173
:1054600012960D90BC91A02DB3CF80910B06909118
:105470000C0688159905E1F446175707C8F4809182
:10548000060190910701009741F48DB79EB74091B6
:105490000A0150910B01841B950BE817F907C8F41A
:1054A000F0930C06E0930B06F901718360830FC043
:1054B000CB010E9479287C01009759F0A801BE0118
:1054C0000E94822ACE010E940E29C70104C0CE018B
:1054D00002C080E090E0CDB7DEB7EEE00C94D72AB2
:1054E00081E090E0F8940C94FD2AFB01DC0104C0FB
:1054F0008D910190801921F441505040C8F7881BCC
:10550000990B0895FB01DC0102C001900D924150FE
:105510005040D8F70895FC018191861721F0882327
:10552000D9F7992708953197CF010895FB01DC0140
:1055300001900D920020E1F70895FB01DC0141503C
:10554000504048F001900D920020C9F701C01D9213
:1055500041505040E0F708950E94EE2AA59F900D1B
:10556000B49F900DA49F800D911D112408952F923A
:105570003F924F925F926F927F928F929F92AF92E3
:10558000BF92CF92DF92EF92FF920F931F93CF9330
:10559000DF93CDB7DEB7CA1BDB0B0FB6F894DEBFC7
:1055A0000FBECDBF09942A88398848885F846E84ED
:1055B0007D848C849B84AA84B984C884DF80EE8037
:1055C000FD800C811B81AA81B981CE0FD11D0FB640
:1055D000F894DEBF0FBECDBFED010895A29FB001CC
:1055E000B39FC001A39F700D811D1124911DB29F17
:0E55F000700D811D1124911D0895F894FFCFB8
:1055FE000107FFFFFFFF00000F06800000004000C4
:10560E001400540000000000110B8D0ADA0AB80ACB
:10561E00CC0A580B000000002B0A8D0A0000000077
:10562E008817581750173C172D172C17000000001D
:10563E00EA0F8D0A00000000E416B71759017D022B
:10564E001D03B60600000000A90B8D0AA90BA90BBD
:10565E00A90BA90B00000000A90B8D0A5254432080
:10566E004E6F74205365740070726F6A6563747345
:10567E002E74787400436172642052656164204513
:10568E0072726F720050726F6A6563740046696C55
:10569E0065205772697465204572726F7200300012
:1056AE000D0A003A002C00204852002F00524543AC
:0C56BE004F524430302E435356002D0054
:00000001FF
