:100000000C9466010C948E010C948E010C948E015C
:100010000C948E010C948E010C948E010C948E0124
:100020000C948E010C948E010C948E010C948E0114
:100030000C948E010C948E010C948E010C948E0104
:100040000C9496110C948E010C94D2100C94AC105C
:100050000C948E010C948E010C948E010C948E01E4
:100060000C94860D0C948E01446174652C54696D5A
:10007000652C50726F6A656374004E6F6E65002068
:100080004020004C61737420686561727462656120
:10009000742064657465637465643A20002D2D2DA9
:1000A0002D2D2D2D2D2D2D2D2D2D2D2D2D00446162
:1000B00074653A20002D2D2D2D2D2D2D2D2D2D2D1E
:1000C0002D2D2D2D2D00446F6E652E002E2E2E20F1
:1000D000004372656174696E672066696C65200013
:1000E000446F6E652E0052656164696E67207072A0
:1000F0006F6A656374732E7478742066696C652EFC
:100100002E2E2000446F6E652E00534420636172D2
:100110006420696E697469616C697A696E672E2EF4
:100120002E20002D2D2D2D2D2D2D2D2D2D2D2D2D38
:100130002D2D2D2D2D2D2D2D2D0074696D65436CCC
:100140006F636B2076322E302E332D616C706861B8
:10015000002D2D2D2D2D2D2D2D2D2D2D2D2D2D2DFC
:100160002D2D2D2D2D2D2D0076322E302E3361008C
:1001700074696D65436C6F636B0020414D002050C6
:100180004D0054696D652000446174652000546918
:100190006D65200044617465200054696D657220AE
:1001A0004D61786564210068683A6D6D3A7373003B
:1001B00054696D65720054696D6572202068683AF3
:1001C0006D6D3A737300456C617073656420005304
:1001D000656C656374656400202D200053746F7036
:1001E000706564210054696D65720068683A6D6DD0
:1001F0003A73730054696D65720054696D657220BD
:10020000537461727465643A20005374617274654A
:1002100064210054696D6572006D656469612064D4
:1002200065766963650044617461206C6F6767651A
:100230006420746F0053656C656374656400536576
:100240006C6563746564004572726F723A20005386
:10025000797374656D204572726F7221007C3C3E2B
:100260005E2B3D3F2F5B5D3B2C2A225C001F1C1F39
:100270001E1F1E1F1F1E1F1E1F0000000800020160
:100280000000030407000000000000000000000060
:1002900000250028002B0000000000240027002A71
:1002A000000404040404040404020202020202031F
:1002B0000303030303010204081020408001020429
:1002C00008102001020408102000152811241FBE68
:1002D000CFEFD8E0DEBFCDBF11E0A0E0B1E0EEECA3
:1002E000F6E502C005900D92AE3CB107D9F726E0C5
:1002F000AEECB1E001C01D92A131B207E1F711E00F
:10030000C6E6D1E004C02197FE010E94DB28C53675
:10031000D107C9F70E94C21A0C94652B0C940000F7
:10032000DC015996ED91FC915A973097B9F0838989
:100330009489A589B6894285538564857585841B12
:10034000950BA60BB70B811520E89207A105B10507
:1003500038F08FEF9FE7A0E0B0E0089580E090E0F4
:100360000895CF93DF931F92CDB7DEB76983DC0189
:10037000ED91FC910280F381E02D41E050E0BE015F
:100380006F5F7F4F09950F90DF91CF91089585EDB5
:100390008093BC008091BC0084FDFCCF1092E004EF
:1003A000089540913D02262F30E0240F311D213267
:1003B0003105DCF42091E0042430C9F4FC0180E034
:1003C00090E0861758F430913D022191DC01A55E42
:1003D000BD4FA30FB11D2C930196F3CF80913D0229
:1003E000680F60933D0280E0089581E0089582E007
:1003F00008950895E091960480919504E81730F4EB
:10040000F0E0E656FB4F808190E008958FEF9FEF7C
:1004100008959091960480919504981750F4E92FCF
:10042000F0E0E656FB4F208130E09F5F909396040A
:1004300002C02FEF3FEFC90108958091950490E02D
:1004400020919604821B91090895CF92DF92EF923A
:10045000FF920F931F93CF93DF937C01262F972F4B
:100460008A0180919904882391F0C62FD72F6E01BD
:10047000C40ED51ECC15DD0571F06991D701ED9143
:10048000FC910190F081E02DC7010995F3CF642F15
:10049000822F0E94D101C801DF91CF911F910F914E
:1004A000FF90EF90DF90CF900895CF93DF931F924E
:1004B000CDB7DEB76983209199042223D1F0209132
:1004C0009704203240F021E030E0FC0133832283A6
:1004D00080E090E015C080919804E82FF0E0EB58A0
:1004E000FB4F998190838F5F80939804809397044A
:1004F00005C061E0CE0101960E94D10181E090E04B
:100500000F90DF91CF9108953F924F925F926F923B
:100510007F928F929F92AF92BF92CF92DF92EF9293
:10052000FF920F931F93CF93DF93CDB7DEB72C9736
:100530000FB6F894DEBF0FBECDBF5C01DC015B9649
:100540008D909C905C971696CD90DD90ED90FC90F0
:100550001997C114D104E104F10439F0BFEFCB1AAB
:10056000DB0AEB0AFB0A312C07C0F401C080D18002
:10057000E280F38033243394F40181859285A3854E
:10058000B4859C01AD012F5F3F4F4F4F5F4F2987CF
:100590003A874B875C87260137011D821E821F82A6
:1005A0001886F40181859285A385B4852D813E81CD
:1005B0004F815885281739074A075B0708F063C041
:1005C00089859A85AB85BC858C159D05AE05BF05D3
:1005D00050F482E0C82ED12CE12CF12C92E0492E6F
:1005E000512C612C712C9E012F5F3F4FB701A6014A
:1005F000C4010E949815882309F445C089819A8115
:10060000AB81BC81892B8A2B8B2B41F026013701D2
:100610009FEF491A590A690A790A05C0C414D5041A
:10062000E604F70491F02D813E814F8158852F5FBC
:100630003F4F4F4F5F4F2D833E834F8358873FEF90
:10064000C31AD30AE30AF30AACCF0FEF1FEF2FEF61
:100650003FE0B301A201C4010E94F814882399F07D
:10066000D50116964D915D916D917C91199741152B
:1006700051056105710549F093018201C4010E9491
:10068000F814811102C080E02AC0D50116964D925F
:100690005D926D927C921997332051F0D301C20183
:1006A0000196A11DB11DF40180839183A283B383C0
:1006B000F5018789908DA18DB28D892B8A2B8B2B8B
:1006C00069F4D50157964D925D926D927C925A973E
:1006D00014968C911497806814968C9381E02C96D4
:1006E0000FB6F894DEBF0FBECDBFDF91CF911F9143
:1006F0000F91FF90EF90DF90CF90BF90AF909F90C1
:100700008F907F906F905F904F903F900895EF9201
:10071000FF920F931F93CF93DF9300D000D000D0B0
:10072000CDB7DEB78C017B01CE0101960E94171474
:100730002A8180E2289F900111248B81A901482BF6
:100740008981282F30E02C5E3F4F322F2227330F34
:10075000242B352BF801318320838D81F0E28F9F8C
:10076000900111249C81892F90E0982F8827990F60
:10077000990F990F822B932B2E8130E03595279579
:10078000822B932BF7019183808326960FB6F894E2
:10079000DEBF0FBECDBFDF91CF911F910F91FF90B4
:1007A000EF9008958F929F92AF92BF92CF92DF9277
:1007B000EF92FF920F931F93CF93DF93EC018D8104
:1007C000811102C080E077C00B891C892D893E8988
:1007D0000417150726073707A8F36A017B01823043
:1007E00029F4CA86DB86EC86FD860DC0C114D104CF
:1007F000E104F10451F41E821F82188619861A86BC
:100800001B861C861D8681E056C08A849B84AC842E
:10081000BD84EB8DFC8D258530E0275F3F4FB50112
:10082000A4014150510961097109022E04C0769555
:100830006795579547950A94D2F7D701C601019756
:10084000A109B10904C0B695A795979587952A95F2
:10085000D2F784179507A607B70720F089288A28BA
:100860008B2849F44F89588D698D7A8D4E835F832B
:100870006887798704C0841B950BA60BB70B4C01C6
:100880005D018E010A5F1F4F81149104A104B10420
:1008900009F4A7CF4E815F816885798598018B8D9A
:1008A0009C8D0E94981591E0891A9108A108B108C1
:1008B0008111EACF87CFDF91CF911F910F91FF90E8
:1008C000EF90DF90CF90BF90AF909F908F90089562
:1008D0008FB7F894809163028FBF089561E0FC01A7
:1008E00084810E940411809162028111109262023F
:1008F00008958EBD00000DB407FEFDCF8EB508959E
:100900008FEF0C9479040F931F93CF93DF93EB0138
:100910000E948A118B010E9480048F3F49F00E943F
:100920008A11601B710B6C177D07A8F380E001C072
:1009300081E0DF91CF911F910F910895CF93DF93C5
:10094000EC018E81882389F08F8198859C012F5F2F
:100950003F4F38872F838230924018F40E948004E2
:10096000F3CFCE010E946E041E82DF91CF910895D5
:100970008CBD9DBD0895CF93DF93EC018091620201
:10098000811109C081E08093620280917E0590917F
:100990007F050E94B80460E08C81DF91CF910C94B8
:1009A0000411CF92DF92FF920F931F93CF93DF93A7
:1009B00000D000D0CDB7DEB76C01F62E29833A8384
:1009C0004B835C830E949E04C6010E94BB046CE2C0
:1009D00071E0C6010E9483048F2D80640E94790417
:1009E00008E110E05C814B813A812981DA01C9017B
:1009F000002E04C0B695A795979587950A94D2F7CF
:100A000029833A834B835C830E947904085011093F
:100A100029813A814B815C81083F8FEF180731F7BC
:100A2000FF2029F0E8E0FE1204C087E803C085E952
:100A300001C08FEF0E94790410E00E948004F6014B
:100A4000828787FF04C01F3F11F01F5FF6CF0F9012
:100A50000F900F900F90DF91CF911F910F91FF900A
:100A6000DF90CF900895AF92BF92CF92DF92EF9236
:100A7000FF920F931F93CF93DF93EC016901C8019D
:100A8000820F931F8130924008F070C08E818823BE
:100A900071F088819981AA81BB81481759076A073B
:100AA0007B0729F48F819885C816D906B0F548834D
:100AB00059836A837B838B85833039F089E0440FC7
:100AC000551F661F771F8A95D1F79A01AB0161E127
:100AD000CE010E94D104882319F083E08D8346C0A3
:100AE0000E948A115B010E9480048A878F3F49F42B
:100AF0000E948A116A197B096D327140A0F38FE060
:100B000003C08E3F31F08DE08D83CE010E946E04D4
:100B10002DC018861F8281E08E838F8198858C1569
:100B20009D0540F40E9480048F81988501969887E6
:100B30008F83F3CF6701E00EF11ECE14DF0431F096
:100B40000E948004F60181936F01F7CF8F81988511
:100B5000080F191F18870F838985882319F001153D
:100B6000124048F0CE010E949E0405C0CE010E94B2
:100B70006E0480E001C081E0DF91CF911F910F9161
:100B8000FF90EF90DF90CF90BF90AF900895EF92DD
:100B9000FF920F931F93CF93DF93EC0179014115DF
:100BA00051056105710511F482E13CC08B858330EC
:100BB00039F089E0440F551F661F771F8A95D1F7DA
:100BC0009A01AB0168E1CE010E94D104882311F0A3
:100BD00084E028C08EEF0E94790487018EEFF81A16
:100BE000F80181918F010E9479040E151F05C1F74C
:100BF0008FEF0E9479048FEF0E9479040E94800495
:100C00008A878F71853031F081E18D83CE010E941A
:100C10006E0409C068E572E0CE010E948304811170
:100C200007C085E18D83CE010E946E0480E013C071
:100C300020E030E0A9016DE0CE010E94D1048111D5
:100C400004C00E948004882311F084E1EBCFCE0120
:100C50000E946E0481E0DF91CF911F910F91FF9070
:100C6000EF900895809164028823A9F140910201D8
:100C700050910301609104017091050122E732E077
:100C800080917204909173040E94C705811102C083
:100C900080E008954091650250916602609167027C
:100CA00070916802411551056105710591F022E7C7
:100CB00032E080917204909173040E94C7058823EA
:100CC00039F3109265021092660210926702109238
:100CD00068021092640281E008958F929F92AF9211
:100CE000BF92EF92FF920F931F93CF934B015C0142
:100CF000C42F8091020190910301A0910401B09151
:100D0000050188159905AA05BB0501F10E94320667
:100D1000811102C080E020C082E7E82E82E0F82E38
:100D200000E012E020E030E0B501A40180917204FF
:100D3000909173040E943305882361F3809202012D
:100D400090920301A0920401B09205018091640287
:100D5000C82BC093640281E0CF911F910F91FF9047
:100D6000EF90BF90AF909F908F9008952F923F92F9
:100D70004F925F926F927F928F929F92AF92BF92AB
:100D8000CF92DF92EF92FF920F931F93CF93DF9357
:100D900000D0CDB7DEB7FC018581882309F4D9C026
:100DA000848180FFD6C021E02A83438954896589E4
:100DB000768982859385A485B585481759076A0782
:100DC0007B0709F41A826F013A81832F90E0DE01DC
:100DD00011964D013F01B6E06B0E711C892B09F491
:100DE0007DC0D6011A964D915D916D917C911D97B4
:100DF0005A01B1E0BB22F60125811A012B0189E0DD
:100E000056944794379427948A95D1F7838D948D7F
:100E1000223061F4FC01828D938DA48DB58DBC01CF
:100E2000CD01620D731D841D951D45C0DC01149616
:100E30001C9111501221A114B104D1F4111118C048
:100E4000452B462B472B51F4F6018789908DA18DB8
:100E5000B28D86839783A087B1870AC04681578168
:100E60006085718593010E949815882309F471C0EB
:100E7000F601238D348D86819781A085B1850297F7
:100E8000A109B109AC01BD01F901058404C0440FF9
:100E9000551F661F771F0A94D2F786859785A0890C
:100EA000B189840F951FA61FB71FBC01CD01610F2B
:100EB000711D811D911DD60114962C9126FF14C021
:100EC000009102011091030120910401309105016C
:100ED000601771078207930751F506C0FA81FF2357
:100EE000C1F1898190E037C040E00E946D068823FF
:100EF00081F1F501EE58FD4FD401CF010196E817BD
:100F0000F90719F021912D93FACFEFEF8E1A9E0A6F
:100F1000F60182859385A485B5850196A11DB11D35
:100F200082879387A487B58780E090E057CF7401CC
:100F300001E010E09501AB01BC0180917204909139
:100F400073040E943305882321F0BFEF8B1A9B0A9C
:100F5000DFCF8FEF9FEF0F900F90DF91CF911F9119
:100F60000F91FF90EF90DF90CF90BF90AF909F9048
:100F70008F907F906F905F904F903F902F9008954B
:100F8000FC01818D928D009711F00C94B6068FEFC5
:100F90009FEF08950F931F93CF93DF93FC01818DF3
:100FA000928D0097B9F0EF010E94B6068C010F3FB9
:100FB0008FEF180791F0898D9A8DFC01428553853A
:100FC0006485758541505109610971090E94D203F8
:100FD000C80105C080E090E002C08FEF9FEFDF9175
:100FE000CF911F910F9108950F931F93CF93DF938C
:100FF000EC018D81882309F447C08C8187FF3EC0B6
:101000006E857F858889998941E00E946D068823D5
:10101000D9F18A8920E2829FC0011124FC01EE5897
:10102000FD4F309789F12D81223040F44B895C8946
:101030006D897E89448F558F668F778F4F89588D44
:10104000698D7A8D8C010E581D4FF801538F428F98
:10105000758B648BE091CE01F091CF01309759F000
:10106000BC0168577D4F86579D4F0995F801808DCB
:10107000918D938B828B8C818F778C83DF91CF9135
:101080001F910F910C94320680E0DF91CF911F9158
:101090000F9108958F929F92AF92BF92CF92DF925D
:1010A000EF92FF920F931F93CF93DF9300D000D066
:1010B000CDB7DEB77C0180E2689F60011124960104
:1010C0002E583D4FD9011B969C91917121F0842F90
:1010D000827409F097C0142FF701628B809102018E
:1010E00090910301A0910401B09105018687978733
:1010F000A08BB18BF601EE58FD4F4489558960E015
:1011000070E0BA0155274427D70157964D935D9358
:101110006D937C935A97828D938DA0E0B0E0482B1D
:10112000592B6A2B7B2BD70157964D935D936D936B
:101130007C935A97D9011B968C91887159F4848DB0
:10114000958DA68DB78DF701838B948BA58BB68B70
:1011500081E012C0803109F055C097012D5E3F4FEC
:10116000D7015B968D919C915C970E941C168823F9
:1011700009F448C084E0F7018583812F8F70D7017F
:1011800014968C931497F701168217821086118695
:101190001A961D921D921D921C921D9716FF34C027
:1011A00015968C91813071F511FF2CC0F7014389A0
:1011B000548965897689452B462B472B09F461C0F4
:1011C00040E050E0BA01C7010E94D2038823D1F069
:1011D000F7018788908CA18CB28CC38CD48C82E070
:1011E00090E0A0E0B0E0F60180839183A283B38316
:1011F0009E012F5F3F4FB501A401C6010E949815C3
:10120000811104C080E03DC081E03BC000E010E0FF
:101210009801B501A401C6010E94F814882391F336
:1012200089809A80AB80BC80D60157968C918031A2
:1012300029F088EF9FEFAFEFBFE004C088EF9FEF8A
:10124000A0E0B0E088169906AA06BB0688F2D7018E
:1012500057961D921D921D921C925A97F701138A60
:10126000148A158A168A848180688483C7010E9443
:10127000F407882339F240E050E0BA01C7010E9428
:10128000D2030F900F900F900F90DF91CF911F918D
:101290000F91FF90EF90DF90CF90BF90AF909F9015
:1012A0008F900895CF93DF93EC010E94F407882379
:1012B00011F01D8281E0DF91CF910895FC01818DB5
:1012C000928D009711F00C94F40708954F925F925D
:1012D0006F927F929F92AF92BF92CF92DF92EF92E6
:1012E000FF920F931F93CF93DF93CDB7DEB72B976A
:1012F0000FB6F894DEBF0FBECDBF7C01DC011596A2
:10130000AC90A11097C1FE0131966F0190E28BE085
:101310008E0F91938E13FDCFDA0130E087E09D911F
:10132000992339F19E3219F0EDE5F2E00AC08A30D6
:1013300009F481C138E08AE0F2CF3196491709F407
:101340007AC144914111F9CF831708F474C14FED6C
:10135000490F4E3508F06FC141E0430FF601E30F2E
:10136000F11D3FE9390F3A3108F490529083342F40
:10137000D6CF8981803209F45EC1B22E8B01DB01A8
:101380005B968D919C915C97F701948F838F169655
:101390001D921D921D921C921997FB0112861386B5
:1013A00014861586712CF80182859385A485B585F0
:1013B000438954896589768984179507A607B707F5
:1013C00008F061C025E0B695A795979587952A9571
:1013D000D1F7F82FFF709F2ED80115968C9182308F
:1013E00008F429C1C8010E94B60697FD24C1F8017E
:1013F00082859385A485B5854F96A11DB11D8287F1
:101400009387A487B587F0E29F9EC0011124BC0199
:101410006E587D4F6115710509F40DC1DB012C91EA
:10142000222319F0253EC1F427C071100EC0F70128
:10143000928A4091020150910301609104017091E0
:10144000050146875787608B718BFC01EE58FD4F75
:101450008081811113C015C04BE050E0C6010E948D
:10146000DD2A892B09F09FCF8B2D8073803309F4FF
:10147000E2C04B2D692DD9C07720C9F2772473942F
:1014800092CF772473948B2D8271823109F0D3C06F
:101490007720D1F0D7011E966D917D918D919C9111
:1014A000519741E00E946D06882309F4C4C0F701FA
:1014B0000289F0E20F9F800111240E581D4F011583
:1014C000110509F079C0B7C0D80115968C9182300A
:1014D00009F4B1C0C8010E948402882309F4ABC09A
:1014E000D8015B96ED91FC915C9716964D905D90BE
:1014F0006D907C901997B2E04B1A51086108710801
:10150000058404C0440C551C661C771C0A94D2F751
:1015100086859785A089B189480E591E6A1E7B1E53
:101520009480E1E04E1A510861087108992009F190
:101530000E943206882309F47EC0E2E7F2E01192AD
:1015400024E0E237F207D9F7D301C201890D911DDA
:10155000A11DB11D8093020190930301A09304018A
:10156000B0930501809164028160809364029A9433
:10157000DDCFD8015B96ED91FC915C9780E092E025
:10158000A0E0B0E0058404C0880F991FAA1FBB1F0C
:101590000A94D2F7F8014389548965897689840FC2
:1015A000951FA61FB71F838B948BA58BB68BD70176
:1015B00052961C9202E712E080E2F80111928A959D
:1015C000E9F78BE0F601D80101900D928A95E1F7D9
:1015D000E091CE01F091CF01309739F0B801625F10
:1015E0007F4FC801409609950DC081E298E2D8016D
:1015F00051969C938E93509780E098E01F969C9311
:101600008E931E97F80180899189938B828B918F9D
:10161000808F86859785978B868B0E9432068823DC
:1016200051F04B2DD70152966C91C7010E944A0888
:10163000A82E01C0A12C8A2D2B960FB6F894DEBFE0
:101640000FBECDBFDF91CF911F910F91FF90EF9013
:10165000DF90CF90BF90AF909F907F906F905F9002
:101660004F9008952F923F924F925F926F927F9288
:101670008F929F92AF92BF92CF92DF92EF92FF92A2
:101680000F931F93CF93DF9300D000D0CDB7DEB779
:101690008C016B013A01DC0115968C911597813014
:1016A000C9F414968C9181FF15C082FF1DC0F8010A
:1016B000438954896589768982859385A485B58512
:1016C00084179507A607B70779F0C8010E94D203CF
:1016D00081110AC081E090E0D80113969C938E930B
:1016E000129780E090E048C1430184C0D8015B9626
:1016F0008D919C915C97FC0154802FEF250D1A0170
:101700002B0139E056944794379427943A95D1F7B2
:10171000522E52207A01F1E0FF22552009F476C0C2
:1017200080E092E08E199F0954018815990508F40C
:101730005C01D8015B962D913C915C9716968D913A
:101740009D910D90BC91A02D0297A109B109F901BD
:10175000058404C0880F991FAA1FBB1F0A94D2F7E3
:101760004685578560897189840F951FA61FB71F0D
:101770009C01AD01250D311D411D511D19012A018D
:10178000A11432E0B30609F088C080910201909163
:101790000301A0910401B091050182159305A405F0
:1017A000B50559F48FEF9FEFDC0180930201909310
:1017B0000301A0930401B09305019601B201A101B8
:1017C00080917204909173040E94C705882309F4E4
:1017D00081CF9EEFD91A8A189B08F80182859385DC
:1017E000A485B5858A0D9B1DA11DB11D8287938798
:1017F000A487B587D8011A964D915D916D917C9122
:101800001D978114910409F071CF87C0E114F10490
:1018100009F086CF16964D915D916D917C91199747
:10182000411551056105710559F457968D919D91AA
:101830000D90BC91A02D0097A105B10541F521C0E7
:101840009E012F5F3F4F0E949815882309F44ACFCD
:1018500089819A81AB81BC81F801238D348DF90196
:101860002789203129F048EF5FEF6FEF7FE004C058
:1018700048EF5FEF60E070E084179507A607B707B1
:1018800030F0C8010E94840281114ACF23CFF801B1
:1018900086839783A087B18743CFE114F10429F5AC
:1018A000D8011A964D915D916D917C911D9753963B
:1018B0008D919D910D90BC91A02D481759076A07F5
:1018C0007B0798F00E943206882309F403CF209208
:1018D000020130920301409204015092050180916F
:1018E000640281608093640208C041E0C201B101DA
:1018F0000E946D06882309F4EDCED601F701EE585B
:10190000FD4FCF018A0D9B1DE817F90719F02D91A6
:101910002193FACFCA0CDB1C5ECF5396CD90DD909D
:10192000ED90FC90569714968C91C416D506E60659
:10193000F70640F4F801438B548B658B768B8068F7
:1019400084830DC02091CE013091CF01232B39F03B
:101950006114710421F08068D80114968C93F80109
:10196000848183FD02C0C30107C0C8010E94F4073F
:10197000882309F4AFCEF7CF0F900F900F900F9000
:10198000DF91CF911F910F91FF90EF90DF90CF905B
:10199000BF90AF909F908F907F906F905F904F908F
:1019A0003F902F900895CF93DF931F92CDB7DEB76E
:1019B000698341E050E0BE016F5F7F4F0E94320BB0
:1019C0000F90DF91CF910895CF93DF93EC01898D34
:1019D0009A8D009739F481E090E09B838A8380E0C0
:1019E00090E00BC0FC01138212820E94320BE98D41
:1019F000FA8D22813381232B71F7DF91CF910895E6
:101A0000FC01DB0112968D919C9113979383828345
:101A100088E291E09183808314968C91149784835B
:101A200015968C911597858316964D915D916D91C4
:101A30007C91199746835783608771871A964D91D9
:101A40005D916D917C911D9742875387648775875F
:101A50001E964D915D916D917C9151974687578768
:101A6000608B718B52968C915297828B53964D91CD
:101A70005D916D917C915697438B548B658B768BE2
:101A800057964D915D916D917C915A97478B508FF0
:101A9000618F728F5B968D919C915C97948F838FF1
:101AA0000895EF92FF920F931F93CF93DF93EC0172
:101AB0007B018A011B821A8288EE93E0A0E0B0E0ED
:101AC0008C839D83AE83BF8388E491E09983888370
:101AD0008DE190E00E94E1289A8F898F009779F03C
:101AE0002DE1F701DC0101900D922A95E1F74CE020
:101AF00050E0B801CE010C960E94052B188EDF91A4
:101B0000CF911F910F91FF90EF9008951F920F9228
:101B10000FB60F9211242F933F934F935F936F93C0
:101B20007F938F939F93AF93BF93EF93FF93809196
:101B3000B900887F803609F49CC068F5883209F4C2
:101B40005BC090F4803109F454C038F4882309F460
:101B5000F6C0883009F44DC0F6C0883109F44CC095
:101B6000803209F45DC0EFC0803409F468C048F4E5
:101B7000803309F455C0883309F0E5C08093DE0452
:101B8000D8C0803509F44FC0883509F45DC0883469
:101B900009F0D9C0D6C0883909F4C7C0A8F488377D
:101BA00009F467C038F4883609F463C0803709F453
:101BB00060C0C9C0883809F4B8C0803909F45FC072
:101BC000803809F0C0C05BC0803B09F486C038F49F
:101BD000803A09F466C0883A09F47FC0B4C0803CFA
:101BE00009F4A7C0883C09F4A4C0883B09F48AC062
:101BF000AAC08091DB0410C09091DD048091DC04C8
:101C0000981770F5E091DD0481E08E0F8093DD047C
:101C1000F0E0E654FB4F80818093BB0085EC86C0EA
:101C20008093DE048EC0E091DD0481E08E0F80930E
:101C3000DD048091BB00F0E0E654FB4F808390917F
:101C4000DD048091DC046EC0E091DD0481E08E0F44
:101C50008093DD048091BB00F0E0E654FB4F80836D
:101C60008091DF0481116DC081E08093DA0484EA01
:101C700061C083E08093E00410926102CFCF809135
:101C80006102803208F051C0E091610281E08E0F64
:101C9000809361028091BB00F0E0EF5BFD4F808399
:101CA000BDCF85EC8093BC001092E004809161026E
:101CB000803230F4E0916102F0E0EF5BFD4F108282
:101CC0006091610270E0E0913F02F091400281E496
:101CD00092E009951092610236C084E08093E0049E
:101CE00010923E0210923D02E0913B02F0913C02C4
:101CF000099580913D02811105C081E080933D02EC
:101D000010921B02E0913E0281E08E0F80933E0212
:101D1000F0E0E55EFD4F80818093BB0090913E0234
:101D200080913D02981708F479CF85E88093BC0034
:101D30000AC085EC8093BC001092E00404C01092AD
:101D4000DE040E94C701FF91EF91BF91AF919F9177
:101D50008F917F916F915F914F913F912F910F9054
:101D60000FBE0F901F901895CF92DF92EF92FF92C7
:101D70000F931F93CF93DF936C017A018B01C0E027
:101D8000D0E0CE15DF0589F0D8016D918D01D60127
:101D9000ED91FC910190F081E02DC6010995892B10
:101DA00011F47E0102C02196ECCFC701DF91CF91E3
:101DB0001F910F91FF90EF90DF90CF900895FC015D
:101DC000918D828D981761F0828DDF01A80FB11D72
:101DD0005D968C91928D9F5F9F73928F90E0089596
:101DE0008FEF9FEF0895FC01918D828D981731F050
:101DF000828DE80FF11D858D90E008958FEF9FEFA4
:101E00000895FC01918D228D892F90E0805C9F4F79
:101E1000821B91098F739927089581EE94E00E94A7
:101E2000010F21E0892B09F420E0822F0895FC01A5
:101E3000848DDF01A80FB11DA35ABF4F2C91848D53
:101E400090E001968F739927848FA689B7892C9388
:101E5000A089B1898C9180648C93938D848D981323
:101E600006C00288F389E02D80818F7D80830895EC
:101E7000EF92FF920F931F93CF93DF93EC0181E0DA
:101E8000888F9B8D8C8D981305C0E889F989808196
:101E900085FD24C0F62E0B8D10E00F5F1F4F0F73D2
:101EA0001127E02E8C8DE8120CC00FB607FCFACF7C
:101EB000E889F989808185FFF5CFCE010E94170F4F
:101EC000F1CF8B8DFE01E80FF11DE35AFF4FF08239
:101ED0000B8FEA89FB898081806207C0EE89FF89C8
:101EE0006083E889F98980818064808381E090E063
:101EF000DF91CF911F910F91FF90EF900895CF93B5
:101F0000DF93EC01888D8823C9F0EA89FB89808101
:101F100085FD05C0A889B9898C9186FD0FC00FB6D3
:101F200007FCF5CF808185FFF2CFA889B9898C9114
:101F300085FFEDCFCE010E94170FE7CFDF91CF9144
:101F4000089580E090E0892B29F00E940D0F811107
:101F50000C94000008953FB7F89480916E02909120
:101F60006F02A0917002B091710226B5A89B05C0C6
:101F70002F3F19F00196A11DB11D3FBFBA2FA92F08
:101F8000982F8827820F911DA11DB11DBC01CD0185
:101F900042E0660F771F881F991F4A95D1F7089571
:101FA0000E94D82A0F931F93CF93DF93EC0188816F
:101FB0009981009729F02A813B812617370788F4F9
:101FC0008B016F5F7F4F0E940E2A009761F099830B
:101FD00088831B830A832C813D81232B11F4FC0110
:101FE000108281E001C080E0DF91CF911F910F91BD
:101FF0000895DC01ED91FC910190F081E02D0994B0
:10200000EF92FF920F931F93CF93DF938C017B018D
:10201000C0E0D0E0F701EC0FFD1F6491662361F092
:10202000D801ED91FC910190F081E02DC801099556
:10203000892B11F02196EECFCE01DF91CF911F9128
:102040000F91FF90EF9008956115710579F0FB01F4
:1020500001900020E9F73197AF01461B570BDC01D7
:10206000ED91FC910280F381E02D099480E090E0F5
:1020700008954F925F926F927F92EF92FF920F932B
:102080001F93CF93DF93CDB7DEB7A1970FB6F89428
:10209000DEBF0FBECDBF7C01FA01CB0119A22230F9
:1020A00008F42AE08E010F5D1F4F422E512C612C47
:1020B000712CBF01A30192010E94B928F901CA0144
:1020C000015011096A3014F4605D01C0695CD801E7
:1020D0006C93232B242B252B61F7B801C7010E9499
:1020E0002410A1960FB6F894DEBF0FBECDBFDF91CE
:1020F000CF911F910F91FF90EF907F906F905F9025
:102100004F9008950F931F93CF93DF93EC010E949C
:1021100024108C0160EB71E0CE010E942410800F2E
:10212000911FDF91CF911F910F9108950F931F93EE
:10213000CF93DF93EC010E9400108C0160EB71E003
:10214000CE010E942410800F911FDF91CF911F912B
:102150000F9108950C9424101F920F920FB60F92B6
:1021600011242F933F934F935F936F937F938F939C
:102170009F93AF93BF93EF93FF9381EE94E00E9400
:10218000170FFF91EF91BF91AF919F918F917F9129
:102190006F915F914F913F912F910F900FBE0F90D4
:1021A0001F9018951F920F920FB60F9211242F9324
:1021B0008F939F93EF93FF93E091F104F091F204DA
:1021C0008081E091F704F091F80482FD12C09081C3
:1021D0008091FA048F5F8F732091FB04821751F076
:1021E000E091FA04F0E0EF51FB4F958F8093FA04F1
:1021F00001C08081FF91EF919F918F912F910F905E
:102200000FBE0F901F90189590E0FC01E758FD4F0E
:102210003491FC01EB54FD4F2491FC01EF55FD4F2F
:10222000E491EE2309F43BC0332339F1333091F0CC
:1022300038F43130A9F0323001F584B58F7D12C009
:10224000373091F03830A1F03430B9F4809180000B
:102250008F7D03C0809180008F77809380000DC0B8
:1022600084B58F7784BD09C08091B0008F7703C09B
:102270008091B0008F7D8093B000F0E0EE0FFF1FE3
:10228000E357FD4FA591B4918FB7F894EC9161118C
:1022900003C020952E2301C02E2B2C938FBF0895B1
:1022A0008F929F92AF92BF92CF92DF92EF92FF9266
:1022B0006B017C010E94AB0F4B015C01C114D10486
:1022C000E104F104F1F00E94AB0FDC01CB018819AD
:1022D0009909AA09BB09883E9340A105B10570F38D
:1022E00021E0C21AD108E108F10888EE880E83E0E7
:1022F000981EA11CB11CC114D104E104F10419F70A
:10230000DDCFFF90EF90DF90CF90BF90AF909F9088
:102310008F9008952FB7F89460916A0270916B02C4
:1023200080916C0290916D022FBF08951F920F92C1
:102330000FB60F9211242F933F938F939F93AF93D8
:10234000BF9380916A0290916B02A0916C02B09150
:102350006D023091690223E0230F2D3720F401969E
:10236000A11DB11D05C026E8230F0296A11DB11DB8
:102370002093690280936A0290936B02A0936C028F
:10238000B0936D0280916E0290916F02A0917002E5
:10239000B09171020196A11DB11D80936E029093C0
:1023A0006F02A0937002B0937102BF91AF919F91A1
:1023B0008F913F912F910F900FBE0F901F90189506
:1023C000682F89EC95E00C945502EF92FF920F93E1
:1023D0001F93CF93DF9300D0CDB7DEB77C01162FCC
:1023E000683020F0185095E103E102C094E102E169
:1023F000F701808180624A8399830E94C91699817E
:10240000892F0E94E0110E94DD16F7019081892F2B
:10241000806261E070E090E00E94D31689EC95E064
:102420000E9409024A8121E030E001C0220F1A9582
:10243000EAF7413019F4122F182B03C02095122F00
:102440001823F701808180620E94C916802F0E94A4
:10245000E011812F0E94E0110F900F90DF91CF913A
:102460001F910F91FF90EF900C94DD16FC01962FB9
:10247000828D8F3F31F0603140F4CF014B960C9448
:10248000E511642F892F0C9404110895CF93DF93E5
:10249000EC0140E06E810E94361241E06E81CE0177
:1024A0000E94361240E06E81CE010E9436128BE807
:1024B00091E00197F1F7DF91CF910895EF92FF92AC
:1024C0000F931F93CF93DF931F92CDB7DEB77C019D
:1024D000162F683018F0185001E001C000E0F70135
:1024E0008081806249830E94C916802F0E94E0117A
:1024F0000E94DD16F7018081806261E070E090E06B
:102500000E94D31689EC95E00E940902498121E0DE
:1025100030E001C0220F1A95EAF7411103C0122FD3
:10252000182B03C02095122F1823F7018081806299
:102530000E94C916802F0E94E011812F0E94E01195
:102540000F90DF91CF911F910F91FF90EF900C941E
:10255000DD16603110F40C945E120895CF93DF9372
:1025600000D0CDB7DEB7FC018081806269837A83B9
:102570000E94C91682E10E94E0116981862F0E94A3
:10258000E0117A81872F0E94E0110F900F90DF9168
:10259000CF910C94DD168F929F92AF92BF92CF9203
:1025A000DF92EF92FF920F931F93CF93DF93EC0193
:1025B0008A8D8E01095F1F4FC62ED12C8F3F09F4E3
:1025C00083C07E018BE1E80EF11C8B8D80620E943E
:1025D000C91682E10E94E0110E94DD168B8D806297
:1025E00062E070E090E00E94D31689EC95E00E94D2
:1025F0000902B82E89EC95E00E940902982F8827DD
:102600009C012B29F801A0E0B0E061E070E0B190FE
:1026100001E010E0CB010B2C02C0880F991F0A9437
:10262000E2F78095909528233923A6010A2E02C04F
:10263000559547950A94E2F74170552702C0440F1B
:10264000551FBA94E2F7242B352B1196A430B1050F
:10265000F1F668010E8002C0CC0CDD1C0A94E2F792
:10266000C094D094C222D322B601C7010E94AE12F8
:10267000B8010E8002C0660F771F0A94E2F7C62ADF
:10268000D72AB601C7010E94AE120E8002C0000F09
:10269000111F0A94E2F700951095B601602371238B
:1026A000C7010E94AE128BE891E00197F1F7DF912C
:1026B000CF911F910F91FF90EF90DF90CF90BF903F
:1026C000AF909F908F900895E12CF12C4E01EBE19B
:1026D0008E0E911C5801F80180819A8D9F3F31F038
:1026E00041E0682FC4010E94A91202C00E943A175B
:1026F0000F5F1F4FA6010E2C02C0559547950A94F7
:10270000E2F74170F5016081CE010E943612FFEFC1
:10271000EF1AFF0A84E0E816F104E1F6CE01DF913A
:10272000CF911F910F91FF90EF90DF90CF90BF90CE
:10273000AF909F908F900C9446128F929F92AF9281
:10274000BF92CF92DF92EF92FF920F931F93CF939E
:10275000DF93EC01F62E6C810E9436126D816F3F83
:1027600021F040E0CE010E9436128C890F2D10E03E
:1027700084FF3EC06E0187E0C80ED11CE12CF12C15
:102780004E01EBE18E0E911C5601F60180819A8D6F
:102790009F3F31F041E0682FC4010E94A91202C09E
:1027A0000E943A17FFEFCF1ADF0AA8010E2C02C0D1
:1027B000559547950A94E2F74170F5016081CE0185
:1027C0000E943612FFEFEF1AFF0A88E0E816F104C4
:1027D000D9F6CE01DF91CF911F910F91FF90EF902D
:1027E000DF90CF90BF90AF909F908F900C94461247
:1027F000B80184E0759567958A95E1F7CE010E944E
:10280000CB126F2DCE01DF91CF911F910F91FF90D1
:10281000EF90DF90CF90BF90AF909F908F900C94EF
:10282000CB1241E00E949D1381E090E00895CF9289
:10283000DF92EF92FF920F931F93CF93DF93EC0100
:1028400088E60E94C91660E089EC95E00E94550276
:102850000E94DD1667E070E088E690E00E94D316E3
:1028600089EC95E00E9409028F77982F92959F70CE
:102870001AEF082F919F000D112489EC95E00E941A
:1028800009029C01332794E0359527959A95E1F745
:10289000F82E129FF00C112489EC95E00E94090299
:1028A0009C01332744E0359527954A95E1F7E82EBA
:1028B000129FE00C112489EC95E00E94090289EC3A
:1028C00095E00E9409029C01332754E03595279535
:1028D0005A95E1F7D82E129FD00C112489EC95E07F
:1028E0000E9409029C01332764E0359527956A957B
:1028F000E1F7C82E129FC00C112489EC95E00E94CC
:1029000009029C01332774E0359527957A95E1F704
:10291000129F800D11248883C982DA82EB82FC82A7
:102920000D83CE01DF91CF911F910F91FF90EF901A
:10293000DF90CF900895EF92FF920F931F93CF9364
:10294000DF93EC0139818881682F70E04A8150E083
:10295000EDE6F2E091E09E1B292F2E0F231728F4BD
:102960002491420F511D3196F7CF333020F0837000
:1029700011F44F5F5F4F8DE691E0689F9001699F72
:10298000300D789F300D1124215031096D5F7F4F3C
:102990007695679576956795260F371F240F351F17
:1029A000A8E1B0E00E94562B2B817B018C01E20E46
:1029B000F11C011D111DA8019701ACE3B0E00E94BC
:1029C000142B2C817B018C01E20EF11C011D111DC9
:1029D000A80197010E94142B2D81620F711D811D8A
:1029E000911DDF91CF911F910F91FF90EF9008956E
:1029F0004F925F926F927F928F929F92AF92BF920F
:102A0000CF92DF92EF92FF920F931F93CF93DF93BA
:102A1000EC016A017B012801390142305105610551
:102A2000710510F480E073C089859A85AB85BC85FB
:102A30000196A11DB11D84179507A607B70790F34E
:102A40008B889C88AD88BE888F89803129F4BB270C
:102A5000AF2D9E2D8D2D09C0DB01CA0147E0B69533
:102A6000A795979587954A95D1F7880E991EAA1E26
:102A7000BB1E8091020190910301A0910401B091CD
:102A8000050188169906AA06BB0679F48F8980315C
:102A9000A1F4DD24EE24FF24C601880F991FFC0158
:102AA000EE58FD4F5182408219C040E0C501B4018B
:102AB0000E946D068111EACFB5CFE894C7F8DD24F6
:102AC000EE24FF24C601880F991F880F991FFC016F
:102AD000EE58FD4F4082518262827382809164027F
:102AE0008160809364028A89823080F08D819E812A
:102AF000AF81B885880E991EAA1EBB1E8092650202
:102B000090926602A0926702B092680281E0DF9123
:102B1000CF911F910F91FF90EF90DF90CF90BF90DA
:102B2000AF909F908F907F906F905F904F9008959F
:102B30008F929F92AF92BF92CF92DF92EF92FF92CD
:102B40000F931F93CF93DF93FC0181859285A3851B
:102B5000B4850196A11DB11D84179507A607B70777
:102B600010F480E05CC083899489A589B689C789FF
:102B7000C03129F4852E962EA72EBB2409C04A0108
:102B80005B01C7E0B694A79497948794CA95D1F750
:102B9000E9016A017B018F01BC01CD01680D791D3E
:102BA0008A1D9B1D8090020190900301A09004015A
:102BB000B0900501681579058A059B0599F4F8011F
:102BC00087898031A9F4B701A601552766277727A1
:102BD000440F551FFA01EE58FD4F80819181A0E00E
:102BE000B0E018C040E00E946D068111E8CFB9CF77
:102BF000B701A6014F77552766277727440F551F42
:102C0000440F551FFA01EE58FD4F80819181A2813A
:102C1000B381BF7088839983AA83BB8381E0DF91EE
:102C2000CF911F910F91FF90EF90DF90CF90BF90C9
:102C3000AF909F908F9008954F925F926F927F9286
:102C4000AF92BF92CF92DF92EF92FF920F931F93BA
:102C5000CF93DF9300D000D0CDB7DEB78C0149838E
:102C60005A836B837C835901C12CD12C7601412C72
:102C700082E0582E612C712C49815A816B817C81B4
:102C80009E012F5F3F4FC8010E949815882351F184
:102C9000D301C201F801058404C0880F991FAA1F3F
:102CA000BB1F0A94D2F7C80ED91EEA1EFB1E49812B
:102CB0005A816B817C818789803129F088EF9FEF71
:102CC000AFEFBFE004C088EF9FEFA0E0B0E048178F
:102CD00059076A077B0780F2F501C082D182E28240
:102CE000F38281E00F900F900F900F90DF91CF91C2
:102CF0001F910F91FF90EF90DF90CF90BF90AF901A
:102D00007F906F905F904F9008959091E0049111A3
:102D1000FCCF91E09093E0049093DF042FEF209399
:102D2000DE041092DD04260F2093DC049093DB0474
:102D30009091DB04880F892B8093DB048091DA0467
:102D4000813061F41092DA048091DB048093BB003F
:102D50008091BC0083FDF8CF85EC01C085EE8093A7
:102D6000BC008091E0048130E1F38091DD0486179E
:102D700010F46091DD04AAEBB4E02AE934E0F90133
:102D80008E2F821B861718F48D918193F9CF862F91
:102D9000089591E09093990480930C061092980402
:102DA000109297040895613208F060E20E9485163F
:102DB0001092960480939504089520919704909121
:102DC0000C06213208F04AC08091E0048111FCCF4A
:102DD00032E03093E00431E03093DF043FEF309392
:102DE000DE041092DD042093DC04A5E7B4E04AEB96
:102DF00054E0FA013E2F341B321718F43D91319301
:102E0000F9CF1092DB042091DB04990F922B909361
:102E1000DB049091DA04913061F41092DA0490911D
:102E2000DB049093BB009091BC0093FDF8CF95EC30
:102E300001C095EE9093BC009091E0049230E1F3D4
:102E40009091DE049F3F79F08091DE04803241F062
:102E50008091DE04803331F084E005C081E003C05E
:102E600082E001C083E010929804109297041092BF
:102E70009904089590E0FC01EB54FD4F2491FC016E
:102E8000EF55FD4F8491882399F090E0880F991FAA
:102E9000FC01E956FD4FA591B491FC01E357FD4FAC
:102EA000859194918FB7F894EC91E22BEC938FBFBE
:102EB000089540E0682F85ED95E00C949D13CF9325
:102EC000DF93CDB7DEB728970FB6F894DEBF0FBEFD
:102ED000CDBF98E0ECE0F1E0DE01119601900D929B
:102EE0009A95E1F79091ED05961710F46FEF690F41
:102EF000FE013196E60FF11DE60FF11D9081890F5D
:102F0000806828960FB6F894DEBF0FBECDBFDF9164
:102F1000CF910C94591781E00E9459178BE39FE1E0
:102F20000197F1F70895CF93C82F88E60E94C9163C
:102F30006C2F70E0685F7F4F89EC95E00E9455022E
:102F40000E94DD1661E088E60E94851610929604C4
:102F50008093950489EC95E00E940902CF91089531
:102F6000CF93DF93D82FC1E082FB442740F94C2751
:102F700068E080EF95E00E94E511D1FB442740F91D
:102F80004C2767E080EF95E00E94E5114D2F4170DE
:102F90004C2766E080EF95E0DF91CF910C94E5112E
:102FA0000F931F93CF93DF93EC01462F50E060E027
:102FB00070E02AE00E9439108C0160EB71E0CE01D4
:102FC0000E942410800F911FDF91CF911F910F91CC
:102FD0000895462F50E060E070E02AE00C9439102C
:102FE0002F923F924F925F926F927F928F929F9219
:102FF000AF92BF92CF92DF92EF92FF920F931F9307
:10300000CF93DF93CDB7DEB7C756D1090FB6F8948B
:10301000DEBF0FBECDBF5C014B01A6964FAFA6979A
:103020003E018EE1680E711C6AEA75E0C3010E94E0
:10303000000D1C821B8288E291E09A8389831E82A4
:103040007401FE0131966F0123011F016FE270E0F0
:10305000C7010E94F32A0097F1F1F70120812F3276
:1030600021F4FFEFEF1AFF0AF1CF8E198D3008F02F
:103070008CE0082F10E0A801B701CE01885A9F4FBD
:103080000E94052BE8E5F0E0EC0FFD1FE00FF11FBB
:103090001082C6010E94520921E0AE01485A5F4FDA
:1030A000B201C6010E94660981110AC01EAE1DAEA2
:1030B00088E291E09CAF8BAF21961FAE219717C09D
:1030C000E00EF11EC2010E945209942D852D2601A9
:1030D000C92ED82EBBCFC70188199909A8969FAFD2
:1030E0008EAFA897B201CE01CB960E94000DA89694
:1030F000EEADFFADA8978E0E9F1EF4018081811169
:1031000009C0BE01655C7F4FC1010E94000D4FEBFD
:1031100051E04BC019A218A288E291E09F8F8E8FD8
:103120001BA221968FAD2197811113C0F501138247
:10313000128288EE93E0A0E0B0E084839583A683BA
:10314000B78388E491E091838083128E118E148678
:1031500030C08250A6962FADA697A401823040F4CD
:103160006AEA75E0C3010E94660981110DC0DECFD5
:10317000BE01655C7F4FC3010E9466098823B1F2DE
:10318000CE01CB960E945209A6968FADA697867067
:1031900039F049A95AA96BA97CA9C3010E94D2039D
:1031A000B301C1010E94000DA401B101C5010E943B
:1031B000510DC501C959DF4F0FB6F894DEBF0FBEE0
:1031C000CDBFDF91CF911F910F91FF90EF90DF90D6
:1031D000CF90BF90AF909F908F907F906F905F90B7
:1031E0004F903F902F9008950F931F93CF93DF93AD
:1031F000EC010E948A11688779878A879B87CE01B4
:103200000E94C00797FF17C00E948A110885198580
:103210002A853B85DC01CB01801B910BA20BB30BF4
:103220000C811D812E813F8180179107A207B30772
:1032300030F38FEF9FEFDF91CF911F910F910895A2
:103240008F929F92AF92BF92CF92DF92EF92FF92B6
:10325000CF93DF93C82F80E895E090937304809319
:103260007204CC2369F1C53010F080E00DC140E05C
:1032700060E070E0CB010E946D068823B1F320E18D
:10328000C29FC00111248E599D4FFC01E254FE4F94
:1032900020812F7751F73C96408151816281738163
:1032A000443651056105710500F33497C080D18023
:1032B000E280F380C114D104E104F10421F4D5CFFC
:1032C000C12CD12C760140E0C701B6010E946D06E9
:1032D000882359F280917D0290917E02811592405F
:1032E00021F6A0918202AA2309F4BFCF6091800247
:1032F000709181026115710509F4B7CF20917F02A9
:10330000222309F4B2CFA0939E052093900580E07C
:1033100030E0E1E0F0E0C82FAF01082E02C0440F1A
:10332000551F0A94E2F72417350741F0982F8F5F55
:10333000983089F789E08093990597CF8093990514
:1033400020918802309189022115310519F040E061
:1033500050E008C020919602309197024091980267
:1033600050919902209391053093920540939305D3
:103370005093940546015701860E971EA11CB11C5F
:1033800080929F059092A005A092A105B092A205FF
:10339000E0918302F0918402F093A505E093A405E7
:1033A000B0E00E94142B860E971EA81EB91E8092B4
:1033B000A6059092A705A092A805B092A90585E060
:1033C000EE0FFF1F8A95E1F7E150FE4FEF2FFF2729
:1033D000E6958E0E9F1EA11CB11C80929A059092BC
:1033E0009B05A0929C05B0929D052091850230918D
:1033F00086022115310521F0A90160E070E008C0C6
:1034000040919202509193026091940270919502C2
:10341000D701C60188199909AA09BB09840F951F0C
:10342000A61FB71F04C0B695A79597958795CA950F
:10343000D2F78093950590939605A0939705B09346
:103440009805853F2FE09207A105B10510F48CE0A7
:1034500018C0853F9F4FA105B10510F480E111C050
:1034600080919E0290919F02A091A002B091A10232
:103470008093A6059093A705A093A805B093A905EE
:1034800080E28093A30581E0DF91CF91FF90EF90E0
:10349000DF90CF90BF90AF909F908F900895109243
:1034A000960410929504109298041092970410922A
:1034B000E00481E08093DF041092DA0461E082E1AD
:1034C0000E94041161E083E10E940411E9EBF0E045
:1034D00080818E7F808380818D7F808388E480934C
:1034E000B80085E48093BC000895CF93DF93C82F84
:1034F000D62F88E60E94C9168C2F90E0BC01685F29
:103500007F4F89EC95E00E9455026D2F89EC95E084
:103510000E945502DF91CF910C94DD16CF92DF927D
:10352000EF92FF92CF93DF936C01990FEE08FF08A3
:10353000F7FE1BC06DE285ED95E00E94F90FEC01EE
:1035400044275527BA014C195D096E097F092AE005
:1035500085ED95E00E9439108C0F9D1FDF91CF9172
:10356000FF90EF90DF90CF9008952AE0B701A60179
:1035700085ED95E0DF91CF91FF90EF90DF90CF90B8
:103580000C943910CF93DF93CDB7DEB7C059D10972
:103590000FB6F894DEBF0FBECDBF789484B58260BD
:1035A00084BD84B5816084BD85B5826085BD85B5E7
:1035B000816085BD80916E00816080936E00109265
:1035C00081008091810082608093810080918100E0
:1035D0008160809381008091800081608093800071
:1035E0008091B10084608093B1008091B0008160CF
:1035F0008093B00080917A00846080937A008091FB
:103600007A00826080937A0080917A008160809352
:103610007A0080917A00806880937A001092C100CD
:10362000E091F104F091F20482E08083E091ED04F6
:10363000F091EE041082E091EF04F091F0048FEC31
:1036400080831092F904E091F504F091F60486E08D
:103650008083E091F304F091F404808180618083A1
:10366000E091F304F091F404808188608083E0911C
:10367000F304F091F404808180688083E091F30486
:10368000F091F40480818F7D80830E944F1A0E9404
:103690004F1A8091EF058F3F39F58091E9058860D9
:1036A0008093E90582E08093ED051092EE058BE3AF
:1036B0009DE00197F1F740E06091D90585ED95E037
:1036C0000E94361240E06091DB0585ED95E00E9496
:1036D00036126091DA056F3F09F4B2C040E085ED23
:1036E00095E00E943612ACC00E944F1A1092F0056D
:1036F0000E944F1A8091F00580620E94C91680E0F6
:103700000E94E0118FEF0E94E0110E94DD1680916F
:10371000F00580620E94C91681E00E94E0118FEFDF
:103720000E94E0110E94DD1641E068E080EF95E024
:103730000E945E1241E066E080EF95E00E945E121A
:1037400041E067E080EF95E00E945E1287E00E9412
:10375000B0176091DA05662329F041E080EF95E02B
:103760000E94A91241E06091D90580EF95E00E9486
:10377000A91241E06091DB0580EF95E00E94A9125B
:103780000CED15E034E0F32EF00EF80161918F019D
:1037900041E080EF95E00E94A912F012F6CF04EE0E
:1037A00015E025E0E22EE00E40E0F801608180EFB8
:1037B00095E00E94A912F80121918F012031E8F5CE
:1037C000283020F028509DE0F92E02C08CE0F82E21
:1037D0008091F0058062C057DF4F2883C059D040E8
:1037E0000E94C9168F2D0E94E0110E94DD16809163
:1037F000F005806261E070E090E00E94D31689ECF1
:1038000095E00E940902D82E8091F00580620E9406
:10381000C9168F2D0E94E01141E050E0C057DF4FE4
:103820002881C059D040CA0101C0880F2A95EAF703
:103830008D290E94E0110E94DD16E012B5CF2DCF38
:103840008091E90584FD21C063E085ED95E00E944B
:10385000CB120BE416E4C8010197F1F763E085EDA4
:1038600095E00E94CB12C8010197F1F763E085ED66
:1038700095E00E94CB1283E592E00197F1F762E0B8
:1038800085ED95E00E94CB1215C080620E94591709
:103890008BE496E40197F1F78091E90580620E943C
:1038A000591783E592E00197F1F78091E90580626D
:1038B0000E9459178091E90580620E94591784E09F
:1038C0008093EA058CE00E9459170E948B1782E0D2
:1038D0008093EB0586E00E9459170E948B17809118
:1038E00001010E94B01760E082E00E945F1760E76C
:1038F00071E085ED95E00E94001061E087E00E9494
:103900005F1768E671E085ED95E00E94001061E5C3
:1039100071E081EE94E00E9496106AE371E081EE1E
:1039200094E00E94961063E271E081EE94E00E94C0
:10393000961088E60E94C91660E089EC95E00E9426
:1039400055020E94DD1661E070E088E690E00E947A
:10395000D31689EC95E00E94090287FF03C08CE62C
:1039600091E08DC16AE071E081EE94E00E94001068
:103970008AE00E943A1710928B05109289051092E6
:103980008605109285058AE0809384050E948A113D
:103990008B01809184050E943A1761E08091840533
:1039A0000E940411FFB6F8948091D001811124C0C7
:1039B000EBEAF2E08491EFEBF2E09491E82FF0E093
:1039C000EE0FFF1FE956FD4FA591B491EC91E9234D
:1039D00021F461E08AE00E9404118AE00E943A1713
:1039E0008CB580618CBD8CB580648CBD8DE00E94EF
:1039F0003A178BE00E943A178091D0018F5F809335
:103A0000D001FFBE82E580937E0510927F058091F4
:103A10007E0590917F050E94B804AAE0FA2E8FEFF0
:103A20000E947904FA94F110FACF80E895E00E94A0
:103A3000BB0420E030E0A90160E080E895E00E944E
:103A4000D104F82E80938A0521E0821749F00E9464
:103A50008A11601B710B613D774058F381E056C0BD
:103A60002AEA31E040E050E068E080E895E00E941A
:103A7000D10482FF03C0F0928B0510C0F4E0FF2E4A
:103A80000E94800480938A05FA94F110F9CF8A3A53
:103A900011F082E03BC082E080938B0580918B0522
:103AA000823021F0C12CD12C760105C0C12CD12C43
:103AB000E12CE0E4FE2E20E030E0A90167E380E89D
:103AC00095E00E94D104A701960169E280E895E0A3
:103AD0000E94D10480938A05882349F00E948A11AC
:103AE000601B710B613D774030F388E00FC080911F
:103AF0008B05823001F520E030E0A9016AE380E81F
:103B000095E00E94D104882341F086E080938505EA
:103B100080E895E00E946E04B0C00E948004807C22
:103B2000803C19F483E080938B050E9480040E94FE
:103B300080040E94800480E895E00E946E0480E585
:103B400080937E0510927F0581E00E9420198823D2
:103B500029F08091AF05882341F08FC080E00E945A
:103B60002019882309F489C0F4CF8091A3058031FE
:103B700009F582E08093AF051092C1051092C2054D
:103B80001092C3051092C4058091A4059091A505DB
:103B9000A0E0B0E075E0880F991FAA1FBB1F7A95BF
:103BA000D1F78093BD059093BE05A093BF05B09358
:103BB000C0051FC0803209F060C083E08093AF056C
:103BC0004091A6055091A7056091A8057091A9059F
:103BD0004093C1055093C2056093C3057093C4051B
:103BE0002DEB35E08CE895E00E941C16882309F443
:103BF00044C08CE895E09093C6058093C50581E0AC
:103C00008093AE051092B0051092B1051092B205E6
:103C10001092B3051092B4051092B5051092B60536
:103C20001092B7051092B8051092B9051092BA0516
:103C30001092BB051092BC056CED75E080E090E041
:103C40000E94501164E071E081EE94E00E949610B1
:103C500041E068E771E0CE01885A9F4F0E94F0175B
:103C600066EE70E081EE94E00E940010E396EEAD07
:103C7000FFADE397309729F495C085E891E00E9465
:103C8000F7278581882309F48DC05BEDE52E51E08F
:103C9000F52E66E0D62ECE01885A9F4F0E949001E5
:103CA000892B09F466C01A8219821C821B821E822B
:103CB0001D8260E070E0CE0101960E94D20F298142
:103CC0003A8181110DC02115310519F0C9010E94F9
:103CD00076291A8219821E821D821C821B8225C0AF
:103CE0001E821D8262EB71E0C9010E94FE2A1DC086
:103CF0008A30910509F18E8F1F8E0D811E810F5F15
:103D00001F4FB801CE0101960E94D20F882369F09F
:103D100029813A818D819E81BE01625E7F4F820F33
:103D2000931F0E94FE2A1E830D83CE01885A9F4F47
:103D30000E94F41897FFDCCFE114F104B1F00D817B
:103D40001E810115110511F4F7010EC0083011058F
:103D500010F008E010E069817A81A801C7010E9493
:103D6000052BF701E00FF11F108289819A810E94D3
:103D70007629DA94F9E0EF0EF11CD1108CCFE3969E
:103D80008EAD9FADE397009701F10E945209E39633
:103D90008EAD9FADE3970E947629E3961FAE1EAECF
:103DA000E39713C04BEDE42E41E0F42E11E365E9F7
:103DB00071E0C7010E94FE2AF7011783F9E0EF0EB8
:103DC000F11C1F5F173399F7DACF6CED75E080E0D7
:103DD00090E00E94501160EE70E081EE94E00E944D
:103DE00096104BED51E026E030E280E090E0FA01E1
:103DF000E80FF91F60816D3009F430830196883037
:103E00009105A9F72150475F5F4F2111EECF87E859
:103E100093E09093CF018093CE018DE0E1ECF1E04F
:103E2000DE01A058BF4F01900D928A95E1F7BB24A7
:103E3000B3942AE0822E38E2E32E31E0F32E6E01B5
:103E40002BE3C20ED11C8B2D682D0E949928805D1A
:103E5000CA57DF4F8883C658D040905DC957DF4F9F
:103E60009883C758D0401EAE1DAEFCAEEBAE219677
:103E70001FAE219719A218A2FF8EEE8E1BA2712CE5
:103E8000612CAC2C9D2C0AEA15E0272D362DE0E89C
:103E9000F0E0EC0FFD1FE20FF31F80818F3211F471
:103EA0002F5F3F4FFE01ED58FF4F40E050E0A0E88C
:103EB000B0E0AC0FBD1FA20FB31F8C918F3251F039
:103EC000882341F04F5F5F4F2F5F3F4F81934C300E
:103ED000510569F7E3E7F0E0EC0FFD1FE40FF51F74
:103EE0001082E0E8F0E0EC0FFD1FE20FF31F80818D
:103EF0008F3211F42F5F3F4F722E632EE0E8F0E017
:103F0000EC0FFD1FE20FF31F50801C821B82FA8210
:103F1000E9821E8221E0AE014D585F4FB801CE010B
:103F200001960E946609882339F0CE0101960E940D
:103F30005209511009C024C035E00A3A130749F16B
:103F4000C8010E94520925C021E0AE014D585F4FC3
:103F5000B8018A2D992D0E946609582E45E00A3A2B
:103F6000140711F40C94EE27C8010E945209552041
:103F700081F0902F812F0A2D192DA92E982E85CFF3
:103F800055E00A3A150709F459C0C8010E945209C0
:103F900055C061ED70E081EE94E00E940010BE011A
:103FA00060587F4F81EE94E00E94AA106CEC70E0A4
:103FB00081EE94E00E94001043E1BE0160587F4F03
:103FC000CE0101960E94F0178B819C819093F4059D
:103FD0008093F3058D819E81AF81B8858093F5052F
:103FE0009093F605A093F705B093F80589859A8517
:103FF000AB85BC858093F9059093FA05A093FB05EA
:10400000B093FC058DE0FE013D96ADEFB5E001906B
:104010000D928A95E1F78A8D9B8D90930B06809384
:104020000A066CED75E080E090E00E94501166ECAD
:1040300070E081EE94E00E94961004C0B39484E690
:10404000B81201CFE0910A06F0910B06309719F0F3
:104050008581811103C08DE991E011CECE010196D9
:104060000E94171465EB70E081EE94E00E949610B8
:104070006EEA70E081EE94E00E9400108A818A303E
:1040800030F46EEA71E081EE94E00E94AA106A8139
:1040900081EE94E00E94E9176FE281EE94E00E94C5
:1040A000F90F8B818A3030F46EEA71E081EE94E092
:1040B0000E94AA106B8181EE94E00E94E9176FE2E2
:1040C00081EE94E00E94F90F498150E04053584F2F
:1040D000052E000C660B770B2AE081EE94E00E941F
:1040E000391060EB71E081EE94E00E9424106DE9DC
:1040F00070E081EE94E00E94961063E870E081EF3A
:1041000095E00E94001082E00E9493178F3F31F0EB
:1041100087E00E9493178F3F09F0F3C66AE770E0CB
:1041200081EF95E00E94961068E670E081EF95E0DF
:104130000E9496106CED75E080E090E00E945011B6
:104140000E948B1780E00E949317182F8093010123
:1041500081E00E949317809300011F3F41F48F3F3D
:1041600031F487E08093010181E080930001809128
:1041700001010E94B01789E00E9493178093D50136
:10418000823010F01092D50189E0382E97E0292E68
:10419000E12CF12C1FE10E2DF701EB52FA4F278590
:1041A0002031C0F5283018F0285093E101C092E189
:1041B0008091F0058062C057DF4F2883C059D040FE
:1041C000C157DF4F9883CF58D0400E94C916C157BE
:1041D000DF4F9881CF58D040892F0E94E0110E9474
:1041E000DD168091F005806261E070E090E00E9451
:1041F000D31689EC95E00E9409029927C057DF4F3A
:104200002881C059D04002C0959587952A95E2F73C
:10421000817001C080E090E002C0880F991F0A956C
:10422000E2F7809590951823EFEFEE1AFE0AF5E07D
:10423000EF16F10409F0AFCF80911A02811196C0F8
:1042400013FF49C080910101873070F02092010175
:1042500081E08093000167E080E00E94751A61E0D0
:1042600081E00E94751A37C0FF24F394F80EF09293
:10427000010100910001EE24EA94E00EE0920001B9
:104280006F2D80E00E94751A6E2D81E00E94751AD4
:104290008F2D0E94B0170E948B1760E082E00E9471
:1042A0005F170250309EB001112465527E4F85ED9C
:1042B00095E00E94AA1061E086E00E945F176EE31D
:1042C00072E085ED95E00E9400106CED75E080E0F5
:1042D00090E00E94501112FF49C08091010183308B
:1042E00078F482E08093010186E08093000162E02F
:1042F00080E00E94751A66E081E00E94751A36C05F
:10430000FF24FA94F80EF092010100910001EE24CE
:10431000E394E00EE09200016F2D80E00E94751A98
:104320006E2D81E00E94751A8F2D0E94B0170E9499
:104330008B1760E082E00E945F17309EB00111246D
:1043400065527E4F85ED95E00E94AA1061E086E0FF
:104350000E945F1765E372E085ED95E00E94001012
:104360006CED75E080E090E00E94501110FF1EC2DD
:10437000CE0101960E9417148A818A3030F46EEAC9
:1043800071E081EF95E00E94AA106A8181EF95E0CB
:104390000E94E9176FE281EF95E00E94F90F8B818F
:1043A0008A3030F46EEA71E081EF95E00E94AA1045
:1043B0006B8181EF95E00E94E9176FE281EF95E054
:1043C0000E94F90F498150E04053584F052E000CD0
:1043D000660B770B2AE081EF95E00E94391065EBC0
:1043E00071E081EF95E00E94AA108C818A3030F450
:1043F0006EEA71E081EF95E00E94AA106C8181EF76
:1044000095E00E94E9176AE381EF95E00E94F90FB9
:104410008D818A3030F46EEA71E081EF95E00E9480
:10442000AA106D8181EF95E00E94E9176AE381EFA0
:1044300095E00E94F90F8E818A3030F46EEA71E0C7
:1044400081EF95E00E94AA106E8181EF95E00E94B5
:10445000E91765EB71E081EF95E00E94AA10809169
:1044600000018150389EC00111249C0125523E4F0D
:10447000C357DF4F39832883CD58D040B90181EF2E
:1044800095E00E9482100E948B1760E081E00E94FC
:104490005F1766E272E085ED95E00E94001061E032
:1044A00082E00E945F1769E172E085ED95E00E946D
:1044B000001090911A0281E0891B80931A028130CA
:1044C00009F06BC08091DA01811167C0CE010196BD
:1044D0000E949B146093D6017093D7018093D801FA
:1044E0009093D9016CED75E080E090E00E9450114E
:1044F00081E00E94B0170E948B1760E083E00E9469
:104500005F1763E172E085ED95E00E94001061E0C5
:1045100085E00E945F176AE072E085ED95E00E94F9
:1045200000106AEF71E081EE94E00E9400108C812F
:104530008A3030F46EEA71E081EE94E00E94AA10B5
:104540006C8181EE94E00E94E91763EB71E081EEEB
:1045500094E00E94AA108D818A3030F46EEA71E0F6
:1045600081EE94E00E94AA106D8181EE94E00E9499
:10457000E91763EB71E081EE94E00E94AA108E814E
:104580008A3030F46EEA71E081EE94E00E94AA1065
:104590006E8181EE94E00E94D01780911A02811101
:1045A000FBC08091DA01813009F0F6C0CE0101969E
:1045B0000E949B14C090D601D090D701E090D80102
:1045C000F090D9012B013C014C185D086E087F0862
:1045D000C301B2012CE330E040E050E00E94B92872
:1045E0006B017C01CA01B9012CE330E040E050E0EE
:1045F0000E94B9284B015C01C301B20120E13EE0F9
:1046000040E050E00E94B928022F722E64EF71E062
:1046100081EF95E00E94001065EB71E081EF95E07D
:104620000E94AA106BEE71E081EF95E00E940010ED
:1046300065EB71E081EF95E00E94AA1039E0301738
:1046400030F06EEA71E081EF95E00E94AA10602FD1
:1046500081EF95E00E94E91763EB71E081EF95E04F
:104660000E94AA104AE084169104A104B10430F417
:104670006EEA71E081EF95E00E94AA10682D81EF4B
:1046800095E00E94E91763EB71E081EF95E00E94ED
:10469000AA105AE0C516D104E104F10430F46EEA20
:1046A00071E081EF95E00E94AA106C2D81EF95E0FA
:1046B0000E94D0176CED75E080E090E00E945011F0
:1046C000809101010E94B0170E948B1760E083E087
:1046D0000E945F1765EE71E085ED95E00E94001085
:1046E00061E085E00E945F176CED71E085ED95E07B
:1046F0000E94001089E0871530F06EEA71E081EECB
:1047000094E00E94AA10602F81EE94E00E94E917C5
:1047100063EB71E081EE94E00E94AA10EAE08E164D
:104720009104A104B10430F46EEA71E081EE94E0EA
:104730000E94AA10682D81EE94E00E94E91763EBB5
:1047400071E081EE94E00E94AA10FAE0CF16D10445
:10475000E104F10430F46EEA71E081EE94E00E942D
:10476000AA106C2D81EE94E00E94E91768ED71E0CB
:1047700081EE94E00E940010C357DF4F6881798179
:10478000CD58D04081EE94E00E94821067EB71E03A
:1047900081EE94E00E94821080911A028093DA01E7
:1047A0006CED75E080E090E00E94501114FF22C093
:1047B0000E948B1760E082E00E945F176091000109
:1047C0006150369EB001112465527E4F85ED95E013
:1047D0000E94AA1061E086E00E945F176FEC71E012
:1047E00085ED95E00E9400106CED75E080E090E0B2
:1047F0000E94501180911A02813009F09DC011FF72
:104800009BC00E948B1709E1CE0101960E941714EC
:1048100060E080E00E945F1766EC71E085ED95E056
:104820000E940010CE0101960E949B14C090D601F8
:10483000D090D701E090D801F090D9019B01AC0154
:104840002C193D094E095F0969017A01CA01B901B4
:104850002CE330E040E050E00E94B9284B015C01BD
:10486000CA01B9012CE330E040E050E00E94B928D1
:104870002B013C01C701B60120E13EE040E050E0E1
:104880000E94B9282A3080F46EEA71E085ED95E047
:10489000C057DF4F2883C059D0400E94AA10C0578C
:1048A000DF4F2881C059D040622F85ED95E00E94EE
:1048B000E91763EB71E085ED95E00E94AA103AE0FC
:1048C000431651046104710430F46EEA71E085ED21
:1048D00095E00E94AA10642D85ED95E00E94E917ED
:1048E00063EB71E085ED95E00E94AA104AE0841622
:1048F0009104A104B10430F46EEA71E085ED95E015
:104900000E94AA10682D85ED95E00E94E91761E0EC
:1049100081E00E945F1766EB71E085ED95E00E94F3
:10492000001065E070E080E090E00E9450110150BE
:1049300009F06ACF0E948B1780911A02813009F02A
:104940003DC1CE0101960E941714CE0101960E942E
:104950009B148090D6019090D701A090D801B09080
:10496000D901DC01CB0188199909AA09BB09803456
:104970009E47A540B10508F421C1CE0101960E94D1
:104980009B146B017C01C818D908EA08FB08C70111
:10499000B6012CE330E040E050E00E94B9284B0122
:1049A0005C01CA01B9012CE330E040E050E00E9414
:1049B000B9282B013C01C701B60120E13EE040E0EF
:1049C00050E00E94B928022FD22E8A818A3030F41A
:1049D0006EEA71E081EF95E00E94AA106A8181EF92
:1049E00095E00E94E9176FE281EF95E00E94F90FD0
:1049F0008B818A3030F46EEA71E081EF95E00E949D
:104A0000AA106B8181EF95E00E94E9176FE281EFB8
:104A100095E00E94F90F498150E04053584F052E10
:104A2000000C660B770B2AE081EF95E00E943910AD
:104A300065EB71E081EF95E00E94AA108C818A30CD
:104A400030F46EEA71E081EF95E00E94AA106C816B
:104A500081EF95E00E94E9176AE381EF95E00E94FB
:104A6000F90F8D818A3030F46EEA71E081EF95E0C4
:104A70000E94AA106D8181EF95E00E94E9176AE318
:104A800081EF95E00E94F90F8E818A3030F46EEA52
:104A900071E081EF95E00E94AA106E8181EF95E0B0
:104AA0000E94E91765EB71E081EF95E00E94AA1082
:104AB000E0900001EA943E9CC0011124FC01E55203
:104AC000FE4F7F01BF0181EF95E00E94821060EBF5
:104AD00071E081EF95E00E94001065EB71E081EFDD
:104AE00095E00E94AA1067EA71E081EF95E00E94CC
:104AF000001065EB71E081EF95E00E94AA10F9E0EB
:104B0000FD1530F06EEA71E081EF95E00E94AA1089
:104B1000602F81EF95E00E94E91763EB71E081EF70
:104B200095E00E94AA102AE0421651046104710423
:104B300030F46EEA71E081EF95E00E94AA10642DD6
:104B400081EF95E00E94E91763EB71E081EF95E05A
:104B50000E94AA103AE083169104A104B10430F433
:104B60006EEA71E081EF95E00E94AA10682D81EF56
:104B700095E00E94D017809101010E94B0170E9419
:104B80008B1760E082E00E945F176AE971E085EDB3
:104B900095E00E94001061E084E00E945F17B70179
:104BA00085ED95E00E94AA106CED75E080E090E044
:104BB0000E94501110921A021092DA0180911A028A
:104BC00081110EC011FF0CC09091D50181E0891BAD
:104BD0008093D50164E670E080E090E00E9450117F
:104BE0008091D501813009F088C0CE0101960E94E4
:104BF000171460E080E00E945F1764E971E085EDC2
:104C000095E00E9400108A818A3030F46EEA71E0EB
:104C100085ED95E00E94AA106A8185ED95E00E94DD
:104C2000E9176FE285ED95E00E94F90F8B818A30DC
:104C300030F46EEA71E085ED95E00E94AA106B8178
:104C400085ED95E00E94E9176FE285ED95E00E9401
:104C5000F90F498150E04053584F052E000C660B68
:104C6000770B2AE085ED95E00E94391061E080E045
:104C70000E945F176EE871E085ED95E00E940010DC
:104C80008C818A3030F46EEA71E085ED95E00E9407
:104C9000AA106C8185ED95E00E94E91763EB71E045
:104CA00085ED95E00E94AA108D818A3030F46EEA7D
:104CB00071E085ED95E00E94AA106D8185ED95E08B
:104CC0000E94E91763EB71E085ED95E00E94AA1060
:104CD0008E818A3030F46EEA71E085ED95E00E94B5
:104CE000AA106E8185ED95E00E94E9176BEB71E0EB
:104CF00085ED95E00E94AA10A0C0CE0101960E9409
:104D0000171460E080E00E945F1768E871E085EDAD
:104D100095E00E9400108A818A3030F46EEA71E0DA
:104D200085ED95E00E94AA106A8185ED95E00E94CC
:104D3000E9176FE285ED95E00E94F90F8B818A30CB
:104D400030F46EEA71E085ED95E00E94AA106B8167
:104D500085ED95E00E94E9176FE285ED95E00E94F0
:104D6000F90F498150E04053584F052E000C660B57
:104D7000770B2AE085ED95E00E94391061E080E034
:104D80000E945F1762E871E085ED95E00E940010D7
:104D90006C816D3060F0663130F46EEA71E085ED63
:104DA00095E00E94AA108C8190E00C9704C06111DC
:104DB00005C08CE090E00E948E1A0DC06A3038F475
:104DC0006EEA71E085ED95E00E94AA106C8185ED98
:104DD00095E00E94E9176AE385ED95E00E94F90FDE
:104DE0008D818A3030F46EEA71E085ED95E00E94A5
:104DF000AA106D8185ED95E00E94E9176AE385EDC3
:104E000095E00E94F90F8E818A3030F46EEA71E0ED
:104E100085ED95E00E94AA106E8185ED95E00E94D7
:104E2000E9178C818C3018F06EE771E002C06AE7F8
:104E300071E085ED95E00E9400100E948A110091BA
:104E4000D1011091D2012091D3013091D401DC0124
:104E5000CB01801B910BA20BB30B88389341A105AA
:104E6000B10508F44BC00E948A116093D101709380
:104E7000D2018093D3019093D40181EF95E00E94F9
:104E80005E09CE0101960E9417146A8182E00E9499
:104E9000751A6B8183E00E94751A498150E0405376
:104EA000584FCA0164E670E00E94A52884E0C1570B
:104EB000DF4F4883CF58D040C057DF4F5883C05989
:104EC000D0400E94751AC157DF4F4881CF58D0405B
:104ED00060E3640F85E00E94751A6C8186E00E9491
:104EE000751A6D8187E00E94751A6E8188E00E94B4
:104EF000751A6091D50189E00E94751A0E94A10F70
:104F000047C982E00E949317682F81EF95E00E94C5
:104F1000E9176FEB71E081EF95E00E94AA1083E042
:104F20000E949317682F81EF95E00E94E9176FEBBD
:104F300071E081EF95E00E94AA1084E00E9493172F
:104F4000682F81EF95E00E94E91785E00E94931792
:104F5000682F81EF95E00E94E9176FE770E081EF1D
:104F600095E00E94001086E00E9493178A3030F48A
:104F70006EEA71E081EF95E00E94AA1086E00E943F
:104F80009317682F81EF95E00E94E91763EB71E0BA
:104F900081EF95E00E94AA1087E00E9493178A3063
:104FA00030F46EEA71E081EF95E00E94AA1087E08C
:104FB0000E949317682F81EF95E00E94E91763EB39
:104FC00071E081EF95E00E94AA1088E00E9493179B
:104FD000682F81EF95E00E94D017A6C8882311F4AE
:104FE0000C94C91F8E01025E1F4F0C94B91FEC0177
:104FF0000E948B176FE472E085ED95E00E9400102F
:1050000061E080E00E945F17BE0185ED95E00E949F
:10501000AA1067E472E081EE94E00E940010BE01E5
:1050200081EE94E00E948210FFCFE1EEF4E0138263
:10503000128288EE93E0A0E0B0E084839583A6839B
:10504000B78328E131E03183208325EC30E03587D8
:10505000248724EC30E03787268720EC30E0318B42
:10506000208B21EC30E0338B228B22EC30E0358B2F
:10507000248B26EC30E0378B268B118E128E138E0C
:10508000148EEEE7F5E020E520831182E0E8F5E0FC
:10509000158216821186138642E050E060E070E0CF
:1050A000448755876687778713A215A614A628E23A
:1050B00031E033A722A717A6E9ECF5E013821282AC
:1050C00084839583A683B78320E331E031832083F3
:1050D000E1EFF5E01382128284839583A683B78380
:1050E00088E491E091838083128E118E1486E5ED21
:1050F000F5E01382128280E491E091838083128E26
:10510000148A8FE084838EE085838DE086838CE033
:1051100087838BE080878AE0818789E08287178692
:1051200081E0808B82E0818B83E0828B84E0838BC3
:105130000895991B79E004C0991F961708F0961BF3
:10514000881F7A95C9F780950895AA1BBB1B51E16A
:1051500007C0AA1FBB1FA617B70710F0A61BB70BE7
:10516000881F991F5A95A9F780959095BC01CD018C
:105170000895A1E21A2EAA1BBB1BFD010DC0AA1F98
:10518000BB1FEE1FFF1FA217B307E407F50720F0B0
:10519000A21BB30BE40BF50B661F771F881F991F2B
:1051A0001A9469F760957095809590959B01AC0174
:1051B000BD01CF010895EE0FFF1F0590F491E02D82
:1051C0000994CF93DF938230910510F482E090E050
:1051D000E0910F06F091100620E030E0C0E0D0E052
:1051E000309711F14081518148175907C0F0481795
:1051F000590761F482819381209719F09B838A83F8
:105200002BC09093100680930F0626C02115310500
:1052100019F04217530718F49A01BE01DF01EF019C
:105220000280F381E02DDCCF2115310509F1281B27
:10523000390B2430310590F412968D919C9113977F
:105240006115710521F0FB019383828304C0909363
:10525000100680930F06FD01329644C0FD01E20F57
:10526000F31F81939193225031092D933C933AC0BF
:1052700020910D0630910E06232B41F42091080158
:105280003091090130930E0620930D0620910601FE
:10529000309107012115310541F42DB73EB74091FA
:1052A0000A0150910B01241B350BE0910D06F09182
:1052B0000E06E217F307A0F42E1B3F0B2817390741
:1052C00078F0AC014E5F5F4F2417350748F04E0F62
:1052D0005F1F50930E0640930D068193919302C079
:1052E000E0E0F0E0CF01DF91CF9108950F931F939D
:1052F000CF93DF93009709F48CC0FC01329713829F
:10530000128200910F06109110060115110581F40B
:1053100020813181820F931F20910D0630910E065E
:105320002817390779F5F0930E06E0930D0671C042
:10533000D80140E050E0AE17BF0750F412962D910F
:105340003C911397AD012115310509F1D901F3CF36
:105350009D01DA013383228360817181860F971F5B
:105360008217930769F4EC0128813981260F371FD2
:105370002E5F3F4F318320838A819B819383828379
:10538000452B29F4F0931006E0930F0642C01396C4
:10539000FC93EE931297ED01499159919E01240FD0
:1053A000351FE217F30771F480819181840F951FF7
:1053B000029611969C938E938281938113969C936F
:1053C0008E931297E0E0F0E0D80112968D919C91B7
:1053D0001397009719F0F8018C01F6CF8D919C91ED
:1053E00098012E5F3F4F820F931F20910D06309141
:1053F0000E062817390769F4309729F41092100621
:1054000010920F0602C01382128210930E060093B0
:105410000D06DF91CF911F910F910895A0E0B0E0AC
:10542000E4E1FAE20C94232BEC01009721F4CB0188
:105430000E94E128B8C0FC01E60FF71F9C01225032
:105440003109E217F30708F4ACC0D9010D911C91A2
:10545000119706171707B0F00530110508F49FC023
:10546000C80104978617970708F499C002501109DC
:10547000061B170B019311936D937C93CF010E9430
:1054800076298DC05B01A01AB10A4C01800E911ED5
:10549000A0910F06B091100640E050E0E12CF12CF5
:1054A000109709F44AC0A815B905D1F56D907C9004
:1054B0001197630182E0C80ED11CCA14DB0480F18D
:1054C000A3014A195B096A0182E0C80ED11C129639
:1054D000BC9012971396AC91B5E0CB16D10440F076
:1054E000B282A38351834083D9016D937C930AC018
:1054F0000E5F1F4FC301800F911FF90191838083BD
:10550000EB2DFA2FE114F10431F0D7011396FC933F
:10551000EE93129744C0F0931006E0930F063FC03D
:105520008D919C9111974817590708F4AC017D01A2
:1055300012960D90BC91A02DB3CF80910D06909145
:105540000E0688159905E1F446175707C8F48091AF
:10555000060190910701009741F48DB79EB74091E5
:105560000A0150910B01841B950BE817F907C8F449
:10557000F0930E06E0930D06F901718360830FC06E
:10558000CB010E94E1287C01009759F0A801BE01DF
:105590000E94EA2ACE010E947629C70104C0CE01EA
:1055A00002C080E090E0CDB7DEB7EEE00C943F2B78
:1055B00081E090E0F8940C94652BFB01DC0104C0C1
:1055C0008D910190801921F441505040C8F7881BFB
:1055D000990B0895FB01DC0102C001900D9241502E
:1055E0005040D8F70895FC018191861721F0882357
:1055F000D9F7992708953197CF010895FB01DC0170
:1056000001900D920020E1F70895FB01DC0141506B
:10561000504048F001900D920020C9F701C01D9242
:1056200041505040E0F708950E94562BA59F900DE1
:10563000B49F900DA49F800D911D112408952F9269
:105640003F924F925F926F927F928F929F92AF9212
:10565000BF92CF92DF92EF92FF920F931F93CF935F
:10566000DF93CDB7DEB7CA1BDB0B0FB6F894DEBFF6
:105670000FBECDBF09942A88398848885F846E841C
:105680007D848C849B84AA84B984C884DF80EE8066
:10569000FD800C811B81AA81B981CE0FD11D0FB66F
:1056A000F894DEBF0FBECDBFED010895A29FB001FB
:1056B000B39FC001A39F700D811D1124911DB29F46
:0E56C000700D811D1124911D0895F894FFCFE7
:1056CE000107FFFFFFFF00001106800000004000F1
:1056DE001400540000000000380FB40E010FDF0E4E
:1056EE00F30E7F0F00000000D30CB40E000000007C
:1056FE00550225021D020902FA01F90100000000FF
:10570E001114B40E00000000B101E40C9001C007AA
:10571E00CA075E0900000000D00FB40ED00FD00FE4
:10572E00D00FD00F00000000D00FB40E5254432003
:10573E004E6F74205365740070726F6A6563747374
:10574E002E74787400436172642052656164204542
:10575E0072726F720050726F6A6563740046696C84
:10576E0065205772697465204572726F7200300041
:10577E000D0A003A002C002D2D2D00204852002F2E
:0E578E00005245434F524430302E43535600D4
:107E0000112484B714BE81FFF0D085E080938100F7
:107E100082E08093C00088E18093C10086E0809377
:107E2000C20080E18093C4008EE0C9D0259A86E02C
:107E300020E33CEF91E0309385002093840096BBD3
:107E4000B09BFECF1D9AA8958150A9F7CC24DD24C4
:107E500088248394B5E0AB2EA1E19A2EF3E0BF2EE7
:107E6000A2D0813461F49FD0082FAFD0023811F036
:107E7000013811F484E001C083E08DD089C08234E0
:107E800011F484E103C0853419F485E0A6D080C0E4
:107E9000853579F488D0E82EFF2485D0082F10E0AE
:107EA000102F00270E291F29000F111F8ED06801E7
:107EB0006FC0863521F484E090D080E0DECF843638
:107EC00009F040C070D06FD0082F6DD080E0C81688
:107ED00080E7D80618F4F601B7BEE895C0E0D1E017
:107EE00062D089930C17E1F7F0E0CF16F0E7DF06D8
:107EF00018F0F601B7BEE89568D007B600FCFDCFD4
:107F0000A601A0E0B1E02C9130E011968C91119780
:107F100090E0982F8827822B932B1296FA010C0160
:107F200087BEE89511244E5F5F4FF1E0A038BF0790
:107F300051F7F601A7BEE89507B600FCFDCF97BE46
:107F4000E89526C08437B1F42ED02DD0F82E2BD052
:107F50003CD0F601EF2C8F010F5F1F4F84911BD097
:107F6000EA94F801C1F70894C11CD11CFA94CF0C13
:107F7000D11C0EC0853739F428D08EE10CD085E9AC
:107F80000AD08FE07ACF813511F488E018D01DD067
:107F900080E101D065CF982F8091C00085FFFCCF94
:107FA0009093C60008958091C00087FFFCCF809118
:107FB000C00084FD01C0A8958091C6000895E0E648
:107FC000F0E098E1908380830895EDDF803219F02E
:107FD00088E0F5DFFFCF84E1DECF1F93182FE3DFCA
:107FE0001150E9F7F2DF1F91089580E0E8DFEE27F6
:047FF000FF270994CA
:027FFE00040479
:0400000300007E007B
:00000001FF
