:100000000C945D010C9485010C9485010C94850180
:100010000C9485010C9485010C9485010C94850148
:100020000C9485010C9485010C9485010C94850138
:100030000C9485010C9485010C9485010C94850128
:100040000C94B5120C9485010C94F1110C94CB1105
:100050000C9485010C9485010C9485010C94850108
:100060000C948B190C9485014E6F6E650020402016
:10007000004C6173742068656172746265617420FC
:1000800064657465637465643A20002D2D2D2D2DF3
:100090002D2D2D2D2D2D2D2D2D2D2D0044617465F3
:1000A0003A20002D2D2D2D2D2D2D2D2D2D2D2D2DAD
:1000B0002D2D2D00446F6E652E002E2E2E20004318
:1000C00072656174696E672066696C652000446FB3
:1000D0006E652E0052656164696E672070726F6A8A
:1000E000656374732E7478742066696C652E2E2E89
:1000F0002000446F6E652E005344206361726420BB
:10010000696E697469616C697A696E672E2E2E203A
:10011000002D2D2D2D2D2D2D2D2D2D2D2D2D2D2D3C
:100120002D2D2D2D2D2D2D0074696D65436C6F6364
:100130006B2076322E302E372D616C706861002D69
:100140002D2D2D2D2D2D2D2D2D2D2D2D2D2D2D2DDF
:100150002D2D2D2D2D0076322E302E376100746915
:100160006D65436C6F636B0020414D0020504D0066
:1001700054696D65200054696D65200054696D6592
:1001800072204D61786564210068683A6D6D3A733C
:10019000730054696D65720054696D657220206842
:1001A000683A6D6D3A737300456C617073656420D5
:1001B00000456C61707365642054696D65723A2006
:1001C000002D0053746F70706564210054696D6573
:1001D000720054696D65722053746F707065643A73
:1001E000200053746172746564210054696D6572F6
:1001F0000054696D657220537461727465643A20AD
:10020000002D2D2D2D2D2D2D2D006D656469612066
:100210006465766963650044617461206C6F67672B
:10022000656420746F007C3C3E5E2B3D3F2F5B5D20
:100230003B2C2A225C001F1C1F1E1F1E1F1F1E1F7F
:100240001E1F00000000250028002B0000000000F9
:10025000240027002A000404040404040404020205
:100260000202020203030303030301020408102035
:100270004080010204081020010204081020000040
:100280000008000201000003040700000000000055
:1002900000004572726F723A200053797374656D75
:1002A000204572726F72210053656C6563746564DA
:1002B0000044617465200000A62711241FBECFEF03
:1002C000D8E0DEBFCDBF11E0A0E0B1E0ECE2F6E5A2
:1002D00002C005900D92A43DB107D9F726E0A4ED28
:1002E000B1E001C01D92A731B207E1F711E0CDE501
:1002F000D1E004C02197FE010E948A28CC35D107A5
:10030000C9F70E94771B0C94142B0C940000EF92F9
:10031000FF920F931F93CF93DF93EC013981888174
:10032000682F70E04A8150E0E6E3F2E091E09E1B26
:10033000292F2E0F231728F42491420F511D319697
:10034000F7CF333020F0837011F44F5F5F4F8DE6AD
:1003500091E0689F9001699F300D789F300D1124C6
:10036000215031096D5F7F4F76956795769567953A
:10037000260F371F240F351FA8E1B0E00E94052B80
:100380002B817B018C01E20EF11C011D111DA801C6
:100390009701ACE3B0E00E94C32A2C817B018C0161
:1003A000E20EF11C011D111DA80197010E94C32A34
:1003B0002D81620F711D811D911DDF91CF911F91C4
:1003C0000F91FF90EF900895AF92BF92CF92DF927E
:1003D000EF92FF920F931F93CF93DF93EC0169018C
:1003E000C801820F931F8130924008F070C08E8147
:1003F000882371F088819981AA81BB8148175907A8
:100400006A077B0729F48F819885C816D906B0F54D
:10041000488359836A837B838B85833039F089E0F5
:10042000440F551F661F771F8A95D1F79A01AB01BC
:1004300061E1CE010E946517882319F083E08D8366
:1004400046C00E94A9125B010E942F178A878F3F26
:1004500049F40E94A9126A197B096D327140A0F318
:100460008FE003C08E3F31F08DE08D83CE010E947E
:100470001D172DC018861F8281E08E838F8198857D
:100480008C159D0540F40E942F178F819885019649
:1004900098878F83F3CF6701E00EF11ECE14DF043F
:1004A00031F00E942F17F60181936F01F7CF8F81F2
:1004B0009885080F191F18870F838985882319F0DD
:1004C0000115124048F0CE010E94321705C0CE013E
:1004D0000E941D1780E001C081E0DF91CF911F9144
:1004E0000F91FF90EF90DF90CF90BF90AF90089565
:1004F0008FB7F894809121028FBF08950F931F93B7
:10050000CF93DF93EB010E94A9128B010E942F175A
:100510008F3F49F00E94A912601B710B6C177D0779
:10052000A8F380E001C081E0DF91CF911F910F918E
:100530000895EF92FF920F931F93CF93DF93EC01F7
:100540007901411551056105710511F482E13CC045
:100550008B85833039F089E0440F551F661F771F64
:100560008A95D1F79A01AB0168E1CE010E94651727
:10057000882311F084E028C08EEF0E94281787019D
:100580008EEFF81AF80181918F010E9428170E153D
:100590001F05C1F78FEF0E9428178FEF0E942817C1
:1005A0000E942F178A878F71853031F081E18D830A
:1005B000CE010E941D1709C068E572E0CE010E94BD
:1005C0007E02811107C085E18D83CE010E941D1737
:1005D00080E013C020E030E0A9016DE0CE010E9470
:1005E0006517811104C00E942F17882311F084E140
:1005F000EBCFCE010E941D1781E0DF91CF911F91BB
:100600000F91FF90EF900895809122028823A9F125
:100610004091020150910301609104017091050124
:1006200027E232E080912704909128040E949902E9
:10063000811102C080E0089540912302509124026C
:1006400060912502709126024115510561057105E1
:1006500091F027E232E080912704909128040E94D3
:100660009902882339F310922302109224021092E7
:100670002502109226021092220281E008958F92A4
:100680009F92AF92BF92EF92FF920F931F93CF93DF
:100690004B015C01C42F8091020190910301A09154
:1006A0000401B091050188159905AA05BB0501F162
:1006B0000E940403811102C080E020C087E2E82E7E
:1006C00082E0F82E00E012E020E030E0B501A40165
:1006D00080912704909128040E94E401882361F30B
:1006E0008092020190920301A0920401B092050150
:1006F00080912202C82BC093220281E0CF911F91EA
:100700000F91FF90EF90BF90AF909F908F900895C2
:100710004F925F926F927F928F929F92AF92BF9211
:10072000CF92DF92EF92FF920F931F93CF93DF93BD
:10073000EC016A017B012801390142305105610554
:10074000710510F480E073C089859A85AB85BC85FE
:100750000196A11DB11D84179507A607B70790F351
:100760008B889C88AD88BE888F89803129F4BB270F
:10077000AF2D9E2D8D2D09C0DB01CA0147E0B69536
:10078000A795979587954A95D1F7880E991EAA1E29
:10079000BB1E8091020190910301A0910401B091D0
:1007A000050188169906AA06BB0679F48F8980315F
:1007B000A1F4DD24EE24FF24C601880F991FFC015B
:1007C000E95DFD4F5182408219C040E0C501B4018E
:1007D0000E943F038111EACFB5CFE894C7F8DD242A
:1007E000EE24FF24C601880F991F880F991FFC0172
:1007F000E95DFD4F408251826282738280912202C4
:100800008160809322028A89823080F08D819E816E
:10081000AF81B885880E991EAA1EBB1E8092230246
:1008200090922402A0922502B092260281E0DF91EC
:10083000CF911F910F91FF90EF90DF90CF90BF90DD
:10084000AF909F908F907F906F905F904F900895A2
:100850008F929F92AF92BF92CF92DF92EF92FF92D0
:100860000F931F93CF93DF93FC0181859285A3851E
:10087000B4850196A11DB11D84179507A607B7077A
:1008800010F480E05CC083899489A589B689C78902
:10089000C03129F4852E962EA72EBB2409C04A010B
:1008A0005B01C7E0B694A79497948794CA95D1F753
:1008B000E9016A017B018F01BC01CD01680D791D41
:1008C0008A1D9B1D8090020190900301A09004015D
:1008D000B0900501681579058A059B0599F4F80122
:1008E00087898031A9F4B701A601552766277727A4
:1008F000440F551FFA01E95DFD4F80819181A0E011
:10090000B0E018C040E00E943F038111E8CFB9CFAA
:10091000B701A6014F77552766277727440F551F44
:10092000440F551FFA01E95DFD4F80819181A2813D
:10093000B381BF7088839983AA83BB8381E0DF91F1
:10094000CF911F910F91FF90EF90DF90CF90BF90CC
:10095000AF909F908F9008954F925F926F927F9289
:10096000AF92BF92CF92DF92EF92FF920F931F93BD
:10097000CF93DF9300D000D0CDB7DEB78C01498391
:100980005A836B837C835901C12CD12C7601412C75
:1009900082E0582E612C712C49815A816B817C81B7
:1009A0009E012F5F3F4FC8010E942804882351F108
:1009B000D301C201F801058404C0880F991FAA1F42
:1009C000BB1F0A94D2F7C80ED91EEA1EFB1E49812E
:1009D0005A816B817C818789803129F088EF9FEF74
:1009E000AFEFBFE004C088EF9FEFA0E0B0E0481792
:1009F00059076A077B0780F2F501C082D182E28243
:100A0000F38281E00F900F900F900F90DF91CF91C4
:100A10001F910F91FF90EF90DF90CF90BF90AF901C
:100A20007F906F905F904F9008958F929F92AF92BA
:100A3000BF92CF92DF92EF92FF920F931F93CF93CB
:100A4000DF93EC018D81811102C080E077C00B89BA
:100A50001C892D893E890417150726073707A8F337
:100A60006A017B01823029F4CA86DB86EC86FD862A
:100A70000DC0C114D104E104F10451F41E821F829F
:100A8000188619861A861B861C861D8681E056C02C
:100A90008A849B84AC84BD84EB8DFC8D258530E0FD
:100AA000275F3F4FB501A401415051096109710908
:100AB000022E04C076956795579547950A94D2F70C
:100AC000D701C6010197A109B10904C0B695A79540
:100AD000979587952A95D2F784179507A607B707A4
:100AE00020F089288A288B2849F44F89588D698DF0
:100AF0007A8D4E835F836887798704C0841B950B4A
:100B0000A60BB70B4C015D018E010A5F1F4F8114CC
:100B10009104A104B10409F4A7CF4E815F816885D7
:100B2000798598018B8D9C8D0E94280491E0891A0B
:100B30009108A108B1088111EACF87CFDF91CF9149
:100B40001F910F91FF90EF90DF90CF90BF90AF90EB
:100B50009F908F9008953F924F925F926F927F92F5
:100B60008F929F92AF92BF92CF92DF92EF92FF92BD
:100B70000F931F93CF93DF93CDB7DEB72C970FB6AC
:100B8000F894DEBF0FBECDBF5C01DC015B968D909B
:100B90009C905C971696CD90DD90ED90FC90199707
:100BA000C114D104E104F10439F0BFEFCB1ADB0A20
:100BB000EB0AFB0A312C07C0F401C080D180E2802F
:100BC000F38033243394F40181859285A385B48521
:100BD0009C01AD012F5F3F4F4F4F5F4F29873A87F1
:100BE0004B875C87260137011D821E821F82188673
:100BF000F40181859285A385B4852D813E814F8145
:100C00005885281739074A075B0708F063C08985AC
:100C10009A85AB85BC858C159D05AE05BF0550F446
:100C200082E0C82ED12CE12CF12C92E0492E512CDF
:100C3000612C712C9E012F5F3F4FB701A601C401AB
:100C40000E942804882309F445C089819A81AB81D8
:100C5000BC81892B8A2B8B2B41F0260137019FEF1A
:100C6000491A590A690A790A05C0C414D504E60468
:100C7000F70491F02D813E814F8158852F5F3F4FC2
:100C80004F4F5F4F2D833E834F8358873FEFC31AEB
:100C9000D30AE30AF30AACCF0FEF1FEF2FEF3FE0C9
:100CA000B301A201C4010E948803882399F0D501F1
:100CB00016964D915D916D917C9119974115510555
:100CC0006105710549F093018201C4010E94880306
:100CD000811102C080E02AC0D50116964D925D9226
:100CE0006D927C921997332051F0D301C201019685
:100CF000A11DB11DF40180839183A283B383F5010B
:100D00008789908DA18DB28D892B8A2B8B2B69F4CD
:100D1000D50157964D925D926D927C925A9714969A
:100D20008C911497806814968C9381E02C960FB662
:100D3000F894DEBF0FBECDBFDF91CF911F910F9111
:100D4000FF90EF90DF90CF90BF90AF909F908F90EB
:100D50007F906F905F904F903F9008950F931F93F7
:100D6000CF93DF93EC018D81882309F447C08C81F8
:100D700087FF3EC06E857F858889998941E00E9402
:100D80003F038823D9F18A8920E2829FC001112480
:100D9000FC01E95DFD4F309789F12D81223040F44F
:100DA0004B895C896D897E89448F558F668F778FDB
:100DB0004F89588D698D7A8D8C01095D1D4FF80121
:100DC000538F428F758B648BE091D401F091D501E4
:100DD000309759F0BC01635C7D4F815C9D4F099554
:100DE000F801808D918D938B828B8C818F778C8392
:100DF000DF91CF911F910F910C94040380E0DF915C
:100E0000CF911F910F9108958F929F92AF92BF92B1
:100E1000CF92DF92EF92FF920F931F93CF93DF93C6
:100E200000D000D0CDB7DEB77C0180E2689F6001C2
:100E300011249601295D3D4FD9011B969C9191711A
:100E400021F0842F827409F097C0142FF701628B70
:100E50008091020190910301A0910401B0910501DC
:100E600086879787A08BB18BF601E95DFD4F44899A
:100E7000558960E070E0BA0155274427D70157969D
:100E80004D935D936D937C935A97828D938DA0E0E3
:100E9000B0E0482B592B6A2B7B2BD70157964D93EB
:100EA0005D936D937C935A97D9011B968C918871B1
:100EB00059F4848D958DA68DB78DF701838B948B16
:100EC000A58BB68B81E012C0803109F055C0970127
:100ED0002D5E3F4FD7015B968D919C915C970E9450
:100EE000AC04882309F448C084E0F7018583812F8E
:100EF0008F70D70114968C931497F701168217827E
:100F0000108611861A961D921D921D921C921D9795
:100F100016FF34C015968C91813071F511FF2CC0ED
:100F2000F7014389548965897689452B462B472BE0
:100F300009F461C040E050E0BA01C7010E94150504
:100F40008823D1F0F7018788908CA18CB28CC38C58
:100F5000D48C82E090E0A0E0B0E0F6018083918341
:100F6000A283B3839E012F5F3F4FB501A401C60149
:100F70000E942804811104C080E03DC081E03BC094
:100F800000E010E09801B501A401C6010E948803A9
:100F9000882391F389809A80AB80BC80D6015796D4
:100FA0008C91803129F088EF9FEFAFEFBFE004C054
:100FB00088EF9FEFA0E0B0E088169906AA06BB066E
:100FC00088F2D70157961D921D921D921C925A9736
:100FD000F701138A148A158A168A848180688483AB
:100FE000C7010E94AE06882339F240E050E0BA0102
:100FF000C7010E9415050F900F900F900F90DF9181
:10100000CF911F910F91FF90EF90DF90CF90BF9005
:10101000AF909F908F900895CF93DF93EC010E9443
:10102000AE06882311F01D8281E0DF91CF910895F3
:101030004F925F926F927F929F92AF92BF92CF92A8
:10104000DF92EF92FF920F931F93CF93DF93CDB771
:10105000DEB72B970FB6F894DEBF0FBECDBF7C0175
:10106000DC011596AC90A11097C1FE0131966F017D
:1010700090E28BE08E0F91938E13FDCFDA0130E07A
:1010800087E09D91992339F19E3219F0E6E2F2E072
:101090000AC08A3009F481C138E08AE0F2CF319683
:1010A000491709F47AC144914111F9CF831708F423
:1010B00074C14FED490F4E3508F06FC141E0430F49
:1010C000F601E30FF11D3FE9390F3A3108F4905270
:1010D0009083342FD6CF8981803209F45EC1B22E3D
:1010E0008B01DB015B968D919C915C97F701948F4E
:1010F000838F16961D921D921D921C921997FB01CB
:101100001286138614861586712CF80182859385C4
:10111000A485B5854389548965897689841795079F
:10112000A607B70708F061C025E0B695A795979583
:1011300087952A95D1F7F82FFF709F2ED801159625
:101140008C91823008F429C1C8010E944D1897FD86
:1011500024C1F80182859385A485B5854F96A11D8C
:10116000B11D82879387A487B587F0E29F9EC00157
:101170001124BC01695D7D4F6115710509F40DC134
:10118000DB012C91222319F0253EC1F427C07110F8
:101190000EC0F701928A40910201509103016091C3
:1011A00004017091050146875787608B718BFC01A4
:1011B000E95DFD4F8081811113C015C04BE050E007
:1011C000C6010E948C2A892B09F09FCF8B2D80733A
:1011D000803309F4E2C04B2D692DD9C07720C9F2C4
:1011E0007724739492CF772473948B2D82718231FC
:1011F00009F0D3C07720D1F0D7011E966D917D9173
:101200008D919C91519741E00E943F03882309F4FE
:10121000C4C0F7010289F0E20F9F80011124095D2B
:101220001D4F0115110509F079C0B7C0D8011596F9
:101230008C91823009F4B1C0C8010E94AB058823AB
:1012400009F4ABC0D8015B96ED91FC915C971696C2
:101250004D905D906D907C901997B2E04B1A5108BB
:1012600061087108058404C0440C551C661C771C79
:101270000A94D2F786859785A089B189480E591EB0
:101280006A1E7B1E9480E1E04E1A510861087108C5
:10129000992009F10E940403882309F47EC0E7E243
:1012A000F2E0119224E0E732F207D9F7D301C2014C
:1012B000890D911DA11DB11D809302019093030121
:1012C000A0930401B0930501809122028160809374
:1012D00022029A94DDCFD8015B96ED91FC915C9748
:1012E00080E092E0A0E0B0E0058404C0880F991F80
:1012F000AA1FBB1F0A94D2F7F80143895489658954
:101300007689840F951FA61FB71F838B948BA58B9F
:10131000B68BD70152961C9207E212E080E2F801E8
:1013200011928A95E9F78BE0F601D80101900D92B0
:101330008A95E1F7E091D401F091D501309739F029
:10134000B801625F7F4FC801409609950DC081E2E8
:1013500098E2D80151969C938E93509780E098E044
:101360001F969C938E931E97F80180899189938B89
:10137000828B918F808F86859785978B868B0E9435
:101380000403882351F04B2DD70152966C91C7016D
:101390000E940407A82E01C0A12C8A2D2B960FB6FF
:1013A000F894DEBF0FBECDBFDF91CF911F910F919B
:1013B000FF90EF90DF90CF90BF90AF909F907F9085
:1013C0006F905F904F9008952F923F924F925F924F
:1013D0006F927F928F929F92AF92BF92CF92DF9245
:1013E000EF92FF920F931F93CF93DF9300D000D023
:1013F000CDB7DEB78C016B013A01DC0115968C91FB
:1014000015978130C9F414968C9181FF15C082FF25
:101410001DC0F80143895489658976898285938541
:10142000A485B58584179507A607B70779F0C80185
:101430000E94150581110AC081E090E0D801139641
:101440009C938E93129780E090E048C1430184C042
:10145000D8015B968D919C915C97FC0154802FEF95
:10146000250D1A012B0139E056944794379427949F
:101470003A95D1F7522E52207A01F1E0FF22552001
:1014800009F476C080E092E08E199F095401881516
:10149000990508F45C01D8015B962D913C915C970D
:1014A00016968D919D910D90BC91A02D0297A1094A
:1014B000B109F901058404C0880F991FAA1FBB1F39
:1014C0000A94D2F74685578560897189840F951FE4
:1014D000A61FB71F9C01AD01250D311D411D511DDA
:1014E00019012A01A11432E0B30609F088C08091E5
:1014F000020190910301A0910401B09105018215B0
:101500009305A405B50559F48FEF9FEFDC01809397
:10151000020190930301A0930401B0930501960189
:10152000B201A10180912704909128040E949902A0
:10153000882309F481CF9EEFD91A8A189B08F801F5
:1015400082859385A485B5858A0D9B1DA11DB11D3E
:1015500082879387A487B587D8011A964D915D91AC
:101560006D917C911D978114910409F071CF87C012
:10157000E114F10409F086CF16964D915D916D91BD
:101580007C911997411551056105710559F45796DC
:101590008D919D910D90BC91A02D0097A105B10555
:1015A00041F521C09E012F5F3F4F0E9428048823F0
:1015B00009F44ACF89819A81AB81BC81F801238DDE
:1015C000348DF9012789203129F048EF5FEF6FEF63
:1015D0007FE004C048EF5FEF60E070E0841795079C
:1015E000A607B70730F0C8010E94AB0581114ACFAA
:1015F00023CFF80186839783A087B18743CFE11477
:10160000F10429F5D8011A964D915D916D917C9167
:101610001D9753968D919D910D90BC91A02D4817CB
:1016200059076A077B0798F00E940403882309F48E
:1016300003CF2092020130920301409204015092A4
:1016400005018091220281608093220208C041E05E
:10165000C201B1010E943F03882309F4EDCED601F7
:10166000F701E95DFD4FCF018A0D9B1DE817F907D2
:1016700019F02D912193FACFCA0CDB1C5ECF539643
:10168000CD90DD90ED90FC90569714968C91C416F9
:10169000D506E606F70640F4F801438B548B658BBC
:1016A000768B806884830DC02091D4013091D50160
:1016B000232B39F06114710421F08068D80114964D
:1016C0008C93F801848183FD02C0C30107C0C80167
:1016D0000E94AE06882309F4AFCEF7CF0F900F908B
:1016E0000F900F90DF91CF911F910F91FF90EF908E
:1016F000DF90CF90BF90AF909F908F907F906F9032
:101700005F904F903F902F900895CF93DF931F925B
:10171000CDB7DEB7698341E050E0BE016F5F7F4F18
:101720000E94E4090F90DF91CF9108959091950464
:101730009111FCCF91E090939504909394042FEF36
:101740002093930410929204260F20939104909377
:10175000900490919004880F892B8093900480913D
:101760008F04813061F410928F04809190048093F3
:10177000BB008091BC0083FDF8CF85EC01C085EEF5
:101780008093BC00809195048130E1F380919204B4
:10179000861710F460919204AFE6B4E02FE434E0D1
:1017A000F9018E2F821B861718F48D918193F9CF42
:1017B000862F089591E090934E048093C105109276
:1017C0004D0410924C040895613208F060E20E94CA
:1017D000960B10924B0480934A04089520914C0478
:1017E0009091C105213208F04AC080919504811181
:1017F000FCCF32E03093950431E0309394043FEF16
:10180000309393041092920420939104AAE2B4E0DE
:101810004FE654E0FA013E2F341B321718F43D9185
:101820003193F9CF1092900420919004990F922B4C
:101830009093900490918F04913061F410928F04F2
:10184000909190049093BB009091BC0093FDF8CFD1
:1018500095EC01C095EE9093BC0090919504923068
:10186000E1F3909193049F3F79F08091930480324B
:1018700041F080919304803331F084E005C081E031
:1018800003C082E001C083E010924D0410924C042A
:1018900010924E04089590E0FC01E659FD4F24910A
:1018A000FC01EA5AFD4F8491882399F090E0880F5B
:1018B000991FFC01E45BFD4FA591B491FC01EE5B27
:1018C000FD4F859194918FB7F894EC91E22BEC93B6
:1018D0008FBF089540E0682F8AE895E00C94BC140F
:1018E000CF93DF93CDB7DEB728970FB6F894DEBF5E
:1018F0000FBECDBF98E0ECE0F1E0DE011196019063
:101900000D929A95E1F79091A205961710F46FEF5A
:10191000690FFE013196E60FF11DE60FF11D908172
:10192000890F806828960FB6F894DEBF0FBECDBF32
:10193000DF91CF910C946A0C81E00E946A0C8BE3DA
:101940009FE10197F1F708950F931F93CF93DF93D2
:10195000EC01462F50E060E070E02AE00E94581150
:101960008C0160EB71E0CE010E944311800F911F4A
:10197000DF91CF911F910F910895462F50E060E0C5
:1019800070E02AE00C945811CF93C82F88E60E948B
:10199000DA0B6C2F70E0685F7F4F8EE795E00E9456
:1019A0007F160E94EE0B61E088E60E94960B109273
:1019B0004B0480934A048EE795E00E943316CF9142
:1019C0000895CF93DF93D82FC1E082FB442740F9DD
:1019D0004C2768E085EA95E00E940413D1FB442778
:1019E00040F94C2767E085EA95E00E9404134D2FEB
:1019F00041704C2766E085EA95E0DF91CF910C9429
:101A000004132F923F924F925F926F927F928F9228
:101A10009F92AF92BF92CF92DF92EF92FF920F937D
:101A20001F93CF93DF93CDB7DEB7C756D1090FB65B
:101A3000F894DEBF0FBECDBF5C014B01A6964FAF41
:101A4000A6973E018EE1680E711C6FE575E0C3013B
:101A50000E94C7171C821B8288E291E09A838983C7
:101A60001E827401FE0131966F0123011F016FE296
:101A700070E0C7010E94A22A0097F1F1F7012081CE
:101A80002F3221F4FFEFEF1AFF0AF1CF8E198D30BC
:101A900008F08CE0082F10E0A801B701CE01885AA9
:101AA0009F4F0E94B42AE8E5F0E0EC0FFD1FE00F25
:101AB000F11F1082C6010E940C0821E0AE01485AB5
:101AC0005F4FB201C6010E94180881110AC01EAE04
:101AD0001DAE88E291E09CAF8BAF21961FAE21979F
:101AE00017C0E00EF11EC2010E940C08942D852D36
:101AF0002601C92ED82EBBCFC70188199909A896EF
:101B00009FAF8EAFA897B201CE01CB960E94C717A8
:101B1000A896EEADFFADA8978E0E9F1EF4018081B2
:101B2000811109C0BE01655C7F4FC1010E94C717CA
:101B300045EC51E04BC019A218A288E291E09F8FBA
:101B40008E8F1BA221968FAD2197811113C0F501B5
:101B50001382128288EE93E0A0E0B0E08483958344
:101B6000A683B78388E491E091838083128E118EDF
:101B7000148630C08250A6962FADA697A40182305D
:101B800040F46FE575E0C3010E94180881110DC093
:101B9000DECFBE01655C7F4FC3010E941808882319
:101BA000B1F2CE01CB960E940C08A6968FADA697F7
:101BB000867039F049A95AA96BA97CA9C3010E9472
:101BC0001505B301C1010E94C717A401B101C501E8
:101BD0000E941818C501C959DF4F0FB6F894DEBF2F
:101BE0000FBECDBFDF91CF911F910F91FF90EF906E
:101BF000DF90CF90BF90AF909F908F907F906F902D
:101C00005F904F903F902F9008950F931F93CF9325
:101C1000DF93EC010E94A912688779878A879B87E6
:101C2000CE010E94571997FF17C00E94A91208857C
:101C300019852A853B85DC01CB01801B910BA20B0A
:101C4000B30B0C811D812E813F8180179107A20764
:101C5000B30730F38FEF9FEFDF91CF911F910F917B
:101C600008958F929F92AF92BF92CF92DF92EF92A0
:101C7000FF92CF93DF93C82F85E395E090932804DC
:101C800080932704CC2369F1C53010F080E00DC1AA
:101C900040E060E070E0CB010E943F038823B1F395
:101CA00020E1C29FC0011124895E9D4FFC01E254D6
:101CB000FE4F20812F7751F73C9640815181628100
:101CC0007381443651056105710500F33497C08076
:101CD000D180E280F380C114D104E104F10421F445
:101CE000D5CFC12CD12C760140E0C701B6010E94AE
:101CF0003F03882359F2809132029091330281157B
:101D0000924021F6A0913702AA2309F4BFCF609137
:101D10003502709136026115710509F4B7CF209133
:101D20003402222309F4B2CFA09353052093450532
:101D300080E030E0E1E0F0E0C82FAF01082E02C003
:101D4000440F551F0A94E2F72417350741F0982FE6
:101D50008F5F983089F789E080934E0597CF809305
:101D60004E0520913D0230913E022115310519F0BA
:101D700040E050E008C020914B0230914C0240916D
:101D80004D0250914E0220934605309347054093F3
:101D900048055093490546015701860E971EA11C20
:101DA000B11C8092540590925505A0925605B092B0
:101DB0005705E0913802F0913902F0935A05E0930B
:101DC0005905B0E00E94C32A860E971EA81EB91EB0
:101DD00080925B0590925C05A0925D05B0925E05D5
:101DE00085E0EE0FFF1F8A95E1F7E150FE4FEF2FE0
:101DF000FF27E6958E0E9F1EA11CB11C80924F05F9
:101E000090925005A0925105B092520520913A024D
:101E100030913B022115310521F0A90160E070E00D
:101E200008C0409147025091480260914902709168
:101E30004A02D701C60188199909AA09BB09840F6A
:101E4000951FA61FB71F04C0B695A79597958795B0
:101E5000CA95D2F780934A0590934B05A0934C0501
:101E6000B0934D05853F2FE09207A105B10510F411
:101E70008CE018C0853F9F4FA105B10510F480E1AB
:101E800011C08091530290915402A0915502B091DB
:101E9000560280935B0590935C05A0935D05B0931B
:101EA0005E0580E28093580581E0DF91CF91FF903D
:101EB000EF90DF90CF90BF90AF909F908F9008955C
:101EC00010924B0410924A0410924D0410924C044C
:101ED0001092950481E08093940410928F0461E045
:101EE00082E10E94231261E083E10E942312E9EB68
:101EF000F0E080818E7F808380818D7F808388E485
:101F00008093B80085E48093BC000895CF93DF935D
:101F1000C82FD62F88E60E94DA0B8C2F90E0BC01E8
:101F2000685F7F4F8EE795E00E947F166D2F8EE7EA
:101F300095E00E947F16DF91CF910C94EE0BCF922B
:101F4000DF92EF92FF92CF93DF936C01990FEE082F
:101F5000FF08F7FE1BC06DE28AE895E00E941811A9
:101F6000EC0144275527BA014C195D096E097F0918
:101F70002AE08AE895E00E9458118C0F9D1FDF919E
:101F8000CF91FF90EF90DF90CF9008952AE0B701B6
:101F9000A6018AE895E0DF91CF91FF90EF90DF9066
:101FA000CF900C945811CF92DF92EF92FF920F9343
:101FB0001F93CF93DF936C017A018B01C0E0D0E0D7
:101FC000CE15DF0589F0D8016D918D01D601ED9117
:101FD000FC910190F081E02DC6010995892B11F447
:101FE0007E0102C02196ECCFC701DF91CF911F91F6
:101FF0000F91FF90EF90DF90CF900895FC01918DAD
:10200000828D981761F0828DDF01A80FB11D5D965A
:102010008C91928D9F5F9F73928F90E008958FEFC8
:102020009FEF0895FC01918D828D981731F0828D7C
:10203000E80FF11D858D90E008958FEF9FEF0895D3
:10204000FC01918D228D892F90E0805C9F4F821B37
:1020500091098F739927089586E994E00E942010D2
:1020600021E0892B09F420E0822F0895FC01848D62
:10207000DF01A80FB11DA35ABF4F2C91848D90E0B2
:1020800001968F739927848FA689B7892C93A0898D
:10209000B1898C9180648C93938D848D981306C044
:1020A0000288F389E02D80818F7D80830895EF92EF
:1020B000FF920F931F93CF93DF93EC0181E0888F02
:1020C0009B8D8C8D981305C0E889F989808185FDE9
:1020D00024C0F62E0B8D10E00F5F1F4F0F731127DA
:1020E000E02E8C8DE8120CC00FB607FCFACFE88901
:1020F000F989808185FFF5CFCE010E943610F1CF9E
:102100008B8DFE01E80FF11DE35AFF4FF0820B8F1C
:10211000EA89FB898081806207C0EE89FF8960833C
:10212000E889F98980818064808381E090E0DF9193
:10213000CF911F910F91FF90EF900895CF93DF9370
:10214000EC01888D8823C9F0EA89FB89808185FDAF
:1021500005C0A889B9898C9186FD0FC00FB607FC10
:10216000F5CF808185FFF2CFA889B9898C9185FF51
:10217000EDCFCE010E943610E7CFDF91CF910895C9
:1021800080E090E0892B29F00E942C1081110C94A2
:10219000000008953FB7F8948091C7059091C80555
:1021A000A091C905B091CA0526B5A89B05C02F3FCF
:1021B00019F00196A11DB11D3FBFBA2FA92F982F6D
:1021C0008827820F911DA11DB11DBC01CD0142E0E8
:1021D000660F771F881F991F4A95D1F708950E94AF
:1021E000872A0F931F93CF93DF93EC018881998106
:1021F000009729F02A813B812617370788F48B0145
:102200006F5F7F4F0E94BD29009761F0998388839B
:102210001B830A832C813D81232B11F4FC01108246
:1022200081E001C080E0DF91CF911F910F9108956F
:10223000DC01ED91FC910190F081E02D0994EF9289
:10224000FF920F931F93CF93DF938C017B01C0E02C
:10225000D0E0F701EC0FFD1F6491662361F0D80117
:10226000ED91FC910190F081E02DC8010995892B39
:1022700011F02196EECFCE01DF91CF911F910F91FA
:10228000FF90EF9008956115710579F0FB010190C1
:102290000020E9F73197AF01461B570BDC01ED91A8
:1022A000FC910280F381E02D099480E090E0089594
:1022B0004F925F926F927F92EF92FF920F931F93D4
:1022C000CF93DF93CDB7DEB7A1970FB6F894DEBFFB
:1022D0000FBECDBF7C01FA01CB0119A2223008F458
:1022E0002AE08E010F5D1F4F422E512C612C712C64
:1022F000BF01A30192010E946828F901CA0101509F
:1023000011096A3014F4605D01C0695CD8016C93F6
:10231000232B242B252B61F7B801C7010E94431101
:10232000A1960FB6F894DEBF0FBECDBFDF91CF915F
:102330001F910F91FF90EF907F906F905F904F9063
:1023400008950F931F93CF93DF93EC010E944311E5
:102350008C0160EB71E0CE010E944311800F911F50
:10236000DF91CF911F910F9108950F931F93CF93FA
:10237000DF93EC010E941F118C0160EB71E0CE0134
:102380000E944311800F911FDF91CF911F910F91F8
:1023900008950C9443111F920F920FB60F921124BF
:1023A0002F933F934F935F936F937F938F939F935D
:1023B000AF93BF93EF93FF9386E994E00E943610AA
:1023C000FF91EF91BF91AF919F918F917F916F910D
:1023D0005F914F913F912F910F900FBE0F901F90E3
:1023E00018951F920F920FB60F9211242F938F936F
:1023F0009F93EF93FF93E091A604F091A70480814F
:10240000E091AC04F091AD0482FD12C09081809106
:10241000AF048F5F8F732091B004821751F0E09169
:10242000AF04F0E0EA56FB4F958F8093AF0401C0F4
:102430008081FF91EF919F918F912F910F900FBE0F
:102440000F901F90189590E0FC01E258FD4F3491D9
:10245000FC01E659FD4F2491FC01EA5AFD4FE4913D
:10246000EE2309F43BC0332339F1333091F038F4D3
:102470003130A9F0323001F584B58F7D12C037308C
:1024800091F03830A1F03430B9F4809180008F7D24
:1024900003C0809180008F77809380000DC084B549
:1024A0008F7784BD09C08091B0008F7703C0809181
:1024B000B0008F7D8093B000F0E0EE0FFF1FEE5B69
:1024C000FD4FA591B4918FB7F894EC91611103C0C1
:1024D00020952E2301C02E2B2C938FBF08958F9211
:1024E0009F92AF92BF92CF92DF92EF92FF926B01D9
:1024F0007C010E94CA104B015C01C114D104E104AB
:10250000F104F1F00E94CA10DC01CB01881999098D
:10251000AA09BB09883E9340A105B10570F321E0EB
:10252000C21AD108E108F10888EE880E83E0981EEF
:10253000A11CB11CC114D104E104F10419F7DDCFD1
:10254000FF90EF90DF90CF90BF90AF909F908F90D3
:1025500008952FB7F8946091C3057091C4058091D8
:10256000C5059091C6052FBF08951F920F920FB613
:102570000F9211242F933F938F939F93AF93BF9309
:102580008091C3059091C405A091C505B091C60581
:102590003091C20523E0230F2D3720F40196A11DB1
:1025A000B11D05C026E8230F0296A11DB11D209381
:1025B000C2058093C3059093C405A093C505B0934D
:1025C000C6058091C7059091C805A091C905B09135
:1025D000CA050196A11DB11D8093C7059093C8053A
:1025E000A093C905B093CA05BF91AF919F918F91F8
:1025F0003F912F910F900FBE0F901F901895682F4D
:102600008EE795E00C947F16EF92FF920F931F9345
:10261000CF93DF9300D0CDB7DEB77C01162F6830A3
:1026200020F0185095E103E102C094E102E1F701C6
:10263000808180624A8399830E94DA0B9981892F75
:102640000E94FF120E94EE0BF7019081892F806299
:1026500061E070E090E00E94E40B8EE795E00E945C
:1026600033164A8121E030E001C0220F1A95EAF7C3
:10267000413019F4122F182B03C02095122F182364
:10268000F701808180620E94DA0B802F0E94FF1286
:10269000812F0E94FF120F900F90DF91CF911F9119
:1026A0000F91FF90EF900C94EE0BFC01962F828D12
:1026B0008F3F31F0603140F4CF014B960C940413FE
:1026C000642F892F0C9423120895CF93DF93EC018C
:1026D00040E06E810E94551341E06E81CE010E9460
:1026E000551340E06E81CE010E9455138BE891E0B6
:1026F0000197F1F7DF91CF910895EF92FF920F9339
:102700001F93CF93DF931F92CDB7DEB77C01162FB7
:10271000683018F0185001E001C000E0F701808136
:10272000806249830E94DA0B802F0E94FF120E9470
:10273000EE0BF7018081806261E070E090E00E9422
:10274000E40B8EE795E00E943316498121E030E0EA
:1027500001C0220F1A95EAF7411103C0122F182B5E
:1027600003C02095122F1823F701808180620E94F8
:10277000DA0B802F0E94FF12812F0E94FF120F9010
:10278000DF91CF911F910F91FF90EF900C94EE0B82
:10279000603110F40C947D130895CF93DF9300D033
:1027A000CDB7DEB7FC018081806269837A830E94A5
:1027B000DA0B82E10E94FF126981862F0E94FF12CC
:1027C0007A81872F0E94FF120F900F90DF91CF9197
:1027D0000C94EE0B8F929F92AF92BF92CF92DF92AA
:1027E000EF92FF920F931F93CF93DF93EC018A8DAB
:1027F0008E01095F1F4FC62ED12C8F3F09F483C075
:102800007E018BE1E80EF11C8B8D80620E94DA0B59
:1028100082E10E94FF120E94EE0B8B8D806262E0CB
:1028200070E090E00E94E40B8EE795E00E94331682
:10283000B82E8EE795E00E943316982F88279C01CA
:102840002B29F801A0E0B0E061E070E0B19001E078
:1028500010E0CB010B2C02C0880F991F0A94E2F7FD
:102860008095909528233923A6010A2E02C05595FC
:1028700047950A94E2F74170552702C0440F551F4F
:10288000BA94E2F7242B352B1196A430B105F1F65A
:1028900068010E8002C0CC0CDD1C0A94E2F7C094E3
:1028A000D094C222D322B601C7010E94CD13B80131
:1028B0000E8002C0660F771F0A94E2F7C62AD72A55
:1028C000B601C7010E94CD130E8002C0000F111F78
:1028D0000A94E2F700951095B60160237123C701B1
:1028E0000E94CD138BE891E00197F1F7DF91CF9132
:1028F0001F910F91FF90EF90DF90CF90BF90AF901E
:102900009F908F900895E12CF12C4E01EBE18E0EFB
:10291000911C5801F80180819A8D9F3F31F041E070
:10292000682FC4010E94C81302C00E944B0C0F5FA5
:102930001F4FA6010E2C02C0559547950A94E2F749
:102940004170F5016081CE010E945513FFEFEF1A2F
:10295000FF0A84E0E816F104E1F6CE01DF91CF91A1
:102960001F910F91FF90EF90DF90CF90BF90AF90AD
:102970009F908F900C9465138F929F92AF92BF920D
:10298000CF92DF92EF92FF920F931F93CF93DF933B
:10299000EC01F62E6C810E9455136D816F3F21F082
:1029A00040E0CE010E9455138C890F2D10E084FF6A
:1029B0003EC06E0187E0C80ED11CE12CF12C4E0107
:1029C000EBE18E0E911C5601F60180819A8D9F3F9E
:1029D00031F041E0682FC4010E94C81302C00E9478
:1029E0004B0CFFEFCF1ADF0AA8010E2C02C0559541
:1029F00047950A94E2F74170F5016081CE010E948B
:102A00005513FFEFEF1AFF0A88E0E816F104D9F634
:102A1000CE01DF91CF911F910F91FF90EF90DF904A
:102A2000CF90BF90AF909F908F900C946513B8019A
:102A300084E0759567958A95E1F7CE010E94EA13C7
:102A40006F2DCE01DF91CF911F910F91FF90EF90ED
:102A5000DF90CF90BF90AF909F908F900C94EA132F
:102A600041E00E94BC1481E090E00895CF92DF9293
:102A7000EF92FF920F931F93CF93DF93EC0188E6C1
:102A80000E94DA0B60E08EE795E00E947F160E94BC
:102A9000EE0B67E070E088E690E00E94E40B8EE7C2
:102AA00095E00E9433168F77982F92959F701AEFBA
:102AB000082F919F000D11248EE795E00E94331698
:102AC0009C01332794E0359527959A95E1F7F82EE8
:102AD000129FF00C11248EE795E00E9433169C01A2
:102AE000332744E0359527954A95E1F7E82E129F64
:102AF000E00C11248EE795E00E9433168EE795E0F6
:102B00000E9433169C01332754E0359527955A953A
:102B1000E1F7D82E129FD00C11248EE795E00E9489
:102B200033169C01332764E0359527956A95E1F7C4
:102B3000C82E129FC00C11248EE795E00E94331618
:102B40009C01332774E0359527957A95E1F7129F1C
:102B5000800D11248883C982DA82EB82FC820D8386
:102B6000CE01DF91CF911F910F91FF90EF90DF90F9
:102B7000CF900895DC015996ED91FC915A973097CA
:102B8000B9F083899489A589B6894285538564857E
:102B90007585841B950BA60BB70B811520E8920752
:102BA000A105B10538F08FEF9FE7A0E0B0E00895F0
:102BB00080E090E00895CF93DF931F92CDB7DEB70A
:102BC0006983DC01ED91FC910280F381E02D41E00D
:102BD00050E0BE016F5F7F4F09950F90DF91CF915D
:102BE000089585ED8093BC008091BC0084FDFCCFEE
:102BF0001092950408954091ED05262F30E0240FA2
:102C0000311D21323105DCF4209195042430C9F4C2
:102C1000FC0180E090E0861758F43091ED05219199
:102C2000DC01A553BA4FA30FB11D2C930196F3CF2E
:102C30008091ED05680F6093ED0580E0089581E0D7
:102C4000089582E008950895E0914B0480914A042C
:102C5000E81730F4F0E0E15BFB4F808190E00895ED
:102C60008FEF9FEF089590914B0480914A0498173D
:102C700050F4E92FF0E0E15BFB4F208130E09F5FF3
:102C800090934B0402C02FEF3FEFC901089580914C
:102C90004A0490E020914B04821B91090895CF9241
:102CA000DF92EF92FF920F931F93CF93DF937C01FC
:102CB000262F972F8A0180914E04882391F0C62FEA
:102CC000D72F6E01C40ED51ECC15DD0571F06991AC
:102CD000D701ED91FC910190F081E02DC70109959C
:102CE000F3CF642F822F0E94FB15C801DF91CF9193
:102CF0001F910F91FF90EF90DF90CF900895CF93A9
:102D0000DF931F92CDB7DEB7698320914E04222353
:102D1000D1F020914C04203240F021E030E0FC0161
:102D20003383228380E090E015C080914D04E82F2A
:102D3000F0E0E65DFB4F998190838F5F80934D04B7
:102D400080934C0405C061E0CE0101960E94FB1502
:102D500081E090E00F90DF91CF910895FC01818D8B
:102D6000928D009711F00C94AE060895CF93DF93E7
:102D7000EC01898D9A8D009739F481E090E09B8376
:102D80008A8380E090E00BC0FC01138212820E94D3
:102D9000E409E98DFA8D22813381232B71F7DF91CC
:102DA000CF910895EF92FF920F931F93CF93DF93EC
:102DB00000D000D000D0CDB7DEB78C017B01CE01B2
:102DC00001960E9436152A8180E2289F90011124E5
:102DD0008B81A901482B8981282F30E02C5E3F4F41
:102DE000322F2227330F242B352BF80131832083F8
:102DF0008D81F0E28F9F900111249C81892F90E0BA
:102E0000982F8827990F990F990F822B932B2E813A
:102E100030E035952795822B932BF70191838083A2
:102E200026960FB6F894DEBF0FBECDBFDF91CF91CF
:102E30001F910F91FF90EF90089561E0FC01848154
:102E40000E94231280911206811110921206089599
:102E50008EBD00000DB407FEFDCF8EB508958FEF37
:102E60000C942817CF93DF93EC018E81882389F08F
:102E70008F8198859C012F5F3F4F38872F83823049
:102E8000924018F40E942F17F3CFCE010E941D1715
:102E90001E82DF91CF9108958CBD9DBD0895CF9383
:102EA000DF93EC0180911206811109C081E08093CB
:102EB000120680913305909134050E944C1760E012
:102EC0008C81DF91CF910C942312CF92DF92FF92ED
:102ED0000F931F93CF93DF9300D000D0CDB7DEB711
:102EE0006C01F62E29833A834B835C830E94321750
:102EF000C6010E944F176CE271E0C6010E947E027B
:102F00008F2D80640E94281708E110E05C814B81BE
:102F10003A812981DA01C901002E04C0B695A7952E
:102F2000979587950A94D2F729833A834B835C83DC
:102F30000E9428170850110929813A814B815C8130
:102F4000083F8FEF180731F7FF2029F0E8E0FE1265
:102F500004C087E803C085E901C08FEF0E942817ED
:102F600010E00E942F17F601828787FF04C01F3FE1
:102F700011F01F5FF6CF0F900F900F900F90DF9121
:102F8000CF911F910F91FF90DF90CF900895FC019A
:102F9000DB0112968D919C9113979383828388E233
:102FA00091E09183808314968C9114978483159675
:102FB0008C911597858316964D915D916D917C91BD
:102FC000199746835783608771871A964D915D9153
:102FD0006D917C911D9742875387648775871E96F4
:102FE0004D915D916D917C91519746875787608B8C
:102FF000718B52968C915297828B53964D915D9125
:103000006D917C915697438B548B658B768B57963D
:103010004D915D916D917C915A97478B508F618F47
:10302000728F5B968D919C915C97948F838F08959E
:10303000EF92FF920F931F93CF93DF93EC017B01ED
:103040008A011B821A8288EE93E0A0E0B0E08C83B4
:103050009D83AE83BF8388E491E0998388838DE16B
:1030600090E00E9490289A8F898F009779F02DE147
:10307000F701DC0101900D922A95E1F74CE050E058
:10308000B801CE010C960E94B42A188EDF91CF9120
:103090001F910F91FF90EF9008952F923F924F92C2
:1030A0005F926F927F928F929F92AF92BF92CF92D8
:1030B000DF92EF92FF920F931F93CF93DF9300D095
:1030C000CDB7DEB7FC018581882309F4D9C084819E
:1030D00080FFD6C021E02A83438954896589768997
:1030E00082859385A485B585481759076A077B07AC
:1030F00009F41A826F013A81832F90E0DE01119664
:103100004D013F01B6E06B0E711C892B09F47DC0A7
:10311000D6011A964D915D916D917C911D975A0142
:10312000B1E0BB22F60125811A012B0189E05694FA
:103130004794379427948A95D1F7838D948D2230C4
:1031400061F4FC01828D938DA48DB58DBC01CD0100
:10315000620D731D841D951D45C0DC0114961C91E4
:1031600011501221A114B104D1F4111118C0452B32
:10317000462B472B51F4F6018789908DA18DB28D96
:1031800086839783A087B1870AC04681578160856F
:10319000718593010E942804882309F471C0F60107
:1031A000238D348D86819781A085B1850297A109F1
:1031B000B109AC01BD01F901058404C0440F551FDC
:1031C000661F771F0A94D2F786859785A089B189F3
:1031D000840F951FA61FB71FBC01CD01610F711D84
:1031E000811D911DD60114962C9126FF14C00091CB
:1031F0000201109103012091040130910501601733
:1032000071078207930751F506C0FA81FF23C1F1C8
:10321000898190E037C040E00E943F03882381F11C
:10322000F501E95DFD4FD401CF010196E817F907DB
:1032300019F021912D93FACFEFEF8E1A9E0AF60125
:1032400082859385A485B5850196A11DB11D8287D0
:103250009387A487B58780E090E057CF740101E0A1
:1032600010E09501AB01BC018091270490912804E6
:103270000E94E401882321F0BFEF8B1A9B0ADFCF65
:103280008FEF9FEF0F900F90DF91CF911F910F91D4
:10329000FF90EF90DF90CF90BF90AF909F908F9076
:1032A0007F906F905F904F903F902F900895FC011A
:1032B000818D928D009711F00C944D188FEF9FEF38
:1032C00008950F931F93CF93DF93FC01818D928D0F
:1032D0000097B9F0EF010E944D188C010F3F8FEF5E
:1032E000180791F0898D9A8DFC014285538564857C
:1032F000758541505109610971090E941505C80180
:1033000005C080E090E002C08FEF9FEFDF91CF918A
:103310001F910F9108951F920F920FB60F921124D3
:103320002F933F934F935F936F937F938F939F93CD
:10333000AF93BF93EF93FF938091B900887F80365E
:1033400009F49CC068F5883209F45BC090F48031C0
:1033500009F454C038F4882309F4F6C0883009F41D
:103360004DC0F6C0883109F44CC0803209F45DC00C
:10337000EFC0803409F468C048F4803309F455C0C4
:10338000883309F0E5C080939304D8C0803509F4F0
:103390004FC0883509F45DC0883409F0D9C0D6C063
:1033A000883909F4C7C0A8F4883709F467C038F42D
:1033B000883609F463C0803709F460C0C9C0883812
:1033C00009F4B8C0803909F45FC0803809F0C0C082
:1033D0005BC0803B09F486C038F4803A09F466C0CB
:1033E000883A09F47FC0B4C0803C09F4A7C0883C87
:1033F00009F4A4C0883B09F48AC0AAC08091900453
:1034000010C09091920480919104981770F5E0910A
:10341000920481E08E0F80939204F0E0E159FB4F1B
:1034200080818093BB0085EC86C0809393048EC01E
:10343000E091920481E08E0F809392048091BB0012
:10344000F0E0E159FB4F80839091920480919104C8
:103450006EC0E091920481E08E0F8093920480917F
:10346000BB00F0E0E159FB4F80838091940481110F
:103470006DC081E080938F0484EA61C083E0809313
:10348000950410921106CFCF80911106803208F07A
:1034900051C0E091110681E08E0F8093110680915A
:1034A000BB00F0E0EF50FA4F8083BDCF85EC8093F6
:1034B000BC001092950480911106803230F4E091A6
:1034C0001106F0E0EF50FA4F10826091110670E0A3
:1034D000E091EF05F091F00581EF95E009951092EC
:1034E000110636C084E0809395041092EE05109288
:1034F000ED05E091EB05F091EC0509958091ED0566
:10350000811105C081E08093ED051092CB05E0911B
:10351000EE0581E08E0F8093EE05F0E0E553FA4F63
:1035200080818093BB009091EE058091ED05981706
:1035300008F479CF85E88093BC000AC085EC8093BD
:10354000BC001092950404C0109293040E94F115DF
:10355000FF91EF91BF91AF919F918F917F916F916B
:103560005F914F913F912F910F900FBE0F901F9041
:103570001895CF93DF9300D000D000D0CDB7DEB741
:1035800060E080E00E94700C61EB72E08AE895E0F8
:103590000E941F11CE0101960E9436158A818A3041
:1035A00030F46EEA71E08AE895E00E94C9116A8100
:1035B0008AE895E00E94BD0C6FE28AE895E00E94DF
:1035C00018118B818A3030F46EEA71E08AE895E058
:1035D0000E94C9116B818AE895E00E94BD0C6FE2E0
:1035E0008AE895E00E941811498150E04053584FF5
:1035F000052E000C660B770B2AE08AE895E00E9406
:10360000581126960FB6F894DEBF0FBECDBFDF91DE
:10361000CF910895CF93DF9300D000D000D0CDB7E5
:10362000DEB7CE0101960E9436158C818A3030F4C7
:103630006EEA71E086E994E00E94C9116C8186E926
:1036400094E00E94BD0C63EB71E086E994E00E9477
:10365000C9118D818A3030F46EEA71E086E994E018
:103660000E94C9116D8186E994E00E94BD0C63EB54
:1036700071E086E994E00E94C9118E818A3030F4AD
:103680006EEA71E086E994E00E94C9116E8186E9D4
:1036900094E00E94A40C26960FB6F894DEBF0FBEED
:1036A000CDBFDF91CF9108950E949C0C60E082E035
:1036B0000E94700C60910001615089E0689FB00128
:1036C00011246A527E4F8AE895E00E94C91161E098
:1036D00086E00E94700C68EA72E08AE895E00E9439
:1036E0001F116CED75E080E090E00C946F12CF93A9
:1036F000DF93CDB7DEB7CF58D1090FB6F894DEBF50
:103700000FBECDBF789484B5826084BD84B58160DE
:1037100084BD85B5826085BD85B5816085BD80919C
:103720006E00816080936E00109281008091810014
:10373000826080938100809181008160809381000C
:10374000809180008160809380008091B1008460CE
:103750008093B1008091B00081608093B00080912F
:103760007A00846080937A0080917A0082608093EE
:103770007A0080917A00816080937A0080917A004B
:10378000806880937A001092C100E091A604F091C5
:10379000A70482E08083E091A204F091A304108248
:1037A000E091A404F091A5048FEC80831092AE0404
:1037B000E091AA04F091AB0486E08083E091A80434
:1037C000F091A904808180618083E091A804F09148
:1037D000A904808188608083E091A804F091A90405
:1037E000808180688083E091A804F091A9048081A1
:1037F0008F7D80830E94600F0E94600F8091A405DE
:103800008F3F39F580919E05886080939E0582E008
:103810008093A2051092A3058BE39DE00197F1F739
:1038200040E060918E058AE895E00E94551340E0E3
:10383000609190058AE895E00E94551360918F058C
:103840006F3F09F4B2C040E08AE895E00E9455134A
:10385000ACC00E94600F1092A5050E94600F80917D
:10386000A50580620E94DA0B80E00E94FF128FEFB4
:103870000E94FF120E94EE0B8091A50580620E94BB
:10388000DA0B81E00E94FF128FEF0E94FF120E946C
:10389000EE0B41E068E085EA95E00E947D1341E08F
:1038A00066E085EA95E00E947D1341E067E085EAE5
:1038B00095E00E947D1387E00E94E10C60918F05E6
:1038C000662329F041E085EA95E00E94C81341E0B3
:1038D00060918E0585EA95E00E94C81341E06091F1
:1038E000900585EA95E00E94C81301E915E024E0FF
:1038F000F22EF00EF80161918F0141E085EA95E02A
:103900000E94C813F012F6CF09E915E095E0E92E00
:10391000E00E40E0F801608185EA95E00E94C8135E
:10392000F80121918F012031E8F5283020F028504E
:103930008DE0F82E02C0BCE0FB2E8091A5058062D0
:10394000C157DF4F2883CF58D0400E94DA0B8F2D0C
:103950000E94FF120E94EE0B8091A505806261E03B
:1039600070E090E00E94E40B8EE795E00E94331631
:10397000D82E8091A50580620E94DA0B8F2D0E94BF
:10398000FF1241E050E0C157DF4F2881CF58D040AF
:10399000CA0101C0880F2A95EAF78D290E94FF12FB
:1039A0000E94EE0BE012B5CF2DCF80919E0584FDD5
:1039B00021C063E08AE895E00E94EA130BE416E474
:1039C000C8010197F1F763E08AE895E00E94EA13E5
:1039D000C8010197F1F763E08AE895E00E94EA13D5
:1039E00083E592E00197F1F762E08AE895E00E94B2
:1039F000EA1315C080620E946A0C8BE496E401977A
:103A0000F1F780919E0580620E946A0C83E592E046
:103A10000197F1F780919E0580620E946A0C809167
:103A20009E0580620E946A0C84E080939F058CE072
:103A30000E946A0C0E949C0C82E08093A00586E0A4
:103A40000E946A0C0E949C0C809101010E94E10C72
:103A500060E082E00E94700C6EE571E08AE895E01B
:103A60000E941F1161E087E00E94700C66E571E022
:103A70008AE895E00E941F116FE371E086E994E007
:103A80000E94B51168E271E086E994E00E94B511E8
:103A900061E171E086E994E00E94B51188E60E9438
:103AA000DA0B60E08EE795E00E947F160E94EE0B35
:103AB00061E070E088E690E00E94E40B8EE795E01C
:103AC0000E94331687FF03C08CE691E08DC168EF3A
:103AD00070E086E994E00E941F118AE00E944B0C7E
:103AE0001092400510923E0510923B0510923A0547
:103AF0008AE0809339050E94A9128B0180913905D3
:103B00000E944B0C61E0809139050E942312FFB6A0
:103B1000F89480911502811124C0E0E6F2E08491CE
:103B2000E4E7F2E09491E82FF0E0EE0FFF1FE45B92
:103B3000FD4FA591B491EC91E92321F461E08AE075
:103B40000E9423128AE00E944B0C8CB580618CBDD0
:103B50008CB580648CBD8DE00E944B0C8BE00E9484
:103B60004B0C809115028F5F80931502FFBE82E59A
:103B7000809333051092340580913305909134057C
:103B80000E944C17FAE0FF2E8FEF0E942817FA943C
:103B9000F110FACF85E395E00E944F1720E030E066
:103BA000A90160E085E395E00E946517F82E8093F7
:103BB0003F0521E0821749F00E94A912601B710B9A
:103BC000613D774058F381E056C02AEA31E040E099
:103BD00050E068E085E395E00E94651782FF03C02E
:103BE000F092400510C0E4E0FE2E0E942F17809353
:103BF0003F05FA94F110F9CF8A3A11F082E03BC008
:103C000082E08093400580914005823021F0C12CF4
:103C1000D12C760105C0C12CD12CE12C70E4F72EFB
:103C200020E030E0A90167E385E395E00E94651795
:103C3000A701960169E285E395E00E9465178093EC
:103C40003F05882349F00E94A912601B710B613D5A
:103C5000774030F388E00FC080914005823001F555
:103C600020E030E0A9016AE385E395E00E94651752
:103C7000882341F086E080933A0585E395E00E9431
:103C80001D17B0C00E942F17807C803C19F483E080
:103C9000809340050E942F170E942F170E942F1714
:103CA00085E395E00E941D1780E58093330510920F
:103CB000340581E00E94310E882329F0809164054B
:103CC000882341F08FC080E00E94310E882309F4E0
:103CD00089C0F4CF80915805803109F582E0809346
:103CE000640510927605109277051092780510926F
:103CF00079058091590590915A05A0E0B0E065E002
:103D0000880F991FAA1FBB1F6A95D1F78093720570
:103D100090937305A0937405B09375051FC080320E
:103D200009F060C083E08093640540915B05509189
:103D30005C0560915D0570915E054093760550933A
:103D40007705609378057093790522E735E081E483
:103D500095E00E94AC04882309F444C081E495E016
:103D600090937B0580937A0581E0809363051092A0
:103D7000650510926605109267051092680510920D
:103D8000690510926A0510926B0510926C051092ED
:103D90006D0510926E0510926F05109270051092CD
:103DA00071056CED75E080E090E00E946F1262EFAB
:103DB00070E086E994E00E94B51141E068E771E0A7
:103DC000CE01885A9F4F0E94010D64ED70E086E994
:103DD00094E00E941F11E396EEADFFADE39730979C
:103DE00029F495C085E891E00E942A2885818823DE
:103DF00009F48DC046EDE42E41E0F42E56E0D52EB8
:103E0000CE01885A9F4F0E94BA15892B09F466C0CB
:103E10001A8219821C821B821E821D8260E070E061
:103E2000CE0101960E94F11029813A8181110DC0C5
:103E30002115310519F0C9010E9425291A8219821C
:103E40001E821D821C821B8225C01E821D8262EB87
:103E500071E0C9010E94AD2A1DC08A30910509F1A7
:103E60008E8F1F8E0D811E810F5F1F4FB801CE01F7
:103E700001960E94F110882369F029813A818D8191
:103E80009E81BE01625E7F4F820F931F0E94AD2A0A
:103E90001E830D83CE01885A9F4F0E94050E97FF07
:103EA000DCCFE114F104B1F00D811E810115110583
:103EB00011F4F7010EC00830110510F008E010E011
:103EC00069817A81A801C7010E94B42AF701E00F35
:103ED000F11F108289819A810E942529DA94F9E0E4
:103EE000EF0EF11CD1108CCFE3968EAD9FADE39712
:103EF000009701F10E940C08E3968EAD9FADE39709
:103F00000E942529E3961FAE1EAEE39713C036ED3F
:103F1000E32E31E0F32E11E365E971E0C7010E9461
:103F2000AD2AF7011783F9E0EF0EF11C1F5F17337D
:103F300099F7DACF6CED75E080E090E00E946F12A7
:103F40006EEC70E086E994E00E94B51146ED51E018
:103F500026E030E280E090E0FA01E80FF91F60818E
:103F60006D3009F43083019688309105A9F721500E
:103F7000475F5F4F2111EECF82ED96E19093D5011F
:103F80008093D4018DE0E7ECF1E0DE01A058BF4F53
:103F900001900D928A95E1F7BB24B3949AE0892EA3
:103FA00028E2E22E21E0F22E6E012BE3C20ED11C9C
:103FB0008B2D682D0E944828805DCA57DF4F88836B
:103FC000C658D040905DC957DF4F9883C758D0403E
:103FD0001EAE1DAEFCAEEBAE21961FAE219719A210
:103FE00018A2FF8EEE8E1BA2712C612CAC2C9D2C86
:103FF0000FE515E0272D362DE0E8F0E0EC0FFD1F72
:10400000E20FF31F80818F3211F42F5F3F4FFE01CB
:10401000ED58FF4F40E050E0A0E8B0E0AC0FBD1F0E
:10402000A20FB31F8C918F3251F0882341F04F5F64
:104030005F4F2F5F3F4F81934C30510569F7E3E7A6
:10404000F0E0EC0FFD1FE40FF51F1082E0E8F0E058
:10405000EC0FFD1FE20FF31F80818F3211F42F5FF1
:104060003F4F722E632EE0E8F0E0EC0FFD1FE20FF1
:10407000F31F50801C821B82FA82E9821E8221E09B
:10408000AE014D585F4FB801CE0101960E9418084D
:10409000882339F0CE0101960E940C08511009C006
:1040A00023C035E00F35130741F1C8010E940C0809
:1040B00024C021E0AE014D585F4FB8018A2D992DE3
:1040C0000E941808582E45E00F35140709F437C729
:1040D000C8010E940C08552081F0902F812F0A2DD5
:1040E000192DA92E982E86CF55E00F35150709F406
:1040F00059C0C8010E940C0855C06FEB70E086E9FA
:1041000094E00E941F11BE0160587F4F86E994E041
:104110000E94C9116AEB70E086E994E00E941F11C9
:1041200043E1BE0160587F4FCE0101960E94010D10
:104130008B819C819093A9058093A8058D819E8198
:10414000AF81B8858093AA059093AB05A093AC0589
:10415000B093AD0589859A85AB85BC858093AE0506
:104160009093AF05A093B005B093B1058DE0FE012B
:104170003D96A2EBB5E001900D928A95E1F78A8D0C
:104180009B8D9093C0058093BF056CED75E080E03A
:1041900090E00E946F1264EB70E086E994E00E9468
:1041A000B51104C0B39484E6B81202CFE091BF0504
:1041B000F091C005309719F08581811103C08DE918
:1041C00091E012CE63EA70E086E994E00E94B511B6
:1041D0006CE970E086E994E00E941F11CE0101961F
:1041E0000E9436158A818A3030F46EEA71E086E9E1
:1041F00094E00E94C9116A8186E994E00E94BD0C96
:104200006FE286E994E00E9418118B818A3030F4C5
:104210006EEA71E086E994E00E94C9116B8186E93B
:1042200094E00E94BD0C6FE286E994E00E941811B0
:10423000498150E04053584F052E000C660B770B18
:104240002AE086E994E00E94581160EB71E086E96B
:1042500094E00E9443116BE870E086E994E00E94CC
:10426000B51161E770E086EA95E00E941F1182E0D7
:104270000E94C40C8F3F31F087E00E94C40C8F3F36
:1042800009F0E5C568E670E086EA95E00E94B511A0
:104290006CED75E080E090E00E946F120E949C0C33
:1042A00080E00E94C40C182F8093010181E00E94DD
:1042B000C40C809300011F3F41F48F3F31F487E02D
:1042C0008093010181E080930001809101010E94AF
:1042D000E10C89E00E94C40C80931A02823010F035
:1042E00010921A0284E6282E312CE12CF12C1FE1C9
:1042F0000E2DF701E657FA4F27852031C0F52830FB
:1043000018F0285093E101C092E18091A5058062E8
:10431000C157DF4F2883CF58D040C257DF4F988313
:10432000CE58D0400E94DA0BC257DF4F9881CE584A
:10433000D040892F0E94FF120E94EE0B8091A505AC
:10434000806261E070E090E00E94E40B8EE795E00F
:104350000E9433169927C157DF4F2881CF58D0408C
:1043600002C0959587952A95E2F7817001C080E09B
:1043700090E002C0880F991F0A95E2F7809590950A
:1043800018239FEFE91AF90AE5E0EE16F10409F0A7
:10439000AFCF80912002811154C013FF28C000913B
:1043A0000101073078F0F7E0F093010181E080939C
:1043B000000167E080E00E94860F61E081E00E94DA
:1043C000860F15C00F5F00930101F0900001FA9471
:1043D000F0920001602F80E00E94860F6F2D81E037
:1043E0000E94860F802F0E94E10C0E94541B12FF36
:1043F00028C000910101033078F422E020930101EC
:1044000036E03093000162E080E00E94860F66E0B3
:1044100081E00E94860F15C0015000930101F090C9
:104420000001F394F0920001602F80E00E94860F5B
:104430006F2D81E00E94860F802F0E94E10C0E9468
:10444000541B10FFF0C1F0900001FA94C357DF4FE6
:10445000F882CD58D040CE0101960E9436158A814F
:104460008A3030F46EEA71E086EA95E00E94C91164
:104470006A8186EA95E00E94BD0C6FE286EA95E0CB
:104480000E9418118B818A3030F46EEA71E086EA5E
:1044900095E00E94C9116B8186EA95E00E94BD0CEF
:1044A0006FE286EA95E00E941811498150E040537E
:1044B000584F052E000C660B770B2AE086EA95E034
:1044C0000E94581165EB71E086EA95E00E94C911DF
:1044D0008C818A3030F46EEA71E086EA95E00E94C1
:1044E000C9116C8186EA95E00E94BD0C6AE386EAF8
:1044F00095E00E9418118D818A3030F46EEA71E0E7
:1045000086EA95E00E94C9116D8186EA95E00E94D5
:10451000BD0C6AE386EA95E00E9418118E818A300C
:1045200030F46EEA71E086EA95E00E94C9116E816E
:1045300086EA95E00E94A40C0E949C0C60E081E059
:104540000E94700C67E172E08AE895E00E941F11FA
:1045500061E082E00E94700C6AE072E08AE895E017
:104560000E941F119091200281E0891B80932002FC
:10457000813009F04CC080911F02811148C0CE01EA
:1045800001960E94870160931B0270931C02809326
:104590001D0290931E02C357DF4F5881CD58D04063
:1045A00049E0549FB00111246A527E4F86E994E09D
:1045B0000E94A11161E072E086E994E00E94B511C9
:1045C00061EF71E086E994E00E941F110E940A1BCE
:1045D0006CED75E080E090E00E946F1281E00E9437
:1045E000E10C0E949C0C60E083E00E94700C6BEE7A
:1045F00071E08AE895E00E941F1161E085E00E9469
:10460000700C62EE71E08AE895E00E941F118091C3
:1046100020028111FEC080911F02813009F0F9C093
:10462000CE0101960E948701C0901B02D0901C020F
:10463000E0901D02F0901E029B01AC012C193D0977
:104640004E095F0969017A01CA01B9012CE330E022
:1046500040E050E00E9468284B015C01CA01B901AA
:104660002CE330E040E050E00E9468282B013C0140
:10467000C701B60120E13EE040E050E00E9468281A
:10468000022FE22EC357DF4F4881CD58D04039E08A
:10469000439FB00111246A527E4F86EA95E00E9442
:1046A000C91165EB71E086EA95E00E94C91159E0F5
:1046B000501730F06EEA71E086EA95E00E94C91169
:1046C000602F86EA95E00E94BD0C63EB71E086EAFC
:1046D00095E00E94C9118AE04816510461047104F2
:1046E00030F46EEA71E086EA95E00E94C911642D0B
:1046F00086EA95E00E94BD0C63EB71E086EA95E0E6
:104700000E94C9119AE089169104A104B10430F401
:104710006EEA71E086EA95E00E94C911682D86EA8A
:1047200095E00E94A40C62ED71E086E994E00E949D
:104730001F110E940A1B6CED75E080E090E00E9462
:104740006F12809101010E94E10C0E949C0C60E0BC
:1047500083E00E94700C6CEC71E08AE895E00E94A6
:104760001F1161E085E00E94700C63EC71E08AE843
:1047700095E00E941F1161EC71E086E994E00E94CF
:10478000B51161EB71E086E994E00E941F11E9E048
:10479000EE1530F06EEA71E086E994E00E94C911EE
:1047A000602F86E994E00E94BD0C63EB71E086E91E
:1047B00094E00E94C911FAE04F165104610471049B
:1047C00030F46EEA71E086E994E00E94C911642D2C
:1047D00086E994E00E94BD0C63EB71E086E994E009
:1047E0000E94C9112AE082169104A104B10430F498
:1047F0006EEA71E086E994E00E94C911682D86E9AD
:1048000094E00E94A40C67EB71E086E994E00E94BA
:10481000A1118091200280931F026CED75E080E071
:1048200090E00E946F1214FD0E94541B80912002A0
:10483000813009F09DC011FF9BC00E949C0C09E1D2
:1048400060E080E00E94700C68EA71E08AE895E020
:104850000E941F11CE0101960E943615CE010196CD
:104860000E948701C0901B02D0901C02E0901D02A4
:10487000F0901E029B01AC012C193D094E095F0905
:1048800069017A01CA01B9012CE330E040E050E04F
:104890000E9468284B015C01CA01B9012CE330E099
:1048A00040E050E00E9468282B013C01C701B6019E
:1048B00020E13EE040E050E00E9468282A3080F489
:1048C0006EEA71E08AE895E0C157DF4F2883CF5840
:1048D000D0400E94C911C157DF4F2881CF58D04026
:1048E000622F8AE895E00E94BD0C63EB71E08AE8D4
:1048F00095E00E94C9113AE0431651046104710425
:1049000030F46EEA71E08AE895E00E94C911642DE6
:104910008AE895E00E94BD0C63EB71E08AE895E0BF
:104920000E94C9114AE084169104A104B10430F434
:104930006EEA71E08AE895E00E94C911682D8AE864
:1049400095E00E94BD0C61E081E00E94700C68E976
:1049500071E08AE895E00E941F1165E070E080E058
:1049600090E00E946F12015009F06ACF0E949C0CE7
:1049700080912002813009F03EC1CE0101960E9453
:104980003615CE0101960E94870180901B029090FF
:104990001C02A0901D02B0901E02DC01CB01881900
:1049A0009909AA09BB0980349E47A540B10508F4BE
:1049B00022C1CE0101960E9487016B017C01C818BB
:1049C000D908EA08FB08C701B6012CE330E040E053
:1049D00050E00E9468284B015C01CA01B9012CE338
:1049E00030E040E050E00E9468282B013C01C70104
:1049F000B60120E13EE040E050E00E946828022F2E
:104A0000D22E8A818A3030F46EEA71E086EA95E02F
:104A10000E94C9116A8186EA95E00E94BD0C6FE28E
:104A200086EA95E00E9418118B818A3030F46EEA94
:104A300071E086EA95E00E94C9116B8186EA95E0F3
:104A40000E94BD0C6FE286EA95E00E941811498130
:104A500050E04053584F052E000C660B770B2AE0B0
:104A600086EA95E00E94581165EB71E086EA95E0D0
:104A70000E94C9118C818A3030F46EEA71E086EAB6
:104A800095E00E94C9116C8186EA95E00E94BD0CF8
:104A90006AE386EA95E00E9418118D818A3030F42D
:104AA0006EEA71E086EA95E00E94C9116D8186EA9E
:104AB00095E00E94BD0C6AE386EA95E00E94181119
:104AC0008E818A3030F46EEA71E086EA95E00E94C9
:104AD000C9116E8186EA95E00E94BD0C65EB71E01C
:104AE00086EA95E00E94C911E0900001EA94E9E0AD
:104AF000EE9EC00111249C012A523E4F7901B9015A
:104B000086EA95E00E94A11162E971E086EA95E0EB
:104B10000E941F1165EB71E086EA95E00E94C911C1
:104B200069E871E086EA95E00E941F1165EB71E08B
:104B300086EA95E00E94C91139E03D1530F06EEA31
:104B400071E086EA95E00E94C911602F86EA95E03F
:104B50000E94BD0C63EB71E086EA95E00E94C911EA
:104B60004AE0441651046104710430F46EEA71E0C5
:104B700086EA95E00E94C911642D86EA95E00E94BC
:104B8000BD0C63EB71E086EA95E00E94C9115AE022
:104B900085169104A104B10430F46EEA71E086EA4E
:104BA00095E00E94C911682D86EA95E00E94A40C48
:104BB000809101010E94E10C0E949C0C60E082E067
:104BC0000E94700C6CE771E08AE895E00E941F116A
:104BD00061E084E00E94700CB7018AE895E00E94D1
:104BE000C9116CED75E080E090E00E946F121092A8
:104BF000200210921F028091200281110EC011FF2D
:104C00000CC090911A0281E0891B80931A0264E61D
:104C100070E080E090E00E946F1280911A02813073
:104C200009F04DC00E94B91A61E080E00E94700C4A
:104C300066E771E08AE895E00E941F11CE010196B7
:104C40000E9436158C818A3030F46EEA71E08AE871
:104C500095E00E94C9116C818AE895E00E94BD0C24
:104C600063EB71E08AE895E00E94C9118D818A307A
:104C700030F46EEA71E08AE895E00E94C9116D8116
:104C80008AE895E00E94BD0C63EB71E08AE895E04C
:104C90000E94C9118E818A3030F46EEA71E08AE890
:104CA00095E00E94C9116E818AE895E00E94BD0CD2
:104CB00061EC71E08AE895E00E94C91165C00E942C
:104CC000B91A61E080E00E94700C60E771E08AE848
:104CD00095E00E941F11CE0101960E9436156C814D
:104CE0006D3060F0663130F46EEA71E08AE895E08C
:104CF0000E94C9118C8190E00C9704C0611105C01D
:104D00008CE090E00E949F0F0DC06A3038F46EEA8C
:104D100071E08AE895E00E94C9116C818AE895E00B
:104D20000E94BD0C6AE38AE895E00E9418118D810B
:104D30008A3030F46EEA71E08AE895E00E94C91189
:104D40006D818AE895E00E94BD0C6AE38AE895E0EF
:104D50000E9418118E818A3030F46EEA71E08AE880
:104D600095E00E94C9116E818AE895E00E94BD0C11
:104D70008C818C3018F06CE671E002C068E671E05E
:104D80008AE895E00E941F110E94A9120091160264
:104D9000109117022091180230911902DC01CB0109
:104DA000801B910BA20BB30B88389341A105B10571
:104DB00008F44AC00E94A912609316027093170269
:104DC000809318029093190286EA95E00E94AE162D
:104DD000CE0101960E9436156A8182E00E94860FFC
:104DE0006B8183E00E94860F498150E04053584F09
:104DF000CA01B1010E94542884E0C257DF4F4883A2
:104E0000CE58D040C157DF4F5883CF58D0400E9472
:104E1000860FC257DF4F4881CE58D04060E3640F01
:104E200085E00E94860F6C8186E00E94860F6D816E
:104E300087E00E94860F6E8188E00E94860F609155
:104E40001A0289E00E94860F0E94C0104ECA82E0BA
:104E50000E94C40C682F86EA95E00E94BD0C65ECA8
:104E600071E086EA95E00E94C91183E00E94C40CBB
:104E7000682F86EA95E00E94BD0C65EC71E086EA39
:104E800095E00E94C91184E00E94C40C682F86EA54
:104E900095E00E94BD0C85E00E94C40C682F86EA54
:104EA00095E00E94BD0C6DE670E086EA95E00E94F8
:104EB0001F1186E00E94C40C8A3030F46EEA71E063
:104EC00086EA95E00E94C91186E00E94C40C682F12
:104ED00086EA95E00E94BD0C63EB71E086EA95E0FE
:104EE0000E94C91187E00E94C40C8A3030F46EEA37
:104EF00071E086EA95E00E94C91187E00E94C40C27
:104F0000682F86EA95E00E94BD0C63EB71E086EAAB
:104F100095E00E94C91188E00E94C40C8A3030F4E8
:104F20006EEA71E086EA95E00E94C91188E00E946D
:104F3000C40C682F86EA95E00E94A40CA9C98823B6
:104F400009F4DBC88E01025E1F4FC7C8E6E9F4E032
:104F50001382128288EE93E0A0E0B0E08483958310
:104F6000A683B78328E131E03183208325EC30E04C
:104F70003587248724EC30E03787268720EC30E023
:104F8000318B208B21EC30E0338B228B22EC30E014
:104F9000358B248B26EC30E0378B268B118E128ECE
:104FA000138E148EE3E3F5E020E520831182E5E320
:104FB000F5E0158216821186138642E050E060E02B
:104FC00070E0448755876687778713A215A614A6D5
:104FD00028E231E033A722A717A6EEE7F5E0138217
:104FE000128284839583A683B78320E331E03183E3
:104FF0002083E6EAF5E01382128284839583A683F8
:10500000B78388E491E091838083128E118E148699
:10501000EAE8F5E01382128280E491E091838083D4
:10502000128E148A8FE084838EE085838DE08683E0
:105030008CE087838BE080878AE0818789E08287A4
:10504000178681E0808B82E0818B83E0828B84E015
:10505000838B0895EC010E949C0C6AE972E08AE857
:1050600095E00E941F1161E080E00E94700CBE017B
:105070008AE895E00E94C91162E972E086E994E04D
:105080000E941F11BE0186E994E00E94A111FFCF8A
:10509000991B79E004C0991F961708F0961B881F8A
:1050A0007A95C9F780950895AA1BBB1B51E107C0EB
:1050B000AA1FBB1FA617B70710F0A61BB70B881FA8
:1050C000991F5A95A9F780959095BC01CD01089537
:1050D000A1E21A2EAA1BBB1BFD010DC0AA1FBB1FFC
:1050E000EE1FFF1FA217B307E407F50720F0A21B6E
:1050F000B30BE40BF50B661F771F881F991F1A94DB
:1051000069F760957095809590959B01AC01BD0104
:10511000CF010895EE0FFF1F0590F491E02D099443
:10512000CF93DF938230910510F482E090E0E0911C
:105130001506F091160620E030E0C0E0D0E0309790
:1051400011F14081518148175907C0F0481759079C
:1051500061F482819381209719F09B838A832BC00D
:10516000909316068093150626C02115310519F077
:105170004217530718F49A01BE01DF01EF010280C4
:10518000F381E02DDCCF2115310509F1281B390B06
:105190002430310590F412968D919C9113976115EE
:1051A000710521F0FB019383828304C0909316065E
:1051B00080931506FD01329644C0FD01E20FF31FF6
:1051C00081939193225031092D933C933AC02091C1
:1051D000130630911406232B41F4209108013091DD
:1051E0000901309314062093130620910601309193
:1051F00007012115310541F42DB73EB740910A0151
:1052000050910B01241B350BE0911306F09114060D
:10521000E217F307A0F42E1B3F0B2817390778F08D
:10522000AC014E5F5F4F2417350748F04E0F5F1FEC
:1052300050931406409313068193919302C0E0E0CB
:10524000F0E0CF01DF91CF9108950F931F93CF939B
:10525000DF93009709F48CC0FC013297138212820D
:1052600000911506109116060115110581F4208193
:105270003181820F931F2091130630911406281755
:10528000390779F5F0931406E093130671C0D8013D
:1052900040E050E0AE17BF0750F412962D913C91BC
:1052A0001397AD012115310509F1D901F3CF9D0106
:1052B000DA013383228360817181860F971F821701
:1052C000930769F4EC0128813981260F371F2E5F7F
:1052D0003F4F318320838A819B8193838283452B37
:1052E00029F4F0931606E093150642C01396FC933A
:1052F000EE931297ED01499159919E01240F351FAC
:10530000E217F30771F480819181840F951F029653
:1053100011969C938E938281938113969C938E9386
:105320001297E0E0F0E0D80112968D919C911397CE
:10533000009719F0F8018C01F6CF8D919C9198019E
:105340002E5F3F4F820F931F20911306309114065A
:105350002817390769F4309729F41092160610922D
:10536000150602C0138212821093140600931306CE
:10537000DF91CF911F910F910895A0E0B0E0E3EC91
:10538000F9E20C94D22AEC01009721F4CB010E949F
:105390009028B8C0FC01E60FF71F9C01225031098C
:1053A000E217F30708F4ACC0D9010D911C911197D5
:1053B00006171707B0F00530110508F49FC0C801A3
:1053C00004978617970708F499C002501109061B25
:1053D000170B019311936D937C93CF010E942529A4
:1053E0008DC05B01A01AB10A4C01800E911EA091E4
:1053F0001506B091160640E050E0E12CF12C109714
:1054000009F44AC0A815B905D1F56D907C901197A3
:10541000630182E0C80ED11CCA14DB0480F1A30131
:105420004A195B096A0182E0C80ED11C1296BC9031
:1054300012971396AC91B5E0CB16D10440F0B2822E
:10544000A38351834083D9016D937C930AC00E5F7F
:105450001F4FC301800F911FF90191838083EB2DB2
:10546000FA2FE114F10431F0D7011396FC93EE9377
:10547000129744C0F0931606E09315063FC08D9135
:105480009C9111974817590708F4AC017D011296B9
:105490000D90BC91A02DB3CF80911306909114066E
:1054A00088159905E1F446175707C8F4809106015D
:1054B00090910701009741F48DB79EB740910A0182
:1054C00050910B01841B950BE817F907C8F4F09372
:1054D0001406E0931306F901718360830FC0CB01BA
:1054E0000E9490287C01009759F0A801BE010E94FB
:1054F000992ACE010E942529C70104C0CE0102C00D
:1055000080E090E0CDB7DEB7EEE00C94EE2A81E0CB
:1055100090E0F8940C94142BFB01DC0104C08D91F5
:105520000190801921F441505040C8F7881B990B15
:105530000895FB01DC0102C001900D9241505040E2
:10554000D8F70895FC018191861721F08823D9F7B7
:10555000992708953197CF010895FB01DC0101904F
:105560000D920020E1F70895FB01DC01415050400D
:1055700048F001900D920020C9F701C01D924150E2
:105580005040E0F708950E94052BA59F900DB49F11
:10559000900DA49F800D911D112408952F923F928C
:1055A0004F925F926F927F928F929F92AF92BF9233
:1055B000CF92DF92EF92FF920F931F93CF93DF93DF
:1055C000CDB7DEB7CA1BDB0B0FB6F894DEBF0FBE3C
:1055D000CDBF09942A88398848885F846E847D8489
:1055E0008C849B84AA84B984C884DF80EE80FD808B
:1055F0000C811B81AA81B981CE0FD11D0FB6F89401
:10560000DEBF0FBECDBFED010895A29FB001B39FD5
:10561000C001A39F700D811D1124911DB29F700DBB
:0C562000811D1124911D0895F894FFCF06
:10562C000107FFFFFFFF000017068000000040008D
:10563C0014005400000000005710D30F2010FE0F70
:10564C0012109E1000000000850BD30F000000000C
:10565C007F164F164716331624162316000000002B
:10566C003015D30F00000000DB15B616BA1557190C
:10567C006119AE1600000000EF10D30FEF10EF1001
:10568C00EF10EF1000000000EF10D30F5254432026
:10569C004E6F74205365740070726F6A6563747317
:1056AC002E747874004361726420526561642045E5
:1056BC0072726F720050726F6A6563740046696C27
:1056CC0065205772697465204572726F72003000E4
:1056DC000D0A003A002C002D2D2D2D2D2D2D2D2BAE
:1056EC0000204852002F005245434F524430302E78
:0456FC0043535600BE
:107E0000112484B714BE81FFF0D085E080938100F7
:107E100082E08093C00088E18093C10086E0809377
:107E2000C20080E18093C4008EE0C9D0259A86E02C
:107E300020E33CEF91E0309385002093840096BBD3
:107E4000B09BFECF1D9AA8958150A9F7CC24DD24C4
:107E500088248394B5E0AB2EA1E19A2EF3E0BF2EE7
:107E6000A2D0813461F49FD0082FAFD0023811F036
:107E7000013811F484E001C083E08DD089C08234E0
:107E800011F484E103C0853419F485E0A6D080C0E4
:107E9000853579F488D0E82EFF2485D0082F10E0AE
:107EA000102F00270E291F29000F111F8ED06801E7
:107EB0006FC0863521F484E090D080E0DECF843638
:107EC00009F040C070D06FD0082F6DD080E0C81688
:107ED00080E7D80618F4F601B7BEE895C0E0D1E017
:107EE00062D089930C17E1F7F0E0CF16F0E7DF06D8
:107EF00018F0F601B7BEE89568D007B600FCFDCFD4
:107F0000A601A0E0B1E02C9130E011968C91119780
:107F100090E0982F8827822B932B1296FA010C0160
:107F200087BEE89511244E5F5F4FF1E0A038BF0790
:107F300051F7F601A7BEE89507B600FCFDCF97BE46
:107F4000E89526C08437B1F42ED02DD0F82E2BD052
:107F50003CD0F601EF2C8F010F5F1F4F84911BD097
:107F6000EA94F801C1F70894C11CD11CFA94CF0C13
:107F7000D11C0EC0853739F428D08EE10CD085E9AC
:107F80000AD08FE07ACF813511F488E018D01DD067
:107F900080E101D065CF982F8091C00085FFFCCF94
:107FA0009093C60008958091C00087FFFCCF809118
:107FB000C00084FD01C0A8958091C6000895E0E648
:107FC000F0E098E1908380830895EDDF803219F02E
:107FD00088E0F5DFFFCF84E1DECF1F93182FE3DFCA
:107FE0001150E9F7F2DF1F91089580E0E8DFEE27F6
:047FF000FF270994CA
:027FFE00040479
:0400000300007E007B
:00000001FF
