:100000000C9435010C945D010C945D010C945D0120
:100010000C945D010C945D010C945D010C945D01E8
:100020000C945D010C945D010C945D010C945D01D8
:100030000C945D010C945D010C945D010C945D01C8
:100040000C9441040C945D010C947D030C945703B3
:100050000C945D010C945D010C945D010C945D01A8
:100060000C9474190C945D014E6F6E650020402055
:10007000004C6173742068656172746265617420FC
:1000800064657465637465643A2000446F6E652E20
:10009000002E2E2E20004372656174696E67206603
:1000A000696C6520004E6F7420666F756E64210068
:1000B000446F6E652E0052656164696E67207072D0
:1000C0006F6A656374732E7478742066696C652E2C
:1000D0002E2E2000446F6E652E0053442063617203
:1000E0006420696E697469616C697A696E672E2E25
:1000F0002E200074696D65436C6F636B2076322E21
:10010000312E312D72656C656173650076322E314A
:100110002E310074696D65436C6F636B0020414D37
:100120000020504D0054696D65200054696D6520B4
:100130000054696D6572204D6178656421006868BE
:100140003A6D6D3A73730054696D65720054696D50
:100150006572202068683A6D6D3A737300456C6172
:10016000707365642000456C617073656420546928
:100170006D65723A200053746F707065642100548D
:10018000696D65720054696D65722053746F70708B
:1001900065643A2000537461727465642100546987
:1001A0006D65720054696D65722053746172746577
:1001B000643A20006D6564696120646576696365F1
:1001C0000044617461206C6F6767656420746F0020
:1001D0001F1C1F1E1F1E1F1F1E1F1E1F00000008AA
:1001E00000020100000304070000000000000000FE
:1001F0007C3C3E5E2B3D3F2F5B5D3B2C2A225C000E
:1002000000000000250028002B0000000000240052
:1002100027002A0004040404040404040202020265
:1002200002020303030303030102040810204080B9
:100230000102040810200102040810204572726FA8
:10024000723A200053797374656D204572726F7233
:10025000210053656C656374656400446174653A9C
:1002600020004461746520003F2811241FBECFEF99
:10027000D8E0DEBFCDBF11E0A0E0B1E0EEE5F7E5EC
:1002800002C005900D92AC3CB107D9F726E0ACEC6A
:10029000B1E001C01D92A531B207E1F711E0C5E35D
:1002A000D1E004C02197FE010E942329C433D10765
:1002B000C9F70E94EB1B0C94AD2B0C940000CF925D
:1002C000DF92EF92FF920F931F93CF93DF936C0116
:1002D0007A018B01C0E0D0E0CE15DF0589F0D801AE
:1002E0006D918D01D601ED91FC910190F081E02D91
:1002F000C6010995892B11F47E0102C02196ECCF2D
:10030000C701DF91CF911F910F91FF90EF90DF9088
:10031000CF900895FC01918D828D981761F0828DA8
:10032000DF01A80FB11D5D968C91928D9F5F9F7329
:10033000928F90E008958FEF9FEF0895FC01918DCB
:10034000828D981731F0828DE80FF11D858D90E038
:1003500008958FEF9FEF0895FC01918D228D892FD5
:1003600090E0805C9F4F821B91098F7399270895BD
:100370008EE994E00E94AC0121E0892B09F420E091
:10038000822F0895FC01848DDF01A80FB11DA35AAF
:10039000BF4F2C91848D90E001968F739927848FA5
:1003A000A689B7892C93A089B1898C9180648C939C
:1003B000938D848D981306C00288F389E02D808187
:1003C0008F7D80830895EF92FF920F931F93CF93B9
:1003D000DF93EC0181E0888F9B8D8C8D981305C095
:1003E000E889F989808185FD24C0F62E0B8D10E007
:1003F0000F5F1F4F0F731127E02E8C8DE8120CC07A
:100400000FB607FCFACFE889F989808185FFF5CF1F
:10041000CE010E94C201F1CF8B8DFE01E80FF11DCC
:10042000E35AFF4FF0820B8FEA89FB89808180625B
:1004300007C0EE89FF896083E889F989808180643B
:10044000808381E090E0DF91CF911F910F91FF9029
:10045000EF900895CF93DF93EC01888D8823C9F046
:10046000EA89FB89808185FD05C0A889B9898C91BD
:1004700086FD0FC00FB607FCF5CF808185FFF2CF58
:10048000A889B9898C9185FFEDCFCE010E94C20168
:10049000E7CFDF91CF91089580E090E0892B29F09C
:1004A0000E94B80181110C94000008953FB7F894A0
:1004B0008091290290912A02A0912B02B0912C02E6
:1004C00026B5A89B05C02F3F19F00196A11DB11DAF
:1004D0003FBFBA2FA92F982F8827820F911DA11DEA
:1004E000B11DBC01CD0142E0660F771F881F991F27
:1004F0004A95D1F708950E94202B0F931F93CF9315
:10050000DF93EC0188819981009729F02A813B8152
:100510002617370788F48B016F5F7F4F0E94562A9A
:10052000009761F0998388831B830A832C813D8126
:10053000232B11F4FC01108281E001C080E0DF91E7
:10054000CF911F910F910895DC01ED91FC910190E5
:10055000F081E02D0994EF92FF920F931F93CF93B8
:10056000DF938C017B01C0E0D0E0F701EC0FFD1FB1
:100570006491662361F0D801ED91FC910190F081C6
:10058000E02DC8010995892B11F02196EECFCE01FF
:10059000DF91CF911F910F91FF90EF90089561151A
:1005A000710579F0FB0101900020E9F73197AF0167
:1005B000461B570BDC01ED91FC910280F381E02D8D
:1005C000099480E090E008954F925F926F927F923D
:1005D000EF92FF920F931F93CF93DF93CDB7DEB7C8
:1005E000A1970FB6F894DEBF0FBECDBF7C01FA0114
:1005F000CB0119A2223008F42AE08E010F5D1F4FB3
:10060000422E512C612C712CBF01A30192010E943A
:100610000129F901CA01015011096A3014F4605D21
:1006200001C0695CD8016C93232B242B252B61F727
:10063000B801C7010E94CF02A1960FB6F894DEBFA1
:100640000FBECDBFDF91CF911F910F91FF90EF9023
:100650007F906F905F904F9008950F931F93CF936B
:10066000DF93EC010E94CF028C0167EC71E0CE01B8
:100670000E94CF02800F911FDF91CF911F910F91A8
:1006800008950F931F93CF93DF93EC010E94AB0269
:100690008C0167EC71E0CE010E94CF02800F911FA8
:1006A000DF91CF911F910F9108950C94CF021F926B
:1006B0000F920FB60F9211242F933F934F935F9396
:1006C0006F937F938F939F93AF93BF93EF93FF931A
:1006D0008EE994E00E94C201FF91EF91BF91AF912A
:1006E0009F918F917F916F915F914F913F912F914A
:1006F0000F900FBE0F901F9018951F920F920FB67C
:100700000F9211242F938F939F93EF93FF93E09178
:10071000AE04F091AF048081E091B404F091B5048F
:1007200082FD12C090818091B7048F5F8F732091FA
:10073000B804821751F0E091B704F0E0E256FB4FA5
:10074000958F8093B70401C08081FF91EF919F91B5
:100750008F912F910F900FBE0F901F90189590E0E2
:10076000FC01E452FE4F3491FC01E85DFD4F249101
:10077000FC01EC5EFD4FE491EE2309F43BC0332312
:1007800039F1333091F038F43130A9F0323001F5DD
:1007900084B58F7D12C0373091F03830A1F03430FD
:1007A000B9F4809180008F7D03C0809180008F77A5
:1007B000809380000DC084B58F7784BD09C080917F
:1007C000B0008F7703C08091B0008F7D8093B00020
:1007D000F0E0EE0FFF1FE050FE4FA591B4918FB7F0
:1007E000F894EC91611103C020952E2301C02E2BAB
:1007F0002C938FBF08958F929F92AF92BF92CF920A
:10080000DF92EF92FF926B017C010E9456024B0136
:100810005C01C114D104E104F104F1F00E9456021C
:10082000DC01CB0188199909AA09BB09883E9340CC
:10083000A105B10570F321E0C21AD108E108F10861
:1008400088EE880E83E0981EA11CB11CC114D1044F
:10085000E104F10419F7DDCFFF90EF90DF90CF9026
:10086000BF90AF909F908F9008952FB7F8946091AC
:1008700025027091260280912702909128022FBFB5
:1008800008951F920F920FB60F9211242F933F934A
:100890008F939F93AF93BF938091250290912602EF
:1008A000A0912702B09128023091240223E0230F67
:1008B0002D3720F40196A11DB11D05C026E8230F98
:1008C0000296A11DB11D20932402809325029093CE
:1008D0002602A0932702B0932802809129029091CA
:1008E0002A02A0912B02B0912C020196A11DB11DEC
:1008F0008093290290932A02A0932B02B0932C029A
:10090000BF91AF919F918F913F912F910F900FBE0B
:100910000F901F901895682F86E895E00C94F416B8
:10092000EF92FF920F931F93CF93DF9300D0CDB739
:10093000DEB77C01162F683020F0185095E103E1F6
:1009400002C094E102E1F701808180624A839983C9
:100950000E9436129981892F0E948B040E944A12AC
:10096000F7019081892F806261E070E090E00E9441
:10097000401286E895E00E94A8164A8121E030E006
:1009800001C0220F1A95EAF7413019F4122F182BE3
:1009900003C02095122F1823F701808180620E94E6
:1009A0003612802F0E948B04812F0E948B040F909F
:1009B0000F90DF91CF911F910F91FF90EF900C94CA
:1009C0004A12FC01962F828D8F3F31F0603140F446
:1009D000CF014B960C949004642F892F0C94AF0395
:1009E0000895CF93DF93EC0140E06E810E94E10413
:1009F00041E06E81CE010E94E10440E06E81CE01B3
:100A00000E94E1048BE891E00197F1F7DF91CF912B
:100A10000895EF92FF920F931F93CF93DF931F924E
:100A2000CDB7DEB77C01162F683018F0185001E002
:100A300001C000E0F7018081806249830E94361284
:100A4000802F0E948B040E944A12F70180818062ED
:100A500061E070E090E00E94401286E895E00E941C
:100A6000A816498121E030E001C0220F1A95EAF76B
:100A7000411103C0122F182B03C02095122F1823E9
:100A8000F701808180620E943612802F0E948B04C1
:100A9000812F0E948B040F90DF91CF911F910F91B6
:100AA000FF90EF900C944A12603110F40C940905F9
:100AB0000895CF93DF9300D0CDB7DEB7FC018081DE
:100AC000806269837A830E94361282E10E948B04DD
:100AD0006981862F0E948B047A81872F0E948B0464
:100AE0000F900F90DF91CF910C944A128F929F92AA
:100AF000AF92BF92CF92DF92EF92FF920F931F932C
:100B0000CF93DF93EC018A8D8E01095F1F4FC62EB4
:100B1000D12C8F3F09F483C07E018BE1E80EF11CDC
:100B20008B8D80620E94361282E10E948B040E94AB
:100B30004A128B8D806262E070E090E00E94401269
:100B400086E895E00E94A816B82E86E895E00E94F7
:100B5000A816982F88279C012B29F801A0E0B0E067
:100B600061E070E0B19001E010E0CB010B2C02C01D
:100B7000880F991F0A94E2F78095909528233923CE
:100B8000A6010A2E02C0559547950A94E2F74170D6
:100B9000552702C0440F551FBA94E2F7242B352B7A
:100BA0001196A430B105F1F668010E8002C0CC0C9C
:100BB000DD1C0A94E2F7C094D094C222D322B6017D
:100BC000C7010E945905B8010E8002C0660F771F49
:100BD0000A94E2F7C62AD72AB601C7010E9459052E
:100BE0000E8002C0000F111F0A94E2F700951095C5
:100BF000B60160237123C7010E9459058BE891E07B
:100C00000197F1F7DF91CF911F910F91FF90EF9036
:100C1000DF90CF90BF90AF909F908F900895E12C80
:100C2000F12C4E01EBE18E0E911C5801F8018081F0
:100C30009A8D9F3F31F041E0682FC4010E94540516
:100C400002C00E94A7120F5F1F4FA6010E2C02C008
:100C5000559547950A94E2F74170F5016081CE0100
:100C60000E94E104FFEFEF1AFF0A84E0E816F104A6
:100C7000E1F6CE01DF91CF911F910F91FF90EF90A0
:100C8000DF90CF90BF90AF909F908F900C94F10425
:100C90008F929F92AF92BF92CF92DF92EF92FF928C
:100CA0000F931F93CF93DF93EC01F62E6C810E947C
:100CB000E1046D816F3F21F040E0CE010E94E1042C
:100CC0008C890F2D10E084FF3EC06E0187E0C80EB6
:100CD000D11CE12CF12C4E01EBE18E0E911C560142
:100CE000F60180819A8D9F3F31F041E0682FC40169
:100CF0000E94540502C00E94A712FFEFCF1ADF0A1C
:100D0000A8010E2C02C0559547950A94E2F7417050
:100D1000F5016081CE010E94E104FFEFEF1AFF0AA6
:100D200088E0E816F104D9F6CE01DF91CF911F914A
:100D30000F91FF90EF90DF90CF90BF90AF909F907A
:100D40008F900C94F104B80184E0759567958A95AD
:100D5000E1F7CE010E9476056F2DCE01DF91CF9194
:100D60001F910F91FF90EF90DF90CF90BF90AF90C9
:100D70009F908F900C94760541E00E94480681E098
:100D800090E00895CF92DF92EF92FF920F931F931E
:100D9000CF93DF93EC0188E60E94361260E086E88C
:100DA00095E00E94F4160E944A1267E070E088E61F
:100DB00090E00E94401286E895E00E94A8168F7786
:100DC000982F92959F701AEF082F919F000D112474
:100DD00086E895E00E94A8169C01332794E035959B
:100DE00027959A95E1F7F82E129FF00C112486E8CA
:100DF00095E00E94A8169C01332744E0359527957D
:100E00004A95E1F7E82E129FE00C112486E895E060
:100E10000E94A81686E895E00E94A8169C01332738
:100E200054E0359527955A95E1F7D82E129FD00CAE
:100E3000112486E895E00E94A8169C01332764E0FF
:100E4000359527956A95E1F7C82E129FC00C11249D
:100E500086E895E00E94A8169C01332774E035953A
:100E600027957A95E1F7129F800D11248883C98216
:100E7000DA82EB82FC820D83CE01DF91CF911F914C
:100E80000F91FF90EF90DF90CF900895EF92FF9237
:100E90000F931F93CF93DF93EC0139818881682FE3
:100EA00070E04A8150E0E0EDF1E091E09E1B292FD7
:100EB0002E0F231728F42491420F511D3196F7CF9E
:100EC000333020F0837011F44F5F5F4F8DE691E077
:100ED000689F9001699F300D789F300D112421503B
:100EE00031096D5F7F4F7695679576956795260FEB
:100EF000371F240F351FA8E1B0E00E949E2B2B81E5
:100F00007B018C01E20EF11C011D111DA80197014E
:100F1000ACE3B0E00E945C2B2C817B018C01E20EE3
:100F2000F11C011D111DA80197010E945C2B2D8150
:100F3000620F711D811D911DDF91CF911F910F9146
:100F4000FF90EF9008958F929F92AF92BF92EF9291
:100F5000FF920F931F93CF934B015C01C42F80919D
:100F6000020190910301A0910401B091050188153F
:100F70009905AA05BB0501F10E94CF0C811102C0A1
:100F800080E020C08FE2E82E82E0F82E00E012E040
:100F900020E030E0B501A40180912F04909130044D
:100FA0000E94D00B882361F380920201909203018A
:100FB000A0920401B092050180911F02C82BC0933A
:100FC0001F0281E0CF911F910F91FF90EF90BF9092
:100FD000AF909F908F9008954F925F926F927F9203
:100FE0008F929F92AF92BF92CF92DF92EF92FF9239
:100FF0000F931F93CF93DF93EC016A017B012801CC
:101000003901423051056105710510F480E073C06B
:1010100089859A85AB85BC850196A11DB11D841774
:101020009507A607B70790F38B889C88AD88BE8884
:101030008F89803129F4BB27AF2D9E2D8D2D09C0BE
:10104000DB01CA0147E0B695A795979587954A9524
:10105000D1F7880E991EAA1EBB1E809102019091A5
:101060000301A0910401B091050188169906AA0612
:10107000BB0679F48F898031A1F4DD24EE24FF24AE
:10108000C601880F991FFC01E15DFD4F518240822E
:1010900019C040E0C501B4010E94A3078111EACF45
:1010A000B5CFE894C7F8DD24EE24FF24C601880FED
:1010B000991F880F991FFC01E15DFD4F408251820D
:1010C0006282738280911F02816080931F028A89ED
:1010D000823080F08D819E81AF81B885880E991E07
:1010E000AA1EBB1E8092200290922102A092220290
:1010F000B092230281E0DF91CF911F910F91FF9079
:10110000EF90DF90CF90BF90AF909F908F907F90A7
:101110006F905F904F9008958F929F92AF92BF9281
:10112000CF92DF92EF92FF920F931F93CF93DF93B3
:10113000FC0181859285A385B4850196A11DB11D11
:1011400084179507A607B70710F480E05CC0838971
:101150009489A589B689C789C03129F4852E962E30
:10116000A72EBB2409C04A015B01C7E0B694A7942F
:1011700097948794CA95D1F7E9016A017B018F01A1
:10118000BC01CD01680D791D8A1D9B1D8090020157
:1011900090900301A0900401B090050168157905B5
:1011A0008A059B0599F4F80187898031A9F4B70174
:1011B000A601552766277727440F551FFA01E15DE1
:1011C000FD4F80819181A0E0B0E018C040E00E9416
:1011D000A3078111E8CFB9CFB701A6014F775527F3
:1011E00066277727440F551F440F551FFA01E15D0D
:1011F000FD4F80819181A281B381BF7088839983E3
:10120000AA83BB8381E0DF91CF911F910F91FF9063
:10121000EF90DF90CF90BF90AF909F908F90089508
:101220004F925F926F927F92AF92BF92CF92DF9276
:10123000EF92FF920F931F93CF93DF9300D000D0D4
:10124000CDB7DEB78C0149835A836B837C83590108
:10125000C12CD12C7601412C82E0582E612C712CAE
:1012600049815A816B817C819E012F5F3F4FC8016C
:101270000E948C08882351F1D301C201F801058432
:1012800004C0880F991FAA1FBB1F0A94D2F7C80E6B
:10129000D91EEA1EFB1E49815A816B817C81878998
:1012A000803129F088EF9FEFAFEFBFE004C088EFF7
:1012B0009FEFA0E0B0E0481759076A077B0780F26C
:1012C000F501C082D182E282F38281E00F900F901B
:1012D0000F900F90DF91CF911F910F91FF90EF90A2
:1012E000DF90CF90BF90AF907F906F905F904F90C6
:1012F00008953F924F925F926F927F928F929F924A
:10130000AF92BF92CF92DF92EF92FF920F931F9313
:10131000CF93DF93CDB7DEB72C970FB6F894DEBF2F
:101320000FBECDBF5C01DC015B968D909C905C97FD
:101330001696CD90DD90ED90FC901997C114D104D4
:10134000E104F10439F0BFEFCB1ADB0AEB0AFB0A28
:10135000312C07C0F401C080D180E280F3803324B7
:101360003394F40181859285A385B4859C01AD01F8
:101370002F5F3F4F4F4F5F4F29873A874B875C87DF
:10138000260137011D821E821F821886F401818585
:101390009285A385B4852D813E814F81588528177C
:1013A00039074A075B0708F063C089859A85AB85D2
:1013B000BC858C159D05AE05BF0550F482E0C82E96
:1013C000D12CE12CF12C92E0492E512C612C712C66
:1013D0009E012F5F3F4FB701A601C4010E948C08F8
:1013E000882309F445C089819A81AB81BC81892B0E
:1013F0008A2B8B2B41F0260137019FEF491A590A9E
:10140000690A790A05C0C414D504E604F70491F00A
:101410002D813E814F8158852F5F3F4F4F4F5F4F4A
:101420002D833E834F8358873FEFC31AD30AE30AC5
:10143000F30AACCF0FEF1FEF2FEF3FE0B301A20194
:10144000C4010E94EC07882399F0D50116964D91AE
:101450005D916D917C91199741155105610571055B
:1014600049F093018201C4010E94EC07811102C07E
:1014700080E02AC0D50116964D925D926D927C92C5
:101480001997332051F0D301C2010196A11DB11D5E
:10149000F40180839183A283B383F5018789908DC2
:1014A000A18DB28D892B8A2B8B2B69F4D501579690
:1014B0004D925D926D927C925A9714968C911497EE
:1014C000806814968C9381E02C960FB6F894DEBF5A
:1014D0000FBECDBFDF91CF911F910F91FF90EF9085
:1014E000DF90CF90BF90AF909F908F907F906F9044
:1014F0005F904F903F9008950F931F93CF93DF938A
:10150000EB010E9435048B010E94AA178F3F49F01E
:101510000E943504601B710B6C177D07A8F380E0F7
:1015200001C081E0DF91CF911F910F9108958F92BB
:101530009F92AF92BF92CF92DF92EF92FF920F9362
:101540001F93CF93DF93EC018D81811102C080E066
:1015500077C00B891C892D893E890417150726073A
:101560003707A8F36A017B01823029F4CA86DB863B
:10157000EC86FD860DC0C114D104E104F10451F4E0
:101580001E821F82188619861A861B861C861D8657
:1015900081E056C08A849B84AC84BD84EB8DFC8D35
:1015A000258530E0275F3F4FB501A4014150510927
:1015B00061097109022E04C0769567955795479584
:1015C0000A94D2F7D701C6010197A109B10904C055
:1015D000B695A795979587952A95D2F7841795077D
:1015E000A607B70720F089288A288B2849F44F8955
:1015F000588D698D7A8D4E835F836887798704C0A3
:10160000841B950BA60BB70B4C015D018E010A5F85
:101610001F4F81149104A104B10409F4A7CF4E8196
:101620005F816885798598018B8D9C8D0E948C08DF
:1016300091E0891A9108A108B1088111EACF87CFFA
:10164000DF91CF911F910F91FF90EF90DF90CF909E
:10165000BF90AF909F908F9008958FB7F89480912E
:101660002D028FBF0895CF93DF93EC0180912E025E
:10167000811109C081E080932E0280913B059091F9
:101680003C050E94AD1760E08C81DF91CF910C94F6
:10169000AF0361E0FC0184810E94AF0380912E02C0
:1016A000811110922E020895CF93DF93EC018E8169
:1016B000882389F08F8198859C012F5F3F4F388761
:1016C0002F838230924018F40E94AA17F3CFCE01E4
:1016D0000E94490B1E82DF91CF910895CF92DF9235
:1016E000FF920F931F93CF93DF9300D000D0CDB71D
:1016F000DEB76C01F62E29833A834B835C830E940C
:10170000540BC6010E94330B6CE271E0C6010E94CB
:101710007C0A8F2D80640E94A31708E110E05C8191
:101720004B813A812981DA01C901002E04C0B695A6
:10173000A795979587950A94D2F729833A834B8387
:101740005C830E94A3170850110929813A814B81BB
:101750005C81083F8FEF180731F7FF2029F0E8E0A0
:10176000FE1204C087E803C085E901C08FEF0E9424
:10177000A31710E00E94AA17F601828787FF04C012
:101780001F3F11F01F5FF6CF0F900F900F900F903B
:10179000DF91CF911F910F91FF90DF90CF9008952F
:1017A000AF92BF92CF92DF92EF92FF920F931F936F
:1017B000CF93DF93EC016901C801820F931F813041
:1017C000924008F070C08E81882371F088819981E1
:1017D000AA81BB81481759076A077B0729F48F81C3
:1017E0009885C816D906B0F5488359836A837B83E8
:1017F0008B85833039F089E0440F551F661F771FB2
:101800008A95D1F79A01AB0161E1CE010E946E0B7E
:10181000882319F083E08D8346C00E9435045B0164
:101820000E94AA178A878F3F49F40E9435046A19DB
:101830007B096D327140A0F38FE003C08E3F31F021
:101840008DE08D83CE010E94490B2DC018861F822A
:1018500081E08E838F8198858C159D0540F40E94D0
:10186000AA178F819885019698878F83F3CF670198
:10187000E00EF11ECE14DF0431F00E94AA17F6012B
:1018800081936F01F7CF8F819885080F191F1887F3
:101890000F838985882319F00115124048F0CE0185
:1018A0000E94540B05C0CE010E94490B80E001C08C
:1018B00081E0DF91CF911F910F91FF90EF90DF902A
:1018C000CF90BF90AF900895EF92FF920F931F9328
:1018D000CF93DF93EC017901411551056105710545
:1018E00011F482E13CC08B85833039F089E0440FEC
:1018F000551F661F771F8A95D1F79A01AB0168E1E2
:10190000CE010E946E0B882311F084E028C08EEF78
:101910000E94A31787018EEFF81AF80181918F01B9
:101920000E94A3170E151F05C1F78FEF0E94A31782
:101930008FEF0E94A3170E94AA178A878F718530A4
:1019400031F081E18D83CE010E94490B09C068E529
:1019500072E0CE010E947C0A811107C085E18D836F
:10196000CE010E94490B80E013C020E030E0A901C5
:101970006DE0CE010E946E0B811104C00E94AA1777
:10198000882311F084E1EBCFCE010E94490B81E066
:10199000DF91CF911F910F91FF90EF90089580916B
:1019A0001F028823A9F14091020150910301609127
:1019B0000401709105012FE232E080912F04909193
:1019C00030040E94640C811102C080E008954091AF
:1019D0002002509121026091220270912302411550
:1019E00051056105710591F02FE232E080912F04DD
:1019F000909130040E94640C882339F310922002E5
:101A000010922102109222021092230210921F02C1
:101A100081E008950F931F93CF93DF93EC018D81A5
:101A2000882309F447C08C8187FF3EC06E857F857F
:101A30008889998941E00E94A3078823D9F18A897E
:101A400020E2829FC0011124FC01E15DFD4F30972F
:101A500089F12D81223040F44B895C896D897E8922
:101A6000448F558F668F778F4F89588D698D7A8D0A
:101A70008C01015D1D4FF801538F428F758B648B74
:101A8000E091CC01F091CD01309759F0BC016B5B36
:101A90007D4F895B9D4F0995F801808D918D938BCA
:101AA000828B8C818F778C83DF91CF911F910F91E7
:101AB0000C94CF0C80E0DF91CF911F910F9108958E
:101AC0008F929F92AF92BF92CF92DF92EF92FF924E
:101AD0000F931F93CF93DF9300D000D0CDB7DEB725
:101AE0007C0180E2689F600111249601215D3D4FD9
:101AF000D9011B969C91917121F0842F827409F079
:101B000097C0142FF701628B80910201909103011D
:101B1000A0910401B091050186879787A08BB18BB6
:101B2000F601E15DFD4F4489558960E070E0BA013E
:101B300055274427D70157964D935D936D937C931A
:101B40005A97828D938DA0E0B0E0482B592B6A2BD9
:101B50007B2BD70157964D935D936D937C935A974A
:101B6000D9011B968C91887159F4848D958DA68D21
:101B7000B78DF701838B948BA58BB68B81E012C058
:101B8000803109F055C097012D5E3F4FD7015B961C
:101B90008D919C915C970E941009882309F448C09C
:101BA00084E0F7018583812F8F70D70114968C9381
:101BB0001497F70116821782108611861A961D92C5
:101BC0001D921D921C921D9716FF34C015968C9184
:101BD000813071F511FF2CC0F70143895489658963
:101BE0007689452B462B472B09F461C040E050E035
:101BF000BA01C7010E94970A8823D1F0F7018788AC
:101C0000908CA18CB28CC38CD48C82E090E0A0E04C
:101C1000B0E0F60180839183A283B3839E012F5F9E
:101C20003F4FB501A401C6010E948C08811104C078
:101C300080E03DC081E03BC000E010E09801B501CC
:101C4000A401C6010E94EC07882391F389809A8041
:101C5000AB80BC80D60157968C91803129F088EFFB
:101C60009FEFAFEFBFE004C088EF9FEFA0E0B0E0D0
:101C700088169906AA06BB0688F2D70157961D92C8
:101C80001D921D921C925A97F701138A148A158A85
:101C9000168A848180688483C7010E940A0D882384
:101CA00039F240E050E0BA01C7010E94970A0F9054
:101CB0000F900F900F90DF91CF911F910F91FF9098
:101CC000EF90DF90CF90BF90AF909F908F9008954E
:101CD000CF93DF93EC010E940A0D882311F01D823F
:101CE00081E0DF91CF9108954F925F926F927F9242
:101CF0009F92AF92BF92CF92DF92EF92FF920F939B
:101D00001F93CF93DF93CDB7DEB72B970FB6F89421
:101D1000DEBF0FBECDBF7C01DC011596AC90A110DB
:101D200097C1FE0131966F0190E28BE08E0F919387
:101D30008E13FDCFDA0130E087E09D91992339F1D0
:101D40009E3219F0E0EFF1E00AC08A3009F481C157
:101D500038E08AE0F2CF3196491709F47AC144910C
:101D60004111F9CF831708F474C14FED490F4E3577
:101D700008F06FC141E0430FF601E30FF11D3FE9A9
:101D8000390F3A3108F490529083342FD6CF89819D
:101D9000803209F45EC1B22E8B01DB015B968D911E
:101DA0009C915C97F701948F838F16961D921D92DC
:101DB0001D921C921997FB011286138614861586B4
:101DC000712CF80182859385A485B5854389548952
:101DD0006589768984179507A607B70708F061C05B
:101DE00025E0B695A795979587952A95D1F7F82F71
:101DF000FF709F2ED80115968C91823008F429C16E
:101E0000C8010E94361897FD24C1F8018285938588
:101E1000A485B5854F96A11DB11D82879387A487A0
:101E2000B587F0E29F9EC0011124BC01615D7D4F2A
:101E30006115710509F40DC1DB012C91222319F004
:101E4000253EC1F427C071100EC0F701928A40915F
:101E500002015091030160910401709105014687D0
:101E60005787608B718BFC01E15DFD4F8081811193
:101E700013C015C04BE050E0C6010E94252B892BF2
:101E800009F09FCF8B2D8073803309F4E2C04B2D76
:101E9000692DD9C07720C9F27724739492CF772423
:101EA00073948B2D8271823109F0D3C07720D1F0E9
:101EB000D7011E966D917D918D919C91519741E036
:101EC0000E94A307882309F4C4C0F7010289F0E245
:101ED0000F9F80011124015D1D4F0115110509F0AF
:101EE00079C0B7C0D80115968C91823009F4B1C081
:101EF000C8010E947909882309F4ABC0D8015B9618
:101F0000ED91FC915C9716964D905D906D907C9054
:101F10001997B2E04B1A510861087108058404C092
:101F2000440C551C661C771C0A94D2F7868597854D
:101F3000A089B189480E591E6A1E7B1E9480E1E07B
:101F40004E1A510861087108992009F10E94CF0CBE
:101F5000882309F47EC0EFE2F2E0119224E0EF3230
:101F6000F207D9F7D301C201890D911DA11DB11D41
:101F70008093020190930301A0930401B0930501A3
:101F800080911F02816080931F029A94DDCFD80157
:101F90005B96ED91FC915C9780E092E0A0E0B0E070
:101FA000058404C0880F991FAA1FBB1F0A94D2F78B
:101FB000F8014389548965897689840F951FA61F86
:101FC000B71F838B948BA58BB68BD70152961C922F
:101FD0000FE212E080E2F80111928A95E9F78BE0B6
:101FE000F601D80101900D928A95E1F7E091CC01BC
:101FF000F091CD01309739F0B801625F7F4FC80191
:10200000409609950DC081E298E2D80151969C93C3
:102010008E93509780E098E01F969C938E931E9726
:10202000F80180899189938B828B918F808F86852F
:102030009785978B868B0E94CF0C882351F04B2D70
:10204000D70152966C91C7010E94600DA82E01C065
:10205000A12C8A2D2B960FB6F894DEBF0FBECDBFF4
:10206000DF91CF911F910F91FF90EF90DF90CF9074
:10207000BF90AF909F907F906F905F904F9008952A
:102080002F923F924F925F926F927F928F929F9288
:10209000AF92BF92CF92DF92EF92FF920F931F9376
:1020A000CF93DF9300D000D0CDB7DEB78C016B01AA
:1020B0003A01DC0115968C9115978130C9F414967C
:1020C0008C9181FF15C082FF1DC0F801438954899E
:1020D0006589768982859385A485B585841795075A
:1020E000A607B70779F0C8010E94970A81110AC0B4
:1020F00081E090E0D80113969C938E93129780E034
:1021000090E048C1430184C0D8015B968D919C91B9
:102110005C97FC0154802FEF250D1A012B0139E04B
:1021200056944794379427943A95D1F7522E5220DB
:102130007A01F1E0FF22552009F476C080E092E0B8
:102140008E199F0954018815990508F45C01D8017E
:102150005B962D913C915C9716968D919D910D907B
:10216000BC91A02D0297A109B109F901058404C011
:10217000880F991FAA1FBB1F0A94D2F7468557855F
:1021800060897189840F951FA61FB71F9C01AD013F
:10219000250D311D411D511D19012A01A11432E0E7
:1021A000B30609F088C08091020190910301A091CB
:1021B0000401B091050182159305A405B50559F4F4
:1021C0008FEF9FEFDC018093020190930301A093B6
:1021D0000401B09305019601B201A10180912F0481
:1021E000909130040E94640C882309F481CF9EEF03
:1021F000D91A8A189B08F80182859385A485B5852C
:102200008A0D9B1DA11DB11D82879387A487B58769
:10221000D8011A964D915D916D917C911D97811415
:10222000910409F071CF87C0E114F10409F086CF61
:1022300016964D915D916D917C91199741155105BF
:102240006105710559F457968D919D910D90BC9142
:10225000A02D0097A105B10541F521C09E012F5F7A
:102260003F4F0E948C08882309F44ACF89819A81C4
:10227000AB81BC81F801238D348DF9012789203190
:1022800029F048EF5FEF6FEF7FE004C048EF5FEFAA
:1022900060E070E084179507A607B70730F0C80123
:1022A0000E94790981114ACF23CFF8018683978351
:1022B000A087B18743CFE114F10429F5D8011A961C
:1022C0004D915D916D917C911D9753968D919D914E
:1022D0000D90BC91A02D481759076A077B0798F00D
:1022E0000E94CF0C882309F403CF20920201309280
:1022F0000301409204015092050180911F02816008
:1023000080931F0208C041E0C201B1010E94A307EF
:10231000882309F4EDCED601F701E15DFD4FCF0131
:102320008A0D9B1DE817F90719F02D912193FACF1B
:10233000CA0CDB1C5ECF5396CD90DD90ED90FC90E7
:10234000569714968C91C416D506E606F70640F407
:10235000F801438B548B658B768B806884830DC02A
:102360002091CC013091CD01232B39F061147104FF
:1023700021F08068D80114968C93F801848183FD44
:1023800002C0C30107C0C8010E940A0D882309F4D6
:10239000AFCEF7CF0F900F900F900F90DF91CF91AE
:1023A0001F910F91FF90EF90DF90CF90BF90AF9073
:1023B0009F908F907F906F905F904F903F902F9065
:1023C0000895CF93DF931F92CDB7DEB7698341E0C5
:1023D00050E0BE016F5F7F4F0E9440100F90DF9171
:1023E000CF91089590919D049111FCCF91E090932D
:1023F0009D0490939C042FEF20939B0410929A04C9
:10240000260F209399049093980490919804880F34
:10241000892B8093980480919704813061F4109205
:102420009704809198048093BB008091BC0083FD49
:10243000F8CF85EC01C085EE8093BC0080919D04AF
:102440008130E1F380919A04861710F460919A0428
:10245000A7E7B4E027E534E0F9018E2F821B861749
:1024600018F48D918193F9CF862F089591E0909380
:1024700056048093C905109255041092540408958F
:10248000613208F060E20E94F211109253048093CE
:1024900052040895209154049091C905213208F006
:1024A0004AC080919D048111FCCF32E030939D049D
:1024B00031E030939C043FEF30939B0410929A04D8
:1024C00020939904A2E3B4E047E754E0FA013E2FD9
:1024D000341B321718F43D913193F9CF10929804C0
:1024E00020919804990F922B9093980490919704BF
:1024F000913061F410929704909198049093BB00EE
:102500009091BC0093FDF8CF95EC01C095EE9093AF
:10251000BC0090919D049230E1F390919B049F3F09
:1025200079F080919B04803241F080919B0480334C
:1025300031F084E005C081E003C082E001C083E0A7
:10254000109255041092540410925604089590E08D
:10255000FC01E85DFD4F2491FC01EC5EFD4F849190
:10256000882399F090E0880F991FFC01E65FFD4FEA
:10257000A591B491FC01E050FE4F859194918FB7E5
:10258000F894EC91E22BEC938FBF089540E0682F14
:1025900082E995E00C944806CF93DF93CDB7DEB780
:1025A00028970FB6F894DEBF0FBECDBF98E0ECE0E1
:1025B000F1E0DE01119601900D929A95E1F790916C
:1025C000AA05961710F46FEF690FFE013196E60F1A
:1025D000F11DE60FF11D9081890F806828960FB6D6
:1025E000F894DEBF0FBECDBFDF91CF910C94C61221
:1025F00081E00E94C6128BE39FE10197F1F70895F5
:102600000F931F93CF93DF93EC01462F50E060E0D0
:1026100070E02AE00E94E4028C0167EC71E0CE01D8
:102620000E94CF02800F911FDF91CF911F910F91D8
:102630000895462F50E060E070E02AE00C94E40238
:10264000CF93DF93D82FC1E082FB442740F94C277A
:1026500068E08DEA95E00E949004D1FB442740F9A0
:102660004C2767E08DEA95E00E9490044D2F417061
:102670004C2766E08DEA95E0DF91CF910C949004B1
:10268000CF93C82F88E60E9436126C2F70E0685FE7
:102690007F4F86E895E00E94F4160E944A1261E09E
:1026A00088E60E94F211109253048093520486E847
:1026B00095E00E94A816CF9108952F923F924F92D5
:1026C0005F926F927F928F929F92AF92BF92CF92C2
:1026D000DF92EF92FF920F931F93CF93DF93CDB7CB
:1026E000DEB7C756D1090FB6F894DEBF0FBECDBF17
:1026F0005C014B01A6964FAFA6973E018EE1680E96
:10270000711C67E675E0C3010E94B0171C821B8232
:1027100088E291E09A8389831E827401FE013196DA
:102720006F0123011F016FE270E0C7010E943B2B84
:102730000097F1F1F70120812F3221F4FFEFEF1A1A
:10274000FF0AF1CF8E198D3008F08CE0082F10E0D1
:10275000A801B701CE01885A9F4F0E944D2BE8E592
:10276000F0E0EC0FFD1FE00FF11F1082C6010E9488
:10277000680E21E0AE01485A5F4FB201C6010E94C7
:10278000740E81110AC01EAE1DAE88E291E09CAFAE
:102790008BAF21961FAE219717C0E00EF11EC2012C
:1027A0000E94680E942D852D2601C92ED82EBBCFF0
:1027B000C70188199909A8969FAF8EAFA897B20153
:1027C000CE01CB960E94B017A896EEADFFADA897AC
:1027D0008E0E9F1EF4018081811109C0BE01655CCF
:1027E0007F4FC1010E94B01748EB51E04BC019A2C6
:1027F00018A288E291E09F8F8E8F1BA221968FAD49
:102800002197811113C0F5011382128288EE93E0A3
:10281000A0E0B0E084839583A683B78388E491E049
:1028200091838083128E118E148630C08250A696BA
:102830002FADA697A401823040F467E675E0C3018E
:102840000E94740E81110DC0DECFBE01655C7F4F0A
:10285000C3010E94740E8823B1F2CE01CB960E9470
:10286000680EA6968FADA697867039F049A95AA929
:102870006BA97CA9C3010E94970AB301C1010E9400
:10288000B017A401B101C5010E940118C501C959C1
:10289000DF4F0FB6F894DEBF0FBECDBFDF91CF91F3
:1028A0001F910F91FF90EF90DF90CF90BF90AF906E
:1028B0009F908F907F906F905F904F903F902F9060
:1028C00008950F931F93CF93DF93EC010E9435047B
:1028D000688779878A879B87CE010E94401997FF76
:1028E00017C00E943504088519852A853B85DC01BF
:1028F000CB01801B910BA20BB30B0C811D812E8190
:102900003F8180179107A207B30730F38FEF9FEF46
:10291000DF91CF911F910F9108958F929F92AF9267
:10292000BF92CF92DF92EF92FF92CF93DF93C82FA7
:102930008DE395E09093300480932F04CC2369F1CC
:10294000C53010F080E00DC140E060E070E0CB01E8
:102950000E94A3078823B1F320E1C29FC001112484
:10296000815E9D4FFC01E254FE4F20812F7751F78D
:102970003C964081518162817381443651056105E5
:10298000710500F33497C080D180E280F380C114D8
:10299000D104E104F10421F4D5CFC12CD12C76016E
:1029A00040E0C701B6010E94A307882359F2809135
:1029B0003A0290913B028115924021F6A0913F028C
:1029C000AA2309F4BFCF60913D0270913E026115C8
:1029D000710509F4B7CF20913C02222309F4B2CF4C
:1029E000A0935B0520934D0580E030E0E1E0F0E04E
:1029F000C82FAF01082E02C0440F551F0A94E2F7FA
:102A00002417350741F0982F8F5F983089F789E0B8
:102A10008093560597CF80935605209145023091BB
:102A200046022115310519F040E050E008C0209120
:102A30005302309154024091550250915602209316
:102A40004E0530934F054093500550935105460174
:102A50005701860E971EA11CB11C80925C059092B6
:102A60005D05A0925E05B0925F05E0914002F09195
:102A70004102F0936205E0936105B0E00E945C2B97
:102A8000860E971EA81EB91E80926305909264055B
:102A9000A0926505B092660585E0EE0FFF1F8A954E
:102AA000E1F7E150FE4FEF2FFF27E6958E0E9F1EB8
:102AB000A11CB11C8092570590925805A09259050F
:102AC000B0925A05209142023091430221153105FE
:102AD00021F0A90160E070E008C040914F025091E0
:102AE00050026091510270915202D701C6018819BB
:102AF0009909AA09BB09840F951FA61FB71F04C017
:102B0000B695A79597958795CA95D2F78093520564
:102B100090935305A0935405B0935505853F2FE03E
:102B20009207A105B10510F48CE018C0853F9F4FB6
:102B3000A105B10510F480E111C080915B02909174
:102B40005C02A0915D02B0915E0280936305909358
:102B50006405A0936505B093660580E280936005E7
:102B600081E0DF91CF91FF90EF90DF90CF90BF9009
:102B7000AF909F908F90089510925304109252043A
:102B8000109255041092540410929D0481E0809399
:102B90009C041092970461E082E10E94AF0361E01F
:102BA00083E10E94AF03E9EBF0E080818E7F8083B8
:102BB00080818D7F808388E48093B80085E4809352
:102BC000BC000895CF93DF93C82FD62F88E60E94CC
:102BD00036128C2F90E0BC01685F7F4F86E895E04D
:102BE0000E94F4166D2F86E895E00E94F416DF919E
:102BF000CF910C944A12CF92DF92EF92FF92CF9333
:102C0000DF936C01990FEE08FF08F7FE1BC06DE221
:102C100082E995E00E94A402EC0144275527BA01FD
:102C20004C195D096E097F092AE082E995E00E944E
:102C3000E4028C0F9D1FDF91CF91FF90EF90DF900A
:102C4000CF9008952AE0B701A60182E995E0DF91CF
:102C5000CF91FF90EF90DF90CF900C94E402DC01D5
:102C60005996ED91FC915A973097B9F083899489E0
:102C7000A589B6894285538564857585841B950B26
:102C8000A60BB70B811520E89207A105B10538F016
:102C90008FEF9FE7A0E0B0E0089580E090E0089516
:102CA000CF93DF931F92CDB7DEB76983DC01ED913F
:102CB000FC910280F381E02D41E050E0BE016F5FA6
:102CC0007F4F09950F90DF91CF91089585ED809307
:102CD000BC008091BC0084FDFCCF10929D0408953F
:102CE0004091EC05262F30E0240F311D21323105B3
:102CF000DCF420919D042430C9F4FC0180E090E0D4
:102D0000861758F43091EC052191DC01A653BA4F97
:102D1000A30FB11D2C930196F3CF8091EC05680FA2
:102D20006093EC0580E0089581E0089582E00895C5
:102D30000895E091530480915204E81730F4F0E0D4
:102D4000E95AFB4F808190E008958FEF9FEF08953F
:102D50009091530480915204981750F4E92FF0E0B9
:102D6000E95AFB4F208130E09F5F9093530402C0EB
:102D70002FEF3FEFC90108958091520490E0209118
:102D80005304821B91090895CF92DF92EF92FF9234
:102D90000F931F93CF93DF937C01262F972F8A01E8
:102DA00080915604882391F0C62FD72F6E01C40E50
:102DB000D51ECC15DD0571F06991D701ED91FC911F
:102DC0000190F081E02DC7010995F3CF642F822F88
:102DD0000E947016C801DF91CF911F910F91FF9053
:102DE000EF90DF90CF900895CF93DF931F92CDB7F0
:102DF000DEB76983209156042223D1F02091540438
:102E0000203240F021E030E0FC013383228380E077
:102E100090E015C080915504E82FF0E0EE5CFB4F88
:102E2000998190838F5F809355048093540405C0EB
:102E300061E0CE0101960E94701681E090E00F9053
:102E4000DF91CF910895FC01818D928D009711F053
:102E50000C940A0D0895CF93DF93EC01898D9A8D20
:102E6000009739F481E090E09B838A8380E090E0D2
:102E70000BC0FC01138212820E944010E98DFA8D72
:102E800022813381232B71F7DF91CF910895CF9366
:102E9000CFE06AEC71E08EE994E00E945503C150E6
:102EA000C1F76AEC71E08EE994E0CF910C942D03A8
:102EB000EF92FF920F931F93CF93DF9300D000D038
:102EC00000D0CDB7DEB78C017B01CE0101960E9408
:102ED000C2062A8180E2289F900111248B81A901DA
:102EE000482B8981282F30E02C5E3F4F322F22273C
:102EF000330F242B352BF801318320838D81F0E2B1
:102F00008F9F900111249C81892F90E0982F882712
:102F1000990F990F990F822B932B2E8130E03595C5
:102F20002795822B932BF7019183808326960FB6EA
:102F3000F894DEBF0FBECDBFDF91CF911F910F91EF
:102F4000FF90EF9008958EBD00000DB407FEFDCFF9
:102F50008EB508958FEF0C94A3178CBD9DBD089579
:102F6000FC01DB0112968D919C91139793838283D0
:102F700088E291E09183808314968C9114978483E6
:102F800015968C911597858316964D915D916D914F
:102F90007C91199746835783608771871A964D9164
:102FA0005D916D917C911D974287538764877587EA
:102FB0001E964D915D916D917C91519746875787F3
:102FC000608B718B52968C915297828B53964D9158
:102FD0005D916D917C915697438B548B658B768B6D
:102FE00057964D915D916D917C915A97478B508F7B
:102FF000618F728F5B968D919C915C97948F838F7C
:103000000895EF92FF920F931F93CF93DF93EC01FC
:103010007B018A011B821A8288EE93E0A0E0B0E077
:103020008C839D83AE83BF8388E491E099838883FA
:103030008DE190E00E9429299A8F898F009779F07D
:103040002DE1F701DC0101900D922A95E1F74CE0AA
:1030500050E0B801CE010C960E944D2B188EDF91E6
:10306000CF911F910F91FF90EF9008952F923F9273
:103070004F925F926F927F928F929F92AF92BF9288
:10308000CF92DF92EF92FF920F931F93CF93DF9334
:1030900000D0CDB7DEB7FC018581882309F4D9C003
:1030A000848180FFD6C021E02A83438954896589C1
:1030B000768982859385A485B585481759076A075F
:1030C0007B0709F41A826F013A81832F90E0DE01B9
:1030D00011964D013F01B6E06B0E711C892B09F46E
:1030E0007DC0D6011A964D915D916D917C911D9791
:1030F0005A01B1E0BB22F60125811A012B0189E0BA
:1031000056944794379427948A95D1F7838D948D5C
:10311000223061F4FC01828D938DA48DB58DBC01AC
:10312000CD01620D731D841D951D45C0DC011496F3
:103130001C9111501221A114B104D1F4111118C025
:10314000452B462B472B51F4F6018789908DA18D95
:10315000B28D86839783A087B1870AC04681578145
:103160006085718593010E948C08882309F471C0E1
:10317000F601238D348D86819781A085B1850297D4
:10318000A109B109AC01BD01F901058404C0440FD6
:10319000551F661F771F0A94D2F786859785A089E9
:1031A000B189840F951FA61FB71FBC01CD01610F08
:1031B000711D811D911DD60114962C9126FF14C0FE
:1031C0000091020110910301209104013091050149
:1031D000601771078207930751F506C0FA81FF2334
:1031E000C1F1898190E037C040E00E94A3078823A5
:1031F00081F1F501E15DFD4FD401CF010196E817A2
:10320000F90719F021912D93FACFEFEF8E1A9E0A4C
:10321000F60182859385A485B5850196A11DB11D12
:1032200082879387A487B58780E090E057CF7401A9
:1032300001E010E09501AB01BC0180912F04909159
:1032400030040E94D00B882321F0BFEF8B1A9B0A19
:10325000DFCF8FEF9FEF0F900F90DF91CF911F91F6
:103260000F91FF90EF90DF90CF90BF90AF909F9025
:103270008F907F906F905F904F903F902F90089528
:10328000FC01818D928D009711F00C9436188FEF10
:103290009FEF08950F931F93CF93DF93FC01818DD0
:1032A000928D0097B9F0EF010E9436188C010F3F04
:1032B0008FEF180791F0898D9A8DFC014285538517
:1032C0006485758541505109610971090E94970A09
:1032D000C80105C080E090E002C08FEF9FEFDF9152
:1032E000CF911F910F9108951F920F920FB60F92D9
:1032F00011242F933F934F935F936F937F938F93FB
:103300009F93AF93BF93EF93FF938091B900887F12
:10331000803609F49CC068F5883209F45BC090F4EB
:10332000803109F454C038F4882309F4F6C0883099
:1033300009F44DC0F6C0883109F44CC0803209F45C
:103340005DC0EFC0803409F468C048F4803309F4EC
:1033500055C0883309F0E5C080939B04D8C0803500
:1033600009F44FC0883509F45DC0883409F0D9C02C
:10337000D6C0883909F4C7C0A8F4883709F467C0F3
:1033800038F4883609F463C0803709F460C0C9C0D6
:10339000883809F4B8C0803909F45FC0803809F072
:1033A000C0C05BC0803B09F486C038F4803A09F4A1
:1033B00066C0883A09F47FC0B4C0803C09F4A7C055
:1033C000883C09F4A4C0883B09F48AC0AAC0809153
:1033D000980410C090919A0480919904981770F500
:1033E000E0919A0481E08E0F80939A04F0E0E9580E
:1033F000FB4F80818093BB0085EC86C080939B044B
:103400008EC0E0919A0481E08E0F80939A0480919F
:10341000BB00F0E0E958FB4F808390919A048091C3
:1034200099046EC0E0919A0481E08E0F80939A0413
:103430008091BB00F0E0E958FB4F808380919C04B1
:1034400081116DC081E08093970484EA61C083E0BC
:1034500080939D0410921006CFCF80911006803289
:1034600008F051C0E091100681E08E0F80931006A5
:103470008091BB00F0E0E051FA4F8083BDCF85EC36
:103480008093BC0010929D0480911006803230F42D
:10349000E0911006F0E0E051FA4F108260911006C2
:1034A00070E0E091EE05F091EF0580EF95E0099571
:1034B0001092100636C084E080939D041092ED05B2
:1034C0001092EC05E091EA05F091EB0509958091E9
:1034D000EC05811105C081E08093EC051092CA05CE
:1034E000E091ED0581E08E0F8093ED05F0E0E6536D
:1034F000FA4F80818093BB009091ED058091EC059F
:10350000981708F479CF85E88093BC000AC085EC51
:103510008093BC0010929D0404C010929B040E94F2
:103520006616FF91EF91BF91AF919F918F917F911F
:103530006F915F914F913F912F910F900FBE0F9020
:103540001F901895CF93C7E06AEC71E08EE994E084
:103550000E945503C150C1F76AEC71E08EE994E016
:10356000CF910C942D03CF93C7E16AEC71E08EE903
:1035700094E00E945503C150C1F76AEC71E08EE9F6
:1035800094E0CF910C942D0380E00E94201368EE0C
:1035900073E080E090E00E94FB0381E00E94201332
:1035A00068EE73E080E090E00C94FB03CF93DF9330
:1035B00000D000D000D0CDB7DEB760E080E00E9440
:1035C000CC1262E672E082E995E00E94AB02CE0185
:1035D00001960E94C2068A818A3030F46EEA71E058
:1035E00082E995E00E9455036A8182E995E00E9494
:1035F00019136FE282E995E00E94A4028B818A3060
:1036000030F46EEA71E082E995E00E9455036B8127
:1036100082E995E00E9419136FE282E995E00E9429
:10362000A402498150E04053584F052E000C660B10
:10363000770B2AE082E995E00E94E40226960FB615
:10364000F894DEBF0FBECDBFDF91CF910895CF9329
:10365000DF9300D000D000D0CDB7DEB7CE01019609
:103660000E94C2068C818A3030F46EEA71E08EE9E5
:1036700094E00E9455036C818EE994E00E94191336
:1036800060EB71E08EE994E00E9455038D818A30F1
:1036900030F46EEA71E08EE994E00E9455036D818A
:1036A0008EE994E00E94191360EB71E08EE994E0DA
:1036B0000E9455038E818A3030F46EEA71E08EE903
:1036C00094E00E9455036E818EE994E00E940013FD
:1036D00026960FB6F894DEBF0FBECDBFDF91CF9117
:1036E0000895CF93DF9300D000D000D0CDB7DEB7E0
:1036F0000E9447176BE572E08EE994E00E94AB02EE
:10370000CE0101960E94C2068A818A3030F46EEAA8
:1037100071E08EE994E00E9455036A818EE994E09D
:103720000E9419136FE28EE994E00E94A4028B813B
:103730008A3030F46EEA71E08EE994E00E9455031D
:103740006B818EE994E00E9419136FE28EE994E098
:103750000E94A402498150E04053584F052E000CAE
:10376000660B770B2AE08EE994E00E94E40267EC96
:1037700071E08EE994E00E94CF020E9447172696DE
:103780000FB6F894DEBF0FBECDBFDF91CF91089585
:103790000E94F81260E082E00E94CC126091000169
:1037A000615089E0689FB001112462537E4F82E925
:1037B00095E00E94550361E086E00E94CC1262E52C
:1037C00072E082E995E00E94AB026CED75E080E06A
:1037D00090E00C94FB03CF93DF93CDB7DEB7CF58C7
:1037E000D1090FB6F894DEBF0FBECDBF789484B573
:1037F000826084BD84B5816084BD85B5826085BDED
:1038000085B5816085BD80916E00816080936E007A
:10381000109281008091810082608093810080916C
:10382000810081608093810080918000816080931D
:1038300080008091B10084608093B1008091B000DD
:1038400081608093B00080917A00846080937A00D8
:1038500080917A00826080937A0080917A00816002
:1038600080937A0080917A00806880937A00109229
:10387000C100E091AE04F091AF0482E08083E0915A
:10388000AA04F091AB041082E091AC04F091AD0475
:103890008FEC80831092B604E091B204F091B304EF
:1038A00086E08083E091B004F091B1048081806172
:1038B0008083E091B004F091B104808188608083BE
:1038C000E091B004F091B104808180688083E09140
:1038D000B004F091B10480818F7D80830E94BC157B
:1038E0000E94BC158091AC058F3F39F58091A605EB
:1038F00088608093A60582E08093AA051092AB05AC
:103900008BE39DE00197F1F740E06091960582E935
:1039100095E00E94E10440E06091980582E995E01D
:103920000E94E104609197056F3F09F4B2C040E046
:1039300082E995E00E94E104ACC00E94BC1510929F
:10394000AD050E94BC158091AD0580620E943612C3
:1039500080E00E948B048FEF0E948B040E944A1229
:103960008091AD0580620E94361281E00E948B0436
:103970008FEF0E948B040E944A1241E068E08DEABA
:1039800095E00E94090541E066E08DEA95E00E941D
:10399000090541E067E08DEA95E00E94090587E0AE
:1039A0000E94201360919705662329F041E08DEA7B
:1039B00095E00E94540541E0609196058DEA95E0FE
:1039C0000E94540541E0609198058DEA95E00E94BF
:1039D000540509E915E064E0F62EF00EF801619156
:1039E0008F0141E08DEA95E00E945405F012F6CF78
:1039F00001EA15E055E0E52EE00E40E0F8016081B7
:103A00008DEA95E00E945405F80121918F01203143
:103A1000E8F5283020F028504DE0F42E02C03CE0BC
:103A2000F32E8091AD058062C157DF4F2883CF58B8
:103A3000D0400E9436128F2D0E948B040E944A12A1
:103A40008091AD05806261E070E090E00E944012DC
:103A500086E895E00E94A816D82E8091AD05806278
:103A60000E9436128F2D0E948B0441E050E0C15716
:103A7000DF4F2881CF58D040CA0101C0880F2A9556
:103A8000EAF78D290E948B040E944A12E012B5CFFA
:103A90002DCF8091A60584FD21C063E082E995E0E9
:103AA0000E9476050BE416E4C8010197F1F763E084
:103AB00082E995E00E947605C8010197F1F763E07D
:103AC00082E995E00E94760583E592E00197F1F79F
:103AD00062E082E995E00E94760515C080620E944E
:103AE000C6128BE496E40197F1F78091A6058062F7
:103AF0000E94C61283E592E00197F1F78091A60536
:103B000080620E94C6128091A60580620E94C61241
:103B100084E08093A7058CE00E94C6120E94F812F0
:103B200082E08093A80586E00E94C6120E94F812E7
:103B3000809101010E94201360E082E00E94CC127B
:103B400063E171E082E995E00E94AB0261E088E008
:103B50000E94CC126CE071E082E995E00E94AB0219
:103B60000E94B31A63EF70E08EE994E00E94410373
:103B70000E94B31A88E60E94361260E086E895E05B
:103B80000E94F4160E944A1261E070E088E690E01C
:103B90000E94401286E895E00E94A81687FF03C0A5
:103BA0008CE691E08EC16AED70E08EE994E00E94AF
:103BB000AB028AE00E94A7121092480510924605B7
:103BC00010924305109242058AE0809341050E94BD
:103BD00035048B01809141050E94A71261E080911C
:103BE00041050E94AF03FFB6F89480910D02811148
:103BF00024C0EEE1F2E08491E2E3F2E09491E82F58
:103C0000F0E0EE0FFF1FE65FFD4FA591B491EC9140
:103C1000E92321F461E08AE00E94AF038AE00E9478
:103C2000A7128CB580618CBD8CB580648CBD8DE095
:103C30000E94A7128BE00E94A71280910D028F5F55
:103C400080930D02FFBE82E580933B0510923C05F8
:103C500080913B0590913C050E94AD178AE0F82EBB
:103C60008FEF0E94A317FA94F110FACF8DE395E03D
:103C70000E94330B20E030E0A90160E08DE395E085
:103C80000E946E0BF82E80934705CC24C3948C15AC
:103C900049F00E943504601B710B613D774050F381
:103CA00081E056C02AEA31E040E050E068E08DE370
:103CB00095E00E946E0B82FF03C0F092480510C091
:103CC000B4E0FB2E0E94AA1780934705FA94F110E6
:103CD000F9CF8A3A11F082E03BC082E08093480538
:103CE00080914805823021F0C12CD12C760105C08D
:103CF000C12CD12CE12CA0E4FA2E20E030E0A90167
:103D000067E38DE395E00E946E0BA701960169E2DF
:103D10008DE395E00E946E0B80934705882349F060
:103D20000E943504601B710B613D774030F388E0E1
:103D30000FC080914805823001F520E030E0A901F4
:103D40006AE38DE395E00E946E0B882341F086E0E4
:103D5000809342058DE395E00E94490BB0C00E941C
:103D6000AA17807C803C19F483E0809348050E9468
:103D7000AA170E94AA170E94AA178DE395E00E9435
:103D8000490B80E580933B0510923C0581E00E9441
:103D90008D14882329F080916C05882341F08FC011
:103DA00080E00E948D14882309F489C0F4CF8091AB
:103DB0006005803109F582E080936C0510927E05E4
:103DC00010927F0510928005109281058091610507
:103DD00090916205A0E0B0E0F5E0880F991FAA1F5E
:103DE000BB1FFA95D1F780937A0590937B05A0933A
:103DF0007C05B0937D051FC0803209F060C083E070
:103E000080936C0540916305509164056091650550
:103E10007091660540937E0550937F056093800501
:103E2000709381052AE735E089E495E00E94100946
:103E3000882309F444C089E495E090938305809336
:103E4000820581E080936B0510926D0510926E05DE
:103E500010926F0510927005109271051092720504
:103E600010927305109274051092750510927605E4
:103E70001092770510927805109279056CED75E037
:103E800080E090E00E94FB0364ED70E08EE994E036
:103E90000E94410341E068E771E0CE01885A9F4FDC
:103EA0000E945D1366EB70E08EE994E00E94AB0225
:103EB000E396EEADFFADE397309729F48BC085E82C
:103EC00091E00E94C3288581882309F483C07EEC99
:103ED000E72E71E0F72EE6E0DE2ECE01885A9F4FE6
:103EE0000E942F16892B09F466C01A8219821C823F
:103EF0001B821E821D8260E070E0CE0101960E944E
:103F00007D0229813A8181110DC02115310519F0F9
:103F1000C9010E94BE291A8219821E821D821C823A
:103F20001B8225C01E821D8269EC71E0C9010E94BE
:103F3000462B1DC08A30910509F18E8F1F8E0D8191
:103F40001E810F5F1F4FB801CE0101960E947D02B6
:103F5000882369F029813A818D819E81BE01625E4C
:103F60007F4F820F931F0E94462B1E830D83CE012D
:103F7000885A9F4F0E94611497FFDCCFE114F1042F
:103F8000B1F00D811E810115110511F4F7010EC06C
:103F90000830110510F008E010E069817A81A8016D
:103FA000C7010E944D2BF701E00FF11F108289819C
:103FB0009A810E94BE29DA94F9E0EF0EF11CD1102B
:103FC0008CCF6CED75E080E090E00E94FB0360EB2D
:103FD00070E01AC06EECE62E61E0F62E11E365E9A2
:103FE00071E0C7010E94462BF7011783F9E0EF0E3D
:103FF000F11C1F5F173399F76CED75E080E090E0DE
:104000000E94FB0365EA70E08EE994E00E944103A0
:10401000E3968EAD9FADE397009761F00E94680E26
:10402000E3968EAD9FADE3970E94BE29E3961FAE47
:104030001EAEE3972EEC31E046E050E280E090E0E7
:10404000F901E80FF91F60816D3009F45083019682
:1040500088309105A9F74150275F3F4F4111EECFBE
:1040600088E597E19093CD018093CC018DE0EAEB58
:10407000F1E0DE01A058BF4F01900D928A95E1F763
:10408000BB24B3944AE0842E58E2E52E51E0F52E8D
:104090006E012BE3C20ED11C8B2D682D0E94E128EE
:1040A000805DCA57DF4F8883C658D040905DC9579E
:1040B000DF4F9883C758D0401EAE1DAEFCAEEBAEAE
:1040C00021961FAE219719A218A2FF8EEE8E1BA279
:1040D000712C612CAC2C9D2C07E615E0272D362D7C
:1040E000E0E8F0E0EC0FFD1FE20FF31F80818F325C
:1040F00011F42F5F3F4FFE01ED58FF4F40E050E0BD
:10410000A0E8B0E0AC0FBD1FA20FB31F8C918F329F
:1041100051F0882341F04F5F5F4F2F5F3F4F8193F6
:104120004C30510569F7E3E7F0E0EC0FFD1FE40FB9
:10413000F51F1082E0E8F0E0EC0FFD1FE20FF31F27
:1041400080818F3211F42F5F3F4F722E632EE0E893
:10415000F0E0EC0FFD1FE20FF31F50801C821B826A
:10416000FA82E9821E8221E0AE014D585F4FB8010C
:10417000CE0101960E94740E882339F0CE0101967B
:104180000E94680E511009C023C035E0073613079E
:1041900041F1C8010E94680E24C021E0AE014D58D3
:1041A0005F4FB8018A2D992D0E94740E582E45E05C
:1041B0000736140709F45CC7C8010E94680E552031
:1041C00081F0902F812F0A2D192DA92E982E86CFA0
:1041D00055E00736150709F459C0C8010E94680E5A
:1041E00055C066E970E08EE994E00E94AB02BE0122
:1041F00060587F4F8EE994E00E94550361E970E0BA
:104200008EE994E00E94AB0243E1BE0160587F4F0B
:10421000CE0101960E945D138B819C819093B10524
:104220008093B0058D819E81AF81B8858093B20562
:104230009093B305A093B405B093B50589859A858D
:10424000AB85BC858093B6059093B705A093B80560
:10425000B093B9058DE0FE013D96AAEBB5E0019063
:104260000D928A95E1F78A8D9B8D9093C805809376
:10427000C7056CED75E080E090E00E94FB036BE801
:1042800070E08EE994E00E94410304C0B39484E698
:10429000B81202CFE091C705F091C805309719F028
:1042A0008581811103C08DE991E00BCE0E94711BC5
:1042B00061E770E08EEA95E00E94AB0282E00E9426
:1042C00040138F3F31F087E00E9440138F3F09F089
:1042D00048C668E670E08EEA95E00E9441036CED06
:1042E00075E080E090E00E94FB030E94F81280E0FD
:1042F0000E944013182F8093010181E00E94401317
:10430000809300011F3F41F48F3F31F487E0809399
:10431000010181E080930001809101010E9420133E
:1043200089E00E94401380931302823010F01092B3
:10433000130234E6232E312CE12CF12C1FE10E2D3B
:10434000F701EE56FA4F27852031C0F5283018F0D6
:10435000285093E101C092E18091AD058062C15780
:10436000DF4F2883CF58D040C257DF4F9883CE58B5
:10437000D0400E943612C257DF4F9881CE58D040AD
:10438000892F0E948B040E944A128091AD058062A1
:1043900061E070E090E00E94401286E895E00E94A3
:1043A000A8169927C157DF4F2881CF58D04002C0A7
:1043B000959587952A95E2F7817001C080E090E09D
:1043C00002C0880F991F0A95E2F7809590951823EF
:1043D0009FEFE91AF90AE5E0EE16F10409F0AFCF14
:1043E00080911E02811156C013FF28C00091010167
:1043F000073078F0F7E0F093010181E0809300014D
:1044000067E080E00E94E21561E081E00E94E21531
:1044100015C00F5F00930101F0900001FA94F09233
:104420000001602F80E00E94E2156F2D81E00E9464
:10443000E215802F0E9420130E94C81B12FF2AC081
:1044400000910101033088F492E0C92EC09201016D
:1044500026E0D22ED092000162E080E00E94E215B8
:1044600066E081E00E94E21515C001500093010151
:10447000F0900001F394F0920001602F80E00E9420
:10448000E2156F2D81E00E94E215802F0E9420131B
:104490000E94C81B10FFF3C1F0900001FA94C357AB
:1044A000DF4FF882CD58D040CE0101960E94C2065F
:1044B0008A818A3030F46EEA71E08EEA95E00E94DB
:1044C00055036A818EEA95E00E9419136FE28EEA25
:1044D00095E00E94A4028B818A3030F46EEA71E08C
:1044E0008EEA95E00E9455036B818EEA95E00E946A
:1044F00019136FE28EEA95E00E94A402498150E010
:104500004053584F052E000C660B770B2AE08EEABD
:1045100095E00E94E40262EB71E08EEA95E00E9471
:1045200055038C818A3030F46EEA71E08EEA95E0B2
:104530000E9455036C818EEA95E00E9419136AE38C
:104540008EEA95E00E94A4028D818A3030F46EEAF2
:1045500071E08EEA95E00E9455036D818EEA95E048
:104560000E9419136AE38EEA95E00E94A4028E81EC
:104570008A3030F46EEA71E08EEA95E00E945503CD
:104580006E818EEA95E00E9400130E94F81260E0AE
:1045900081E00E94CC1261EC71E082E995E00E941A
:1045A000AB0261E082E00E94CC1264EB71E082E930
:1045B00095E00E94AB0290911E0281E0891B8093DE
:1045C0001E02813009F054C080911D02811150C03B
:1045D000CE0101960E9446076093190270931A0259
:1045E00080931B0290931C02CE0101960E94460705
:1045F000609315027093160280931702909318022D
:10460000C357DF4FC880CD58D04029E0C29EB001CB
:10461000112462537E4F8EE994E00E942D030E9484
:10462000A21A64EA71E08EE994E00E94AB020E9453
:10463000271B6CED75E080E090E00E94FB0381E0B9
:104640000E9420130E94F81260E083E00E94CC12C6
:104650006EE971E082E995E00E94AB0261E085E0DD
:104660000E94CC1265E971E082E995E00E94AB02FC
:1046700080911E028111F7C080911D02813009F0E6
:10468000F2C0CE0101960E944607C0901902D09058
:104690001A02E0901B02F0901C029B01AC012C1945
:1046A0003D094E095F0969017A01CA01B9012CE38C
:1046B00030E040E050E00E9401294B015C01CA015A
:1046C000B9012CE330E040E050E00E9401292B01C9
:1046D0003C01C701B60120E13EE040E050E00E940D
:1046E0000129022FE22EC357DF4FC880CD58D0409A
:1046F00039E0C39EB001112462537E4F8EEA95E0EB
:104700000E94550362EB71E08EEA95E00E9455032A
:1047100089E0D82ED01630F06EEA71E08EEA95E08E
:104720000E945503602F8EEA95E00E94191360EBFA
:1047300071E08EEA95E00E9455032AE0421651048A
:104740006104710430F46EEA71E08EEA95E00E9433
:104750005503642D8EEA95E00E94191360EB71E019
:104760008EEA95E00E9455033AE083169104A10475
:10477000B10430F46EEA71E08EEA95E00E945503D0
:10478000682D8EEA95E00E94001365E871E08EE9DD
:1047900094E00E94AB020E94271B6CED75E080E064
:1047A00090E00E94FB03809101010E9420130E946F
:1047B000F81260E083E00E94CC126FE771E082E9BA
:1047C00095E00E94AB0261E085E00E94CC1266E7B2
:1047D00071E082E995E00E94AB020E94A21A66E6AF
:1047E00071E08EE994E00E94AB0249E04E1530F092
:1047F0006EEA71E08EE994E00E945503602F8EE925
:1048000094E00E94191360EB71E08EE994E00E943D
:1048100055035AE0451651046104710430F46EEA00
:1048200071E08EE994E00E945503642D8EE994E0D6
:104830000E94191360EB71E08EE994E00E94550329
:104840008AE088169104A104B10430F46EEA71E0A4
:104850008EE994E00E945503682D8EE994E00E9451
:1048600000130E94A21A80911E0280931D021092D2
:1048700014026CED75E080E090E00E94FB0314FDF3
:104880000E94C81B80911E02813009F09DC011FF5B
:104890009BC00E94F81209E160E080E00E94CC1207
:1048A0006DE571E082E995E00E94AB02CE010196D0
:1048B0000E94C206CE0101960E944607C0901902CE
:1048C000D0901A02E0901B02F0901C029B01AC01F8
:1048D0002C193D094E095F0969017A01CA01B90124
:1048E0002CE330E040E050E00E9401294B015C01E4
:1048F000CA01B9012CE330E040E050E00E940129F8
:104900002B013C01C701B60120E13EE040E050E050
:104910000E9401292A3080F46EEA71E082E995E074
:10492000C157DF4F2883CF58D0400E945503C1574D
:10493000DF4F2881CF58D040622F82E995E00E9456
:10494000191360EB71E082E995E00E9455033AE0AB
:10495000431651046104710430F46EEA71E082E997
:1049600095E00E945503642D82E995E00E94191399
:1049700060EB71E082E995E00E9455034AE08416FD
:104980009104A104B10430F46EEA71E082E995E08B
:104990000E945503682D82E995E00E94191361E099
:1049A00081E00E94CC126DE471E082E995E00E9402
:1049B000AB0265E070E080E090E00E94FB030150F4
:1049C00009F06ACF0E94F81280911E02813009F02E
:1049D0003EC1CE0101960E94C206CE0101960E9400
:1049E00046078090190290901A02A0901B02B09086
:1049F0001C02DC01CB0188199909AA09BB09803482
:104A00009E47A540B10508F422C1CE0101960E943F
:104A100046076B017C01C818D908EA08FB08C701E2
:104A2000B6012CE330E040E050E00E9401294B0148
:104A30005C01CA01B9012CE330E040E050E00E9483
:104A400001292B013C01C701B60120E13EE040E015
:104A500050E00E940129022FD22E8A818A3030F440
:104A60006EEA71E08EEA95E00E9455036A818EEA53
:104A700095E00E9419136FE28EEA95E00E94A4026D
:104A80008B818A3030F46EEA71E08EEA95E00E9404
:104A900055036B818EEA95E00E9419136FE28EEA4E
:104AA00095E00E94A402498150E04053584F052EE2
:104AB000000C660B770B2AE08EEA95E00E94E40278
:104AC00062EB71E08EEA95E00E9455038C818A309A
:104AD00030F46EEA71E08EEA95E00E9455036C8135
:104AE0008EEA95E00E9419136AE38EEA95E00E942F
:104AF000A4028D818A3030F46EEA71E08EEA95E08E
:104B00000E9455036D818EEA95E00E9419136AE3B5
:104B10008EEA95E00E94A4028E818A3030F46EEA1B
:104B200071E08EEA95E00E9455036E818EEA95E071
:104B30000E94191362EB71E08EEA95E00E94550322
:104B4000E0900001EA94E9E0EE9EC00111249C018E
:104B500022533E4F7901B9018EEA95E00E942D0360
:104B600067E471E08EEA95E00E94AB0262EB71E0CF
:104B70008EEA95E00E9455036EE371E08EEA95E0BF
:104B80000E94AB0262EB71E08EEA95E00E94550351
:104B900039E03D1530F06EEA71E08EEA95E00E9452
:104BA0005503602F8EEA95E00E94191360EB71E0C7
:104BB0008EEA95E00E9455034AE0441651046104D0
:104BC000710430F46EEA71E08EEA95E00E945503BC
:104BD000642D8EEA95E00E94191360EB71E08EEA75
:104BE00095E00E9455035AE085169104A104B10492
:104BF00030F46EEA71E08EEA95E00E945503682D6C
:104C00008EEA95E00E940013809101010E9420131A
:104C10000E94F81260E082E00E94CC1261E371E031
:104C200082E995E00E94AB0261E084E00E94CC1230
:104C3000B70182E995E00E9455036CED75E080E0D4
:104C400090E00E94FB0310921E0210921D028091C0
:104C50001E0281110EC011FF0CC09091130281E061
:104C6000891B8093130264E670E080E090E00E946C
:104C7000FB0380911302813009F04DC00E94D61AC7
:104C800061E080E00E94CC126BE271E082E995E085
:104C90000E94AB02CE0101960E94C2068C818A302E
:104CA00030F46EEA71E082E995E00E9455036C8170
:104CB00082E995E00E94191360EB71E082E995E0CA
:104CC0000E9455038D818A3030F46EEA71E082E9EA
:104CD00095E00E9455036D8182E995E00E941913C9
:104CE00060EB71E082E995E00E9455038E818A3085
:104CF00030F46EEA71E082E995E00E9455036E811E
:104D000082E995E00E94191364EB71E082E995E075
:104D10000E94550365C00E94D61A61E080E00E949F
:104D2000CC1265E271E082E995E00E94AB02CE010F
:104D300001960E94C2066C816D3060F0663130F4DD
:104D40006EEA71E082E995E00E9455038C8190E063
:104D50000C9704C0611105C08CE090E00E94FB1527
:104D60000DC06A3038F46EEA71E082E995E00E9485
:104D700055036C8182E995E00E9419136AE382E988
:104D800095E00E94A4028D818A3030F46EEA71E0D1
:104D900082E995E00E9455036D8182E995E00E94C9
:104DA00019136AE382E995E00E94A4028E818A3099
:104DB00030F46EEA71E082E995E00E9455036E815D
:104DC00082E995E00E9419138C818C3018F061E221
:104DD00071E002C06DE171E082E995E00E94AB02F2
:104DE00080911E02811119C0CE0101960E94C20657
:104DF0008C8181110BC08D81811108C00E94350406
:104E000061367A4E8105910508F023C18C818111AC
:104E100004C08D81813009F428C180911E02813047
:104E2000E9F5CE0101960E94C206CE0101960E94CC
:104E30004607009115021091160220911702309139
:104E400018026B017C01C01AD10AE20AF30A44E895
:104E5000C41643E0D406E104F10400F160931502A6
:104E60007093160280931702909318020E94C41A3E
:104E70000E94C41A0E94C41A6CED75E080E090E0B4
:104E80000E94FB0310E080911402811720F00E9421
:104E9000C41A1F5FF8CF8F5F809314020E943504FD
:104EA00000910E0210910F02209110023091110218
:104EB000DC01CB01801B910BA20BB30B8838934113
:104EC000A105B10508F44AC00E94350460930E02A2
:104ED00070930F0280931002909311028EEA95E076
:104EE0000E942317CE0101960E94C2066A8182E0C9
:104EF0000E94E2156B8183E00E94E215498150E037
:104F00004053584FCA01B1010E94ED2884E0C257B6
:104F1000DF4F4883CE58D040C157DF4F5883CF581A
:104F2000D0400E94E215C257DF4F4881CE58D04092
:104F300060E3640F85E00E94E2156C8186E00E94C8
:104F4000E2156D8187E00E94E2156E8188E00E9483
:104F5000E2156091130289E00E94E2150E944C0262
:104F6000EBC982E00E944013682F8EEA95E00E9410
:104F7000191368EB71E08EEA95E00E94550383E017
:104F80000E944013682F8EEA95E00E94191368EB87
:104F900071E08EEA95E00E94550384E00E94401380
:104FA000682F8EEA95E00E94191385E00E94401355
:104FB000682F8EEA95E00E9419136DE670E08EEA84
:104FC00095E00E94AB0286E00E9440138A3030F4E4
:104FD0006EEA71E08EEA95E00E94550386E00E9439
:104FE0004013682F8EEA95E00E94191360EB71E080
:104FF0008EEA95E00E94550387E00E9440138A30B4
:1050000030F46EEA71E08EEA95E00E94550387E085
:105010000E944013682F8EEA95E00E94191360EBFE
:1050200071E08EEA95E00E94550388E00E944013EB
:105030008A3030F46EEA71E08EEA95E00E94550302
:1050400088E00E944013682F8EEA95E00E940013CA
:1050500046C9809112028111D9CE0E94711B8091A4
:1050600012028F5F80931202D1CE10921202D5CE1F
:10507000882309F4B6C88E01025E1F4FA2C8EEE96C
:10508000F4E01382128288EE93E0A0E0B0E0848323
:105090009583A683B78328E131E03183208325EC13
:1050A00030E03587248724EC30E03787268720ECF2
:1050B00030E0318B208B21EC30E0338B228B22ECE3
:1050C00030E0358B248B26EC30E0378B268B118E2D
:1050D000128E138E148EEBE3F5E020E5208311820F
:1050E000EDE3F5E0158216821186138642E050E06A
:1050F00060E070E0448755876687778713A215A61E
:1051000014A628E231E033A722A717A6E6E8F5E0C7
:105110001382128284839583A683B78320E331E0D0
:1051200031832083EEEAF5E0138212828483958333
:10513000A683B78388E491E091838083128E118ED9
:105140001486E2E9F5E01382128280E491E0918313
:105150008083128E148A8FE084838EE085838DE0B5
:1051600086838CE087838BE080878AE0818789E073
:105170008287178681E0808B82E0818B83E0828B3F
:1051800084E0838B0895EC010E94F81264E472E0DD
:1051900082E995E00E94AB0261E080E00E94CC12BF
:1051A000BE0182E995E00E9455036CE372E08EE94E
:1051B00094E00E94AB02BE018EE994E00E942D03B0
:1051C000FFCF991B79E004C0991F961708F0961B32
:1051D000881F7A95C9F780950895AA1BBB1B51E1DA
:1051E00007C0AA1FBB1FA617B70710F0A61BB70B57
:1051F000881F991F5A95A9F780959095BC01CD01FC
:105200000895A1E21A2EAA1BBB1BFD010DC0AA1F07
:10521000BB1FEE1FFF1FA217B307E407F50720F01F
:10522000A21BB30BE40BF50B661F771F881F991F9A
:105230001A9469F760957095809590959B01AC01E3
:10524000BD01CF010895EE0FFF1F0590F491E02DF1
:105250000994CF93DF938230910510F482E090E0BF
:10526000E0911306F091140620E030E0C0E0D0E0B9
:10527000309711F14081518148175907C0F0481704
:10528000590761F482819381209719F09B838A8367
:105290002BC0909314068093130626C02115310568
:1052A00019F04217530718F49A01BE01DF01EF010C
:1052B0000280F381E02DDCCF2115310509F1281B97
:1052C000390B2430310590F412968D919C911397EF
:1052D0006115710521F0FB019383828304C09093D3
:1052E000140680931306FD01329644C0FD01E20FBF
:1052F000F31F81939193225031092D933C933AC02F
:105300002091110630911206232B41F420910801BF
:105310003091090130931206209311062091060165
:10532000309107012115310541F42DB73EB7409169
:105330000A0150910B01241B350BE0911106F091ED
:105340001206E217F307A0F42E1B3F0B28173907AC
:1053500078F0AC014E5F5F4F2417350748F04E0FD1
:105360005F1F50931206409311068193919302C0E0
:10537000E0E0F0E0CF01DF91CF9108950F931F930C
:10538000CF93DF93009709F48CC0FC01329713820E
:10539000128200911306109114060115110581F473
:1053A00020813181820F931F2091110630911206C6
:1053B0002817390779F5F0931206E093110671C0AA
:1053C000D80140E050E0AE17BF0750F412962D917F
:1053D0003C911397AD012115310509F1D901F3CFA6
:1053E0009D01DA013383228360817181860F971FCB
:1053F0008217930769F4EC0128813981260F371F42
:105400002E5F3F4F318320838A819B8193838283E8
:10541000452B29F4F0931406E093130642C013962B
:10542000FC93EE931297ED01499159919E01240F3F
:10543000351FE217F30771F480819181840F951F66
:10544000029611969C938E938281938113969C93DE
:105450008E931297E0E0F0E0D80112968D919C9126
:105460001397009719F0F8018C01F6CF8D919C915C
:1054700098012E5F3F4F820F931F209111063091AC
:1054800012062817390769F4309729F41092140688
:105490001092130602C01382128210931206009318
:1054A0001106DF91CF911F910F910895A0E0B0E018
:1054B000ECE5FAE20C946B2BEC01009721F4CB01A4
:1054C0000E942929B8C0FC01E60FF71F9C01225059
:1054D0003109E217F30708F4ACC0D9010D911C9112
:1054E000119706171707B0F00530110508F49FC093
:1054F000C80104978617970708F499C0025011094C
:10550000061B170B019311936D937C93CF010E949F
:10551000BE298DC05B01A01AB10A4C01800E911EFC
:10552000A0911306B091140640E050E0E12CF12C5C
:10553000109709F44AC0A815B905D1F56D907C9073
:105540001197630182E0C80ED11CCA14DB0480F1FC
:10555000A3014A195B096A0182E0C80ED11C1296A8
:10556000BC9012971396AC91B5E0CB16D10440F0E5
:10557000B282A38351834083D9016D937C930AC087
:105580000E5F1F4FC301800F911FF901918380832C
:10559000EB2DFA2FE114F10431F0D7011396FC93AF
:1055A000EE93129744C0F0931406E09313063FC0A5
:1055B0008D919C9111974817590708F4AC017D0112
:1055C00012960D90BC91A02DB3CF809111069091B1
:1055D000120688159905E1F446175707C8F480911B
:1055E000060190910701009741F48DB79EB7409155
:1055F0000A0150910B01841B950BE817F907C8F4B9
:10560000F0931206E0931106F901718360830FC0D5
:10561000CB010E9429297C01009759F0A801BE0105
:105620000E94322BCE010E94BE29C70104C0CE01C8
:1056300002C080E090E0CDB7DEB7EEE00C94872B9F
:1056400081E090E0F8940C94AD2BFB01DC0104C0E8
:105650008D910190801921F441505040C8F7881B6A
:10566000990B0895FB01DC0102C001900D9241509D
:105670005040D8F70895FC018191861721F08823C6
:10568000D9F7992708953197CF010895FB01DC01DF
:1056900001900D920020E1F70895FB01DC014150DB
:1056A000504048F001900D920020C9F701C01D92B2
:1056B00041505040E0F708950E949E2BA59F900D09
:1056C000B49F900DA49F800D911D112408952F92D9
:1056D0003F924F925F926F927F928F929F92AF9282
:1056E000BF92CF92DF92EF92FF920F931F93CF93CF
:1056F000DF93CDB7DEB7CA1BDB0B0FB6F894DEBF66
:105700000FBECDBF09942A88398848885F846E848B
:105710007D848C849B84AA84B984C884DF80EE80D5
:10572000FD800C811B81AA81B981CE0FD11D0FB6DE
:10573000F894DEBF0FBECDBFED010895A29FB0016A
:10574000B39FC001A39F700D811D1124911DB29FB5
:0E575000700D811D1124911D0895F894FFCF56
:10575E000107FFFFFFFF000015068000000040005C
:10576E001400540000000000E3015F01AC018A0147
:10577E009E012A0200000000E1115F0100000000FE
:10578E00F416C416BC16A81699169816000000003A
:10579E00BC065F010000000050162B172F16401993
:1057AE004A192317000000007B025F017B027B0277
:1057BE007B027B02000000007B025F0152544320FB
:1057CE004E6F74205365740070726F6A65637473E4
:1057DE002E747874004361726420526561642045B2
:1057EE0072726F720050726F6A6563740046696CF4
:1057FE0065205772697465204572726F72003000B1
:10580E003A002C00204852002F005245434F52447C
:0C581E0030302E435356000D0A002D00C0
:107E0000112484B714BE81FFF0D085E080938100F7
:107E100082E08093C00088E18093C10086E0809377
:107E2000C20080E18093C4008EE0C9D0259A86E02C
:107E300020E33CEF91E0309385002093840096BBD3
:107E4000B09BFECF1D9AA8958150A9F7CC24DD24C4
:107E500088248394B5E0AB2EA1E19A2EF3E0BF2EE7
:107E6000A2D0813461F49FD0082FAFD0023811F036
:107E7000013811F484E001C083E08DD089C08234E0
:107E800011F484E103C0853419F485E0A6D080C0E4
:107E9000853579F488D0E82EFF2485D0082F10E0AE
:107EA000102F00270E291F29000F111F8ED06801E7
:107EB0006FC0863521F484E090D080E0DECF843638
:107EC00009F040C070D06FD0082F6DD080E0C81688
:107ED00080E7D80618F4F601B7BEE895C0E0D1E017
:107EE00062D089930C17E1F7F0E0CF16F0E7DF06D8
:107EF00018F0F601B7BEE89568D007B600FCFDCFD4
:107F0000A601A0E0B1E02C9130E011968C91119780
:107F100090E0982F8827822B932B1296FA010C0160
:107F200087BEE89511244E5F5F4FF1E0A038BF0790
:107F300051F7F601A7BEE89507B600FCFDCF97BE46
:107F4000E89526C08437B1F42ED02DD0F82E2BD052
:107F50003CD0F601EF2C8F010F5F1F4F84911BD097
:107F6000EA94F801C1F70894C11CD11CFA94CF0C13
:107F7000D11C0EC0853739F428D08EE10CD085E9AC
:107F80000AD08FE07ACF813511F488E018D01DD067
:107F900080E101D065CF982F8091C00085FFFCCF94
:107FA0009093C60008958091C00087FFFCCF809118
:107FB000C00084FD01C0A8958091C6000895E0E648
:107FC000F0E098E1908380830895EDDF803219F02E
:107FD00088E0F5DFFFCF84E1DECF1F93182FE3DFCA
:107FE0001150E9F7F2DF1F91089580E0E8DFEE27F6
:047FF000FF270994CA
:027FFE00040479
:0400000300007E007B
:00000001FF
