:100000000C942F010C9457010C9457010C94570138
:100010000C9457010C9457010C9457010C94570100
:100020000C9457010C9457010C9457010C945701F0
:100030000C9457010C9457010C9457010C945701E0
:100040000C943B040C9457010C9477030C945103CB
:100050000C9457010C9457010C9457010C945701C0
:100060000C946E190C9457014E6F6E650020402061
:10007000004C6173742068656172746265617420FC
:1000800064657465637465643A2000446F6E652E20
:10009000002E2E2E20004372656174696E67206603
:1000A000696C652000446F6E652E0052656164695D
:1000B0006E672070726F6A656374732E7478742033
:1000C00066696C652E2E2E2000446F6E652E0053DF
:1000D00044206361726420696E697469616C697A35
:1000E000696E672E2E2E200074696D65436C6F63F8
:1000F0006B2076322E302E392D616C70686100765F
:10010000322E302E39610074696D65436C6F636BFC
:100110000020414D0020504D0054696D6520005471
:10012000696D65200054696D6572204D6178656464
:10013000210068683A6D6D3A73730054696D657299
:100140000054696D6572202068683A6D6D3A73736A
:1001500000456C61707365642000456C6170736567
:10016000642054696D65723A200053746F70706535
:1001700064210054696D65720054696D6572205385
:10018000746F707065643A200053746172746564B2
:10019000210054696D65720054696D657220537455
:1001A00061727465643A20006D65646961206465FC
:1001B000766963650044617461206C6F676765648C
:1001C00020746F001F1C1F1E1F1E1F1F1E1F1E1FBF
:1001D0000000000800020100000304070000000006
:1001E000000000007C3C3E5E2B3D3F2F5B5D3B2CC6
:1001F0002A225C0000000000250028002B000000DF
:100200000000240027002A00040404040404040459
:1002100002020202020203030303030301020408B1
:100220001020408001020408102001020408102060
:100230004572726F723A200053797374656D204570
:1002400072726F72210053656C656374656400445B
:100250006174653A2000446174652000CE27112442
:100260001FBECFEFD8E0DEBFCDBF11E0A0E0B1E010
:10027000ECE7F6E502C005900D92AC3CB107D9F76A
:1002800026E0ACECB1E001C01D92A031B207E1F76D
:1002900011E0CFE2D1E004C02197FE010E94B22814
:1002A000CE32D107C9F70E94D31B0C943C2B0C947F
:1002B0000000CF92DF92EF92FF920F931F93CF93A4
:1002C000DF936C017A018B01C0E0D0E0CE15DF0531
:1002D00089F0D8016D918D01D601ED91FC910190CD
:1002E000F081E02DC6010995892B11F47E0102C031
:1002F0002196ECCFC701DF91CF911F910F91FF9015
:10030000EF90DF90CF900895FC01918D828D98172A
:1003100061F0828DDF01A80FB11D5D968C91928DE9
:100320009F5F9F73928F90E008958FEF9FEF0895E6
:10033000FC01918D828D981731F0828DE80FF11DAF
:10034000858D90E008958FEF9FEF0895FC01918DCA
:10035000228D892F90E0805C9F4F821B91098F73C3
:100360009927089589E994E00E94A60121E0892B4C
:1003700009F420E0822F0895FC01848DDF01A80F8D
:10038000B11DA35ABF4F2C91848D90E001968F73BD
:100390009927848FA689B7892C93A089B1898C91DC
:1003A00080648C93938D848D981306C00288F389A2
:1003B000E02D80818F7D80830895EF92FF920F93CF
:1003C0001F93CF93DF93EC0181E0888F9B8D8C8D01
:1003D000981305C0E889F989808185FD24C0F62E2F
:1003E0000B8D10E00F5F1F4F0F731127E02E8C8DC8
:1003F000E8120CC00FB607FCFACFE889F9898081B2
:1004000085FFF5CFCE010E94BC01F1CF8B8DFE019F
:10041000E80FF11DE35AFF4FF0820B8FEA89FB8949
:100420008081806207C0EE89FF896083E889F9894D
:1004300080818064808381E090E0DF91CF911F9183
:100440000F91FF90EF900895CF93DF93EC01888D8B
:100450008823C9F0EA89FB89808185FD05C0A889C8
:10046000B9898C9186FD0FC00FB607FCF5CF80814E
:1004700085FFF2CFA889B9898C9185FFEDCFCE0198
:100480000E94BC01E7CFDF91CF91089580E090E01A
:10049000892B29F00E94B20181110C94000008956B
:1004A0003FB7F8948091240290912502A0912602F2
:1004B000B091270226B5A89B05C02F3F19F00196E1
:1004C000A11DB11D3FBFBA2FA92F982F8827820FDA
:1004D000911DA11DB11DBC01CD0142E0660F771F2A
:1004E000881F991F4A95D1F708950E94AF2A0F934C
:1004F0001F93CF93DF93EC0188819981009729F0B6
:100500002A813B812617370788F48B016F5F7F4F65
:100510000E94E529009761F0998388831B830A83F1
:100520002C813D81232B11F4FC01108281E001C05C
:1005300080E0DF91CF911F910F910895DC01ED9143
:10054000FC910190F081E02D0994EF92FF920F93BE
:100550001F93CF93DF938C017B01C0E0D0E0F701C4
:10056000EC0FFD1F6491662361F0D801ED91FC91C1
:100570000190F081E02DC8010995892B11F0219699
:10058000EECFCE01DF91CF911F910F91FF90EF90B1
:1005900008956115710579F0FB0101900020E9F7DC
:1005A0003197AF01461B570BDC01ED91FC910280A6
:1005B000F381E02D099480E090E008954F925F92DE
:1005C0006F927F92EF92FF920F931F93CF93DF93DF
:1005D000CDB7DEB7A1970FB6F894DEBF0FBECDBF83
:1005E0007C01FA01CB0119A2223008F42AE08E0125
:1005F0000F5D1F4F422E512C612C712CBF01A301A6
:1006000092010E949028F901CA01015011096A3033
:1006100014F4605D01C0695CD8016C93232B242B1A
:10062000252B61F7B801C7010E94C902A1960FB638
:10063000F894DEBF0FBECDBFDF91CF911F910F9118
:10064000FF90EF907F906F905F904F9008950F9381
:100650001F93CF93DF93EC010E94C9028C0167ECDA
:1006600071E0CE010E94C902800F911FDF91CF91EE
:100670001F910F9108950F931F93CF93DF93EC0178
:100680000E94A5028C0167EC71E0CE010E94C902B4
:10069000800F911FDF91CF911F910F9108950C94BE
:1006A000C9021F920F920FB60F9211242F933F93FE
:1006B0004F935F936F937F938F939F93AF93BF936A
:1006C000EF93FF9389E994E00E94BC01FF91EF91C1
:1006D000BF91AF919F918F917F916F915F914F915A
:1006E0003F912F910F900FBE0F901F9018951F9262
:1006F0000F920FB60F9211242F938F939F93EF9326
:10070000FF93E091A904F091AA048081E091AF04E5
:10071000F091B00482FD12C090818091B2048F5F8D
:100720008F732091B304821751F0E091B204F0E08E
:10073000E756FB4F958F8093B20401C08081FF91F3
:10074000EF919F918F912F910F900FBE0F901F905F
:10075000189590E0FC01E053FE4F3491FC01E45EFB
:10076000FD4F2491FC01E85FFD4FE491EE2309F475
:100770003BC0332339F1333091F038F43130A9F0F4
:10078000323001F584B58F7D12C0373091F03830AA
:10079000A1F03430B9F4809180008F7D03C0809146
:1007A00080008F77809380000DC084B58F7784BDE3
:1007B00009C08091B0008F7703C08091B0008F7D19
:1007C0008093B000F0E0EE0FFF1FEC50FE4FA591BC
:1007D000B4918FB7F894EC91611103C020952E234A
:1007E00001C02E2B2C938FBF08958F929F92AF92B2
:1007F000BF92CF92DF92EF92FF926B017C010E9439
:1008000050024B015C01C114D104E104F104F1F088
:100810000E945002DC01CB0188199909AA09BB0981
:10082000883E9340A105B10570F321E0C21AD108BA
:10083000E108F10888EE880E83E0981EA11CB11C27
:10084000C114D104E104F10419F7DDCFFF90EF905A
:10085000DF90CF90BF90AF909F908F9008952FB76B
:10086000F89460912002709121028091220290916F
:1008700023022FBF08951F920F920FB60F921124DB
:100880002F933F938F939F93AF93BF9380912002B9
:1008900090912102A0912202B091230230911F0277
:1008A00023E0230F2D3720F40196A11DB11D05C0B3
:1008B00026E8230F0296A11DB11D20931F028093ED
:1008C000200290932102A0932202B09323028091F0
:1008D000240290912502A0912602B0912702019650
:1008E000A11DB11D8093240290932502A09326029E
:1008F000B0932702BF91AF919F918F913F912F911C
:100900000F900FBE0F901F901895682F81E895E00B
:100910000C94EE16EF92FF920F931F93CF93DF93F9
:1009200000D0CDB7DEB77C01162F683020F018500C
:1009300095E103E102C094E102E1F7018081806268
:100940004A8399830E9430129981892F0E948504DD
:100950000E944412F7019081892F806261E070E06B
:1009600090E00E943A1281E895E00E94A2164A8126
:1009700021E030E001C0220F1A95EAF7413019F466
:10098000122F182B03C02095122F1823F7018081F6
:1009900080620E943012802F0E948504812F0E9465
:1009A00085040F900F90DF91CF911F910F91FF90D1
:1009B000EF900C944412FC01962F828D8F3F31F002
:1009C000603140F4CF014B960C948A04642F892F38
:1009D0000C94A9030895CF93DF93EC0140E06E815E
:1009E0000E94DB0441E06E81CE010E94DB0440E006
:1009F0006E81CE010E94DB048BE891E00197F1F754
:100A0000DF91CF910895EF92FF920F931F93CF93B1
:100A1000DF931F92CDB7DEB77C01162F683018F038
:100A2000185001E001C000E0F70180818062498335
:100A30000E943012802F0E9485040E944412F70108
:100A40008081806261E070E090E00E943A1281E86B
:100A500095E00E94A216498121E030E001C0220FFA
:100A60001A95EAF7411103C0122F182B03C02095E5
:100A7000122F1823F701808180620E943012802F8C
:100A80000E948504812F0E9485040F90DF91CF91F1
:100A90001F910F91FF90EF900C944412603110F46D
:100AA0000C9403050895CF93DF9300D0CDB7DEB744
:100AB000FC018081806269837A830E94301282E126
:100AC0000E9485046981862F0E9485047A81872F80
:100AD0000E9485040F900F90DF91CF910C944412E7
:100AE0008F929F92AF92BF92CF92DF92EF92FF923E
:100AF0000F931F93CF93DF93EC018A8D8E01095FD3
:100B00001F4FC62ED12C8F3F09F483C07E018BE18D
:100B1000E80EF11C8B8D80620E94301282E10E94EF
:100B200085040E9444128B8D806262E070E090E048
:100B30000E943A1281E895E00E94A216B82E81E840
:100B400095E00E94A216982F88279C012B29F80176
:100B5000A0E0B0E061E070E0B19001E010E0CB0116
:100B60000B2C02C0880F991F0A94E2F7809590958C
:100B700028233923A6010A2E02C0559547950A94C9
:100B8000E2F74170552702C0440F551FBA94E2F7AF
:100B9000242B352B1196A430B105F1F668010E8097
:100BA00002C0CC0CDD1C0A94E2F7C094D094C2229F
:100BB000D322B601C7010E945305B8010E8002C0BE
:100BC000660F771F0A94E2F7C62AD72AB601C70133
:100BD0000E9453050E8002C0000F111F0A94E2F715
:100BE00000951095B60160237123C7010E9453053B
:100BF0008BE891E00197F1F7DF91CF911F910F9171
:100C0000FF90EF90DF90CF90BF90AF909F908F902C
:100C10000895E12CF12C4E01EBE18E0E911C580150
:100C2000F80180819A8D9F3F31F041E0682FC40127
:100C30000E944E0502C00E94A1120F5F1F4FA60125
:100C40000E2C02C0559547950A94E2F74170F501C4
:100C50006081CE010E94DB04FFEFEF1AFF0A84E0FF
:100C6000E816F104E1F6CE01DF91CF911F910F91CB
:100C7000FF90EF90DF90CF90BF90AF909F908F90BC
:100C80000C94EB048F929F92AF92BF92CF92DF921F
:100C9000EF92FF920F931F93CF93DF93EC01F62E09
:100CA0006C810E94DB046D816F3F21F040E0CE013A
:100CB0000E94DB048C890F2D10E084FF3EC06E0182
:100CC00087E0C80ED11CE12CF12C4E01EBE18E0E19
:100CD000911C5601F60180819A8D9F3F31F041E0D1
:100CE000682FC4010E944E0502C00E94A112FFEFAE
:100CF000CF1ADF0AA8010E2C02C0559547950A9419
:100D0000E2F74170F5016081CE010E94DB04FFEF44
:100D1000EF1AFF0A88E0E816F104D9F6CE01DF9158
:100D2000CF911F910F91FF90EF90DF90CF90BF90E8
:100D3000AF909F908F900C94EB04B80184E0759570
:100D400067958A95E1F7CE010E9470056F2DCE015F
:100D5000DF91CF911F910F91FF90EF90DF90CF9097
:100D6000BF90AF909F908F900C94700541E00E94CF
:100D7000420681E090E00895CF92DF92EF92FF92D9
:100D80000F931F93CF93DF93EC0188E60E943012FC
:100D900060E081E895E00E94EE160E94441267E050
:100DA00070E088E690E00E943A1281E895E00E94A7
:100DB000A2168F77982F92959F701AEF082F919F08
:100DC000000D112481E895E00E94A2169C013327B2
:100DD00094E0359527959A95E1F7F82E129FF00C3F
:100DE000112481E895E00E94A2169C01332744E07B
:100DF000359527954A95E1F7E82E129FE00C1124CE
:100E000081E895E00E94A21681E895E00E94A21672
:100E10009C01332754E0359527955A95E1F7D82E54
:100E2000129FD00C112481E895E00E94A2169C012B
:100E3000332764E0359527956A95E1F7C82E129F10
:100E4000C00C112481E895E00E94A2169C01332772
:100E500074E0359527957A95E1F7129F800D11245E
:100E60008883C982DA82EB82FC820D83CE01DF9116
:100E7000CF911F910F91FF90EF90DF90CF90089549
:100E8000EF92FF920F931F93CF93DF93EC01398181
:100E90008881682F70E04A8150E0E4ECF1E091E055
:100EA0009E1B292F2E0F231728F42491420F511D2A
:100EB0003196F7CF333020F0837011F44F5F5F4FDE
:100EC0008DE691E0689F9001699F300D789F300D0D
:100ED0001124215031096D5F7F4F76956795769586
:100EE0006795260F371F240F351FA8E1B0E00E9439
:100EF0002D2B2B817B018C01E20EF11C011D111D9C
:100F0000A8019701ACE3B0E00E94EB2A2C817B01A1
:100F10008C01E20EF11C011D111DA80197010E9418
:100F2000EB2A2D81620F711D811D911DDF91CF91E3
:100F30001F910F91FF90EF9008958F929F92AF9223
:100F4000BF92EF92FF920F931F93CF934B015C01DF
:100F5000C42F8091020190910301A0910401B091EE
:100F6000050188159905AA05BB0501F10E94C90C68
:100F7000811102C080E020C08AE2E82E82E0F82ED3
:100F800000E012E020E030E0B501A40180912A04E5
:100F900090912B040E94CA0B882361F38092020176
:100FA00090920301A0920401B092050180911A026F
:100FB000C82BC0931A0281E0CF911F910F91FF902F
:100FC000EF90BF90AF909F908F9008954F925F9257
:100FD0006F927F928F929F92AF92BF92CF92DF9249
:100FE000EF92FF920F931F93CF93DF93EC016A016F
:100FF0007B0128013901423051056105710510F46A
:1010000080E073C089859A85AB85BC850196A11D5A
:10101000B11D84179507A607B70790F38B889C88A6
:10102000AD88BE888F89803129F4BB27AF2D9E2DD6
:101030008D2D09C0DB01CA0147E0B695A7959795AC
:1010400087954A95D1F7880E991EAA1EBB1E8091DE
:10105000020190910301A0910401B091050188164D
:101060009906AA06BB0679F48F898031A1F4DD24A4
:10107000EE24FF24C601880F991FFC01E65DFD4F99
:101080005182408219C040E0C501B4010E949D0711
:101090008111EACFB5CFE894C7F8DD24EE24FF2410
:1010A000C601880F991F880F991FFC01E65DFD4F4F
:1010B000408251826282738280911A0281608093A1
:1010C0001A028A89823080F08D819E81AF81B88535
:1010D000880E991EAA1EBB1E80921B0290921C02B3
:1010E000A0921D02B0921E0281E0DF91CF911F916C
:1010F0000F91FF90EF90DF90CF90BF90AF909F90B7
:101100008F907F906F905F904F9008958F929F92F5
:10111000AF92BF92CF92DF92EF92FF920F931F9305
:10112000CF93DF93FC0181859285A385B4850196D9
:10113000A11DB11D84179507A607B70710F480E01D
:101140005CC083899489A589B689C789C03129F48F
:10115000852E962EA72EBB2409C04A015B01C7E04D
:10116000B694A79497948794CA95D1F7E9016A0138
:101170007B018F01BC01CD01680D791D8A1D9B1D6E
:101180008090020190900301A0900401B0900501AD
:10119000681579058A059B0599F4F80187898031DE
:1011A000A9F4B701A601552766277727440F551FD5
:1011B000FA01E65DFD4F80819181A0E0B0E018C0AA
:1011C00040E00E949D078111E8CFB9CFB701A60189
:1011D0004F77552766277727440F551F440F551F14
:1011E000FA01E65DFD4F80819181A281B381BF70DC
:1011F00088839983AA83BB8381E0DF91CF911F917C
:101200000F91FF90EF90DF90CF90BF90AF909F90A5
:101210008F9008954F925F926F927F92AF92BF929C
:10122000CF92DF92EF92FF920F931F93CF93DF93B2
:1012300000D000D0CDB7DEB78C0149835A836B83D1
:101240007C835901C12CD12C7601412C82E0582E8F
:10125000612C712C49815A816B817C819E012F5FA9
:101260003F4FC8010E948608882351F1D301C20173
:10127000F801058404C0880F991FAA1FBB1F0A9498
:10128000D2F7C80ED91EEA1EFB1E49815A816B8116
:101290007C818789803129F088EF9FEFAFEFBFE035
:1012A00004C088EF9FEFA0E0B0E0481759076A0735
:1012B0007B0780F2F501C082D182E282F38281E075
:1012C0000F900F900F900F90DF91CF911F910F9182
:1012D000FF90EF90DF90CF90BF90AF907F906F9096
:1012E0005F904F9008953F924F925F926F927F92DE
:1012F0008F929F92AF92BF92CF92DF92EF92FF9226
:101300000F931F93CF93DF93CDB7DEB72C970FB614
:10131000F894DEBF0FBECDBF5C01DC015B968D9003
:101320009C905C971696CD90DD90ED90FC9019976F
:10133000C114D104E104F10439F0BFEFCB1ADB0A88
:10134000EB0AFB0A312C07C0F401C080D180E28097
:10135000F38033243394F40181859285A385B48589
:101360009C01AD012F5F3F4F4F4F5F4F29873A8759
:101370004B875C87260137011D821E821F821886DB
:10138000F40181859285A385B4852D813E814F81AD
:101390005885281739074A075B0708F063C0898515
:1013A0009A85AB85BC858C159D05AE05BF0550F4AF
:1013B00082E0C82ED12CE12CF12C92E0492E512C48
:1013C000612C712C9E012F5F3F4FB701A601C40114
:1013D0000E948608882309F445C089819A81AB81DF
:1013E000BC81892B8A2B8B2B41F0260137019FEF83
:1013F000491A590A690A790A05C0C414D504E604D1
:10140000F70491F02D813E814F8158852F5F3F4F2A
:101410004F4F5F4F2D833E834F8358873FEFC31A53
:10142000D30AE30AF30AACCF0FEF1FEF2FEF3FE031
:10143000B301A201C4010E94E607882399F0D501F7
:1014400016964D915D916D917C91199741155105BD
:101450006105710549F093018201C4010E94E6070C
:10146000811102C080E02AC0D50116964D925D928E
:101470006D927C921997332051F0D301C2010196ED
:10148000A11DB11DF40180839183A283B383F50173
:101490008789908DA18DB28D892B8A2B8B2B69F436
:1014A000D50157964D925D926D927C925A97149603
:1014B0008C911497806814968C9381E02C960FB6CB
:1014C000F894DEBF0FBECDBFDF91CF911F910F917A
:1014D000FF90EF90DF90CF90BF90AF909F908F9054
:1014E0007F906F905F904F903F9008950F931F9360
:1014F000CF93DF93EB010E942F048B010E94A4176E
:101500008F3F49F00E942F04601B710B6C177D0701
:10151000A8F380E001C081E0DF91CF911F910F918E
:1015200008958F929F92AF92BF92CF92DF92EF92E7
:10153000FF920F931F93CF93DF93EC018D81811165
:1015400002C080E077C00B891C892D893E89041771
:10155000150726073707A8F36A017B01823029F4B3
:10156000CA86DB86EC86FD860DC0C114D104E10479
:10157000F10451F41E821F82188619861A861B8672
:101580001C861D8681E056C08A849B84AC84BD8401
:10159000EB8DFC8D258530E0275F3F4FB501A40121
:1015A0004150510961097109022E04C07695679571
:1015B000579547950A94D2F7D701C6010197A1091B
:1015C000B10904C0B695A795979587952A95D2F746
:1015D00084179507A607B70720F089288A288B2843
:1015E00049F44F89588D698D7A8D4E835F83688762
:1015F000798704C0841B950BA60BB70B4C015D01CA
:101600008E010A5F1F4F81149104A104B10409F4F3
:10161000A7CF4E815F816885798598018B8D9C8DE0
:101620000E94860891E0891A9108A108B1088111E9
:10163000EACF87CFDF91CF911F910F91FF90EF906D
:10164000DF90CF90BF90AF909F908F9008958FB70D
:10165000F894809128028FBF0895CF93DF93EC0117
:1016600080912902811109C081E080932902809133
:101670003605909137050E94A71760E08C81DF91B5
:10168000CF910C94A90361E0FC0184810E94A9031D
:10169000809129028111109229020895CF93DF933E
:1016A000EC018E81882389F08F8198859C012F5FC2
:1016B0003F4F38872F838230924018F40E94A4173E
:1016C000F3CFCE010E94430B1E82DF91CF9108958C
:1016D000CF92DF92FF920F931F93CF93DF9300D0AF
:1016E00000D0CDB7DEB76C01F62E29833A834B8349
:1016F0005C830E944E0BC6010E942D0B6CE271E0D0
:10170000C6010E94760A8F2D80640E949D1708E111
:1017100010E05C814B813A812981DA01C901002EF8
:1017200004C0B695A795979587950A94D2F7298313
:101730003A834B835C830E949D17085011092981CD
:101740003A814B815C81083F8FEF180731F7FF200A
:1017500029F0E8E0FE1204C087E803C085E901C073
:101760008FEF0E949D1710E00E94A417F601828758
:1017700087FF04C01F3F11F01F5FF6CF0F900F903F
:101780000F900F90DF91CF911F910F91FF90DF90FD
:10179000CF900895AF92BF92CF92DF92EF92FF92D7
:1017A0000F931F93CF93DF93EC016901C801820F60
:1017B000931F8130924008F070C08E81882371F0B1
:1017C00088819981AA81BB81481759076A077B07DD
:1017D00029F48F819885C816D906B0F548835983B6
:1017E0006A837B838B85833039F089E0440F551FF2
:1017F000661F771F8A95D1F79A01AB0161E1CE018F
:101800000E94680B882319F083E08D8346C00E94F4
:101810002F045B010E94A4178A878F3F49F40E941E
:101820002F046A197B096D327140A0F38FE003C069
:101830008E3F31F08DE08D83CE010E94430B2DC091
:1018400018861F8281E08E838F8198858C159D0577
:1018500040F40E94A4178F819885019698878F8302
:10186000F3CF6701E00EF11ECE14DF0431F00E94C9
:10187000A417F60181936F01F7CF8F819885080F28
:10188000191F18870F838985882319F001151240C5
:1018900048F0CE010E944E0B05C0CE010E94430BC2
:1018A00080E001C081E0DF91CF911F910F91FF9007
:1018B000EF90DF90CF90BF90AF900895EF92FF929E
:1018C0000F931F93CF93DF93EC01790141155105DD
:1018D0006105710511F482E13CC08B85833039F0DC
:1018E00089E0440F551F661F771F8A95D1F79A012B
:1018F000AB0168E1CE010E94680B882311F084E0FF
:1019000028C08EEF0E949D1787018EEFF81AF8010C
:1019100081918F010E949D170E151F05C1F78FEF52
:101920000E949D178FEF0E949D170E94A4178A871F
:101930008F71853031F081E18D83CE010E94430BA0
:1019400009C068E572E0CE010E94760A811107C0E5
:1019500085E18D83CE010E94430B80E013C020E01F
:1019600030E0A9016DE0CE010E94680B811104C036
:101970000E94A417882311F084E1EBCFCE010E94CE
:10198000430B81E0DF91CF911F910F91FF90EF907A
:10199000089580911A028823A9F140910201509183
:1019A000030160910401709105012AE232E0809107
:1019B0002A0490912B040E945E0C811102C080E0E9
:1019C000089540911B0250911C0260911D0270917C
:1019D0001E02411551056105710591F02AE232E0C0
:1019E00080912A0490912B040E945E0C882339F385
:1019F00010921B0210921C0210921D0210921E02E5
:101A000010921A0281E008950F931F93CF93DF93F2
:101A1000EC018D81882309F447C08C8187FF3EC08B
:101A20006E857F858889998941E00E949D0788237A
:101A3000D9F18A8920E2829FC0011124FC01E65D70
:101A4000FD4F309789F12D81223040F44B895C891C
:101A50006D897E89448F558F668F778F4F89588D1A
:101A6000698D7A8D8C01065D1D4FF801538F428F71
:101A7000758B648BE091CC01F091CD01309759F0DA
:101A8000BC01605C7D4F8E5B9D4F0995F801808D98
:101A9000918D938B828B8C818F778C83DF91CF910B
:101AA0001F910F910C94C90C80E0DF91CF911F9191
:101AB0000F9108958F929F92AF92BF92CF92DF9233
:101AC000EF92FF920F931F93CF93DF9300D000D03C
:101AD000CDB7DEB77C0180E2689F600111249601DA
:101AE000265D3D4FD9011B969C91917121F0842F69
:101AF000827409F097C0142FF701628B8091020164
:101B000090910301A0910401B09105018687978708
:101B1000A08BB18BF601E65DFD4F4489558960E0ED
:101B200070E0BA0155274427D70157964D935D932E
:101B30006D937C935A97828D938DA0E0B0E0482BF3
:101B4000592B6A2B7B2BD70157964D935D936D9341
:101B50007C935A97D9011B968C91887159F4848D86
:101B6000958DA68DB78DF701838B948BA58BB68B46
:101B700081E012C0803109F055C097012D5E3F4FC2
:101B8000D7015B968D919C915C970E940A098823EE
:101B900009F448C084E0F7018583812F8F70D70155
:101BA00014968C931497F70116821782108611866B
:101BB0001A961D921D921D921C921D9716FF34C0FD
:101BC00015968C91813071F511FF2CC0F701438976
:101BD000548965897689452B462B472B09F461C0CA
:101BE00040E050E0BA01C7010E94910A8823D1F079
:101BF000F7018788908CA18CB28CC38CD48C82E046
:101C000090E0A0E0B0E0F60180839183A283B383EB
:101C10009E012F5F3F4FB501A401C6010E948608B7
:101C2000811104C080E03DC081E03BC000E010E0D5
:101C30009801B501A401C6010E94E607882391F32B
:101C400089809A80AB80BC80D60157968C91803178
:101C500029F088EF9FEFAFEFBFE004C088EF9FEF60
:101C6000A0E0B0E088169906AA06BB0688F2D70164
:101C700057961D921D921D921C925A97F701138A36
:101C8000148A158A168A848180688483C7010E9419
:101C9000040D882339F240E050E0BA01C7010E94E8
:101CA000910A0F900F900F900F90DF91CF911F919D
:101CB0000F91FF90EF90DF90CF90BF90AF909F90EB
:101CC0008F900895CF93DF93EC010E94040D882339
:101CD00011F01D8281E0DF91CF9108954F925F92C4
:101CE0006F927F929F92AF92BF92CF92DF92EF92CC
:101CF000FF920F931F93CF93DF93CDB7DEB72B9750
:101D00000FB6F894DEBF0FBECDBF7C01DC01159687
:101D1000AC90A11097C1FE0131966F0190E28BE06B
:101D20008E0F91938E13FDCFDA0130E087E09D9105
:101D3000992339F19E3219F0E4EEF1E00AC08A30BD
:101D400009F481C138E08AE0F2CF3196491709F4ED
:101D50007AC144914111F9CF831708F474C14FED52
:101D6000490F4E3508F06FC141E0430FF601E30F14
:101D7000F11D3FE9390F3A3108F490529083342F26
:101D8000D6CF8981803209F45EC1B22E8B01DB018E
:101D90005B968D919C915C97F701948F838F16963B
:101DA0001D921D921D921C921997FB01128613869B
:101DB00014861586712CF80182859385A485B585D6
:101DC000438954896589768984179507A607B707DB
:101DD00008F061C025E0B695A795979587952A9557
:101DE000D1F7F82FFF709F2ED80115968C91823075
:101DF00008F429C1C8010E94301897FD24C1F801D8
:101E000082859385A485B5854F96A11DB11D8287D6
:101E10009387A487B587F0E29F9EC0011124BC017F
:101E2000665D7D4F6115710509F40DC1DB012C91D3
:101E3000222319F0253EC1F427C071100EC0F7010E
:101E4000928A4091020150910301609104017091C6
:101E5000050146875787608B718BFC01E65DFD4F5E
:101E60008081811113C015C04BE050E0C6010E9473
:101E7000B42A892B09F09FCF8B2D8073803309F40E
:101E8000E2C04B2D692DD9C07720C9F27724739415
:101E900092CF772473948B2D8271823109F0D3C055
:101EA0007720D1F0D7011E966D917D918D919C91F7
:101EB000519741E00E949D07882309F4C4C0F701AF
:101EC0000289F0E20F9F80011124065D1D4F01156C
:101ED000110509F079C0B7C0D80115968C918230F0
:101EE00009F4B1C0C8010E947309882309F4ABC08A
:101EF000D8015B96ED91FC915C9716964D905D90A4
:101F00006D907C901997B2E04B1A510861087108E6
:101F1000058404C0440C551C661C771C0A94D2F737
:101F200086859785A089B189480E591E6A1E7B1E39
:101F30009480E1E04E1A510861087108992009F176
:101F40000E94C90C882309F47EC0EAE2F2E01192F3
:101F500024E0EA32F207D9F7D301C201890D911DBD
:101F6000A11DB11D8093020190930301A093040170
:101F7000B093050180911A02816080931A029A94AD
:101F8000DDCFD8015B96ED91FC915C9780E092E00B
:101F9000A0E0B0E0058404C0880F991FAA1FBB1FF2
:101FA0000A94D2F7F8014389548965897689840FA8
:101FB000951FA61FB71F838B948BA58BB68BD7015C
:101FC00052961C920AE212E080E2F80111928A9580
:101FD000E9F78BE0F601D80101900D928A95E1F7BF
:101FE000E091CC01F091CD01309739F0B801625FFA
:101FF0007F4FC801409609950DC081E298E2D80153
:1020000051969C938E93509780E098E01F969C93F6
:102010008E931E97F80180899189938B828B918F83
:10202000808F86859785978B868B0E94C90C882325
:1020300051F04B2DD70152966C91C7010E945A0D59
:10204000A82E01C0A12C8A2D2B960FB6F894DEBFC6
:102050000FBECDBFDF91CF911F910F91FF90EF90F9
:10206000DF90CF90BF90AF909F907F906F905F90E8
:102070004F9008952F923F924F925F926F927F926E
:102080008F929F92AF92BF92CF92DF92EF92FF9288
:102090000F931F93CF93DF9300D000D0CDB7DEB75F
:1020A0008C016B013A01DC0115968C9115978130FA
:1020B000C9F414968C9181FF15C082FF1DC0F801F0
:1020C000438954896589768982859385A485B585F8
:1020D00084179507A607B70779F0C8010E94910AEF
:1020E00081110AC081E090E0D80113969C938E93F1
:1020F000129780E090E048C1430184C0D8015B960C
:102100008D919C915C97FC0154802FEF250D1A0155
:102110002B0139E056944794379427943A95D1F798
:10212000522E52207A01F1E0FF22552009F476C0A8
:1021300080E092E08E199F0954018815990508F4F2
:102140005C01D8015B962D913C915C9716968D9120
:102150009D910D90BC91A02D0297A109B109F901A3
:10216000058404C0880F991FAA1FBB1F0A94D2F7C9
:102170004685578560897189840F951FA61FB71FF3
:102180009C01AD01250D311D411D511D19012A0173
:10219000A11432E0B30609F088C080910201909149
:1021A0000301A0910401B091050182159305A405D6
:1021B000B50559F48FEF9FEFDC01809302019093F6
:1021C0000301A0930401B09305019601B201A1019E
:1021D00080912A0490912B040E945E0C882309F4BC
:1021E00081CF9EEFD91A8A189B08F80182859385C2
:1021F000A485B5858A0D9B1DA11DB11D828793877E
:10220000A487B587D8011A964D915D916D917C9107
:102210001D978114910409F071CF87C0E114F10476
:1022200009F086CF16964D915D916D917C9119972D
:10223000411551056105710559F457968D919D9190
:102240000D90BC91A02D0097A105B10541F521C0CD
:102250009E012F5F3F4F0E948608882309F44ACFD2
:1022600089819A81AB81BC81F801238D348DF9017C
:102270002789203129F048EF5FEF6FEF7FE004C03E
:1022800048EF5FEF60E070E084179507A607B70797
:1022900030F0C8010E94730981114ACF23CFF801A1
:1022A00086839783A087B18743CFE114F10429F592
:1022B000D8011A964D915D916D917C911D97539621
:1022C0008D919D910D90BC91A02D481759076A07DB
:1022D0007B0798F00E94C90C882309F403CF209251
:1022E0000201309203014092040150920501809155
:1022F0001A02816080931A0208C041E0C201B10154
:102300000E949D07882309F4EDCED601F701E65D12
:10231000FD4FCF018A0D9B1DE817F90719F02D918C
:102320002193FACFCA0CDB1C5ECF5396CD90DD9083
:10233000ED90FC90569714968C91C416D506E6063F
:10234000F70640F4F801438B548B658B768B8068DD
:1023500084830DC02091CC013091CD01232B39F025
:102360006114710421F08068D80114968C93F801EF
:10237000848183FD02C0C30107C0C8010E94040D0F
:10238000882309F4AFCEF7CF0F900F900F900F90E6
:10239000DF91CF911F910F91FF90EF90DF90CF9041
:1023A000BF90AF909F908F907F906F905F904F9075
:1023B0003F902F900895CF93DF931F92CDB7DEB754
:1023C000698341E050E0BE016F5F7F4F0E943A1089
:1023D0000F90DF91CF910895909198049111FCCFC7
:1023E00091E090939804909397042FEF2093960494
:1023F00010929504260F2093940490939304909147
:102400009304880F892B80939304809192048130E8
:1024100061F410929204809193048093BB008091A8
:10242000BC0083FDF8CF85EC01C085EE8093BC0035
:10243000809198048130E1F380919504861710F41F
:1024400060919504A2E7B4E022E534E0F9018E2F13
:10245000821B861718F48D918193F9CF862F0895EA
:1024600091E0909351048093C4051092500410920F
:102470004F040895613208F060E20E94EC1110925E
:102480004E0480934D04089520914F049091C4050B
:10249000213208F04AC0809198048111FCCF32E0CB
:1024A0003093980431E0309397043FEF30939604D3
:1024B0001092950420939404ADE2B4E042E754E016
:1024C000FA013E2F341B321718F43D913193F9CFA6
:1024D0001092930420919304990F922B909393045C
:1024E00090919204913061F410929204909193042F
:1024F0009093BB009091BC0093FDF8CF95EC01C088
:1025000095EE9093BC00909198049230E1F39091F5
:1025100096049F3F79F080919604803241F080913B
:102520009604803331F084E005C081E003C082E08E
:1025300001C083E01092500410924F041092510495
:10254000089590E0FC01E45EFD4F2491FC01E85FFA
:10255000FD4F8491882399F090E0880F991FFC012A
:10256000E250FE4FA591B491FC01EC50FE4F8591D5
:1025700094918FB7F894EC91E22BEC938FBF089570
:1025800040E0682F8DE895E00C944206CF93DF93EE
:10259000CDB7DEB728970FB6F894DEBF0FBECDBF1C
:1025A00098E0ECE0F1E0DE01119601900D929A9531
:1025B000E1F79091A505961710F46FEF690FFE01F2
:1025C0003196E60FF11DE60FF11D9081890F8068AD
:1025D00028960FB6F894DEBF0FBECDBFDF91CF9126
:1025E0000C94C01281E00E94C0128BE39FE101971E
:1025F000F1F708950F931F93CF93DF93EC01462FCC
:1026000050E060E070E02AE00E94DE028C0167EC9E
:1026100071E0CE010E94C902800F911FDF91CF911E
:102620001F910F910895462F50E060E070E02AE07E
:102630000C94DE02CF93C82F88E60E9430126C2FD4
:1026400070E0685F7F4F81E895E00E94EE160E947F
:10265000441261E088E60E94EC1110924E048093CF
:102660004D0481E895E00E94A216CF910895CF9382
:10267000DF93D82FC1E082FB442740F94C2768E064
:1026800088EA95E00E948A04D1FB442740F94C2750
:1026900067E088EA95E00E948A044D2F41704C273C
:1026A00066E088EA95E0DF91CF910C948A042F923E
:1026B0003F924F925F926F927F928F929F92AF92D2
:1026C000BF92CF92DF92EF92FF920F931F93CF931F
:1026D000DF93CDB7DEB7C756D1090FB6F894DEBF8A
:1026E0000FBECDBF5C014B01A6964FAFA6973E0132
:1026F0008EE1680E711C62E675E0C3010E94AA17A4
:102700001C821B8288E291E09A8389831E82740175
:10271000FE0131966F0123011F016FE270E0C701D6
:102720000E94CA2A0097F1F1F70120812F3221F48B
:10273000FFEFEF1AFF0AF1CF8E198D3008F08CE011
:10274000082F10E0A801B701CE01885A9F4F0E94C0
:10275000DC2AE8E5F0E0EC0FFD1FE00FF11F10822E
:10276000C6010E94620E21E0AE01485A5F4FB201DD
:10277000C6010E946E0E81110AC01EAE1DAE88E217
:1027800091E09CAF8BAF21961FAE219717C0E00E52
:10279000F11EC2010E94620E942D852D2601C92EC4
:1027A000D82EBBCFC70188199909A8969FAF8EAFC5
:1027B000A897B201CE01CB960E94AA17A896EEADBB
:1027C000FFADA8978E0E9F1EF4018081811109C074
:1027D000BE01655C7F4FC1010E94AA1748EB51E022
:1027E0004BC019A218A288E291E09F8F8E8F1BA286
:1027F00021968FAD2197811113C0F50113821282AA
:1028000088EE93E0A0E0B0E084839583A683B7834D
:1028100088E491E091838083128E118E148630C0FB
:102820008250A6962FADA697A401823040F462E6AE
:1028300075E0C3010E946E0E81110DC0DECFBE0196
:10284000655C7F4FC3010E946E0E8823B1F2CE01FA
:10285000CB960E94620EA6968FADA697867039F031
:1028600049A95AA96BA97CA9C3010E94910AB30185
:10287000C1010E94AA17A401B101C5010E94FB1762
:10288000C501C959DF4F0FB6F894DEBF0FBECDBFEB
:10289000DF91CF911F910F91FF90EF90DF90CF903C
:1028A000BF90AF909F908F907F906F905F904F9070
:1028B0003F902F9008950F931F93CF93DF93EC01D8
:1028C0000E942F04688779878A879B87CE010E94A0
:1028D0003A1997FF17C00E942F04088519852A8589
:1028E0003B85DC01CB01801B910BA20BB30B0C8150
:1028F0001D812E813F8180179107A207B30730F316
:102900008FEF9FEFDF91CF911F910F9108958F92DD
:102910009F92AF92BF92CF92DF92EF92FF92CF93AE
:10292000DF93C82F88E395E090932B0480932A04CB
:10293000CC2369F1C53010F080E00DC140E060E0CB
:1029400070E0CB010E949D078823B1F320E1C29F74
:10295000C0011124865E9D4FFC01E254FE4F208190
:102960002F7751F73C9640815181628173814436C3
:1029700051056105710500F33497C080D180E28074
:10298000F380C114D104E104F10421F4D5CFC12CAA
:10299000D12C760140E0C701B6010E949D07882333
:1029A00059F280913502909136028115924021F6BC
:1029B000A0913A02AA2309F4BFCF60913802709126
:1029C00039026115710509F4B7CF2091370222232E
:1029D00009F4B2CFA09356052093480580E030E07B
:1029E000E1E0F0E0C82FAF01082E02C0440F551FF0
:1029F0000A94E2F72417350741F0982F8F5F98303B
:102A000089F789E08093510597CF809351052091F4
:102A10004002309141022115310519F040E050E0AB
:102A200008C020914E0230914F02409150025091C7
:102A300051022093490530934A0540934B0550932A
:102A40004C0546015701860E971EA11CB11C8092B1
:102A5000570590925805A0925905B0925A05E091F9
:102A60003B02F0913C02F0935D05E0935C05B0E021
:102A70000E94EB2A860E971EA81EB91E80925E0544
:102A800090925F05A0926005B092610585E0EE0F1F
:102A9000FF1F8A95E1F7E150FE4FEF2FFF27E695E4
:102AA0008E0E9F1EA11CB11C809252059092530560
:102AB000A0925405B092550520913D0230913E02FE
:102AC0002115310521F0A90160E070E008C04091B6
:102AD0004A0250914B0260914C0270914D02D70115
:102AE000C60188199909AA09BB09840F951FA61F59
:102AF000B71F04C0B695A79597958795CA95D2F745
:102B000080934D0590934E05A0934F05B0935005CB
:102B1000853F2FE09207A105B10510F48CE018C0A5
:102B2000853F9F4FA105B10510F480E111C0809150
:102B3000560290915702A0915802B0915902809389
:102B40005E0590935F05A0936005B093610580E2F8
:102B500080935B0581E0DF91CF91FF90EF90DF9054
:102B6000CF90BF90AF909F908F90089510924E0499
:102B700010924D041092500410924F041092980439
:102B800081E0809397041092920461E082E10E94B8
:102B9000A90361E083E10E94A903E9EBF0E08081F1
:102BA0008E7F808380818D7F808388E48093B800CE
:102BB00085E48093BC000895CF93DF93C82FD62F70
:102BC00088E60E9430128C2F90E0BC01685F7F4F36
:102BD00081E895E00E94EE166D2F81E895E00E9455
:102BE000EE16DF91CF910C944412CF92DF92EF92C8
:102BF000FF92CF93DF936C01990FEE08FF08F7FE69
:102C00001BC06DE28DE895E00E949E02EC01442716
:102C10005527BA014C195D096E097F092AE08DE834
:102C200095E00E94DE028C0F9D1FDF91CF91FF90F7
:102C3000EF90DF90CF9008952AE0B701A6018DE8CC
:102C400095E0DF91CF91FF90EF90DF90CF900C94C3
:102C5000DE02DC015996ED91FC915A973097B9F05C
:102C600083899489A589B68942855385648575854C
:102C7000841B950BA60BB70B811520E89207A105C5
:102C8000B10538F08FEF9FE7A0E0B0E0089580E055
:102C900090E00895CF93DF931F92CDB7DEB769839D
:102CA000DC01ED91FC910280F381E02D41E050E0E8
:102CB000BE016F5F7F4F09950F90DF91CF9108950F
:102CC00085ED8093BC008091BC0084FDFCCF109208
:102CD000980408954091E705262F30E0240F311D18
:102CE00021323105DCF4209198042430C9F4FC0130
:102CF00080E090E0861758F43091E7052191DC01DF
:102D0000AB53BA4FA30FB11D2C930196F3CF809113
:102D1000E705680F6093E70580E0089581E0089576
:102D200082E008950895E0914E0480914D04E817E3
:102D300030F4F0E0EE5AFB4F808190E008958FEF81
:102D40009FEF089590914E0480914D04981750F490
:102D5000E92FF0E0EE5AFB4F208130E09F5F909327
:102D60004E0402C02FEF3FEFC901089580914D043A
:102D700090E020914E04821B91090895CF92DF923A
:102D8000EF92FF920F931F93CF93DF937C01262F37
:102D9000972F8A0180915104882391F0C62FD72F55
:102DA0006E01C40ED51ECC15DD0571F06991D701F9
:102DB000ED91FC910190F081E02DC7010995F3CFD1
:102DC000642F822F0E946A16C801DF91CF911F9154
:102DD0000F91FF90EF90DF90CF900895CF93DF9306
:102DE0001F92CDB7DEB76983209151042223D1F021
:102DF00020914F04203240F021E030E0FC01338389
:102E0000228380E090E015C080915004E82FF0E02C
:102E1000E35DFB4F998190838F5F80935004809393
:102E20004F0405C061E0CE0101960E946A1681E060
:102E300090E00F90DF91CF910895FC01818D928DEC
:102E4000009711F00C94040D0895CF93DF93EC01DB
:102E5000898D9A8D009739F481E090E09B838A8375
:102E600080E090E00BC0FC01138212820E943A10B5
:102E7000E98DFA8D22813381232B71F7DF91CF9178
:102E80000895CF93CFE06AEC71E089E994E00E9465
:102E90004F03C150C1F76AEC71E089E994E0CF912A
:102EA0000C942703EF92FF920F931F93CF93DF931E
:102EB00000D000D000D0CDB7DEB78C017B01CE01B1
:102EC00001960E94BC062A8180E2289F900111246D
:102ED0008B81A901482B8981282F30E02C5E3F4F40
:102EE000322F2227330F242B352BF80131832083F7
:102EF0008D81F0E28F9F900111249C81892F90E0B9
:102F0000982F8827990F990F990F822B932B2E8139
:102F100030E035952795822B932BF70191838083A1
:102F200026960FB6F894DEBF0FBECDBFDF91CF91CE
:102F30001F910F91FF90EF9008958EBD00000DB48A
:102F400007FEFDCF8EB508958FEF0C949D178CBDB5
:102F50009DBD0895FC01DB0112968D919C91139704
:102F60009383828388E291E09183808314968C918D
:102F70001497848315968C911597858316964D9199
:102F80005D916D917C911997468357836087718716
:102F90001A964D915D916D917C911D974287538753
:102FA000648775871E964D915D916D917C915197C7
:102FB00046875787608B718B52968C915297828B84
:102FC00053964D915D916D917C915697438B548BA7
:102FD000658B768B57964D915D916D917C915A974B
:102FE000478B508F618F728F5B968D919C915C9710
:102FF000948F838F0895EF92FF920F931F93CF9337
:10300000DF93EC017B018A011B821A8288EE93E038
:10301000A0E0B0E08C839D83AE83BF8388E491E021
:10302000998388838DE190E00E94B8289A8F898FD8
:10303000009779F02DE1F701DC0101900D922A95BE
:10304000E1F74CE050E0B801CE010C960E94DC2A7A
:10305000188EDF91CF911F910F91FF90EF900895FF
:103060002F923F924F925F926F927F928F929F9298
:10307000AF92BF92CF92DF92EF92FF920F931F9386
:10308000CF93DF9300D0CDB7DEB7FC0185818823D5
:1030900009F4D9C0848180FFD6C021E02A83438906
:1030A00054896589768982859385A485B585481775
:1030B00059076A077B0709F41A826F013A81832F47
:1030C00090E0DE0111964D013F01B6E06B0E711CE0
:1030D000892B09F47DC0D6011A964D915D916D91B1
:1030E0007C911D975A01B1E0BB22F60125811A019E
:1030F0002B0189E056944794379427948A95D1F709
:10310000838D948D223061F4FC01828D938DA48D8A
:10311000B58DBC01CD01620D731D841D951D45C08B
:10312000DC0114961C9111501221A114B104D1F4A8
:10313000111118C0452B462B472B51F4F6018789F6
:10314000908DA18DB28D86839783A087B1870AC0A9
:10315000468157816085718593010E948608882386
:1031600009F471C0F601238D348D86819781A08585
:10317000B1850297A109B109AC01BD01F90105842E
:1031800004C0440F551F661F771F0A94D2F7868527
:103190009785A089B189840F951FA61FB71FBC0111
:1031A000CD01610F711D811D911DD60114962C91C9
:1031B00026FF14C000910201109103012091040127
:1031C00030910501601771078207930751F506C01A
:1031D000FA81FF23C1F1898190E037C040E00E946D
:1031E0009D07882381F1F501E65DFD4FD401CF01F4
:1031F0000196E817F90719F021912D93FACFEFEF17
:103200008E1A9E0AF60182859385A485B58501965E
:10321000A11DB11D82879387A487B58780E090E0C8
:1032200057CF740101E010E09501AB01BC01809122
:103230002A0490912B040E94CA0B882321F0BFEF2F
:103240008B1A9B0ADFCF8FEF9FEF0F900F90DF91CC
:10325000CF911F910F91FF90EF90DF90CF90BF9093
:10326000AF909F908F907F906F905F904F903F9026
:103270002F900895FC01818D928D009711F00C9490
:1032800030188FEF9FEF08950F931F93CF93DF9325
:10329000FC01818D928D0097B9F0EF010E943018EA
:1032A0008C010F3F8FEF180791F0898D9A8DFC01EB
:1032B00042855385648575854150510961097109BD
:1032C0000E94910AC80105C080E090E002C08FEF23
:1032D0009FEFDF91CF911F910F9108951F920F9251
:1032E0000FB60F9211242F933F934F935F936F93D9
:1032F0007F938F939F93AF93BF93EF93FF938091AF
:10330000B900887F803609F49CC068F5883209F4DA
:103310005BC090F4803109F454C038F4882309F478
:10332000F6C0883009F44DC0F6C0883109F44CC0AD
:10333000803209F45DC0EFC0803409F468C048F4FD
:10334000803309F455C0883309F0E5C080939604B2
:10335000D8C0803509F44FC0883509F45DC0883481
:1033600009F0D9C0D6C0883909F4C7C0A8F4883795
:1033700009F467C038F4883609F463C0803709F46B
:1033800060C0C9C0883809F4B8C0803909F45FC08A
:10339000803809F0C0C05BC0803B09F486C038F4B7
:1033A000803A09F466C0883A09F47FC0B4C0803C12
:1033B00009F4A7C0883C09F4A4C0883B09F48AC07A
:1033C000AAC08091930410C09091950480919404B8
:1033D000981770F5E091950481E08E0F8093950425
:1033E000F0E0EE58FB4F80818093BB0085EC86C0F7
:1033F000809396048EC0E091950481E08E0F8093B7
:1034000095048091BB00F0E0EE58FB4F80839091D3
:103410009504809194046EC0E091950481E08E0F34
:10342000809395048091BB00F0E0EE58FB4F8083C1
:103430008091970481116DC081E08093920484EAA9
:1034400061C083E08093980410920B06CFCF8091E7
:103450000B06803208F051C0E0910B0681E08E0F20
:1034600080930B068091BB00F0E0E551FA4F80831A
:10347000BDCF85EC8093BC001092980480910B0620
:10348000803230F4E0910B06F0E0E551FA4F108203
:1034900060910B0670E0E091E905F091EA058BEE92
:1034A00095E0099510920B0636C084E0809398044D
:1034B0001092E8051092E705E091E505F091E60528
:1034C00009958091E705811105C081E08093E705AA
:1034D0001092C505E091E80581E08E0F8093E80524
:1034E000F0E0EB53FA4F80818093BB009091E805A8
:1034F0008091E705981708F479CF85E88093BC00A0
:103500000AC085EC8093BC001092980404C010920D
:1035100096040E946016FF91EF91BF91AF919F9129
:103520008F917F916F915F914F913F912F910F906C
:103530000FBE0F901F901895CF93C7E06AEC71E013
:1035400089E994E00E944F03C150C1F76AEC71E031
:1035500089E994E0CF910C942703CF93C5E16AECFD
:1035600071E089E994E00E944F03C150C1F76AEC11
:1035700071E089E994E0CF910C942703CF93DF9316
:1035800000D000D000D0CDB7DEB760E080E00E9470
:10359000C61266E572E08DE895E00E94A502CE01B4
:1035A00001960E94BC068A818A3030F46EEA71E08E
:1035B0008DE895E00E944F036A818DE895E00E94B6
:1035C00013136FE28DE895E00E949E028B818A3092
:1035D00030F46EEA71E08DE895E00E944F036B8154
:1035E0008DE895E00E9413136FE28DE895E00E944C
:1035F0009E02498150E04053584F052E000C660B47
:10360000770B2AE08DE895E00E94DE0226960FB641
:10361000F894DEBF0FBECDBFDF91CF910895CF9359
:10362000DF9300D000D000D0CDB7DEB7CE01019639
:103630000E94BC068C818A3030F46EEA71E089E920
:1036400094E00E944F036C8189E994E00E94131377
:1036500060EB71E089E994E00E944F038D818A302C
:1036600030F46EEA71E089E994E00E944F036D81C5
:1036700089E994E00E94131360EB71E089E994E01A
:103680000E944F038E818A3030F46EEA71E089E93E
:1036900094E00E944F036E8189E994E00E94FA123F
:1036A00026960FB6F894DEBF0FBECDBFDF91CF9147
:1036B0000895CF93DF9300D000D000D0CDB7DEB710
:1036C0000E9441176FE472E089E994E00E94A5022C
:1036D000CE0101960E94BC068A818A3030F46EEADF
:1036E00071E089E994E00E944F036A8189E994E0DE
:1036F0000E9413136FE289E994E00E949E028B817D
:103700008A3030F46EEA71E089E994E00E944F0358
:103710006B8189E994E00E9413136FE289E994E0D8
:103720000E949E02498150E04053584F052E000CE4
:10373000660B770B2AE089E994E00E94DE0267ECD1
:1037400071E089E994E00E94C9020E94411726961F
:103750000FB6F894DEBF0FBECDBFDF91CF910895B5
:103760000E94F21260E082E00E94C61260910001A5
:10377000615089E0689FB001112462537E4F8DE84B
:1037800095E00E944F0361E086E00E94C61266E465
:1037900072E08DE895E00E94A5026CED75E080E096
:1037A00090E00C94F503CF93DF93CDB7DEB7CF58FD
:1037B000D1090FB6F894DEBF0FBECDBF789484B5A3
:1037C000826084BD84B5816084BD85B5826085BD1D
:1037D00085B5816085BD80916E00816080936E00AB
:1037E000109281008091810082608093810080919D
:1037F000810081608093810080918000816080934E
:1038000080008091B10084608093B1008091B0000D
:1038100081608093B00080917A00846080937A0008
:1038200080917A00826080937A0080917A00816032
:1038300080937A0080917A00806880937A00109259
:10384000C100E091A904F091AA0482E08083E09194
:10385000A504F091A6041082E091A704F091A804B9
:103860008FEC80831092B104E091AD04F091AE042E
:1038700086E08083E091AB04F091AC0480818061AC
:103880008083E091AB04F091AC04808188608083F8
:10389000E091AB04F091AC04808180688083E0917A
:1038A000AB04F091AC0480818F7D80830E94B615BB
:1038B0000E94B6158091A7058F3F39F58091A1052B
:1038C00088608093A10582E08093A5051092A605EB
:1038D0008BE39DE00197F1F740E0609191058DE861
:1038E00095E00E94DB0440E0609193058DE895E04F
:1038F0000E94DB04609192056F3F09F4B2C040E082
:103900008DE895E00E94DB04ACC00E94B6151092D1
:10391000A8050E94B6158091A80580620E94301209
:1039200080E00E9485048FEF0E9485040E9444126B
:103930008091A80580620E94301281E00E94850477
:103940008FEF0E9485040E94441241E068E088EAFB
:1039500095E00E94030541E066E088EA95E00E9458
:10396000030541E067E088EA95E00E94030587E0EF
:103970000E94371360919205662329F041E088EA9E
:1039800095E00E944E0541E06091910588EA95E03E
:103990000E944E0541E06091930588EA95E00E94FF
:1039A0004E0504E915E024E0F22EF00EF8016191D5
:1039B0008F0141E088EA95E00E944E05F012F6CFB3
:1039C0000CE915E095E0E92EE00E40E0F801608199
:1039D00088EA95E00E944E05F80121918F0120317F
:1039E000E8F5283020F028508DE0F82E02C0BCE029
:1039F000FB2E8091A8058062C157DF4F2883CF58E6
:103A0000D0400E9430128F2D0E9485040E944412E3
:103A10008091A805806261E070E090E00E943A1217
:103A200081E895E00E94A216D82E8091A8058062B8
:103A30000E9430128F2D0E94850441E050E0C15752
:103A4000DF4F2881CF58D040CA0101C0880F2A9586
:103A5000EAF78D290E9485040E944412E012B5CF36
:103A60002DCF8091A10584FD21C063E08DE895E014
:103A70000E9470050BE416E4C8010197F1F763E0BA
:103A80008DE895E00E947005C8010197F1F763E0A9
:103A90008DE895E00E94700583E592E00197F1F7CB
:103AA00062E08DE895E00E94700515C080620E947A
:103AB000C0128BE496E40197F1F78091A105806232
:103AC0000E94C01283E592E00197F1F78091A10571
:103AD00080620E94C0128091A10580620E94C01283
:103AE00084E08093A2058CE00E94C0120E94F21232
:103AF00082E08093A30586E00E94C0120E94F21229
:103B0000809101010E94371360E082E00E94C6129A
:103B100067E071E08DE895E00E94A50261E087E032
:103B20000E94C6126FEF70E08DE895E00E94A5023A
:103B30000E94AD1A68EE70E089E994E00E943B03B0
:103B40000E94AD1A88E60E94301260E081E895E09C
:103B50000E94EE160E94441261E070E088E690E058
:103B60000E943A1281E895E00E94A21687FF03C0E6
:103B70008CE691E08DC16FEC70E089E994E00E94E1
:103B8000A5028AE00E94A1121092430510924105FD
:103B900010923E0510923D058AE080933C050E94FC
:103BA0002F048B0180913C050E94A11261E080915D
:103BB0003C050E94A903FFB6F89480910D02811183
:103BC00024C0E2E1F2E08491E6E2F2E09491E82F91
:103BD000F0E0EE0FFF1FE250FE4FA591B491EC9183
:103BE000E92321F461E08AE00E94A9038AE00E94AF
:103BF000A1128CB580618CBD8CB580648CBD8DE0CC
:103C00000E94A1128BE00E94A11280910D028F5F91
:103C100080930D02FFBE82E5809336051092370532
:103C200080913605909137050E94A717FAE0FF2E84
:103C30008FEF0E949D17FA94F110FACF88E395E078
:103C40000E942D0B20E030E0A90160E088E395E0C0
:103C50000E94680BF82E8093420521E0821749F0FC
:103C60000E942F04601B710B613D774058F381E087
:103C700056C02AEA31E040E050E068E088E395E091
:103C80000E94680B82FF03C0F092430510C0E4E07D
:103C9000FE2E0E94A41780934205FA94F110F9CFEA
:103CA0008A3A11F082E03BC082E080934305809124
:103CB0004305823021F0C12CD12C760105C0C12CE6
:103CC000D12CE12C70E4F72E20E030E0A90167E36D
:103CD00088E395E00E94680BA701960169E288E3FA
:103CE00095E00E94680B80934205882349F00E946A
:103CF0002F04601B710B613D774030F388E00FC0EB
:103D000080914305823001F520E030E0A9016AE3AB
:103D100088E395E00E94680B882341F086E0809359
:103D20003D0588E395E00E94430BB0C00E94A417B4
:103D3000807C803C19F483E0809343050E94A417A3
:103D40000E94A4170E94A41788E395E00E94430BE9
:103D500080E5809336051092370581E00E94871434
:103D6000882329F080916705882341F08FC080E087
:103D70000E948714882309F489C0F4CF80915B05E1
:103D8000803109F582E080936705109279051092E1
:103D90007A0510927B0510927C0580915C059091CC
:103DA0005D05A0E0B0E065E0880F991FAA1FBB1F6A
:103DB0006A95D1F78093750590937605A093770562
:103DC000B09378051FC0803209F060C083E0809313
:103DD000670540915E0550915F05609160057091A7
:103DE00061054093790550937A0560937B05709344
:103DF0007C0525E735E084E495E00E940A098823E4
:103E000009F444C084E495E090937E0580937D0599
:103E100081E0809366051092680510926905109202
:103E20006A0510926B0510926C0510926D05109248
:103E30006E0510926F051092700510927105109228
:103E4000720510927305109274056CED75E080E0B8
:103E500090E00E94F50369EC70E089E994E00E942B
:103E60003B0341E068E771E0CE01885A9F4F0E9412
:103E700057136BEA70E089E994E00E94A502E3968B
:103E8000EEADFFADE397309729F495C085E891E05A
:103E90000E9452288581882309F48DC04EECE42EBF
:103EA00041E0F42E56E0D52ECE01885A9F4F0E9455
:103EB0002916892B09F466C01A8219821C821B827A
:103EC0001E821D8260E070E0CE0101960E947702A2
:103ED00029813A8181110DC02115310519F0C901DF
:103EE0000E944D291A8219821E821D821C821B8209
:103EF00025C01E821D8269EC71E0C9010E94D52A8D
:103F00001DC08A30910509F18E8F1F8E0D811E8193
:103F10000F5F1F4FB801CE0101960E9477028823E0
:103F200069F029813A818D819E81BE01625E7F4F59
:103F3000820F931F0E94D52A1E830D83CE01885ABB
:103F40009F4F0E945B1497FFDCCFE114F104B1F0A6
:103F50000D811E810115110511F4F7010EC0083005
:103F6000110510F008E010E069817A81A801C7010D
:103F70000E94DC2AF701E00FF11F108289819A81EB
:103F80000E944D29DA94F9E0EF0EF11CD1108CCF8C
:103F9000E3968EAD9FADE397009701F10E94620E0C
:103FA000E3968EAD9FADE3970E944D29E3961FAE39
:103FB0001EAEE39713C03EECE32E31E0F32E11E387
:103FC00065E971E0C7010E94D52AF7011783F9E07E
:103FD000EF0EF11C1F5F173399F7DACF6CED75E028
:103FE00080E090E00E94F50365EA70E089E994E0E2
:103FF0000E943B034EEC51E026E030E280E090E08E
:10400000FA01E80FF91F60816D3009F430830196E1
:1040100088309105A9F72150475F5F4F2111EECFFE
:1040200082E597E19093CD018093CC018DE0EAEB9E
:10403000F1E0DE01A058BF4F01900D928A95E1F7A3
:10404000BB24B3949AE0892E28E2E22E21E0F22EDE
:104050006E012BE3C20ED11C8B2D682D0E9470289F
:10406000805DCA57DF4F8883C658D040905DC957DE
:10407000DF4F9883C758D0401EAE1DAEFCAEEBAEEE
:1040800021961FAE219719A218A2FF8EEE8E1BA2B9
:10409000712C612CAC2C9D2C02E615E0272D362DC1
:1040A000E0E8F0E0EC0FFD1FE20FF31F80818F329C
:1040B00011F42F5F3F4FFE01ED58FF4F40E050E0FD
:1040C000A0E8B0E0AC0FBD1FA20FB31F8C918F32E0
:1040D00051F0882341F04F5F5F4F2F5F3F4F819337
:1040E0004C30510569F7E3E7F0E0EC0FFD1FE40FFA
:1040F000F51F1082E0E8F0E0EC0FFD1FE20FF31F68
:1041000080818F3211F42F5F3F4F722E632EE0E8D3
:10411000F0E0EC0FFD1FE20FF31F50801C821B82AA
:10412000FA82E9821E8221E0AE014D585F4FB8014C
:10413000CE0101960E946E0E882339F0CE010196C1
:104140000E94620E511009C023C035E002361307E9
:1041500041F1C8010E94620E24C021E0AE014D5819
:104160005F4FB8018A2D992D0E946E0E582E45E0A2
:104170000236140709F40BC7C8010E94620E5520CD
:1041800081F0902F812F0A2D192DA92E982E86CFE0
:1041900055E00236150709F459C0C8010E94620EA5
:1041A00055C066E970E089E994E00E94A502BE016D
:1041B00060587F4F89E994E00E944F0361E970E005
:1041C00089E994E00E94A50243E1BE0160587F4F57
:1041D000CE0101960E9457138B819C819093AC0570
:1041E0008093AB058D819E81AF81B8858093AD05AD
:1041F0009093AE05A093AF05B093B00589859A85DD
:10420000AB85BC858093B1059093B205A093B305AF
:10421000B093B4058DE0FE013D96A5EBB5E00190AD
:104220000D928A95E1F78A8D9B8D9093C3058093BB
:10423000C2056CED75E080E090E00E94F5036BE84C
:1042400070E089E994E00E943B0304C0B39484E6E3
:10425000B81202CFE091C205F091C305309719F072
:104260008581811103C08DE991E012CE0E94591B16
:1042700061E770E089EA95E00E94A50282E00E9471
:104280001A138F3F09F46DC687E00E941A138F3FFF
:1042900009F467C682E00E941A13682F89EA95E044
:1042A0000E94131368EB71E089EA95E00E944F03C6
:1042B00083E00E941A13682F89EA95E00E94131385
:1042C00068EB71E089EA95E00E944F0384E00E9468
:1042D0001A13682F89EA95E00E94131385E00E9463
:1042E0001A13682F89EA95E00E9413136DE670E0B7
:1042F00089EA95E00E94A50286E00E941A138A309E
:1043000030F46EEA71E089EA95E00E944F0386E09E
:104310000E941A13682F89EA95E00E94131360EB3C
:1043200071E089EA95E00E944F0387E00E941A132A
:104330008A3030F46EEA71E089EA95E00E944F031A
:1043400087E00E941A13682F89EA95E00E941313F0
:1043500060EB71E089EA95E00E944F0388E00E94DB
:104360001A138A3030F46EEA71E089EA95E00E940F
:104370004F0388E00E941A13682F89EA95E00E9493
:10438000FA126CED75E080E090E00E94F5030E9467
:10439000F21280E00E941A13182F8093010181E02D
:1043A0000E941A13809300011F3F41F48F3F31F4A4
:1043B00087E08093010181E08093000180910101F9
:1043C0000E94371389E00E941A13809313028230EF
:1043D00010F01092130284E6282E312CE12CF12CDF
:1043E0001FE10E2DF701E357FA4F27852031C0F565
:1043F000283018F0285093E101C092E18091A8057F
:104400008062C157DF4F2883CF58D040C257DF4F5B
:104410009883CE58D0400E943012C257DF4F988107
:10442000CE58D040892F0E9485040E94441280916A
:10443000A805806261E070E090E00E943A1281E895
:1044400095E00E94A2169927C157DF4F2881CF58C7
:10445000D04002C0959587952A95E2F7817001C0FA
:1044600080E090E002C0880F991F0A95E2F78095DE
:10447000909518239FEFE91AF90AE5E0EE16F1048A
:1044800009F0AFCF80911902811154C013FF28C0E9
:1044900000910101073078F0F7E0F093010181E02D
:1044A0008093000167E080E00E94DC1561E081E01C
:1044B0000E94DC1515C00F5F00930101F090000110
:1044C000FA94F0920001602F80E00E94DC156F2DBD
:1044D00081E00E94DC15802F0E9437130E94B01BE0
:1044E00012FF28C000910101033078F422E02093EC
:1044F000010136E03093000162E080E00E94DC15AB
:1045000066E081E00E94DC1515C0015000930101B6
:10451000F0900001F394F0920001602F80E00E947F
:10452000DC156F2D81E00E94DC15802F0E9437136F
:104530000E94B01B10FFE4C1F0900001FA94C35731
:10454000DF4FF882CD58D040CE0101960E94BC06C4
:104550008A818A3030F46EEA71E089EA95E00E943F
:104560004F036A8189EA95E00E9413136FE289EA9A
:1045700095E00E949E028B818A3030F46EEA71E0F1
:1045800089EA95E00E944F036B8189EA95E00E94D9
:1045900013136FE289EA95E00E949E02498150E080
:1045A0004053584F052E000C660B770B2AE089EA22
:1045B00095E00E94DE0262EB71E089EA95E00E94DC
:1045C0004F038C818A3030F46EEA71E089EA95E01D
:1045D0000E944F036C8189EA95E00E9413136AE3FD
:1045E00089EA95E00E949E028D818A3030F46EEA5D
:1045F00071E089EA95E00E944F036D8189EA95E0B8
:104600000E9413136AE389EA95E00E949E028E815C
:104610008A3030F46EEA71E089EA95E00E944F0337
:104620006E8189EA95E00E94FA120E94F21260E01F
:1046300081E00E94C61265EB71E08DE895E00E9472
:10464000A50261E082E00E94C61268EA71E08DE88E
:1046500095E00E94A5029091190281E0891B809348
:104660001902813009F048C080911802811144C0BC
:10467000CE0101960E9440076093140270931502C8
:104680008093160290931702C357DF4F5881CD587D
:10469000D04049E0549FB001112462537E4F89E914
:1046A00094E00E9427030E949C1A68E971E089E95E
:1046B00094E00E94A5020E940F1B6CED75E080E063
:1046C00090E00E94F50381E00E9437130E94F212ED
:1046D00060E083E00E94C61262E971E08DE895E037
:1046E0000E94A50261E085E00E94C61269E871E0BF
:1046F0008DE895E00E94A502809119028111F6C013
:1047000080911802813009F0F1C0CE0101960E941B
:104710004007C0901402D0901502E0901602F0906D
:1047200017029B01AC012C193D094E095F09690173
:104730007A01CA01B9012CE330E040E050E00E9468
:1047400090284B015C01CA01B9012CE330E040E044
:1047500050E00E9490282B013C01C701B60120E1E6
:104760003EE040E050E00E949028022FE22EC35726
:10477000DF4F4881CD58D04039E0439FB00111242C
:1047800062537E4F89EA95E00E944F0362EB71E02D
:1047900089EA95E00E944F0359E0501730F06EEA25
:1047A00071E089EA95E00E944F03602F89EA95E065
:1047B0000E94131360EB71E089EA95E00E944F03B9
:1047C0008AE0481651046104710430F46EEA71E025
:1047D00089EA95E00E944F03642D89EA95E00E94E2
:1047E000131360EB71E089EA95E00E944F039AE0B1
:1047F00089169104A104B10430F46EEA71E089EAEB
:1048000095E00E944F03682D89EA95E00E94FA1214
:1048100069E771E089E994E00E94A5020E940F1BFC
:104820006CED75E080E090E00E94F503809101015D
:104830000E9437130E94F21260E083E00E94C612C9
:1048400063E771E08DE895E00E94A50261E085E0F4
:104850000E94C6126AE671E08DE895E00E94A5020A
:104860000E949C1A6AE571E089E994E00E94A50221
:10487000E9E0EE1530F06EEA71E089E994E00E941B
:104880004F03602F89E994E00E94131360EB71E0FD
:1048900089E994E00E944F03FAE04F165104610445
:1048A000710430F46EEA71E089E994E00E944F03EC
:1048B000642D89E994E00E94131360EB71E089E9AB
:1048C00094E00E944F032AE082169104A104B104EF
:1048D00030F46EEA71E089E994E00E944F03682D9C
:1048E00089E994E00E94FA120E949C1A80911902B0
:1048F000809318026CED75E080E090E00E94F50373
:1049000014FD0E94B01B80911902813009F09DC0F6
:1049100011FF9BC00E94F21209E160E080E00E945A
:10492000C61261E571E08DE895E00E94A502CE0116
:1049300001960E94BC06CE0101960E944007C090DD
:104940001402D0901502E0901602F09017029B011D
:10495000AC012C193D094E095F0969017A01CA01B0
:10496000B9012CE330E040E050E00E9490284B0178
:104970005C01CA01B9012CE330E040E050E00E9444
:1049800090282B013C01C701B60120E13EE040E048
:1049900050E00E9490282A3080F46EEA71E08DE8A1
:1049A00095E0C157DF4F2883CF58D0400E944F0376
:1049B000C157DF4F2881CF58D040622F8DE895E056
:1049C0000E94131360EB71E08DE895E00E944F03A5
:1049D0003AE0431651046104710430F46EEA71E068
:1049E0008DE895E00E944F03642D8DE895E00E94CC
:1049F000131360EB71E08DE895E00E944F034AE0ED
:104A000084169104A104B10430F46EEA71E08DE8DB
:104A100095E00E944F03682D8DE895E00E941313E6
:104A200061E081E00E94C61261E471E08DE895E0EA
:104A30000E94A50265E070E080E090E00E94F5032E
:104A4000015009F06ACF0E94F21280911902813060
:104A500009F03EC1CE0101960E94BC06CE0101962E
:104A60000E9440078090140290901502A0901602B8
:104A7000B0901702DC01CB0188199909AA09BB097A
:104A800080349E47A540B10508F422C1CE010196AD
:104A90000E9440076B017C01C818D908EA08FB088E
:104AA000C701B6012CE330E040E050E00E949028BE
:104AB0004B015C01CA01B9012CE330E040E050E059
:104AC0000E9490282B013C01C701B60120E13EE085
:104AD00040E050E00E949028022FD22E8A818A3036
:104AE00030F46EEA71E089EA95E00E944F036A8132
:104AF00089EA95E00E9413136FE289EA95E00E942B
:104B00009E028B818A3030F46EEA71E089EA95E08A
:104B10000E944F036B8189EA95E00E9413136FE2B4
:104B200089EA95E00E949E02498150E04053584F27
:104B3000052E000C660B770B2AE089EA95E00E94AF
:104B4000DE0262EB71E089EA95E00E944F038C81FE
:104B50008A3030F46EEA71E089EA95E00E944F03F2
:104B60006C8189EA95E00E9413136AE389EA95E073
:104B70000E949E028D818A3030F46EEA71E089EAEB
:104B800095E00E944F036D8189EA95E00E9413131E
:104B90006AE389EA95E00E949E028E818A3030F4B1
:104BA0006EEA71E089EA95E00E944F036E8189EA1E
:104BB00095E00E94131362EB71E089EA95E00E9490
:104BC0004F03E0900001EA94E9E0EE9EC001112459
:104BD0009C0122533E4F7901B90189EA95E00E9478
:104BE00027036BE371E089EA95E00E94A50262EB7E
:104BF00071E089EA95E00E944F0362E371E089EA7F
:104C000095E00E94A50262EB71E089EA95E00E94BE
:104C10004F0339E03D1530F06EEA71E089EA95E026
:104C20000E944F03602F89EA95E00E94131360EB06
:104C300071E089EA95E00E944F034AE0441651046E
:104C40006104710430F46EEA71E089EA95E00E9433
:104C50004F03642D89EA95E00E94131360EB71E025
:104C600089EA95E00E944F035AE085169104A10459
:104C7000B10430F46EEA71E089EA95E00E944F03D6
:104C8000682D89EA95E00E94FA12809101010E9444
:104C900037130E94F21260E082E00E94C61265E2C1
:104CA00071E08DE895E00E94A50261E084E00E9439
:104CB000C612B7018DE895E00E944F036CED75E0D8
:104CC00080E090E00E94F503109219021092180201
:104CD0008091190281110EC011FF0CC09091130236
:104CE00081E0891B8093130264E670E080E090E02D
:104CF0000E94F50380911302813009F04DC00E949B
:104D0000BE1A61E080E00E94C6126FE171E08DE89A
:104D100095E00E94A502CE0101960E94BC068C81FE
:104D20008A3030F46EEA71E08DE895E00E944F031E
:104D30006C818DE895E00E94131360EB71E08DE8C3
:104D400095E00E944F038D818A3030F46EEA71E065
:104D50008DE895E00E944F036D818DE895E00E94FB
:104D6000131360EB71E08DE895E00E944F038E8194
:104D70008A3030F46EEA71E08DE895E00E944F03CE
:104D80006E818DE895E00E94131364EB71E08DE86D
:104D900095E00E944F0365C00E94BE1A61E080E06A
:104DA0000E94C61269E171E08DE895E00E94A502BB
:104DB000CE0101960E94BC066C816D3060F06631B8
:104DC00030F46EEA71E08DE895E00E944F038C812B
:104DD00090E00C9704C0611105C08CE090E00E9447
:104DE000F5150DC06A3038F46EEA71E08DE895E093
:104DF0000E944F036C818DE895E00E9413136AE3D3
:104E00008DE895E00E949E028D818A3030F46EEA32
:104E100071E08DE895E00E944F036D818DE895E08B
:104E20000E9413136AE38DE895E00E949E028E8132
:104E30008A3030F46EEA71E08DE895E00E944F030D
:104E40006E818DE895E00E9413138C818C3018F0F0
:104E500065E171E002C061E171E08DE895E00E94DA
:104E6000A50280911902811119C0CE0101960E94FC
:104E7000BC068C8181110BC08D81811108C00E94FC
:104E80002F0461367A4E8105910508F071C08C813E
:104E9000811104C08D81813009F476C00E942F04F5
:104EA00000910E0210910F02209110023091110218
:104EB000DC01CB01801B910BA20BB30B8838934113
:104EC000A105B10508F44AC00E942F0460930E02A8
:104ED00070930F02809310029093110289EA95E07B
:104EE0000E941D17CE0101960E94BC066A8182E0D5
:104EF0000E94DC156B8183E00E94DC15498150E043
:104F00004053584FCA01B1010E947C2884E0C25727
:104F1000DF4F4883CE58D040C157DF4F5883CF581A
:104F2000D0400E94DC15C257DF4F4881CE58D04098
:104F300060E3640F85E00E94DC156C8186E00E94CE
:104F4000DC156D8187E00E94DC156E8188E00E948F
:104F5000DC156091130289E00E94DC150E94460274
:104F60003DCA68E670E089EA95E00E943B0309CA01
:104F70008091120281118BCF0E94591B80911202E5
:104F80008F5F8093120283CF1092120287CF882303
:104F900009F407C98E01025E1F4FF3C8E9E9F4E086
:104FA0001382128288EE93E0A0E0B0E084839583C0
:104FB000A683B78328E131E03183208325EC30E0FC
:104FC0003587248724EC30E03787268720EC30E0D3
:104FD000318B208B21EC30E0338B228B22EC30E0C4
:104FE000358B248B26EC30E0378B268B118E128E7E
:104FF000138E148EE6E3F5E020E520831182E8E3CA
:10500000F5E0158216821186138642E050E060E0DA
:1050100070E0448755876687778713A215A614A684
:1050200028E231E033A722A717A6E1E8F5E01382D2
:10503000128284839583A683B78320E331E0318392
:105040002083E9EAF5E01382128284839583A683A4
:10505000B78388E491E091838083128E118E148649
:10506000EDE8F5E01382128280E491E09183808381
:10507000128E148A8FE084838EE085838DE0868390
:105080008CE087838BE080878AE0818789E0828754
:10509000178681E0808B82E0818B83E0828B84E0C5
:1050A000838B0895EC010E94F21268E372E08DE8B0
:1050B00095E00E94A50261E080E00E94C612BE0158
:1050C0008DE895E00E944F0360E372E089E994E087
:1050D0000E94A502BE0189E994E00E942703FFCF48
:1050E000991B79E004C0991F961708F0961B881F3A
:1050F0007A95C9F780950895AA1BBB1B51E107C09B
:10510000AA1FBB1FA617B70710F0A61BB70B881F57
:10511000991F5A95A9F780959095BC01CD010895E6
:10512000A1E21A2EAA1BBB1BFD010DC0AA1FBB1FAB
:10513000EE1FFF1FA217B307E407F50720F0A21B1D
:10514000B30BE40BF50B661F771F881F991F1A948A
:1051500069F760957095809590959B01AC01BD01B4
:10516000CF010895EE0FFF1F0590F491E02D0994F3
:10517000CF93DF938230910510F482E090E0E091CC
:105180000E06F0910F0620E030E0C0E0D0E030974E
:1051900011F14081518148175907C0F0481759074C
:1051A00061F482819381209719F09B838A832BC0BD
:1051B00090930F0680930E0626C02115310519F035
:1051C0004217530718F49A01BE01DF01EF01028074
:1051D000F381E02DDCCF2115310509F1281B390BB6
:1051E0002430310590F412968D919C91139761159E
:1051F000710521F0FB019383828304C090930F0615
:1052000080930E06FD01329644C0FD01E20FF31FAC
:1052100081939193225031092D933C933AC0209170
:105220000C0630910D06232B41F42091080130919A
:10523000090130930D0620930C0620910601309150
:1052400007012115310541F42DB73EB740910A0100
:1052500050910B01241B350BE0910C06F0910D06CB
:10526000E217F307A0F42E1B3F0B2817390778F03D
:10527000AC014E5F5F4F2417350748F04E0F5F1F9C
:1052800050930D0640930C068193919302C0E0E089
:10529000F0E0CF01DF91CF9108950F931F93CF934B
:1052A000DF93009709F48CC0FC01329713821282BD
:1052B00000910E0610910F060115110581F4208151
:1052C0003181820F931F20910C0630910D06281713
:1052D000390779F5F0930D06E0930C0671C0D801FB
:1052E00040E050E0AE17BF0750F412962D913C916C
:1052F0001397AD012115310509F1D901F3CF9D01B6
:10530000DA013383228360817181860F971F8217B0
:10531000930769F4EC0128813981260F371F2E5F2E
:105320003F4F318320838A819B8193838283452BE6
:1053300029F4F0930F06E0930E0642C01396FC93F7
:10534000EE931297ED01499159919E01240F351F5B
:10535000E217F30771F480819181840F951F029603
:1053600011969C938E938281938113969C938E9336
:105370001297E0E0F0E0D80112968D919C9113977E
:10538000009719F0F8018C01F6CF8D919C9198014E
:105390002E5F3F4F820F931F20910C0630910D0618
:1053A0002817390769F4309729F410920F061092E4
:1053B0000E0602C01382128210930D0600930C0693
:1053C000DF91CF911F910F910895A0E0B0E0EBEE37
:1053D000F9E20C94FA2AEC01009721F4CB010E9427
:1053E000B828B8C0FC01E60FF71F9C012250310914
:1053F000E217F30708F4ACC0D9010D911C91119785
:1054000006171707B0F00530110508F49FC0C80152
:1054100004978617970708F499C002501109061BD4
:10542000170B019311936D937C93CF010E944D292B
:105430008DC05B01A01AB10A4C01800E911EA09193
:105440000E06B0910F0640E050E0E12CF12C1097D1
:1054500009F44AC0A815B905D1F56D907C90119753
:10546000630182E0C80ED11CCA14DB0480F1A301E1
:105470004A195B096A0182E0C80ED11C1296BC90E1
:1054800012971396AC91B5E0CB16D10440F0B282DE
:10549000A38351834083D9016D937C930AC00E5F2F
:1054A0001F4FC301800F911FF90191838083EB2D62
:1054B000FA2FE114F10431F0D7011396FC93EE9327
:1054C000129744C0F0930F06E0930E063FC08D91F3
:1054D0009C9111974817590708F4AC017D01129669
:1054E0000D90BC91A02DB3CF80910C0690910D062C
:1054F00088159905E1F446175707C8F4809106010D
:1055000090910701009741F48DB79EB740910A0131
:1055100050910B01841B950BE817F907C8F4F09321
:105520000D06E0930C06F901718360830FC0CB0177
:105530000E94B8287C01009759F0A801BE010E9482
:10554000C12ACE010E944D29C70104C0CE0102C06C
:1055500080E090E0CDB7DEB7EEE00C94162B81E052
:1055600090E0F8940C943C2BFB01DC0104C08D917D
:105570000190801921F441505040C8F7881B990BC5
:105580000895FB01DC0102C001900D924150504092
:10559000D8F70895FC018191861721F08823D9F767
:1055A000992708953197CF010895FB01DC010190FF
:1055B0000D920020E1F70895FB01DC0141505040BD
:1055C00048F001900D920020C9F701C01D92415092
:1055D0005040E0F708950E942D2BA59F900DB49F99
:1055E000900DA49F800D911D112408952F923F923C
:1055F0004F925F926F927F928F929F92AF92BF92E3
:10560000CF92DF92EF92FF920F931F93CF93DF938E
:10561000CDB7DEB7CA1BDB0B0FB6F894DEBF0FBEEB
:10562000CDBF09942A88398848885F846E847D8438
:105630008C849B84AA84B984C884DF80EE80FD803A
:105640000C811B81AA81B981CE0FD11D0FB6F894B0
:10565000DEBF0FBECDBFED010895A29FB001B39F85
:10566000C001A39F700D811D1124911DB29F700D6B
:0C567000811D1124911D0895F894FFCFB6
:10567C000107FFFFFFFF0000100680000000400044
:10568C001400540000000000DD015901A601840142
:10569C009801240200000000DB11590100000000F9
:1056AC00EE16BE16B616A216931692160000000041
:1056BC00B6065901000000004A16251729163A199A
:1056CC0044191D170000000075025901750275027E
:1056DC0075027502000000007502590152544320F6
:1056EC004E6F74205365740070726F6A65637473C7
:1056FC002E74787400436172642052656164204595
:10570C0072726F720050726F6A6563740046696CD6
:10571C0065205772697465204572726F7200300093
:10572C003A002C00204852002F005245434F52445F
:0C573C0030302E435356000D0A002D00A3
:00000001FF
