:100000000C9460010C9488010C9488010C94880174
:100010000C9488010C9488010C9488010C9488013C
:100020000C9488010C9488010C9488010C9488012C
:100030000C9488010C9488010C9488010C9488011C
:100040000C94C2110C9488010C94FE100C94D810DE
:100050000C9488010C9488010C9488010C948801FC
:100060000C94370D0C9488014E6F6E650020402073
:10007000004C6173742068656172746265617420FC
:1000800064657465637465643A20002D2D2D2D2DF3
:100090002D2D2D2D2D2D2D2D2D2D2D0044617465F3
:1000A0003A20002D2D2D2D2D2D2D2D2D2D2D2D2DAD
:1000B0002D2D2D00446F6E652E002E2E2E20004318
:1000C00072656174696E672066696C652000446FB3
:1000D0006E652E0052656164696E672070726F6A8A
:1000E000656374732E7478742066696C652E2E2E89
:1000F0002000446F6E652E005344206361726420BB
:10010000696E697469616C697A696E672E2E2E203A
:10011000002D2D2D2D2D2D2D2D2D2D2D2D2D2D2D3C
:100120002D2D2D2D2D2D2D0074696D65436C6F6364
:100130006B2076322E302E362D616C706861002D6A
:100140002D2D2D2D2D2D2D2D2D2D2D2D2D2D2D2DDF
:100150002D2D2D2D2D0076322E302E366100746916
:100160006D65436C6F636B0020414D0020504D0066
:1001700054696D65200044617465200054696D65A3
:10018000200044617465200054696D6572204D61E2
:10019000786564210068683A6D6D3A73730054693C
:1001A0006D65720054696D6572202068683A6D6DE6
:1001B0003A737300456C61707365642000456C612F
:1001C000707365642054696D65723A20002D005487
:1001D000696D65722053746F707065643A200053C6
:1001E000746F70706564210054696D6572005469A4
:1001F0006D657220537461727465643A20002D2D10
:100200002D2D2D2D2D2D00537461727465642100E8
:1002100054696D6572006D65646961206465766915
:1002200063650044617461206C6F67676564207466
:100230006F004572726F723A200053797374656D66
:10024000204572726F72210053656C65637465643A
:10025000007C3C3E5E2B3D3F2F5B5D3B2C2A225CAD
:10026000001F1C1F1E1F1E1F1F1E1F1E1F00000021
:100270000800020100000304070000000000000065
:100280000000000000250028002B000000000024D2
:100290000027002A000404040404040404020202E7
:1002A00002020203030303030301020408102040B7
:1002B0008001020408102001020408102000E42735
:1002C00011241FBECFEFD8E0DEBFCDBF11E0A0E00C
:1002D000B1E0ECE6F6E502C005900D92A43DB10751
:1002E000D9F726E0A4EDB1E001C01D92A731B20715
:1002F000E1F711E0C0E6D1E004C02197FE010E94C1
:10030000AA28CF35D107C9F70E94371B0C94342B8C
:100310000C940000DC015996ED91FC915A973097AE
:10032000B9F083899489A589B68942855385648506
:100330007585841B950BA60BB70B811520E89207DA
:10034000A105B10538F08FEF9FE7A0E0B0E0089578
:1003500080E090E00895CF93DF931F92CDB7DEB792
:100360006983DC01ED91FC910280F381E02D41E095
:1003700050E0BE016F5F7F4F09950F90DF91CF91E5
:10038000089585ED8093BC008091BC0084FDFCCF76
:100390001092E604089540914302262F30E0240F86
:1003A000311D21323105DCF42091E6042430C9F4FA
:1003B000FC0180E090E0861758F4309143022191CF
:1003C000DC01AF5DBD4FA30FB11D2C930196F3CFA0
:1003D00080914302680F6093430280E0089581E0BA
:1003E000089582E008950895E0919C0480919B0413
:1003F000E81730F4F0E0E056FB4F808190E008957C
:100400008FEF9FEF089590919C0480919B04981723
:1004100050F4E92FF0E0E056FB4F208130E09F5F81
:1004200090939C0402C02FEF3FEFC9010895809183
:100430009B0490E020919C04821B91090895CF9227
:10044000DF92EF92FF920F931F93CF93DF937C0184
:10045000262F972F8A0180919F04882391F0C62F21
:10046000D72F6E01C40ED51ECC15DD0571F0699134
:10047000D701ED91FC910190F081E02DC701099524
:10048000F3CF642F822F0E94CB01C801DF91CF915F
:100490001F910F91FF90EF90DF90CF900895CF9331
:1004A000DF931F92CDB7DEB7698320919F0422238B
:1004B000D1F020919D04203240F021E030E0FC0199
:1004C0003383228380E090E015C080919E04E82F62
:1004D000F0E0E558FB4F998190838F5F80939E04F5
:1004E00080939D0405C061E0CE0101960E94CB017E
:1004F00081E090E00F90DF91CF9108953F924F926D
:100500005F926F927F928F929F92AF92BF92CF92A3
:10051000DF92EF92FF920F931F93CF93DF93CDB7AC
:10052000DEB72C970FB6F894DEBF0FBECDBF5C01CF
:10053000DC015B968D909C905C971696CD90DD903B
:10054000ED90FC901997C114D104E104F10439F045
:10055000BFEFCB1ADB0AEB0AFB0A312C07C0F40110
:10056000C080D180E280F38033243394F40181850C
:100570009285A385B4859C01AD012F5F3F4F4F4FFE
:100580005F4F29873A874B875C87260137011D8299
:100590001E821F821886F40181859285A385B48509
:1005A0002D813E814F815885281739074A075B07FF
:1005B00008F063C089859A85AB85BC858C159D053F
:1005C000AE05BF0550F482E0C82ED12CE12CF12CF1
:1005D00092E0492E512C612C712C9E012F5F3F4FD0
:1005E000B701A601C4010E940D16882309F445C075
:1005F00089819A81AB81BC81892B8A2B8B2B41F01D
:10060000260137019FEF491A590A690A790A05C07C
:10061000C414D504E604F70491F02D813E814F8186
:1006200058852F5F3F4F4F4F5F4F2D833E834F8342
:1006300058873FEFC31AD30AE30AF30AACCF0FEF90
:100640001FEF2FEF3FE0B301A201C4010E946D151F
:10065000882399F0D50116964D915D916D917C910D
:100660001997411551056105710549F09301820102
:10067000C4010E946D15811102C080E02AC0D5011D
:1006800016964D925D926D927C921997332051F09F
:10069000D301C2010196A11DB11DF4018083918394
:1006A000A283B383F5018789908DA18DB28D892BAB
:1006B0008A2B8B2B69F4D50157964D925D926D92E2
:1006C0007C925A9714968C911497806814968C9308
:1006D00081E02C960FB6F894DEBF0FBECDBFDF9140
:1006E000CF911F910F91FF90EF90DF90CF90BF902F
:1006F000AF909F908F907F906F905F904F903F90C2
:100700000895EF92FF920F931F93CF93DF9300D042
:1007100000D000D0CDB7DEB78C017B01CE010196B1
:100720000E9443142A8180E2289F900111248B812A
:10073000A901482B8981282F30E02C5E3F4F322FB2
:100740002227330F242B352BF801318320838D8111
:10075000F0E28F9F900111249C81892F90E0982FC7
:100760008827990F990F990F822B932B2E8130E0B8
:1007700035952795822B932BF701918380832696BD
:100780000FB6F894DEBF0FBECDBFDF91CF911F91A2
:100790000F91FF90EF9008958F929F92AF92BF922A
:1007A000CF92DF92EF92FF920F931F93CF93DF933D
:1007B000EC018D81811102C080E077C00B891C891A
:1007C0002D893E890417150726073707A8F36A0104
:1007D0007B01823029F4CA86DB86EC86FD860DC05B
:1007E000C114D104E104F10451F41E821F82188661
:1007F00019861A861B861C861D8681E056C08A844F
:100800009B84AC84BD84EB8DFC8D258530E0275F17
:100810003F4FB501A4014150510961097109022EF0
:1008200004C076956795579547950A94D2F7D701F6
:10083000C6010197A109B10904C0B695A79597957E
:1008400087952A95D2F784179507A607B70720F052
:1008500089288A288B2849F44F89588D698D7A8D8B
:100860004E835F836887798704C0841B950BA60B32
:10087000B70B4C015D018E010A5F1F4F811491047B
:10088000A104B10409F4A7CF4E815F816885798501
:1008900098018B8D9C8D0E940D1691E0891A91080C
:1008A000A108B1088111EACF87CFDF91CF911F91C5
:1008B0000F91FF90EF90DF90CF90BF90AF909F90FF
:1008C0008F9008958FB7F894809169028FBF089533
:1008D00061E0FC0184810E943011809168028111E5
:1008E0001092680208958EBD00000DB407FEFDCF82
:1008F0008EB508958FEF0C9473040F931F93CF93CD
:10090000DF93EB010E94B6118B010E947A048F3FA6
:1009100049F00E94B611601B710B6C177D07A8F39C
:1009200080E001C081E0DF91CF911F910F91089588
:10093000CF93DF93EC018E81882389F08F81988596
:100940009C012F5F3F4F38872F838230924018F4ED
:100950000E947A04F3CFCE010E9468041E82DF91C8
:10096000CF9108958CBD9DBD0895CF93DF93EC0189
:1009700080916802811109C081E0809368028091B2
:100980008405909185050E94B20460E08C81DF911E
:10099000CF910C943011CF92DF92FF920F931F935F
:1009A000CF93DF9300D000D0CDB7DEB76C01F62E29
:1009B00029833A834B835C830E949804C6010E947A
:1009C000B5046CE271E0C6010E947D048F2D806445
:1009D0000E94730408E110E05C814B813A81298117
:1009E000DA01C901002E04C0B695A79597958795A1
:1009F0000A94D2F729833A834B835C830E94730461
:100A00000850110929813A814B815C81083F8FEFA1
:100A1000180731F7FF2029F0E8E0FE1204C087E84C
:100A200003C085E901C08FEF0E94730410E00E94AB
:100A30007A04F601828787FF04C01F3F11F01F5F11
:100A4000F6CF0F900F900F900F90DF91CF911F91E5
:100A50000F91FF90DF90CF900895AF92BF92CF9209
:100A6000DF92EF92FF920F931F93CF93DF93EC01EE
:100A70006901C801820F931F8130924008F070C055
:100A80008E81882371F088819981AA81BB81481762
:100A900059076A077B0729F48F819885C816D906FC
:100AA000B0F5488359836A837B838B85833039F023
:100AB00089E0440F551F661F771F8A95D1F79A0169
:100AC000AB0161E1CE010E94CB04882319F083E0E1
:100AD0008D8346C00E94B6115B010E947A048A870A
:100AE0008F3F49F40E94B6116A197B096D3271403B
:100AF000A0F38FE003C08E3F31F08DE08D83CE01F7
:100B00000E9468042DC018861F8281E08E838F8129
:100B100098858C159D0540F40E947A048F819885F4
:100B2000019698878F83F3CF6701E00EF11ECE14F4
:100B3000DF0431F00E947A04F60181936F01F7CF50
:100B40008F819885080F191F18870F83898588233F
:100B500019F00115124048F0CE010E94980405C01A
:100B6000CE010E94680480E001C081E0DF91CF9156
:100B70001F910F91FF90EF90DF90CF90BF90AF90BB
:100B800008952F923F924F925F926F927F928F9231
:100B90009F92AF92BF92CF92DF92EF92FF920F930C
:100BA0001F93CF93DF9300D0CDB7DEB7FC018581D3
:100BB000882309F4D9C0848180FFD6C021E02A832C
:100BC000438954896589768982859385A485B5850D
:100BD000481759076A077B0709F41A826F013A819F
:100BE000832F90E0DE0111964D013F01B6E06B0EC0
:100BF000711C892B09F47DC0D6011A964D915D9127
:100C00006D917C911D975A01B1E0BB22F6012581BF
:100C10001A012B0189E056944794379427948A95BA
:100C2000D1F7838D948D223061F4FC01828D938DF8
:100C3000A48DB58DBC01CD01620D731D841D951D64
:100C400045C0DC0114961C9111501221A114B1046D
:100C5000D1F4111118C0452B462B472B51F4F60146
:100C60008789908DA18DB28D86839783A087B18768
:100C70000AC0468157816085718593010E940D16D7
:100C8000882309F471C0F601238D348D8681978104
:100C9000A085B1850297A109B109AC01BD01F90197
:100CA000058404C0440F551F661F771F0A94D2F7AE
:100CB00086859785A089B189840F951FA61FB71FC8
:100CC000BC01CD01610F711D811D911DD6011496CE
:100CD0002C9126FF14C00091020110910301209174
:100CE000040130910501601771078207930751F5E0
:100CF00006C0FA81FF23C1F1898190E037C040E04E
:100D00000E942415882381F1F501E858FD4FD40194
:100D1000CF010196E817F90719F021912D93FACF29
:100D2000EFEF8E1A9E0AF60182859385A485B5851C
:100D30000196A11DB11D82879387A487B58780E0A6
:100D400090E057CF740101E010E09501AB01BC01C8
:100D500080917804909179040E942D05882321F0D8
:100D6000BFEF8B1A9B0ADFCF8FEF9FEF0F900F9093
:100D7000DF91CF911F910F91FF90EF90DF90CF9077
:100D8000BF90AF909F908F907F906F905F904F90AB
:100D90003F902F900895FC01818D928D009711F066
:100DA0000C94C1058FEF9FEF08950F931F93CF937E
:100DB000DF93FC01818D928D0097B9F0EF010E94C5
:100DC000C1058C010F3F8FEF180791F0898D9A8D27
:100DD000FC0142855385648575854150510961093F
:100DE00071090E94CC03C80105C080E090E002C0F8
:100DF0008FEF9FEFDF91CF911F910F910895EF92A9
:100E0000FF920F931F93CF93DF93EC01790141156C
:100E100051056105710511F482E13CC08B85833079
:100E200039F089E0440F551F661F771F8A95D1F767
:100E30009A01AB0168E1CE010E94CB04882311F036
:100E400084E028C08EEF0E94730487018EEFF81AA9
:100E5000F80181918F010E9473040E151F05C1F7DF
:100E60008FEF0E9473048FEF0E9473040E947A0434
:100E70008A878F71853031F081E18D83CE010E94A8
:100E8000680409C068E572E0CE010E947D0481110A
:100E900007C085E18D83CE010E94680480E013C005
:100EA00020E030E0A9016DE0CE010E94CB04811169
:100EB00004C00E947A04882311F084E1EBCFCE01B4
:100EC0000E94680481E0DF91CF911F910F91FF9004
:100ED000EF90089580916A028823A9F14091020160
:100EE00050910301609104017091050128E732E0FF
:100EF00080917804909179040E94FF06811102C0CC
:100F000080E0089540916B0250916C0260916D02F7
:100F100070916E02411551056105710591F028E748
:100F200032E080917804909179040E94FF06882332
:100F300039F310926B0210926C0210926D021092B3
:100F40006E0210926A0281E008950F931F93CF936F
:100F5000DF93EC018D81882309F447C08C8187FFE2
:100F60003EC06E857F858889998941E00E9424155D
:100F70008823D9F18A8920E2829FC0011124FC01D3
:100F8000E858FD4F309789F12D81223040F44B898C
:100F90005C896D897E89448F558F668F778F4F89E5
:100FA000588D698D7A8D8C0108581D4FF801538F2B
:100FB000428F758B648BE091D401F091D50130970D
:100FC00059F0BC0162577D4F80579D4F0995F8013C
:100FD000808D918D938B828B8C818F778C83DF9129
:100FE000CF911F910F910C946A0780E0DF91CF9110
:100FF0001F910F9108958F929F92AF92BF92CF92BF
:10100000DF92EF92FF920F931F93CF93DF9300D065
:1010100000D0CDB7DEB77C0180E2689F600111246B
:10102000960128583D4FD9011B969C91917121F052
:10103000842F827409F097C0142FF701628B80917E
:10104000020190910301A0910401B09105018687EE
:101050009787A08BB18BF601E858FD4F44895589DD
:1010600060E070E0BA0155274427D70157964D93A9
:101070005D936D937C935A97828D938DA0E0B0E041
:10108000482B592B6A2B7B2BD70157964D935D9399
:101090006D937C935A97D9011B968C91887159F462
:1010A000848D958DA68DB78DF701838B948BA58B41
:1010B000B68B81E012C0803109F055C097012D5EDA
:1010C0003F4FD7015B968D919C915C970E94911642
:1010D000882309F448C084E0F7018583812F8F704D
:1010E000D70114968C931497F701168217821086F5
:1010F00011861A961D921D921D921C921D9716FF25
:1011000034C015968C91813071F511FF2CC0F70118
:101110004389548965897689452B462B472B09F4E9
:1011200061C040E050E0BA01C7010E94CC038823AF
:10113000D1F0F7018788908CA18CB28CC38CD48CB1
:1011400082E090E0A0E0B0E0F60180839183A2838A
:10115000B3839E012F5F3F4FB501A401C6010E94DA
:101160000D16811104C080E03DC081E03BC000E06D
:1011700010E09801B501A401C6010E946D158823F5
:1011800091F389809A80AB80BC80D60157968C9170
:10119000803129F088EF9FEFAFEFBFE004C088EF08
:1011A0009FEFA0E0B0E088169906AA06BB0688F279
:1011B000D70157961D921D921D921C925A97F701C6
:1011C000138A148A158A168A848180688483C701E9
:1011D0000E94A507882339F240E050E0BA01C70118
:1011E0000E94CC030F900F900F900F90DF91CF9142
:1011F0001F910F91FF90EF90DF90CF90BF90AF9035
:101200009F908F900895CF93DF93EC010E94A507E4
:10121000882311F01D8281E0DF91CF910895FC01B8
:10122000818D928D009711F00C94A50708954F922F
:101230005F926F927F929F92AF92BF92CF92DF9216
:10124000EF92FF920F931F93CF93DF93CDB7DEB74B
:101250002B970FB6F894DEBF0FBECDBF7C01DC012B
:101260001596AC90A11097C1FE0131966F0190E2E6
:101270008BE08E0F91938E13FDCFDA0130E087E083
:101280009D91992339F19E3219F0E1E5F2E00AC00F
:101290008A3009F481C138E08AE0F2CF31964917EB
:1012A00009F47AC144914111F9CF831708F474C14C
:1012B0004FED490F4E3508F06FC141E0430FF60185
:1012C000E30FF11D3FE9390F3A3108F49052908352
:1012D000342FD6CF8981803209F45EC1B22E8B01C2
:1012E000DB015B968D919C915C97F701948F838FC6
:1012F00016961D921D921D921C921997FB01128643
:10130000138614861586712CF80182859385A48531
:10131000B585438954896589768984179507A60719
:10132000B70708F061C025E0B695A7959795879512
:101330002A95D1F7F82FFF709F2ED80115968C9122
:10134000823008F429C1C8010E94C10597FD24C15B
:10135000F80182859385A485B5854F96A11DB11DA1
:1013600082879387A487B587F0E29F9EC0011124EE
:10137000BC0168587D4F6115710509F40DC1DB0191
:101380002C91222319F0253EC1F427C071100EC004
:10139000F701928A4091020150910301609104018A
:1013A0007091050146875787608B718BFC01E85867
:1013B000FD4F8081811113C015C04BE050E0C60184
:1013C0000E94AC2A892B09F09FCF8B2D807380332C
:1013D00009F4E2C04B2D692DD9C07720C9F27724DA
:1013E000739492CF772473948B2D8271823109F09C
:1013F000D3C07720D1F0D7011E966D917D918D914C
:101400009C91519741E00E942415882309F4C4C09F
:10141000F7010289F0E20F9F8001112408581D4F47
:101420000115110509F079C0B7C0D80115968C9146
:10143000823009F4B1C0C8010E947E02882309F4F9
:10144000ABC0D8015B96ED91FC915C9716964D90E0
:101450005D906D907C901997B2E04B1A510861082D
:101460007108058404C0440C551C661C771C0A9442
:10147000D2F786859785A089B189480E591E6A1EC4
:101480007B1E9480E1E04E1A510861087108992092
:1014900009F10E946A07882309F47EC0E8E7F2E0B8
:1014A000119224E0E837F207D9F7D301C201890D80
:1014B000911DA11DB11D8093020190930301A09382
:1014C0000401B093050180916A02816080936A02F1
:1014D0009A94DDCFD8015B96ED91FC915C9780E00A
:1014E00092E0A0E0B0E0058404C0880F991FAA1F15
:1014F000BB1F0A94D2F7F80143895489658976891C
:10150000840F951FA61FB71F838B948BA58BB68B5B
:10151000D70152961C9208E712E080E2F80111927E
:101520008A95E9F78BE0F601D80101900D928A9532
:10153000E1F7E091D401F091D501309739F0B8018D
:10154000625F7F4FC801409609950DC081E298E225
:10155000D80151969C938E93509780E098E01F9607
:101560009C938E931E97F80180899189938B828B2F
:10157000918F808F86859785978B868B0E946A07CF
:10158000882351F04B2DD70152966C91C7010E94D0
:10159000FB07A82E01C0A12C8A2D2B960FB6F8941C
:1015A000DEBF0FBECDBFDF91CF911F910F91FF9096
:1015B000EF90DF90CF90BF90AF909F907F906F9013
:1015C0005F904F9008952F923F924F925F926F924B
:1015D0007F928F929F92AF92BF92CF92DF92EF92C3
:1015E000FF920F931F93CF93DF9300D000D0CDB71E
:1015F000DEB78C016B013A01DC0115968C911597D1
:101600008130C9F414968C9181FF15C082FF1DC0F2
:10161000F801438954896589768982859385A485F3
:10162000B58584179507A607B70779F0C8010E940A
:10163000CC0381110AC081E090E0D80113969C93FD
:101640008E93129780E090E048C1430184C0D80196
:101650005B968D919C915C97FC0154802FEF250D3A
:101660001A012B0139E056944794379427943A9500
:10167000D1F7522E52207A01F1E0FF22552009F4D1
:1016800076C080E092E08E199F0954018815990573
:1016900008F45C01D8015B962D913C915C971696FD
:1016A0008D919D910D90BC91A02D0297A109B1093A
:1016B000F901058404C0880F991FAA1FBB1F0A9453
:1016C000D2F74685578560897189840F951FA61FBB
:1016D000B71F9C01AD01250D311D411D511D190183
:1016E0002A01A11432E0B30609F088C080910201FA
:1016F00090910301A0910401B09105018215930519
:10170000A405B50559F48FEF9FEFDC01809302012A
:1017100090930301A0930401B09305019601B201D7
:10172000A10180917804909179040E94FF0688239A
:1017300009F481CF9EEFD91A8A189B08F801828597
:101740009385A485B5858A0D9B1DA11DB11D82873A
:101750009387A487B587D8011A964D915D916D91B5
:101760007C911D978114910409F071CF87C0E11419
:10177000F10409F086CF16964D915D916D917C91A3
:101780001997411551056105710559F457968D91C9
:101790009D910D90BC91A02D0097A105B10541F53B
:1017A00021C09E012F5F3F4F0E940D16882309F430
:1017B0004ACF89819A81AB81BC81F801238D348D18
:1017C000F9012789203129F048EF5FEF6FEF7FE0C3
:1017D00004C048EF5FEF60E070E084179507A6074C
:1017E000B70730F0C8010E947E0281114ACF23CF93
:1017F000F80186839783A087B18743CFE114F10472
:1018000029F5D8011A964D915D916D917C911D97A6
:1018100053968D919D910D90BC91A02D481759071D
:101820006A077B0798F00E946A07882309F403CFB0
:10183000209202013092030140920401509205016E
:1018400080916A02816080936A0208C041E0C2010F
:10185000B1010E942415882309F4EDCED601F701C9
:10186000E858FD4FCF018A0D9B1DE817F90719F0C5
:101870002D912193FACFCA0CDB1C5ECF5396CD90ED
:10188000DD90ED90FC90569714968C91C416D50679
:10189000E606F70640F4F801438B548B658B768B94
:1018A000806884830DC02091D4013091D501232B11
:1018B00039F06114710421F08068D80114968C937A
:1018C000F801848183FD02C0C30107C0C8010E94E2
:1018D000A507882309F4AFCEF7CF0F900F900F9094
:1018E0000F90DF91CF911F910F91FF90EF90DF90BC
:1018F000CF90BF90AF909F908F907F906F905F90B0
:101900004F903F902F900895CF93DF931F92CDB7C4
:10191000DEB7698341E050E0BE016F5F7F4F0E94F8
:10192000E30A0F90DF91CF910895CF93DF93EC01FD
:10193000898D9A8D009739F481E090E09B838A83AA
:1019400080E090E00BC0FC01138212820E94E30A47
:10195000E98DFA8D22813381232B71F7DF91CF91AD
:101960000895FC01DB0112968D919C91139793834E
:10197000828388E291E09183808314968C911497FE
:10198000848315968C911597858316964D915D915C
:101990006D917C91199746835783608771871A965A
:1019A0004D915D916D917C911D974287538764871E
:1019B00075871E964D915D916D917C9151974687EB
:1019C0005787608B718B52968C915297828B53966E
:1019D0004D915D916D917C915697438B548B658BA6
:1019E000768B57964D915D916D917C915A97478B6F
:1019F000508F618F728F5B968D919C915C97948FC5
:101A0000838F0895EF92FF920F931F93CF93DF93ED
:101A1000EC017B018A011B821A8288EE93E0A0E030
:101A2000B0E08C839D83AE83BF8388E491E099838B
:101A300088838DE190E00E94B0289A8F898F00976B
:101A400079F02DE1F701DC0101900D922A95E1F783
:101A50004CE050E0B801CE010C960E94D42A188EBA
:101A6000DF91CF911F910F91FF90EF9008951F92FA
:101A70000F920FB60F9211242F933F934F935F93C2
:101A80006F937F938F939F93AF93BF93EF93FF9346
:101A90008091B900887F803609F49CC068F588324F
:101AA00009F45BC090F4803109F454C038F4882301
:101AB00009F4F6C0883009F44DC0F6C0883109F445
:101AC0004CC0803209F45DC0EFC0803409F468C0B6
:101AD00048F4803309F455C0883309F0E5C0809399
:101AE000E404D8C0803509F44FC0883509F45DC0DE
:101AF000883409F0D9C0D6C0883909F4C7C0A8F421
:101B0000883709F467C038F4883609F463C0803731
:101B100009F460C0C9C0883809F4B8C0803909F434
:101B20005FC0803809F0C0C05BC0803B09F486C04C
:101B300038F4803A09F466C0883A09F47FC0B4C02A
:101B4000803C09F4A7C0883C09F4A4C0883B09F490
:101B50008AC0AAC08091E10410C09091E3048091F2
:101B6000E204981770F5E091E30481E08E0F809312
:101B7000E304F0E0E054FB4F80818093BB0085ECF0
:101B800086C08093E4048EC0E091E30481E08E0F70
:101B90008093E3048091BB00F0E0E054FB4F80832E
:101BA0009091E3048091E2046EC0E091E30481E04F
:101BB0008E0F8093E3048091BB00F0E0E054FB4F74
:101BC00080838091E50481116DC081E08093E00401
:101BD00084EA61C083E08093E60410926702CFCF6D
:101BE00080916702803208F051C0E091670281E085
:101BF0008E0F809367028091BB00F0E0E95BFD4FA0
:101C00008083BDCF85EC8093BC001092E604809168
:101C10006702803230F4E0916702F0E0E95BFD4F4B
:101C200010826091670270E0E0914502F0914602F7
:101C300087E492E009951092670236C084E08093B1
:101C4000E6041092440210924302E0914102F091A6
:101C50004202099580914302811105C081E0809381
:101C6000430210922102E091440281E08E0F8093A2
:101C70004402F0E0EF5DFD4F80818093BB009091C6
:101C8000440280914302981708F479CF85E8809345
:101C9000BC000AC085EC8093BC001092E60404C02E
:101CA0001092E4040E94C101FF91EF91BF91AF91A6
:101CB0009F918F917F916F915F914F913F912F9164
:101CC0000F900FBE0F901F901895CF93DF9300D009
:101CD00000D000D0CDB7DEB7CE0101960E944314EC
:101CE0008C818A3030F46EEA71E087EE94E00E94D5
:101CF000D6106C8187EE94E00E945A1863EB71E075
:101D000087EE94E00E94D6108D818A3030F46EEA1E
:101D100071E087EE94E00E94D6106D8187EE94E02A
:101D20000E945A1863EB71E087EE94E00E94D6108F
:101D30008E818A3030F46EEA71E087EE94E00E9482
:101D4000D6106E8187EE94E00E94411826960FB659
:101D5000F894DEBF0FBECDBFDF91CF9108956091A3
:101D6000010180E00E9428186091000181E00E943A
:101D70002818809101010E9408180E94001860E054
:101D800082E00E94D41760910001615089E0689F51
:101D9000B00111246A527E4F8BED95E00E94D6105F
:101DA00061E086E00E94D41768E472E08BED95E074
:101DB0000E942C106CED75E080E090E00C947C119A
:101DC000CF92DF92EF92FF920F931F93CF93DF9307
:101DD0006C017A018B01C0E0D0E0CE15DF0589F0FF
:101DE000D8016D918D01D601ED91FC910190F081AA
:101DF000E02DC6010995892B11F47E0102C02196C0
:101E0000ECCFC701DF91CF911F910F91FF90EF9021
:101E1000DF90CF900895FC01918D828D981761F02D
:101E2000828DDF01A80FB11D5D968C91928D9F5F11
:101E30009F73928F90E008958FEF9FEF0895FC01BC
:101E4000918D828D981731F0828DE80FF11D858D6F
:101E500090E008958FEF9FEF0895FC01918D228D02
:101E6000892F90E0805C9F4F821B91098F73992787
:101E7000089587EE94E00E942D0F21E0892B09F44C
:101E800020E0822F0895FC01848DDF01A80FB11D91
:101E9000A35ABF4F2C91848D90E001968F739927A0
:101EA000848FA689B7892C93A089B1898C9180648D
:101EB0008C93938D848D981306C00288F389E02D4E
:101EC00080818F7D80830895EF92FF920F931F93FF
:101ED000CF93DF93EC0181E0888F9B8D8C8D9813DD
:101EE00005C0E889F989808185FD24C0F62E0B8D17
:101EF00010E00F5F1F4F0F731127E02E8C8DE8123B
:101F00000CC00FB607FCFACFE889F989808185FFFC
:101F1000F5CFCE010E94430FF1CF8B8DFE01E80F6C
:101F2000F11DE35AFF4FF0820B8FEA89FB89808114
:101F3000806207C0EE89FF896083E889F989808122
:101F40008064808381E090E0DF91CF911F910F91B9
:101F5000FF90EF900895CF93DF93EC01888D882355
:101F6000C9F0EA89FB89808185FD05C0A889B98906
:101F70008C9186FD0FC00FB607FCF5CF808185FFE1
:101F8000F2CFA889B9898C9185FFEDCFCE010E944F
:101F9000430FE7CFDF91CF91089580E090E0892B48
:101FA00029F00E94390F81110C94000008953FB769
:101FB000F8948091740290917502A0917602B0918C
:101FC000770226B5A89B05C02F3F19F00196A11DE9
:101FD000B11D3FBFBA2FA92F982F8827820F911DBF
:101FE000A11DB11DBC01CD0142E0660F771F881F06
:101FF000991F4A95D1F708950E94A72A0F931F931E
:10200000CF93DF93EC0188819981009729F02A8191
:102010003B812617370788F48B016F5F7F4F0E9443
:10202000DD29009761F0998388831B830A832C81C3
:102030003D81232B11F4FC01108281E001C080E07E
:10204000DF91CF911F910F910895DC01ED91FC91EB
:102050000190F081E02D0994EF92FF920F931F936E
:10206000CF93DF938C017B01C0E0D0E0F701EC0F50
:10207000FD1F6491662361F0D801ED91FC91019000
:10208000F081E02DC8010995892B11F02196EECF42
:10209000CE01DF91CF911F910F91FF90EF900895A6
:1020A0006115710579F0FB0101900020E9F7319786
:1020B000AF01461B570BDC01ED91FC910280F381CF
:1020C000E02D099480E090E008954F925F926F9226
:1020D0007F92EF92FF920F931F93CF93DF93CDB731
:1020E000DEB7A1970FB6F894DEBF0FBECDBF7C015F
:1020F000FA01CB0119A2223008F42AE08E010F5D0B
:102100001F4F422E512C612C712CBF01A301920153
:102110000E948828F901CA01015011096A3014F49B
:10212000605D01C0695CD8016C93232B242B252BA7
:1021300061F7B801C7010E945010A1960FB6F8943C
:10214000DEBF0FBECDBFDF91CF911F910F91FF90EA
:10215000EF907F906F905F904F9008950F931F9333
:10216000CF93DF93EC010E9450108C0160EB71E083
:10217000CE010E945010800F911FDF91CF911F91CF
:102180000F9108950F931F93CF93DF93EC010E945B
:102190002C108C0160EB71E0CE010E945010800F7A
:1021A000911FDF91CF911F910F9108950C945010C2
:1021B0001F920F920FB60F9211242F933F934F93BC
:1021C0005F936F937F938F939F93AF93BF93EF939F
:1021D000FF9387EE94E00E94430FFF91EF91BF9130
:1021E000AF919F918F917F916F915F914F913F91AF
:1021F0002F910F900FBE0F901F9018951F920F9266
:102200000FB60F9211242F938F939F93EF93FF9309
:10221000E091F704F091F8048081E091FD04F091E1
:10222000FE0482FD12C09081809100058F5F8F7344
:1022300020910105821751F0E0910005F0E0E9518D
:10224000FB4F958F8093000501C08081FF91EF9136
:102250009F918F912F910F900FBE0F901F90189507
:1022600090E0FC01E359FD4F3491FC01E755FD4F2F
:102270002491FC01EB56FD4FE491EE2309F43BC0A1
:10228000332339F1333091F038F43130A9F0323062
:1022900001F584B58F7D12C0373091F03830A1F050
:1022A0003430B9F4809180008F7D03C0809180002C
:1022B0008F77809380000DC084B58F7784BD09C06F
:1022C0008091B0008F7703C08091B0008F7D8093A4
:1022D000B000F0E0EE0FFF1FEF57FD4FA591B49156
:1022E0008FB7F894EC91611103C020952E2301C0A3
:1022F0002E2B2C938FBF08958F929F92AF92BF92F7
:10230000CF92DF92EF92FF926B017C010E94D70F78
:102310004B015C01C114D104E104F104F1F00E940D
:10232000D70FDC01CB0188199909AA09BB09883E9E
:102330009340A105B10570F321E0C21AD108E1086C
:10234000F10888EE880E83E0981EA11CB11CC11410
:10235000D104E104F10419F7DDCFFF90EF90DF9095
:10236000CF90BF90AF909F908F9008952FB7F89423
:10237000609170027091710280917202909173026B
:102380002FBF08951F920F920FB60F9211242F9313
:102390003F938F939F93AF93BF93809170029091DF
:1023A0007102A0917202B091730230916F0223E02A
:1023B000230F2D3720F40196A11DB11D05C026E87D
:1023C000230F0296A11DB11D20936F02809370020E
:1023D00090937102A0937202B09373028091740281
:1023E00090917502A0917602B09177020196A11D9D
:1023F000B11D8093740290937502A0937602B093FE
:102400007702BF91AF919F918F913F912F910F9044
:102410000FBE0F901F901895682F8FEC95E00C94CD
:102420004F02EF92FF920F931F93CF93DF9300D051
:10243000CDB7DEB77C01162F683020F0185095E13B
:1024400003E102C094E102E1F701808180624A83E6
:1024500099830E943E179981892F0E940C120E9435
:102460005217F7019081892F806261E070E090E05F
:102470000E9448178FEC95E00E9403024A8121E0F8
:1024800030E001C0220F1A95EAF7413019F4122FFB
:10249000182B03C02095122F1823F701808180622A
:1024A0000E943E17802F0E940C12812F0E940C1256
:1024B0000F900F90DF91CF911F910F91FF90EF90B0
:1024C0000C945217FC01962F828D8F3F31F06031B2
:1024D00040F4CF014B960C941112642F892F0C9469
:1024E00030110895CF93DF93EC0140E06E810E949C
:1024F000621241E06E81CE010E94621240E06E8164
:10250000CE010E9462128BE891E00197F1F7DF9112
:10251000CF910895EF92FF920F931F93CF93DF9384
:102520001F92CDB7DEB77C01162F683018F0185017
:1025300001E001C000E0F7018081806249830E94D0
:102540003E17802F0E940C120E945217F7018081C3
:10255000806261E070E090E00E9448178FEC95E0A7
:102560000E940302498121E030E001C0220F1A9548
:10257000EAF7411103C0122F182B03C02095122F28
:102580001823F701808180620E943E17802F0E94ED
:102590000C12812F0E940C120F90DF91CF911F918E
:1025A0000F91FF90EF900C945217603110F40C943F
:1025B0008A120895CF93DF9300D0CDB7DEB7FC0128
:1025C0008081806269837A830E943E1782E10E9443
:1025D0000C126981862F0E940C127A81872F0E942B
:1025E0000C120F900F90DF91CF910C9452178F9295
:1025F0009F92AF92BF92CF92DF92EF92FF920F9392
:102600001F93CF93DF93EC018A8D8E01095F1F4FDB
:10261000C62ED12C8F3F09F483C07E018BE1E80EDA
:10262000F11C8B8D80620E943E1782E10E940C1289
:102630000E9452178B8D806262E070E090E00E94F1
:1026400048178FEC95E00E940302B82E8FEC95E0BE
:102650000E940302982F88279C012B29F801A0E0F3
:10266000B0E061E070E0B19001E010E0CB010B2C34
:1026700002C0880F991F0A94E2F78095909528234D
:102680003923A6010A2E02C0559547950A94E2F710
:102690004170552702C0440F551FBA94E2F7242B0E
:1026A000352B1196A430B105F1F668010E8002C0F9
:1026B000CC0CDD1C0A94E2F7C094D094C222D32241
:1026C000B601C7010E94DA12B8010E8002C0660F7F
:1026D000771F0A94E2F7C62AD72AB601C7010E94DB
:1026E000DA120E8002C0000F111F0A94E2F7009563
:1026F0001095B60160237123C7010E94DA128BE89E
:1027000091E00197F1F7DF91CF911F910F91FF9029
:10271000EF90DF90CF90BF90AF909F908F900895F3
:10272000E12CF12C4E01EBE18E0E911C5801F801C9
:1027300080819A8D9F3F31F041E0682FC4010E9453
:10274000D51202C00E94AF170F5F1F4FA6010E2CBB
:1027500002C0559547950A94E2F74170F5016081F2
:10276000CE010E946212FFEFEF1AFF0A84E0E81622
:10277000F104E1F6CE01DF91CF911F910F91FF900F
:10278000EF90DF90CF90BF90AF909F908F900C9480
:1027900072128F929F92AF92BF92CF92DF92EF927E
:1027A000FF920F931F93CF93DF93EC01F62E6C8172
:1027B0000E9462126D816F3F21F040E0CE010E94C5
:1027C00062128C890F2D10E084FF3EC06E0187E0FD
:1027D000C80ED11CE12CF12C4E01EBE18E0E911CA8
:1027E0005601F60180819A8D9F3F31F041E0682FBC
:1027F000C4010E94D51202C00E94AF17FFEFCF1A8A
:10280000DF0AA8010E2C02C0559547950A94E2F7FD
:102810004170F5016081CE010E946212FFEFEF1A54
:10282000FF0A88E0E816F104D9F6CE01DF91CF91D6
:102830001F910F91FF90EF90DF90CF90BF90AF90DE
:102840009F908F900C947212B80184E075956795F3
:102850008A95E1F7CE010E94F7126F2DCE01DF912C
:10286000CF911F910F91FF90EF90DF90CF90BF908D
:10287000AF909F908F900C94F71241E00E94C91383
:1028800081E090E00895CF92DF92EF92FF920F9354
:102890001F93CF93DF93EC0188E60E943E1760E020
:1028A0008FEC95E00E944F020E94521767E070E0A3
:1028B00088E690E00E9448178FEC95E00E940302A2
:1028C0008F77982F92959F701AEF082F919F000D88
:1028D00011248FEC95E00E9403029C01332794E0C1
:1028E000359527959A95E1F7F82E129FF00C112453
:1028F0008FEC95E00E9403029C01332744E035955C
:1029000027954A95E1F7E82E129FE00C11248FECF1
:1029100095E00E9403028FEC95E00E9403029C0167
:10292000332754E0359527955A95E1F7D82E129F15
:10293000D00C11248FEC95E00E9403029C013327F8
:1029400064E0359527956A95E1F7C82E129FC00C73
:1029500011248FEC95E00E9403029C01332774E060
:10296000359527957A95E1F7129F800D112488837C
:10297000C982DA82EB82FC820D83CE01DF91CF9196
:102980001F910F91FF90EF90DF90CF900895EF92FD
:10299000FF920F931F93CF93DF93EC0139818881CE
:1029A000682F70E04A8150E0E1E6F2E091E09E1B82
:1029B000292F2E0F231728F42491420F511D3196F1
:1029C000F7CF333020F0837011F44F5F5F4F8DE607
:1029D00091E0689F9001699F300D789F300D112420
:1029E000215031096D5F7F4F769567957695679594
:1029F000260F371F240F351FA8E1B0E00E94252BBA
:102A00002B817B018C01E20EF11C011D111DA8011F
:102A10009701ACE3B0E00E94E32A2C817B018C019A
:102A2000E20EF11C011D111DA80197010E94E32A6D
:102A30002D81620F711D811D911DDF91CF911F911D
:102A40000F91FF90EF9008958F929F92AF92BF9257
:102A5000EF92FF920F931F93CF934B015C01C42F12
:102A60008091020190910301A0910401B0910501B0
:102A700088159905AA05BB0501F10E946A07811115
:102A800002C080E020C088E7E82E82E0F82E00E057
:102A900012E020E030E0B501A4018091780490912B
:102AA00079040E942D05882361F38092020190929F
:102AB0000301A0920401B092050180916A02C82B23
:102AC000C0936A0281E0CF911F910F91FF90EF9028
:102AD000BF90AF909F908F9008954F925F926F92AA
:102AE0007F928F929F92AF92BF92CF92DF92EF929E
:102AF000FF920F931F93CF93DF93EC016A017B0149
:102B000028013901423051056105710510F480E05A
:102B100073C089859A85AB85BC850196A11DB11DC1
:102B200084179507A607B70790F38B889C88AD8814
:102B3000BE888F89803129F4BB27AF2D9E2D8D2D26
:102B400009C0DB01CA0147E0B695A795979587951F
:102B50004A95D1F7880E991EAA1EBB1E80910201CC
:102B600090910301A0910401B09105018816990686
:102B7000AA06BB0679F48F898031A1F4DD24EE2406
:102B8000FF24C601880F991FFC01E858FD4F5182B0
:102B9000408219C040E0C501B4010E942415811192
:102BA000EACFB5CFE894C7F8DD24EE24FF24C601B0
:102BB000880F991F880F991FFC01E858FD4F40822C
:102BC00051826282738280916A02816080936A027C
:102BD0008A89823080F08D819E81AF81B885880E90
:102BE000991EAA1EBB1E80926B0290926C02A0924C
:102BF0006D02B0926E0281E0DF91CF911F910F9133
:102C0000FF90EF90DF90CF90BF90AF909F908F900C
:102C10007F906F905F904F9008958F929F92AF92A8
:102C2000BF92CF92DF92EF92FF920F931F93CF93B9
:102C3000DF93FC0181859285A385B4850196A11D52
:102C4000B11D84179507A607B70710F480E05CC094
:102C500083899489A589B689C789C03129F4852ECD
:102C6000962EA72EBB2409C04A015B01C7E0B6948B
:102C7000A79497948794CA95D1F7E9016A017B01DB
:102C80008F01BC01CD01680D791D8A1D9B1D8090AF
:102C9000020190900301A0900401B0900501681515
:102CA00079058A059B0599F4F80187898031A9F493
:102CB000B701A601552766277727440F551FFA014C
:102CC000E858FD4F80819181A0E0B0E018C040E05D
:102CD0000E9424158111E8CFB9CFB701A6014F7723
:102CE000552766277727440F551F440F551FFA01B4
:102CF000E858FD4F80819181A281B381BF708883A4
:102D00009983AA83BB8381E0DF91CF911F910F91BB
:102D1000FF90EF90DF90CF90BF90AF909F908F90FB
:102D200008954F925F926F927F92AF92BF92CF922F
:102D3000DF92EF92FF920F931F93CF93DF9300D018
:102D400000D0CDB7DEB78C0149835A836B837C8377
:102D50005901C12CD12C7601412C82E0582E612CD6
:102D6000712C49815A816B817C819E012F5F3F4F7D
:102D7000C8010E940D16882351F1D301C201F80148
:102D8000058404C0880F991FAA1FBB1F0A94D2F79D
:102D9000C80ED91EEA1EFB1E49815A816B817C81B7
:102DA0008789803129F088EF9FEFAFEFBFE004C043
:102DB00088EF9FEFA0E0B0E0481759076A077B074C
:102DC00080F2F501C082D182E282F38281E00F902D
:102DD0000F900F900F90DF91CF911F910F91FF9067
:102DE000EF90DF90CF90BF90AF907F906F905F900B
:102DF0004F9008959091E6049111FCCF91E090934B
:102E0000E6049093E5042FEF2093E4041092E3048A
:102E1000260F2093E2049093E1049091E104880F3F
:102E2000892B8093E1048091E004813061F4109259
:102E3000E0048091E1048093BB008091BC0083FD9D
:102E4000F8CF85EC01C085EE8093BC008091E6044C
:102E50008130E1F38091E304861710F46091E3047C
:102E6000A0ECB4E020EA34E0F9018E2F821B861733
:102E700018F48D918193F9CF862F089591E0909366
:102E80009F048093120610929E0410929D04089550
:102E9000613208F060E20E94FA1610929C0480935E
:102EA0009B04089520919D0490911206213208F010
:102EB0004AC08091E6048111FCCF32E03093E604F1
:102EC00031E03093E5043FEF3093E4041092E304E3
:102ED0002093E204ABE7B4E040EC54E0FA013E2F6B
:102EE000341B321718F43D913193F9CF1092E1045D
:102EF0002091E104990F922B9093E1049091E004CA
:102F0000913061F41092E0049091E1049093BB0041
:102F10009091BC0093FDF8CF95EC01C095EE909395
:102F2000BC009091E6049230E1F39091E4049F3F5D
:102F300079F08091E404803241F08091E4048033A0
:102F400031F084E005C081E003C082E001C083E08D
:102F500010929E0410929D0410929F04089590E098
:102F6000FC01E755FD4F2491FC01EB56FD4F849188
:102F7000882399F090E0880F991FFC01E557FD4FD9
:102F8000A591B491FC01EF57FD4F859194918FB7B6
:102F9000F894EC91E22BEC938FBF089540E0682FFA
:102FA0008BED95E00C94C913CF93DF93CDB7DEB7CB
:102FB00028970FB6F894DEBF0FBECDBF98E0ECE0C7
:102FC000F1E0DE01119601900D929A95E1F7909152
:102FD000F305961710F46FEF690FFE013196E60FB7
:102FE000F11DE60FF11D9081890F806828960FB6BC
:102FF000F894DEBF0FBECDBFDF91CF910C94CE17FA
:1030000081E00E94CE178BE39FE10197F1F70895CD
:10301000CF93DF93D82FC1E082FB442740F94C27A0
:1030200068E086EF95E00E941112D1FB442740F939
:103030004C2767E086EF95E00E9411124D2F4170FA
:103040004C2766E086EF95E0DF91CF910C9411124A
:10305000CF93DF93C82FD62F88E60E943E178C2F80
:1030600090E0BC01685F7F4F8FEC95E00E944F02BB
:103070006D2F8FEC95E00E944F02DF91CF910C9461
:1030800052170F931F93CF93DF93EC01462F50E01D
:1030900060E070E02AE00E9465108C0160EB71E056
:1030A000CE010E945010800F911FDF91CF911F9190
:1030B0000F910895462F50E060E070E02AE00C94F4
:1030C0006510CF93C82F88E60E943E176C2F70E0E2
:1030D000685F7F4F8FEC95E00E944F020E9452176D
:1030E00061E088E60E94FA1610929C0480939B048B
:1030F0008FEC95E00E940302CF9108952F923F92AA
:103100004F925F926F927F928F929F92AF92BF92F7
:10311000CF92DF92EF92FF920F931F93CF93DF93A3
:10312000CDB7DEB7C756D1090FB6F894DEBF0FBED4
:10313000CDBF5C014B01A6964FAFA6973E018EE135
:10314000680E711C60EB75E0C3010E94B10C1C821B
:103150001B8288E291E09A8389831E827401FE01BA
:1031600031966F0123011F016FE270E0C7010E94D9
:10317000C22A0097F1F1F70120812F3221F4FFEFED
:10318000EF1AFF0AF1CF8E198D3008F08CE0082F6E
:1031900010E0A801B701CE01885A9F4F0E94D42A9F
:1031A000E8E5F0E0EC0FFD1FE00FF11F1082C60113
:1031B0000E94030921E0AE01485A5F4FB201C601E7
:1031C0000E94170981110AC01EAE1DAE88E291E06F
:1031D0009CAF8BAF21961FAE219717C0E00EF11E5A
:1031E000C2010E940309942D852D2601C92ED82ED7
:1031F000BBCFC70188199909A8969FAF8EAFA89732
:10320000B201CE01CB960E94B10CA896EEADFFADF7
:10321000A8978E0E9F1EF4018081811109C0BE0106
:10322000655C7F4FC1010E94B10C45EC51E04BC081
:1032300019A218A288E291E09F8F8E8F1BA221967F
:103240008FAD2197811113C0F5011382128288EE90
:1032500093E0A0E0B0E084839583A683B78388E4FD
:1032600091E091838083128E118E148630C082503B
:10327000A6962FADA697A401823040F460EB75E0CE
:10328000C3010E94170981110DC0DECFBE01655C2C
:103290007F4FC3010E9417098823B1F2CE01CB965C
:1032A0000E940309A6968FADA697867039F049A9AA
:1032B0005AA96BA97CA9C3010E94CC03B301C10127
:1032C0000E94B10CA401B101C5010E94020DC5010B
:1032D000C959DF4F0FB6F894DEBF0FBECDBFDF91E7
:1032E000CF911F910F91FF90EF90DF90CF90BF9003
:1032F000AF909F908F907F906F905F904F903F9096
:103300002F9008950F931F93CF93DF93EC010E94AA
:10331000B611688779878A879B87CE010E94CB0682
:1033200097FF17C00E94B611088519852A853B852D
:10333000DC01CB01801B910BA20BB30B0C811D8117
:103340002E813F8180179107A207B30730F38FEFDB
:103350009FEFDF91CF911F910F9108958F929F92D0
:10336000AF92BF92CF92DF92EF92FF92CF93DF9313
:10337000C82F86E895E09093790480937804CC2355
:1033800069F1C53010F080E00DC140E060E070E010
:10339000CB010E9424158823B1F320E1C29FC00114
:1033A000112488599D4FFC01E254FE4F20812F7754
:1033B00051F73C96408151816281738144365105B9
:1033C0006105710500F33497C080D180E280F380FD
:1033D000C114D104E104F10421F4D5CFC12CD12CC6
:1033E000760140E0C701B6010E942415882359F2F6
:1033F00080918302909184028115924021F6A091E0
:103400008802AA2309F4BFCF6091860270918702D7
:103410006115710509F4B7CF20918502222309F4C3
:10342000B2CFA093A4052093960580E030E0E1E0C0
:10343000F0E0C82FAF01082E02C0440F551F0A94B8
:10344000E2F72417350741F0982F8F5F983089F7FE
:1034500089E080939F0597CF80939F0520918E02EE
:1034600030918F022115310519F040E050E008C07D
:1034700020919C0230919D0240919E0250919F02AA
:1034800020939705309398054093990550939A059A
:1034900046015701860E971EA11CB11C8092A505FE
:1034A0009092A605A092A705B092A805E091890286
:1034B000F0918A02F093AB05E093AA05B0E00E9478
:1034C000E32A860E971EA81EB91E8092AC05909224
:1034D000AD05A092AE05B092AF0585E0EE0FFF1FDF
:1034E0008A95E1F7E150FE4FEF2FFF27E6958E0E0C
:1034F0009F1EA11CB11C8092A0059092A105A092D4
:10350000A205B092A30520918B0230918C02211567
:10351000310521F0A90160E070E008C040919802F7
:103520005091990260919A0270919B02D701C60155
:1035300088199909AA09BB09840F951FA61FB71FEF
:1035400004C0B695A79597958795CA95D2F78093AD
:103550009B0590939C05A0939D05B0939E05853F88
:103560002FE09207A105B10510F48CE018C0853F4B
:103570009F4FA105B10510F480E111C08091A40214
:103580009091A502A091A602B091A7028093AC05EC
:103590009093AD05A093AE05B093AF0580E2809304
:1035A000A90581E0DF91CF91FF90EF90DF90CF9060
:1035B000BF90AF909F908F90089510929C041092AE
:1035C0009B0410929E0410929D041092E60481E0E8
:1035D0008093E5041092E00461E082E10E943011E2
:1035E00061E083E10E943011E9EBF0E080818E7FA1
:1035F000808380818D7F808388E48093B80085E418
:103600008093BC000895CF92DF92EF92FF92CF9308
:10361000DF936C01990FEE08FF08F7FE1BC06DE207
:103620008BED95E00E942510EC0144275527BA0147
:103630004C195D096E097F092AE08BED95E00E9427
:1036400065108C0F9D1FDF91CF91FF90EF90DF9061
:10365000CF9008952AE0B701A6018BED95E0DF91A8
:10366000CF91FF90EF90DF90CF900C946510CF93A7
:10367000DF93CDB7DEB7CF58D1090FB6F894DEBFD0
:103680000FBECDBF789484B5826084BD84B581605F
:1036900084BD85B5826085BD85B5816085BD80911D
:1036A0006E00816080936E00109281008091810095
:1036B000826080938100809181008160809381008D
:1036C000809180008160809380008091B10084604F
:1036D0008093B1008091B00081608093B0008091B0
:1036E0007A00846080937A0080917A00826080936F
:1036F0007A0080917A00816080937A0080917A00CC
:10370000806880937A001092C100E091F704F091F4
:10371000F80482E08083E091F304F091F4041082D5
:10372000E091F504F091F6048FEC80831092FF0491
:10373000E091FB04F091FC0486E08083E091F904C1
:10374000F091FA04808180618083E091F904F09126
:10375000FA04808188608083E091F904F091FA0492
:10376000808180688083E091F904F091FA0480817F
:103770008F7D80830E94DD1A0E94DD1A8091F505FD
:103780008F3F39F58091EF0588608093EF0582E0E7
:103790008093F3051092F4058BE39DE00197F1F718
:1037A00040E06091DF058BED95E00E94621240E001
:1037B0006091E1058BED95E00E9462126091E00559
:1037C0006F3F09F4B2C040E08BED95E00E946212B9
:1037D000ACC00E94DD1A1092F6050E94DD1A80919D
:1037E000F60580620E943E1780E00E940C128FEF67
:1037F0000E940C120E9452178091F60580620E946E
:103800003E1781E00E940C128FEF0E940C120E9462
:10381000521741E068E086EF95E00E948A1241E08D
:1038200066E086EF95E00E948A1241E067E086EF4D
:1038300095E00E948A1287E00E9408186091E005D6
:10384000662329F041E086EF95E00E94D51241E021
:103850006091DF0586EF95E00E94D51241E060910E
:10386000E10586EF95E00E94D51202EE15E024E016
:10387000F22EF00EF80161918F0141E086EF95E0A4
:103880000E94D512F012F6CF0AEE15E095E0E92E6F
:10389000E00E40E0F801608186EF95E00E94D512CD
:1038A000F80121918F012031E8F5283020F02850CF
:1038B0008DE0F82E02C0BCE0FB2E8091F605806200
:1038C000C157DF4F2883CF58D0400E943E178F2D1D
:1038D0000E940C120E9452178091F605806261E0EE
:1038E00070E090E00E9448178FEC95E00E94030280
:1038F000D82E8091F60580620E943E178F2D0E947F
:103900000C1241E050E0C157DF4F2881CF58D04022
:10391000CA0101C0880F2A95EAF78D290E940C126E
:103920000E945217E012B5CF2DCF8091EF0584FD94
:1039300021C063E08BED95E00E94F7120BE416E4E2
:10394000C8010197F1F763E08BED95E00E94F71253
:10395000C8010197F1F763E08BED95E00E94F71243
:1039600083E592E00197F1F762E08BED95E00E942C
:10397000F71215C080620E94CE178BE496E401977F
:10398000F1F78091EF0580620E94CE1783E592E007
:103990000197F1F78091EF0580620E94CE17809128
:1039A000EF0580620E94CE1784E08093F0058CE0E2
:1039B0000E94CE170E94001882E08093F10586E0F5
:1039C0000E94CE170E940018809101010E940818E1
:1039D00060E082E00E94D4176EE571E08BED95E027
:1039E0000E942C1061E087E00E94D41766E571E028
:1039F0008BED95E00E942C106FE371E087EE94E070
:103A00000E94C21068E271E087EE94E00E94C2104A
:103A100061E171E087EE94E00E94C21088E60E94A6
:103A20003E1760E08FEC95E00E944F020E94521713
:103A300061E070E088E690E00E9448178FEC95E026
:103A40000E94030287FF03C08CE691E08DC168EFFE
:103A500070E087EE94E00E942C108AE00E94AF177D
:103A60001092910510928F0510928C0510928B0583
:103A70008AE080938A050E94B6118B0180918A05A5
:103A80000E94AF1761E080918A050E943011FFB655
:103A9000F89480911502811124C0EFE9F2E084913D
:103AA000E3EBF2E09491E82FF0E0EE0FFF1FE55713
:103AB000FD4FA591B491EC91E92321F461E08AE0F6
:103AC0000E9430118AE00E94AF178CB580618CBDD6
:103AD0008CB580648CBD8DE00E94AF178BE00E9496
:103AE000AF17809115028F5F80931502FFBE82E5AC
:103AF00080938405109285058091840590918505B9
:103B00000E94B204FAE0FF2E8FEF0E947304FA9431
:103B1000F110FACF86E895E00E94B50420E030E08D
:103B2000A90160E086E895E00E94CB04F82E80931E
:103B3000900521E0821749F00E94B611601B710BBD
:103B4000613D774058F381E056C02AEA31E040E019
:103B500050E068E086E895E00E94CB0482FF03C055
:103B6000F092910510C0E4E0FE2E0E947A0480934A
:103B70009005FA94F110F9CF8A3A11F082E03BC037
:103B800082E08093910580919105823021F0C12CD3
:103B9000D12C760105C0C12CD12CE12C70E4F72E7C
:103BA00020E030E0A90167E386E895E00E94CB04BD
:103BB000A701960169E286E895E00E94CB04809314
:103BC0009005882349F00E94B611601B710B613D7E
:103BD000774030F388E00FC080919105823001F585
:103BE00020E030E0A9016AE386E895E00E94CB047A
:103BF000882341F086E080938B0586E895E00E945B
:103C00006804B0C00E947A04807C803C19F483E090
:103C1000809391050E947A040E947A040E947A049B
:103C200086E895E00E94680480E580938405109200
:103C3000850581E00E94AE19882329F08091B505A1
:103C4000882341F08FC080E00E94AE19882309F4D8
:103C500089C0F4CF8091A905803109F582E0809375
:103C6000B5051092C7051092C8051092C9051092AB
:103C7000CA058091AA059091AB05A0E0B0E065E08F
:103C8000880F991FAA1FBB1F6A95D1F78093C305A0
:103C90009093C405A093C505B093C6051FC080329C
:103CA00009F060C083E08093B5054091AC05509168
:103CB000AD056091AE057091AF054093C705509377
:103CC000C8056093C9057093CA0523EC35E082E905
:103CD00095E00E949116882309F444C082E995E09A
:103CE0009093CC058093CB0581E08093B40510922E
:103CF000B6051092B7051092B8051092B90510924A
:103D0000BA051092BB051092BC051092BD05109229
:103D1000BE051092BF051092C0051092C105109209
:103D2000C2056CED75E080E090E00E947C1162EFCE
:103D300070E087EE94E00E94C21041E068E771E015
:103D4000CE01885A9F4F0E947E1864ED70E087EE86
:103D500094E00E942C10E396EEADFFADE397309710
:103D600029F495C085E891E00E94C62785818823C3
:103D700009F48DC046EDE42E41E0F42E56E0D52E38
:103D8000CE01885A9F4F0E948A01892B09F466C090
:103D90001A8219821C821B821E821D8260E070E0E2
:103DA000CE0101960E94FE0F29813A8181110DC03A
:103DB0002115310519F0C9010E9445291A8219827D
:103DC0001E821D821C821B8225C01E821D8262EB08
:103DD00071E0C9010E94CD2A1DC08A30910509F108
:103DE0008E8F1F8E0D811E810F5F1F4FB801CE0178
:103DF00001960E94FE0F882369F029813A818D8106
:103E00009E81BE01625E7F4F820F931F0E94CD2A6A
:103E10001E830D83CE01885A9F4F0E94821997FFFF
:103E2000DCCFE114F104B1F00D811E810115110503
:103E300011F4F7010EC00830110510F008E010E091
:103E400069817A81A801C7010E94D42AF701E00F95
:103E5000F11F108289819A810E944529DA94F9E044
:103E6000EF0EF11CD1108CCFE3968EAD9FADE39792
:103E7000009701F10E940309E3968EAD9FADE39791
:103E80000E944529E3961FAE1EAEE39713C036EDA0
:103E9000E32E31E0F32E11E365E971E0C7010E94E2
:103EA000CD2AF7011783F9E0EF0EF11C1F5F1733DE
:103EB00099F7DACF6CED75E080E090E00E947C111C
:103EC0006EEC70E087EE94E00E94C21046ED51E087
:103ED00026E030E280E090E0FA01E80FF91F60810F
:103EE0006D3009F43083019688309105A9F721508F
:103EF000475F5F4F2111EECF81E893E09093D501AA
:103F00008093D4018DE0E7ECF1E0DE01A058BF4FD3
:103F100001900D928A95E1F7BB24B3949AE0892E23
:103F200028E2E22E21E0F22E6E012BE3C20ED11C1C
:103F30008B2D682D0E946828805DCA57DF4F8883CB
:103F4000C658D040905DC957DF4F9883C758D040BE
:103F50001EAE1DAEFCAEEBAE21961FAE219719A290
:103F600018A2FF8EEE8E1BA2712C612CAC2C9D2C06
:103F700000EB15E0272D362DE0E8F0E0EC0FFD1FFB
:103F8000E20FF31F80818F3211F42F5F3F4FFE014C
:103F9000ED58FF4F40E050E0A0E8B0E0AC0FBD1F8F
:103FA000A20FB31F8C918F3251F0882341F04F5FE5
:103FB0005F4F2F5F3F4F81934C30510569F7E3E727
:103FC000F0E0EC0FFD1FE40FF51F1082E0E8F0E0D9
:103FD000EC0FFD1FE20FF31F80818F3211F42F5F72
:103FE0003F4F722E632EE0E8F0E0EC0FFD1FE20F72
:103FF000F31F50801C821B82FA82E9821E8221E01C
:10400000AE014D585F4FB801CE0101960E941709CD
:10401000882339F0CE0101960E940309511009C08E
:1040200023C035E0003B130741F1C8010E9403099A
:1040300024C021E0AE014D585F4FB8018A2D992D63
:104040000E941709582E45E0003B140709F497C752
:10405000C8010E940309552081F0902F812F0A2D5D
:10406000192DA92E982E86CF55E0003B150709F48F
:1040700059C0C8010E94030955C06FEB70E087EE7C
:1040800094E00E942C10BE0160587F4F87EE94E0B0
:104090000E94D6106AEB70E087EE94E00E942C102C
:1040A00043E1BE0160587F4FCE0101960E947E1809
:1040B0008B819C819093FA058093F9058D819E8177
:1040C000AF81B8858093FB059093FC05A093FD0517
:1040D000B093FE0589859A85AB85BC858093FF05E5
:1040E00090930006A0930106B09302068DE0FE01B6
:1040F0003D96A3E0B6E001900D928A95E1F78A8D96
:104100009B8D90931106809310066CED75E080E016
:1041100090E00E947C1164EB70E087EE94E00E94D6
:10412000C21004C0B39484E6B81202CFE091100626
:10413000F0911106309719F08581811103C08DE946
:1041400091E012CECE0101960E94431463EA70E022
:1041500087EE94E00E94C2106CE970E087EE94E074
:104160000E942C108A818A3030F46EEA71E087EE6A
:1041700094E00E94D6106A8187EE94E00E945A185B
:104180006FE287EE94E00E9425108B818A3030F434
:104190006EEA71E087EE94E00E94D6106B8187EEA4
:1041A00094E00E945A186FE287EE94E00E94251076
:1041B000498150E04053584F052E000C660B770B99
:1041C0002AE087EE94E00E94651060EB71E087EED4
:1041D00094E00E9450106BE870E087EE94E00E943B
:1041E000C21061E770E087EF95E00E942C1082E03A
:1041F0000E9461188F3F31F087E00E9461188F3F65
:1042000009F045C668E670E087EF95E00E94C210AD
:104210006CED75E080E090E00E947C110E94001837
:1042200080E00E946118182F8093010181E00E94B4
:104230006118809300011F3F41F48F3F31F487E004
:104240008093010181E080930001809101010E942F
:10425000081889E00E94611880931A02823010F0D9
:1042600010921A0284E6282E312CE12CF12C1FE149
:104270000E2DF701E552FA4F27852031C0F5283081
:1042800018F0285093E101C092E18091F605806218
:10429000C157DF4F2883CF58D040C257DF4F988394
:1042A000CE58D0400E943E17C257DF4F9881CE585B
:1042B000D040892F0E940C120E9452178091F6055F
:1042C000806261E070E090E00E9448178FEC95E01A
:1042D0000E9403029927C157DF4F2881CF58D04051
:1042E00002C0959587952A95E2F7817001C080E01C
:1042F00090E002C0880F991F0A95E2F7809590958B
:1043000018239FEFE91AF90AE5E0EE16F10409F027
:10431000AFCF8091200281113EC013FF1DC080915C
:104320000101873078F0F7E0F093010181E080939C
:10433000000167E080E00E94281861E081E00E94AF
:1043400028180AC08F5F809301018091000181507D
:10435000809300010E94AF0E12FF1DC080910101E9
:10436000833078F422E02093010136E0309300019D
:1043700062E080E00E94281866E081E00E94281830
:104380000AC0815080930101809100018F5F80936A
:1043900000010E94AF0E10FFF0C1F0900001FA94EE
:1043A000C357DF4FF882CD58D040CE0101960E940E
:1043B00043148A818A3030F46EEA71E087EF95E029
:1043C0000E94D6106A8187EF95E00E945A186FE22A
:1043D00087EF95E00E9425108B818A3030F46EEAD9
:1043E00071E087EF95E00E94D6106B8187EF95E032
:1043F0000E945A186FE287EF95E00E9425104981CC
:1044000050E04053584F052E000C660B770B2AE006
:1044100087EF95E00E94651065EB71E087EF95E00E
:104420000E94D6108C818A3030F46EEA71E087EFFA
:1044300095E00E94D6106C8187EF95E00E945A1893
:104440006AE387EF95E00E9425108D818A3030F471
:104450006EEA71E087EF95E00E94D6106D8187EFDC
:1044600095E00E945A186AE387EF95E00E942510B4
:104470008E818A3030F46EEA71E087EF95E00E9419
:10448000D6106E8187EF95E00E9441180E940018B7
:1044900060E081E00E94D41763E272E08BED95E06A
:1044A0000E942C1061E082E00E94D41766E172E065
:1044B0008BED95E00E942C109091200281E0891BE9
:1044C00080932002813009F04CC080911F0281113D
:1044D00048C0CE0101960E94C71460931B027093DE
:1044E0001C0280931D0290931E026CED75E080E02B
:1044F00090E00E947C1181E00E9408180E94001840
:1045000060E083E00E94D41760E172E08BED95E0FB
:104510000E942C1061E085E00E94D41767E072E0F1
:104520008BED95E00E942C10C357DF4F5881CD587A
:10453000D04049E0549FB00111246A527E4F87EE6B
:1045400094E00E94AE106EEF71E087EE94E00E945E
:10455000C2106EEE71E087EE94E00E942C100E9473
:10456000650E809120028111FEC080911F02813072
:1045700009F0F9C0CE0101960E94C714C0901B0239
:10458000D0901C02E0901D02F0901E029B01AC0135
:104590002C193D094E095F0969017A01CA01B90167
:1045A0002CE330E040E050E00E9488284B015C01A1
:1045B000CA01B9012CE330E040E050E00E948828B5
:1045C0002B013C01C701B60120E13EE040E050E094
:1045D0000E948828022FE22EC357DF4F4881CD5812
:1045E000D04039E0439FB00111246A527E4F87EFDB
:1045F00095E00E94D61065EB71E087EF95E00E9490
:10460000D61059E0501730F06EEA71E087EF95E070
:104610000E94D610602F87EF95E00E945A1863EB36
:1046200071E087EF95E00E94D6108AE048165104A9
:104630006104710430F46EEA71E087EF95E00E9446
:10464000D610642D87EF95E00E945A1863EB71E055
:1046500087EF95E00E94D6109AE089169104A10494
:10466000B10430F46EEA71E087EF95E00E94D61055
:10467000682D87EF95E00E9441186CED75E080E0B1
:1046800090E00E947C11809101010E9408180E9414
:10469000001860E083E00E94D41768EE71E08BEDB3
:1046A00095E00E942C1061E085E00E94D4176FED28
:1046B00071E08BED95E00E942C106FEC71E087EEBD
:1046C00094E00E942C100E94650E6DEC71E087EE64
:1046D00094E00E94C2106DEB71E087EE94E00E94BE
:1046E0002C10E9E0EE1530F06EEA71E087EE94E010
:1046F0000E94D610602F87EE94E00E945A1863EB58
:1047000071E087EE94E00E94D610FAE04F16510453
:104710006104710430F46EEA71E087EE94E00E9467
:10472000D610642D87EE94E00E945A1863EB71E076
:1047300087EE94E00E94D6102AE082169104A1042C
:10474000B10430F46EEA71E087EE94E00E94D61076
:10475000682D87EE94E00E94411867EB71E087EEC8
:1047600094E00E94AE108091200280931F026CEDB5
:1047700075E080E090E00E947C1114FD0E94AF0E75
:1047800080912002813009F09DC011FF9BC00E94E2
:10479000001809E1CE0101960E94431460E080E018
:1047A0000E94D41764EB71E08BED95E00E942C1011
:1047B000CE0101960E94C714C0901B02D0901C022B
:1047C000E0901D02F0901E029B01AC012C193D09E6
:1047D0004E095F0969017A01CA01B9012CE330E091
:1047E00040E050E00E9488284B015C01CA01B901F9
:1047F0002CE330E040E050E00E9488282B013C018F
:10480000C701B60120E13EE040E050E00E94882868
:104810002A3080F46EEA71E08BED95E0C157DF4FEE
:104820002883CF58D0400E94D610C157DF4F28812F
:10483000CF58D040622F8BED95E00E945A1863EB61
:1048400071E08BED95E00E94D6103AE043165104DA
:104850006104710430F46EEA71E08BED95E00E9422
:10486000D610642D8BED95E00E945A1863EB71E031
:104870008BED95E00E94D6104AE084169104A104C5
:10488000B10430F46EEA71E08BED95E00E94D61031
:10489000682D8BED95E00E945A1861E081E00E943E
:1048A000D41764EA71E08BED95E00E942C1065E06E
:1048B00070E080E090E00E947C11015009F06ACF26
:1048C0000E94001880912002813009F03EC1CE0183
:1048D00001960E944314CE0101960E94C714809055
:1048E0001B0290901C02A0901D02B0901E02DC01E1
:1048F000CB0188199909AA09BB0980349E47A540B4
:10490000B10508F422C1CE0101960E94C7146B01C3
:104910007C01C818D908EA08FB08C701B6012CE3D6
:1049200030E040E050E00E9488284B015C01CA0161
:10493000B9012CE330E040E050E00E9488282B01D0
:104940003C01C701B60120E13EE040E050E00E949A
:104950008828022FD22E8A818A3030F46EEA71E0E4
:1049600087EF95E00E94D6106A8187EF95E00E945C
:104970005A186FE287EF95E00E9425108B818A30EC
:1049800030F46EEA71E087EF95E00E94D6106B81FB
:1049900087EF95E00E945A186FE287EF95E00E943A
:1049A0002510498150E04053584F052E000C660BEE
:1049B000770B2AE087EF95E00E94651065EB71E0C8
:1049C00087EF95E00E94D6108C818A3030F46EEA31
:1049D00071E087EF95E00E94D6106C8187EF95E03B
:1049E0000E945A186AE387EF95E00E9425108D8196
:1049F0008A3030F46EEA71E087EF95E00E94D610BD
:104A00006D8187EF95E00E945A186AE387EF95E081
:104A10000E9425108E818A3030F46EEA71E087EFB3
:104A200095E00E94D6106E8187EF95E00E945A189B
:104A300065EB71E087EF95E00E94D610E0900001F1
:104A4000EA94E9E0EE9EC00111249C012A523E4FF7
:104A50007901B90187EF95E00E94AE106EE971E02F
:104A600087EF95E00E942C1065EB71E087EF95E0F1
:104A70000E94D61065E971E087EF95E00E942C1046
:104A800065EB71E087EF95E00E94D61039E03D15A7
:104A900030F06EEA71E087EF95E00E94D610602F4B
:104AA00087EF95E00E945A1863EB71E087EF95E07D
:104AB0000E94D6104AE0441651046104710430F497
:104AC0006EEA71E087EF95E00E94D610642D87EFC3
:104AD00095E00E945A1863EB71E087EF95E00E9421
:104AE000D6105AE085169104A104B10430F46EEAA0
:104AF00071E087EF95E00E94D610682D87EF95E072
:104B00000E944118809101010E9408180E9400181B
:104B100060E082E00E94D41768E871E08BED95E0D8
:104B20000E942C1061E084E00E94D417B7018BED45
:104B300095E00E94D6106CED75E080E090E00E9458
:104B40007C111092200210921F028091200281118C
:104B50000EC011FF0CC090911A0281E0891B809356
:104B60001A0264E670E080E090E00E947C1180917F
:104B70001A02813009F088C0CE0101960E944314C8
:104B800060E080E00E94D41762E871E08BED95E070
:104B90000E942C108A818A3030F46EEA71E08BED2D
:104BA00095E00E94D6106A818BED95E00E945A181C
:104BB0006FE28BED95E00E9425108B818A3030F4F6
:104BC0006EEA71E08BED95E00E94D6106B818BED63
:104BD00095E00E945A186FE28BED95E00E94251037
:104BE000498150E04053584F052E000C660B770B5F
:104BF0002AE08BED95E00E94651061E080E00E9464
:104C0000D4176CE771E08BED95E00E942C108C813D
:104C10008A3030F46EEA71E08BED95E00E94D61098
:104C20006C818BED95E00E945A1863EB71E08BED7F
:104C300095E00E94D6108D818A3030F46EEA71E0E2
:104C40008BED95E00E94D6106D818BED95E00E9472
:104C50005A1863EB71E08BED95E00E94D6108E81BF
:104C60008A3030F46EEA71E08BED95E00E94D61048
:104C70006E818BED95E00E945A1861EC71E08BED2E
:104C800095E00E94D610A0C0CE0101960E94431468
:104C900060E080E00E94D41766E771E08BED95E05C
:104CA0000E942C108A818A3030F46EEA71E08BED1C
:104CB00095E00E94D6106A818BED95E00E945A180B
:104CC0006FE28BED95E00E9425108B818A3030F4E5
:104CD0006EEA71E08BED95E00E94D6106B818BED52
:104CE00095E00E945A186FE28BED95E00E94251026
:104CF000498150E04053584F052E000C660B770B4E
:104D00002AE08BED95E00E94651061E080E00E9452
:104D1000D41760E771E08BED95E00E942C106C8158
:104D20006D3060F0663130F46EEA71E08BED95E045
:104D30000E94D6108C8190E00C9704C0611105C0D0
:104D40008CE090E00E94031B0DC06A3038F46EEADC
:104D500071E08BED95E00E94D6106C818BED95E0B3
:104D60000E945A186AE38BED95E00E9425108D8110
:104D70008A3030F46EEA71E08BED95E00E94D61037
:104D80006D818BED95E00E945A186AE38BED95E0FA
:104D90000E9425108E818A3030F46EEA71E08BED2E
:104DA00095E00E94D6106E818BED95E00E945A1816
:104DB0008C818C3018F06CE671E002C068E671E01E
:104DC0008BED95E00E942C100E94B6110091160206
:104DD000109117022091180230911902DC01CB01C9
:104DE000801B910BA20BB30B88389341A105B10531
:104DF00008F44AC00E94B61160931602709317021D
:104E0000809318029093190287EF95E00E940F0992
:104E1000CE0101960E9443146A8182E00E94281804
:104E20006B8183E00E942818498150E04053584F1D
:104E3000CA01B1010E94742884E0C257DF4F488341
:104E4000CE58D040C157DF4F5883CF58D0400E9432
:104E50002818C257DF4F4881CE58D04060E3640F16
:104E600085E00E9428186C8186E00E9428186D81D8
:104E700087E00E9428186E8188E00E9428186091BF
:104E80001A0289E00E9428180E94CD0FEEC982E024
:104E90000E946118682F87EF95E00E945A1865EC10
:104EA00071E087EF95E00E94D61083E00E946118C0
:104EB000682F87EF95E00E945A1865EC71E087EF44
:104EC00095E00E94D61084E00E946118682F87EF59
:104ED00095E00E945A1885E00E946118682F87EFBC
:104EE00095E00E945A186DE670E087EF95E00E9409
:104EF0002C1086E00E9461188A3030F46EEA71E06E
:104F000087EF95E00E94D61086E00E946118682F16
:104F100087EF95E00E945A1863EB71E087EF95E008
:104F20000E94D61087E00E9461188A3030F46EEA41
:104F300071E087EF95E00E94D61087E00E9461182B
:104F4000682F87EF95E00E945A1863EB71E087EFB6
:104F500095E00E94D61088E00E9461188A3030F4F3
:104F60006EEA71E087EF95E00E94D61088E00E941B
:104F70006118682F87EF95E00E94411849C988237E
:104F800009F47BC88E01025E1F4F67C8EC010E94C6
:104F900000186AE372E08BED95E00E942C1061E04E
:104FA00080E00E94D417BE018BED95E00E94D610E0
:104FB00062E372E087EE94E00E942C10BE0187EE5F
:104FC00094E00E94AE10FFCFE7EEF4E0138212826D
:104FD00088EE93E0A0E0B0E084839583A683B78356
:104FE00028E131E03183208325EC30E035872487C8
:104FF00024EC30E03787268720EC30E0318B208BA3
:1050000021EC30E0338B228B22EC30E0358B248B8B
:1050100026EC30E0378B268B118E128E138E148E79
:10502000E4E8F5E020E520831182E6E8F5E015826A
:1050300016821186138642E050E060E070E04487FB
:1050400055876687778713A215A614A628E231E054
:1050500033A722A717A6EFECF5E013821282848310
:105060009583A683B78320E331E031832083E7EF84
:10507000F5E01382128284839583A683B78388E444
:1050800091E091838083128E118E1486EBEDF5E012
:105090001382128280E491E091838083128E148ABD
:1050A0008FE084838EE085838DE086838CE0878328
:1050B0008BE080878AE0818789E08287178681E09C
:1050C000808B82E0818B83E0828B84E0838B0895E8
:1050D000991B79E004C0991F961708F0961B881F4A
:1050E0007A95C9F780950895AA1BBB1B51E107C0AB
:1050F000AA1FBB1FA617B70710F0A61BB70B881F68
:10510000991F5A95A9F780959095BC01CD010895F6
:10511000A1E21A2EAA1BBB1BFD010DC0AA1FBB1FBB
:10512000EE1FFF1FA217B307E407F50720F0A21B2D
:10513000B30BE40BF50B661F771F881F991F1A949A
:1051400069F760957095809590959B01AC01BD01C4
:10515000CF010895EE0FFF1F0590F491E02D099403
:10516000CF93DF938230910510F482E090E0E091DC
:105170001506F091160620E030E0C0E0D0E0309750
:1051800011F14081518148175907C0F0481759075C
:1051900061F482819381209719F09B838A832BC0CD
:1051A000909316068093150626C02115310519F037
:1051B0004217530718F49A01BE01DF01EF01028084
:1051C000F381E02DDCCF2115310509F1281B390BC6
:1051D0002430310590F412968D919C9113976115AE
:1051E000710521F0FB019383828304C0909316061E
:1051F00080931506FD01329644C0FD01E20FF31FB6
:1052000081939193225031092D933C933AC0209180
:10521000130630911406232B41F42091080130919C
:105220000901309314062093130620910601309152
:1052300007012115310541F42DB73EB740910A0110
:1052400050910B01241B350BE0911306F0911406CD
:10525000E217F307A0F42E1B3F0B2817390778F04D
:10526000AC014E5F5F4F2417350748F04E0F5F1FAC
:1052700050931406409313068193919302C0E0E08B
:10528000F0E0CF01DF91CF9108950F931F93CF935B
:10529000DF93009709F48CC0FC01329713821282CD
:1052A00000911506109116060115110581F4208153
:1052B0003181820F931F2091130630911406281715
:1052C000390779F5F0931406E093130671C0D801FD
:1052D00040E050E0AE17BF0750F412962D913C917C
:1052E0001397AD012115310509F1D901F3CF9D01C6
:1052F000DA013383228360817181860F971F8217C1
:10530000930769F4EC0128813981260F371F2E5F3E
:105310003F4F318320838A819B8193838283452BF6
:1053200029F4F0931606E093150642C01396FC93F9
:10533000EE931297ED01499159919E01240F351F6B
:10534000E217F30771F480819181840F951F029613
:1053500011969C938E938281938113969C938E9346
:105360001297E0E0F0E0D80112968D919C9113978E
:10537000009719F0F8018C01F6CF8D919C9198015E
:105380002E5F3F4F820F931F20911306309114061A
:105390002817390769F4309729F4109216061092ED
:1053A000150602C01382128210931406009313068E
:1053B000DF91CF911F910F910895A0E0B0E0E3EE4F
:1053C000F9E20C94F22AEC01009721F4CB010E943F
:1053D000B028B8C0FC01E60FF71F9C01225031092C
:1053E000E217F30708F4ACC0D9010D911C91119795
:1053F00006171707B0F00530110508F49FC0C80163
:1054000004978617970708F499C002501109061BE4
:10541000170B019311936D937C93CF010E94452943
:105420008DC05B01A01AB10A4C01800E911EA091A3
:105430001506B091160640E050E0E12CF12C1097D3
:1054400009F44AC0A815B905D1F56D907C90119763
:10545000630182E0C80ED11CCA14DB0480F1A301F1
:105460004A195B096A0182E0C80ED11C1296BC90F1
:1054700012971396AC91B5E0CB16D10440F0B282EE
:10548000A38351834083D9016D937C930AC00E5F3F
:105490001F4FC301800F911FF90191838083EB2D72
:1054A000FA2FE114F10431F0D7011396FC93EE9337
:1054B000129744C0F0931606E09315063FC08D91F5
:1054C0009C9111974817590708F4AC017D01129679
:1054D0000D90BC91A02DB3CF80911306909114062E
:1054E00088159905E1F446175707C8F4809106011D
:1054F00090910701009741F48DB79EB740910A0142
:1055000050910B01841B950BE817F907C8F4F09331
:105510001406E0931306F901718360830FC0CB0179
:105520000E94B0287C01009759F0A801BE010E949A
:10553000B92ACE010E944529C70104C0CE0102C08C
:1055400080E090E0CDB7DEB7EEE00C940E2B81E06A
:1055500090E0F8940C94342BFB01DC0104C08D9195
:105560000190801921F441505040C8F7881B990BD5
:105570000895FB01DC0102C001900D9241505040A2
:10558000D8F70895FC018191861721F08823D9F777
:10559000992708953197CF010895FB01DC0101900F
:1055A0000D920020E1F70895FB01DC0141505040CD
:1055B00048F001900D920020C9F701C01D924150A2
:1055C0005040E0F708950E94252BA59F900DB49FB1
:1055D000900DA49F800D911D112408952F923F924C
:1055E0004F925F926F927F928F929F92AF92BF92F3
:1055F000CF92DF92EF92FF920F931F93CF93DF939F
:10560000CDB7DEB7CA1BDB0B0FB6F894DEBF0FBEFB
:10561000CDBF09942A88398848885F846E847D8448
:105620008C849B84AA84B984C884DF80EE80FD804A
:105630000C811B81AA81B981CE0FD11D0FB6F894C0
:10564000DEBF0FBECDBFED010895A29FB001B39F95
:10565000C001A39F700D811D1124911DB29F700D7B
:0C566000811D1124911D0895F894FFCFC6
:10566C000107FFFFFFFF000017068000000040004D
:10567C001400540000000000640FE00E2D0F0B0FFF
:10568C001F0FAB0F00000000840CE00E00000000A8
:10569C004F021F0217020302F401F3010000000085
:1056AC003D14E00E00000000AB01950C8A01CB0606
:1056BC00D5060F0900000000FC0FE00EFC0FFC0FDC
:1056CC00FC0FFC0F00000000FC0FE00E52544320B6
:1056DC004E6F74205365740070726F6A65637473D7
:1056EC002E747874004361726420526561642045A5
:1056FC0072726F720050726F6A6563740046696CE7
:10570C0065205772697465204572726F72003000A3
:10571C000D0A003A002C002D2D2D2D2D2D2D2D2B6D
:10572C0000204852002F005245434F524430302E37
:04573C00435356007D
:00000001FF
